{
    "contractName": "PXLProperty",
    "abi": [
        {
            "constant": false,
            "inputs": [
                {
                    "name": "_spender",
                    "type": "address"
                },
                {
                    "name": "_value",
                    "type": "uint256"
                }
            ],
            "name": "approve",
            "outputs": [
                {
                    "name": "success",
                    "type": "bool"
                }
            ],
            "payable": false,
            "stateMutability": "nonpayable",
            "type": "function"
        },
        {
            "constant": false,
            "inputs": [
                {
                    "name": "burner",
                    "type": "address"
                },
                {
                    "name": "toBurn",
                    "type": "uint256"
                },
                {
                    "name": "rewarder1",
                    "type": "address"
                },
                {
                    "name": "toReward1",
                    "type": "uint256"
                },
                {
                    "name": "rewarder2",
                    "type": "address"
                },
                {
                    "name": "toReward2",
                    "type": "uint256"
                }
            ],
            "name": "burnPXLRewardPXLx2",
            "outputs": [],
            "payable": false,
            "stateMutability": "nonpayable",
            "type": "function"
        },
        {
            "constant": false,
            "inputs": [
                {
                    "name": "propertyID",
                    "type": "uint16"
                },
                {
                    "name": "lastUpdater",
                    "type": "address"
                },
                {
                    "name": "lastUpdate",
                    "type": "uint256"
                }
            ],
            "name": "setPropertyLastUpdaterLastUpdate",
            "outputs": [],
            "payable": false,
            "stateMutability": "nonpayable",
            "type": "function"
        },
        {
            "constant": false,
            "inputs": [
                {
                    "name": "propertyDAppContract",
                    "type": "address"
                },
                {
                    "name": "giveAccess",
                    "type": "bool"
                }
            ],
            "name": "setPropertyDAppContract",
            "outputs": [],
            "payable": false,
            "stateMutability": "nonpayable",
            "type": "function"
        },
        {
            "constant": false,
            "inputs": [
                {
                    "name": "propertyID",
                    "type": "uint16"
                },
                {
                    "name": "earnUntil",
                    "type": "uint256"
                }
            ],
            "name": "setPropertyEarnUntil",
            "outputs": [],
            "payable": false,
            "stateMutability": "nonpayable",
            "type": "function"
        },
        {
            "constant": true,
            "inputs": [],
            "name": "totalSupply",
            "outputs": [
                {
                    "name": "",
                    "type": "uint256"
                }
            ],
            "payable": false,
            "stateMutability": "view",
            "type": "function"
        },
        {
            "constant": true,
            "inputs": [
                {
                    "name": "propertyID",
                    "type": "uint16"
                }
            ],
            "name": "getPropertySalePrice",
            "outputs": [
                {
                    "name": "",
                    "type": "uint256"
                }
            ],
            "payable": false,
            "stateMutability": "view",
            "type": "function"
        },
        {
            "constant": true,
            "inputs": [
                {
                    "name": "propertyID",
                    "type": "uint16"
                }
            ],
            "name": "getPropertyPrivateModeLastUpdateEarnUntil",
            "outputs": [
                {
                    "name": "",
                    "type": "bool"
                },
                {
                    "name": "",
                    "type": "uint256"
                },
                {
                    "name": "",
                    "type": "uint256"
                }
            ],
            "payable": false,
            "stateMutability": "view",
            "type": "function"
        },
        {
            "constant": true,
            "inputs": [
                {
                    "name": "propertyID",
                    "type": "uint16"
                }
            ],
            "name": "getPropertyLastUpdate",
            "outputs": [
                {
                    "name": "",
                    "type": "uint256"
                }
            ],
            "payable": false,
            "stateMutability": "view",
            "type": "function"
        },
        {
            "constant": false,
            "inputs": [
                {
                    "name": "_from",
                    "type": "address"
                },
                {
                    "name": "_to",
                    "type": "address"
                },
                {
                    "name": "_value",
                    "type": "uint256"
                }
            ],
            "name": "transferFrom",
            "outputs": [
                {
                    "name": "success",
                    "type": "bool"
                }
            ],
            "payable": false,
            "stateMutability": "nonpayable",
            "type": "function"
        },
        {
            "constant": false,
            "inputs": [
                {
                    "name": "rewardedUser",
                    "type": "address"
                },
                {
                    "name": "amount",
                    "type": "uint256"
                }
            ],
            "name": "rewardPXL",
            "outputs": [],
            "payable": false,
            "stateMutability": "nonpayable",
            "type": "function"
        },
        {
            "constant": false,
            "inputs": [
                {
                    "name": "burner",
                    "type": "address"
                },
                {
                    "name": "toBurn",
                    "type": "uint256"
                },
                {
                    "name": "rewarder",
                    "type": "address"
                },
                {
                    "name": "toReward",
                    "type": "uint256"
                }
            ],
            "name": "burnPXLRewardPXL",
            "outputs": [],
            "payable": false,
            "stateMutability": "nonpayable",
            "type": "function"
        },
        {
            "constant": true,
            "inputs": [
                {
                    "name": "propertyID",
                    "type": "uint16"
                }
            ],
            "name": "getPropertyOwner",
            "outputs": [
                {
                    "name": "",
                    "type": "address"
                }
            ],
            "payable": false,
            "stateMutability": "view",
            "type": "function"
        },
        {
            "constant": true,
            "inputs": [
                {
                    "name": "propertyID",
                    "type": "uint16"
                }
            ],
            "name": "getPropertyPrivateMode",
            "outputs": [
                {
                    "name": "",
                    "type": "bool"
                }
            ],
            "payable": false,
            "stateMutability": "view",
            "type": "function"
        },
        {
            "constant": false,
            "inputs": [
                {
                    "name": "propertyID",
                    "type": "uint16"
                },
                {
                    "name": "row",
                    "type": "uint8"
                },
                {
                    "name": "rowColor",
                    "type": "uint256"
                }
            ],
            "name": "setPropertyRowColor",
            "outputs": [],
            "payable": false,
            "stateMutability": "nonpayable",
            "type": "function"
        },
        {
            "constant": false,
            "inputs": [
                {
                    "name": "propertyID",
                    "type": "uint16"
                },
                {
                    "name": "lastUpdate",
                    "type": "uint256"
                }
            ],
            "name": "setPropertyLastUpdate",
            "outputs": [],
            "payable": false,
            "stateMutability": "nonpayable",
            "type": "function"
        },
        {
            "constant": false,
            "inputs": [
                {
                    "name": "propertyID",
                    "type": "uint16"
                },
                {
                    "name": "owner",
                    "type": "address"
                },
                {
                    "name": "salePrice",
                    "type": "uint256"
                }
            ],
            "name": "setPropertyOwnerSalePrice",
            "outputs": [],
            "payable": false,
            "stateMutability": "nonpayable",
            "type": "function"
        },
        {
            "constant": false,
            "inputs": [
                {
                    "name": "propertyID",
                    "type": "uint16"
                },
                {
                    "name": "isInPrivateMode",
                    "type": "bool"
                }
            ],
            "name": "setPropertyPrivateMode",
            "outputs": [],
            "payable": false,
            "stateMutability": "nonpayable",
            "type": "function"
        },
        {
            "constant": false,
            "inputs": [
                {
                    "name": "textOwner",
                    "type": "address"
                },
                {
                    "name": "hoverText",
                    "type": "uint256[2]"
                }
            ],
            "name": "setOwnerHoverText",
            "outputs": [],
            "payable": false,
            "stateMutability": "nonpayable",
            "type": "function"
        },
        {
            "constant": true,
            "inputs": [
                {
                    "name": "propertyID",
                    "type": "uint16"
                }
            ],
            "name": "getPropertyLastUpdaterBecomePublic",
            "outputs": [
                {
                    "name": "",
                    "type": "address"
                },
                {
                    "name": "",
                    "type": "uint256"
                }
            ],
            "payable": false,
            "stateMutability": "view",
            "type": "function"
        },
        {
            "constant": true,
            "inputs": [
                {
                    "name": "",
                    "type": "uint16"
                }
            ],
            "name": "properties",
            "outputs": [
                {
                    "name": "flag",
                    "type": "uint8"
                },
                {
                    "name": "isInPrivateMode",
                    "type": "bool"
                },
                {
                    "name": "owner",
                    "type": "address"
                },
                {
                    "name": "lastUpdater",
                    "type": "address"
                },
                {
                    "name": "salePrice",
                    "type": "uint256"
                },
                {
                    "name": "lastUpdate",
                    "type": "uint256"
                },
                {
                    "name": "becomePublic",
                    "type": "uint256"
                },
                {
                    "name": "earnUntil",
                    "type": "uint256"
                }
            ],
            "payable": false,
            "stateMutability": "view",
            "type": "function"
        },
        {
            "constant": false,
            "inputs": [
                {
                    "name": "propertyID",
                    "type": "uint16"
                },
                {
                    "name": "salePrice",
                    "type": "uint256"
                }
            ],
            "name": "setPropertySalePrice",
            "outputs": [],
            "payable": false,
            "stateMutability": "nonpayable",
            "type": "function"
        },
        {
            "constant": false,
            "inputs": [
                {
                    "name": "websiteOwner",
                    "type": "address"
                },
                {
                    "name": "website",
                    "type": "uint256[2]"
                }
            ],
            "name": "setOwnerLink",
            "outputs": [],
            "payable": false,
            "stateMutability": "nonpayable",
            "type": "function"
        },
        {
            "constant": true,
            "inputs": [
                {
                    "name": "_owner",
                    "type": "address"
                }
            ],
            "name": "balanceOf",
            "outputs": [
                {
                    "name": "balance",
                    "type": "uint256"
                }
            ],
            "payable": false,
            "stateMutability": "view",
            "type": "function"
        },
        {
            "constant": true,
            "inputs": [
                {
                    "name": "",
                    "type": "address"
                }
            ],
            "name": "regulators",
            "outputs": [
                {
                    "name": "",
                    "type": "uint8"
                }
            ],
            "payable": false,
            "stateMutability": "view",
            "type": "function"
        },
        {
            "constant": false,
            "inputs": [
                {
                    "name": "propertyID",
                    "type": "uint16"
                },
                {
                    "name": "privateMode",
                    "type": "bool"
                },
                {
                    "name": "earnUntil",
                    "type": "uint256"
                },
                {
                    "name": "lastUpdate",
                    "type": "uint256"
                },
                {
                    "name": "becomePublic",
                    "type": "uint256"
                }
            ],
            "name": "setPropertyPrivateModeEarnUntilLastUpdateBecomePublic",
            "outputs": [],
            "payable": false,
            "stateMutability": "nonpayable",
            "type": "function"
        },
        {
            "constant": true,
            "inputs": [
                {
                    "name": "user",
                    "type": "address"
                }
            ],
            "name": "getOwnerHoverText",
            "outputs": [
                {
                    "name": "",
                    "type": "uint256[2]"
                }
            ],
            "payable": false,
            "stateMutability": "view",
            "type": "function"
        },
        {
            "constant": false,
            "inputs": [
                {
                    "name": "propertyID",
                    "type": "uint16"
                },
                {
                    "name": "flag",
                    "type": "uint8"
                }
            ],
            "name": "setPropertyFlag",
            "outputs": [],
            "payable": false,
            "stateMutability": "nonpayable",
            "type": "function"
        },
        {
            "constant": false,
            "inputs": [
                {
                    "name": "user",
                    "type": "address"
                },
                {
                    "name": "accessLevel",
                    "type": "uint8"
                }
            ],
            "name": "setRegulatorAccessLevel",
            "outputs": [],
            "payable": false,
            "stateMutability": "nonpayable",
            "type": "function"
        },
        {
            "constant": true,
            "inputs": [
                {
                    "name": "propertyID",
                    "type": "uint16"
                }
            ],
            "name": "getPropertyFlag",
            "outputs": [
                {
                    "name": "",
                    "type": "uint8"
                }
            ],
            "payable": false,
            "stateMutability": "view",
            "type": "function"
        },
        {
            "constant": true,
            "inputs": [
                {
                    "name": "propertyID",
                    "type": "uint16"
                }
            ],
            "name": "getPropertyEarnUntil",
            "outputs": [
                {
                    "name": "",
                    "type": "uint256"
                }
            ],
            "payable": false,
            "stateMutability": "view",
            "type": "function"
        },
        {
            "constant": false,
            "inputs": [
                {
                    "name": "_to",
                    "type": "address"
                },
                {
                    "name": "_value",
                    "type": "uint256"
                }
            ],
            "name": "transfer",
            "outputs": [
                {
                    "name": "success",
                    "type": "bool"
                }
            ],
            "payable": false,
            "stateMutability": "nonpayable",
            "type": "function"
        },
        {
            "constant": true,
            "inputs": [
                {
                    "name": "propertyID",
                    "type": "uint16"
                }
            ],
            "name": "getPropertyPrivateModeBecomePublic",
            "outputs": [
                {
                    "name": "",
                    "type": "bool"
                },
                {
                    "name": "",
                    "type": "uint256"
                }
            ],
            "payable": false,
            "stateMutability": "view",
            "type": "function"
        },
        {
            "constant": false,
            "inputs": [
                {
                    "name": "propertyID",
                    "type": "uint16"
                },
                {
                    "name": "becomePublic",
                    "type": "uint256"
                }
            ],
            "name": "setPropertyBecomePublic",
            "outputs": [],
            "payable": false,
            "stateMutability": "nonpayable",
            "type": "function"
        },
        {
            "constant": true,
            "inputs": [
                {
                    "name": "propertyID",
                    "type": "uint16"
                },
                {
                    "name": "systemSalePriceETH",
                    "type": "uint256"
                },
                {
                    "name": "systemSalePricePXL",
                    "type": "uint256"
                }
            ],
            "name": "getPropertyData",
            "outputs": [
                {
                    "name": "",
                    "type": "address"
                },
                {
                    "name": "",
                    "type": "uint256"
                },
                {
                    "name": "",
                    "type": "uint256"
                },
                {
                    "name": "",
                    "type": "uint256"
                },
                {
                    "name": "",
                    "type": "bool"
                },
                {
                    "name": "",
                    "type": "uint256"
                },
                {
                    "name": "",
                    "type": "uint8"
                }
            ],
            "payable": false,
            "stateMutability": "view",
            "type": "function"
        },
        {
            "constant": false,
            "inputs": [
                {
                    "name": "propertyID",
                    "type": "uint16"
                },
                {
                    "name": "owner",
                    "type": "address"
                },
                {
                    "name": "salePrice",
                    "type": "uint256"
                },
                {
                    "name": "privateMode",
                    "type": "bool"
                },
                {
                    "name": "flag",
                    "type": "uint8"
                }
            ],
            "name": "setPropertyOwnerSalePricePrivateModeFlag",
            "outputs": [],
            "payable": false,
            "stateMutability": "nonpayable",
            "type": "function"
        },
        {
            "constant": true,
            "inputs": [
                {
                    "name": "propertyID",
                    "type": "uint16"
                }
            ],
            "name": "getPropertyLastUpdater",
            "outputs": [
                {
                    "name": "",
                    "type": "address"
                }
            ],
            "payable": false,
            "stateMutability": "view",
            "type": "function"
        },
        {
            "constant": true,
            "inputs": [
                {
                    "name": "user",
                    "type": "address"
                }
            ],
            "name": "getRegulatorLevel",
            "outputs": [
                {
                    "name": "",
                    "type": "uint8"
                }
            ],
            "payable": false,
            "stateMutability": "view",
            "type": "function"
        },
        {
            "constant": false,
            "inputs": [
                {
                    "name": "propertyID",
                    "type": "uint16"
                },
                {
                    "name": "lastUpdater",
                    "type": "address"
                }
            ],
            "name": "setPropertyLastUpdater",
            "outputs": [],
            "payable": false,
            "stateMutability": "nonpayable",
            "type": "function"
        },
        {
            "constant": false,
            "inputs": [
                {
                    "name": "propertyID",
                    "type": "uint16"
                },
                {
                    "name": "becomePublic",
                    "type": "uint256"
                },
                {
                    "name": "earnUntil",
                    "type": "uint256"
                }
            ],
            "name": "setPropertyBecomePublicEarnUntil",
            "outputs": [],
            "payable": false,
            "stateMutability": "nonpayable",
            "type": "function"
        },
        {
            "constant": true,
            "inputs": [
                {
                    "name": "propertyID",
                    "type": "uint16"
                },
                {
                    "name": "rowIndex",
                    "type": "uint8"
                }
            ],
            "name": "getPropertyColorsOfRow",
            "outputs": [
                {
                    "name": "",
                    "type": "uint256"
                }
            ],
            "payable": false,
            "stateMutability": "view",
            "type": "function"
        },
        {
            "constant": false,
            "inputs": [
                {
                    "name": "newPixelPropertyContract",
                    "type": "address"
                }
            ],
            "name": "setPixelPropertyContract",
            "outputs": [],
            "payable": false,
            "stateMutability": "nonpayable",
            "type": "function"
        },
        {
            "constant": true,
            "inputs": [
                {
                    "name": "propertyID",
                    "type": "uint16"
                }
            ],
            "name": "getPropertyOwnerSalePrice",
            "outputs": [
                {
                    "name": "",
                    "type": "address"
                },
                {
                    "name": "",
                    "type": "uint256"
                }
            ],
            "payable": false,
            "stateMutability": "view",
            "type": "function"
        },
        {
            "constant": false,
            "inputs": [
                {
                    "name": "propertyID",
                    "type": "uint16"
                },
                {
                    "name": "propertyOwner",
                    "type": "address"
                }
            ],
            "name": "setPropertyOwner",
            "outputs": [],
            "payable": false,
            "stateMutability": "nonpayable",
            "type": "function"
        },
        {
            "constant": true,
            "inputs": [
                {
                    "name": "_owner",
                    "type": "address"
                },
                {
                    "name": "_spender",
                    "type": "address"
                }
            ],
            "name": "allowance",
            "outputs": [
                {
                    "name": "remaining",
                    "type": "uint256"
                }
            ],
            "payable": false,
            "stateMutability": "view",
            "type": "function"
        },
        {
            "constant": true,
            "inputs": [
                {
                    "name": "",
                    "type": "address"
                },
                {
                    "name": "",
                    "type": "uint256"
                }
            ],
            "name": "ownerWebsite",
            "outputs": [
                {
                    "name": "",
                    "type": "uint256"
                }
            ],
            "payable": false,
            "stateMutability": "view",
            "type": "function"
        },
        {
            "constant": true,
            "inputs": [
                {
                    "name": "propertyID",
                    "type": "uint16"
                }
            ],
            "name": "getPropertyColors",
            "outputs": [
                {
                    "name": "",
                    "type": "uint256[5]"
                }
            ],
            "payable": false,
            "stateMutability": "view",
            "type": "function"
        },
        {
            "constant": false,
            "inputs": [
                {
                    "name": "propertyID",
                    "type": "uint16"
                },
                {
                    "name": "colors",
                    "type": "uint256[5]"
                }
            ],
            "name": "setPropertyColors",
            "outputs": [],
            "payable": false,
            "stateMutability": "nonpayable",
            "type": "function"
        },
        {
            "constant": true,
            "inputs": [
                {
                    "name": "user",
                    "type": "address"
                }
            ],
            "name": "getOwnerLink",
            "outputs": [
                {
                    "name": "",
                    "type": "uint256[2]"
                }
            ],
            "payable": false,
            "stateMutability": "view",
            "type": "function"
        },
        {
            "constant": false,
            "inputs": [
                {
                    "name": "burningUser",
                    "type": "address"
                },
                {
                    "name": "amount",
                    "type": "uint256"
                }
            ],
            "name": "burnPXL",
            "outputs": [],
            "payable": false,
            "stateMutability": "nonpayable",
            "type": "function"
        },
        {
            "constant": true,
            "inputs": [
                {
                    "name": "",
                    "type": "address"
                },
                {
                    "name": "",
                    "type": "uint256"
                }
            ],
            "name": "ownerHoverText",
            "outputs": [
                {
                    "name": "",
                    "type": "uint256"
                }
            ],
            "payable": false,
            "stateMutability": "view",
            "type": "function"
        },
        {
            "constant": true,
            "inputs": [
                {
                    "name": "propertyID",
                    "type": "uint16"
                }
            ],
            "name": "getPropertyBecomePublic",
            "outputs": [
                {
                    "name": "",
                    "type": "uint256"
                }
            ],
            "payable": false,
            "stateMutability": "view",
            "type": "function"
        },
        {
            "inputs": [],
            "payable": false,
            "stateMutability": "nonpayable",
            "type": "constructor"
        },
        {
            "anonymous": false,
            "inputs": [
                {
                    "indexed": true,
                    "name": "_from",
                    "type": "address"
                },
                {
                    "indexed": true,
                    "name": "_to",
                    "type": "address"
                },
                {
                    "indexed": false,
                    "name": "_value",
                    "type": "uint256"
                }
            ],
            "name": "Transfer",
            "type": "event"
        },
        {
            "anonymous": false,
            "inputs": [
                {
                    "indexed": true,
                    "name": "_owner",
                    "type": "address"
                },
                {
                    "indexed": true,
                    "name": "_spender",
                    "type": "address"
                },
                {
                    "indexed": false,
                    "name": "_value",
                    "type": "uint256"
                }
            ],
            "name": "Approval",
            "type": "event"
        }
    ],
    "bytecode": "0x6060604052341561000f57600080fd5b600160a060020a0333166000908152600460205260409020805460ff19166007179055612382806100416000396000f3006060604052600436106102715763ffffffff7c0100000000000000000000000000000000000000000000000000000000600035041663095ea7b38114610276578063121c2b35146102ac57806315f59033146102e4578063165140521461030d57806317e0aeb81461033157806318160ddd1461034e5780631bbc7952146103735780631f12da061461038d57806323b11bb1146103cd57806323b872dd146103e757806326728b141461040f5780632a396734146104315780632ccaa3e91461045d57806337c74948146104935780633953ca8b146104ad578063411b65ef146104d057806345ede900146104ed5780634b1ec20c14610516578063606bc9a51461053557806363a6568f1461057e57806369a4c4e7146105ba5780636d87b65c1461062e5780636fcdcb3e1461064b57806370a08231146106945780637dfb86a0146106b3578063886b148d146106e85780638b9997fd146107105780638d1066901461076757806395f47e4e1461078757806398864aaf146107ac57806399b29044146107c6578063a9059cbb146107e0578063ab383a6b14610802578063b4cc218114610836578063b7b1e3cc14610853578063b9e58ab0146108bf578063ba8c0c9d146108f3578063bbfa61531461090d578063c19358bb1461092c578063c575200d14610952578063c7ff208614610972578063c839008e14610992578063cf09e820146109b1578063d5c98db1146109cb578063dd62ed3e146109f1578063e1c230dd14610a16578063e86994ea14610a38578063eb39bc9014610a6c578063f23a8aa614610aad578063f6f8ca0714610acc578063f785074614610aee578063fc9ede6514610b10575b600080fd5b341561028157600080fd5b610298600160a060020a0360043516602435610b2a565b604051901515815260200160405180910390f35b34156102b757600080fd5b6102e2600160a060020a0360043581169060243590604435811690606435906084351660a435610b97565b005b34156102ef57600080fd5b6102e261ffff60043516600160a060020a0360243516604435610c85565b341561031857600080fd5b6102e2600160a060020a03600435166024351515610d31565b341561033c57600080fd5b6102e261ffff60043516602435610de7565b341561035957600080fd5b610361610e29565b60405190815260200160405180910390f35b341561037e57600080fd5b61036161ffff60043516610e2f565b341561039857600080fd5b6103a761ffff60043516610e48565b604051921515835260208301919091526040808301919091526060909101905180910390f35b34156103d857600080fd5b61036161ffff60043516610e73565b34156103f257600080fd5b610298600160a060020a0360043581169060243516604435610e8c565b341561041a57600080fd5b6102e2600160a060020a0360043516602435610f84565b341561043c57600080fd5b6102e2600160a060020a036004358116906024359060443516606435610fe9565b341561046857600080fd5b61047761ffff600435166110a1565b604051600160a060020a03909116815260200160405180910390f35b341561049e57600080fd5b61029861ffff600435166110c6565b34156104b857600080fd5b6102e261ffff6004351660ff602435166044356110e4565b34156104db57600080fd5b6102e261ffff600435166024356111a1565b34156104f857600080fd5b6102e261ffff60043516600160a060020a03602435166044356111e3565b341561052157600080fd5b6102e261ffff6004351660243515156112b3565b341561054057600080fd5b6102e260048035600160a060020a0316906064602460026040805190810160405280929190826002602002808284375093955061132b945050505050565b341561058957600080fd5b61059861ffff600435166113b4565b604051600160a060020a03909216825260208201526040908101905180910390f35b34156105c557600080fd5b6105d461ffff600435166113df565b60405160ff90981688529515156020880152600160a060020a03948516604080890191909152939094166060870152608086019190915260a085015260c084019190915260e0830191909152610100909101905180910390f35b341561063957600080fd5b6102e261ffff60043516602435611431565b341561065657600080fd5b6102e260048035600160a060020a03169060646024600260408051908101604052809291908260026020028082843750939550611491945050505050565b341561069f57600080fd5b610361600160a060020a036004351661151a565b34156106be57600080fd5b6106d2600160a060020a0360043516611535565b60405160ff909116815260200160405180910390f35b34156106f357600080fd5b6102e261ffff60043516602435151560443560643560843561154a565b341561071b57600080fd5b61072f600160a060020a03600435166115e9565b6040518082604080838360005b8381101561075457808201518382015260200161073c565b5050505090500191505060405180910390f35b341561077257600080fd5b6102e261ffff6004351660ff60243516611643565b341561079257600080fd5b6102e2600160a060020a036004351660ff60243516611769565b34156107b757600080fd5b6106d261ffff60043516611873565b34156107d157600080fd5b61036161ffff6004351661188c565b34156107eb57600080fd5b610298600160a060020a03600435166024356118a5565b341561080d57600080fd5b61081c61ffff60043516611948565b604051911515825260208201526040908101905180910390f35b341561084157600080fd5b6102e261ffff6004351660243561196e565b341561085e57600080fd5b61087361ffff600435166024356044356119b0565b604051600160a060020a039097168752602087019590955260408087019490945260608601929092521515608085015260a084015260ff90911660c083015260e0909101905180910390f35b34156108ca57600080fd5b6102e261ffff60043516600160a060020a0360243516604435606435151560ff60843516611b2f565b34156108fe57600080fd5b61047761ffff60043516611c8f565b341561091857600080fd5b6106d2600160a060020a0360043516611cb1565b341561093757600080fd5b6102e261ffff60043516600160a060020a0360243516611ccf565b341561095d57600080fd5b6102e261ffff60043516602435604435611d62565b341561097d57600080fd5b61036161ffff6004351660ff60243516611dac565b341561099d57600080fd5b6102e2600160a060020a0360043516611def565b34156109bc57600080fd5b61059861ffff60043516611ee2565b34156109d657600080fd5b6102e261ffff60043516600160a060020a0360243516611f0f565b34156109fc57600080fd5b610361600160a060020a0360043581169060243516611fa9565b3415610a2157600080fd5b610361600160a060020a0360043516602435611fd4565b3415610a4357600080fd5b610a5261ffff60043516611ff6565b604051808260a0808383600081518382015260200161073c565b3415610a7757600080fd5b6102e26004803561ffff169060c46024600560a06040519081016040529190828260a08082843750939550612048945050505050565b3415610ab857600080fd5b61072f600160a060020a0360043516612121565b3415610ad757600080fd5b6102e2600160a060020a0360043516602435612176565b3415610af957600080fd5b610361600160a060020a0360043516602435612203565b3415610b1b57600080fd5b61036161ffff6004351661221c565b600160a060020a03338116600081815260026020908152604080832094871680845294909152808220859055909291907f8c5be1e5ebec7d5bd14f71427d1e84f3dd0314c0f7b2291e5b200ac8c7c3b9259085905190815260200160405180910390a35060015b92915050565b600160a060020a03331660009081526004602052604090205460ff16600914610bbf57600080fd5b600160a060020a03861660009081526001602052604090205485901015610be557600080fd5b6000851115610c1557600160a060020a038616600090815260016020526040812080548790039055805486900390555b600160a060020a03841615610c4957600160a060020a03841660009081526001602052604081208054850190558054840190555b600160a060020a03821615610c7d57600160a060020a03821660009081526001602052604081208054830190558054820190555b505050505050565b600160a060020a03331660009081526004602052604090205460ff16600914610cad57600080fd5b61ffff8316600090815260056020526040902060010154600160a060020a03838116911614610d135761ffff83166000908152600560205260409020600101805473ffffffffffffffffffffffffffffffffffffffff1916600160a060020a0384161790555b61ffff90921660009081526005602052604090206008019190915550565b33600160a060020a031660009081526004602052604090205460059060ff1681901015610d5d57600080fd5b600360ff821610610d935733600160a060020a0316600090815260046020526040902054600760ff9091161115610d9357600080fd5b600160a060020a0383161515610da857600080fd5b81610db4576000610db7565b60085b600160a060020a03939093166000908152600460205260409020805460ff191660ff909416939093179092555050565b600160a060020a03331660009081526004602052604090205460ff16600914610e0f57600080fd5b61ffff9091166000908152600560205260409020600a0155565b60005481565b61ffff1660009081526005602052604090206007015490565b61ffff16600090815260056020526040902080546008820154600a9092015461010090910460ff1692565b61ffff1660009081526005602052604090206008015490565b600160a060020a038316600090815260016020526040812054829010801590610edc5750600160a060020a0380851660009081526002602090815260408083203390941683529290522054829010155b8015610ee85750600082115b15610f7957600160a060020a03808416600081815260016020908152604080832080548801905588851680845281842080548990039055600283528184203390961684529490915290819020805486900390559091907fddf252ad1be2c89b69c2b068fc378daa952ba7f163c4a11628f55a4df523b3ef9085905190815260200160405180910390a3506001610f7d565b5060005b9392505050565b600160a060020a03331660009081526004602052604090205460ff16600914610fac57600080fd5b600160a060020a0382161515610fc157600080fd5b600160a060020a03909116600090815260016020526040812080548301905580549091019055565b600160a060020a03331660009081526004602052604090205460ff1660091461101157600080fd5b600160a060020a0384166000908152600160205260409020548390101561103757600080fd5b600083111561106757600160a060020a038416600090815260016020526040812080548590039055805484900390555b600160a060020a0382161561109b57600160a060020a03821660009081526001602052604081208054830190558054820190555b50505050565b61ffff16600090815260056020526040902054620100009004600160a060020a031690565b61ffff16600090815260056020526040902054610100900460ff1690565b600160a060020a03331660009081526004602052604090205460ff16600814806111295750600160a060020a03331660009081526004602052604090205460ff166009145b151561113457600080fd5b80600560008561ffff1661ffff1681526020019081526020016000206002018360ff1660058110151561116357fe5b01541461119c5780600560008561ffff1661ffff1681526020019081526020016000206002018360ff1660058110151561119957fe5b01555b505050565b600160a060020a03331660009081526004602052604090205460ff166009146111c957600080fd5b61ffff909116600090815260056020526040902060080155565b600160a060020a03331660009081526004602052604090205460ff1660091461120b57600080fd5b61ffff8316600090815260056020526040902054600160a060020a038381166201000090920416146112785761ffff83166000908152600560205260409020805475ffffffffffffffffffffffffffffffffffffffff0000191662010000600160a060020a038516021790555b61ffff8316600090815260056020526040902060070154811461119c5761ffff83166000908152600560205260409020600701819055505050565b600160a060020a03331660009081526004602052604090205460ff166009146112db57600080fd5b61ffff821660009081526005602052604090205460ff610100909104161515811515146113275761ffff82166000908152600560205260409020805461ff001916610100831515021790555b5050565b600160a060020a03331660009081526004602052604090205460ff16600814806113705750600160a060020a03331660009081526004602052604090205460ff166009145b151561137b57600080fd5b600160a060020a038216151561139057600080fd5b600160a060020a038216600090815260076020526040902061119c90826002612235565b61ffff1660009081526005602052604090206001810154600990910154600160a060020a0390911691565b600560205260009081526040902080546001820154600783015460088401546009850154600a9095015460ff80861696610100870490911695600160a060020a03620100009091048116951693929188565b600160a060020a03331660009081526004602052604090205460ff1660091461145957600080fd5b61ffff821660009081526005602052604090206007015481146113275761ffff91909116600090815260056020526040902060070155565b600160a060020a03331660009081526004602052604090205460ff16600814806114d65750600160a060020a03331660009081526004602052604090205460ff166009145b15156114e157600080fd5b600160a060020a03821615156114f657600080fd5b600160a060020a038216600090815260066020526040902061119c90826002612235565b600160a060020a031660009081526001602052604090205490565b60046020526000908152604090205460ff1681565b600160a060020a03331660009081526004602052604090205460ff1660091461157257600080fd5b61ffff851660009081526005602052604090205460ff610100909104161515841515146115be5761ffff85166000908152600560205260409020805461ff001916610100861515021790555b61ffff9094166000908152600560205260409020600a81019290925560088201556009019190915550565b6115f1612273565b600160a060020a038216600090815260076020526040908190209060029080519081016040529190828260026020028201915b8154815260200190600101908083116116245750505050509050919050565b60ff8116600114611655576002611658565b60015b600760ff8216111561166957600080fd5b600160a060020a03331660009081526004602052604090205460ff8083169116101561169457600080fd5b600360ff8216106116ca5733600160a060020a0316600090815260046020526040902054600760ff90911611156116ca57600080fd5b61ffff83166000908152600560205260409020805460ff191660ff84169081179091556002141561119c5761ffff8316600090815260056020526040902054610100900460ff16151561171c57600080fd5b60a0604051908101604090815260008083526020808401829052828401829052606084018290526080840182905261ffff8716825260059081905291902061109b92600290910191612299565b33600160a060020a031660009081526004602052604090205460039060ff168190101561179557600080fd5b600360ff8216106117cb5733600160a060020a0316600090815260046020526040902054600760ff90911611156117cb57600080fd5b82600160a060020a031633600160a060020a031614151561181b57600160a060020a038084166000908152600460205260408082205433909316825290205460ff91821691161161181b57600080fd5b600160a060020a03331660009081526004602052604090205460ff80841691161161184557600080fd5b50600160a060020a03919091166000908152600460205260409020805460ff191660ff909216919091179055565b61ffff1660009081526005602052604090205460ff1690565b61ffff166000908152600560205260409020600a015490565b600160a060020a0333166000908152600160205260408120548290108015906118ce5750600082115b1561194057600160a060020a033381166000818152600160205260408082208054879003905592861680825290839020805486019055917fddf252ad1be2c89b69c2b068fc378daa952ba7f163c4a11628f55a4df523b3ef9085905190815260200160405180910390a3506001610b91565b506000610b91565b61ffff166000908152600560205260409020805460099091015461010090910460ff1691565b600160a060020a03331660009081526004602052604090205460ff1660091461199657600080fd5b61ffff909116600090815260056020526040902060090155565b60008060008060008060006119c36122cc565b61ffff8b166000908152600560205260408082209061012090519081016040908152825460ff808216845261010082041615156020840152600160a060020a036201000090910481168284015260018401541660608301529091906080830190600283019060059060a09051908101604052919060a0830182845b815481526020019060010190808311611a3e5750505050508152602001600782015481526020016008820154815260200160098201548152602001600a82015481525050915081602001519050808015611a9c5750428260e0015111155b15611aa5575060005b61ffff8c16600090815260056020526040902054620100009004600160a060020a03161515611af55760008b8b8460c00151848660e0015187518696509850985098509850985098509850611b20565b816040015160008360a001518460c00151848660e00151875185955098509850985098509850985098505b50509397509397509397909450565b600160a060020a03331660009081526004602052604090205460ff16600914611b5757600080fd5b61ffff8516600090815260056020526040902054600160a060020a03858116620100009092041614611bc45761ffff85166000908152600560205260409020805475ffffffffffffffffffffffffffffffffffffffff0000191662010000600160a060020a038716021790555b61ffff85166000908152600560205260409020600701548314611bfb5761ffff851660009081526005602052604090206007018390555b61ffff851660009081526005602052604090205460ff61010090910416151582151514611c475761ffff85166000908152600560205260409020805461ff001916610100841515021790555b61ffff851660009081526005602052604090205460ff828116911614611c885761ffff85166000908152600560205260409020805460ff191660ff83161790555b5050505050565b61ffff16600090815260056020526040902060010154600160a060020a031690565b600160a060020a031660009081526004602052604090205460ff1690565b600160a060020a03331660009081526004602052604090205460ff16600914611cf757600080fd5b61ffff8216600090815260056020526040902060010154600160a060020a038281169116146113275761ffff821660009081526005602052604090206001018054600160a060020a03831673ffffffffffffffffffffffffffffffffffffffff199091161790555050565b600160a060020a03331660009081526004602052604090205460ff16600914611d8a57600080fd5b61ffff90921660009081526005602052604090206009810191909155600a0155565b6000600960ff83161115611dbf57600080fd5b61ffff831660009081526005602081905260409091206002019060ff8416908110611de657fe5b01549392505050565b33600160a060020a031660009081526004602052604090205460069060ff1681901015611e1b57600080fd5b600360ff821610611e515733600160a060020a0316600090815260046020526040902054600760ff9091161115611e5157600080fd5b600160a060020a0382161515611e6657600080fd5b600354600160a060020a031615611e9a57600354600160a060020a03166000908152600460205260409020805460ff191690555b5060038054600160a060020a0390921673ffffffffffffffffffffffffffffffffffffffff19909216821790556000908152600460205260409020805460ff19166009179055565b61ffff166000908152600560205260409020805460079091015462010000909104600160a060020a031691565b600160a060020a03331660009081526004602052604090205460ff16600914611f3757600080fd5b61ffff8216600090815260056020526040902054600160a060020a038281166201000090920416146113275761ffff821660009081526005602052604090208054600160a060020a038316620100000275ffffffffffffffffffffffffffffffffffffffff0000199091161790555050565b600160a060020a03918216600090815260026020908152604080832093909416825291909152205490565b60066020526000828152604090208160028110611fed57fe5b01549150829050565b611ffe61231f565b61ffff82166000908152600560208190526040918290206002019160a0905190810160405282548152919060a0830160018301602085018083116116245750505050509050919050565b600160a060020a03331660009081526004602052604081205460ff166008148061208d5750600160a060020a03331660009081526004602052604090205460ff166009145b151561209857600080fd5b5060005b600581101561119c578181600581106120b157fe5b602002015161ffff8416600090815260056020819052604090912060020190839081106120da57fe5b015414612119578181600581106120ed57fe5b602002015161ffff84166000908152600560208190526040909120600201908390811061211657fe5b01555b60010161209c565b612129612273565b600160a060020a0382166000908152600660205260409081902090600290805190810160409081528354825290929190830160018301602085018083116116245750505050509050919050565b600160a060020a03331660009081526004602052604090205460ff1660091461219e57600080fd5b600160a060020a03821615156121b357600080fd5b600160a060020a038216600090815260016020526040902054819010156121d957600080fd5b600160a060020a039091166000908152600160205260408120805483900390558054919091039055565b60076020526000828152604090208160028110611fed57fe5b61ffff1660009081526005602052604090206009015490565b8260028101928215612263579160200282015b82811115612263578251825591602001919060010190612248565b5061226f929150612339565b5090565b604080519081016040526002815b60008152602001906001900390816122815790505090565b8260058101928215612263579160200282015b82811115612263578251829060ff169055916020019190600101906122ac565b6101a060405190810160409081526000808352602083018190529082018190526060820152608081016122fd61231f565b8152602001600081526020016000815260200160008152602001600081525090565b60a060405190810160405260008152600460208201612281565b61235391905b8082111561226f576000815560010161233f565b905600a165627a7a72305820e2734d96c00a58c689cf1fe748ece5493dda37a0e0c883aec24f95c9be99fb3e0029",
    "source": "pragma solidity ^0.4.2;\nimport \"./StandardToken.sol\";\n\n/*\n    PXLProperty is the ERC20 Cryptocurrency & Cryptocollectable\n    * It is a StandardToken ERC20 token and inherits all of that\n    * It has the Property structure and holds the Properties\n    * It governs the regulators (moderators, admins, root, Property DApps and PixelProperty)\n    * It has getters and setts for all data storage\n    * It selectively allows access to PXL and Properties based on caller access\n    \n    Moderation is handled inside PXLProperty, not by external DApps. It's up to other apps to respect the flags, however\n*/\ncontract PXLProperty is StandardToken {\n    /* Access Level Constants */\n    uint8 constant LEVEL_1_MODERATOR = 1;    // 1: Level 1 Moderator - nsfw-flagging power\n    uint8 constant LEVEL_2_MODERATOR = 2;    // 2: Level 2 Moderator - ban power + [1]\n    uint8 constant LEVEL_1_ADMIN = 3;        // 3: Level 1 Admin - Can manage moderator levels + [1,2]\n    uint8 constant LEVEL_2_ADMIN = 4;        // 4: Level 2 Admin - Can manage admin level 1 levels + [1-3]\n    uint8 constant LEVEL_1_ROOT = 5;         // 5: Level 1 Root - Can set property DApps level [1-4]\n    uint8 constant LEVEL_2_ROOT = 6;         // 6: Level 2 Root - Can set pixelPropertyContract level [1-5]\n    uint8 constant LEVEL_3_ROOT = 7;         // 7: Level 3 Root - Can demote/remove root, transfer root, [1-6]\n    uint8 constant LEVEL_PROPERTY_DAPPS = 8; // 8: Property DApps - Power over manipulating Property data\n    uint8 constant LEVEL_PIXEL_PROPERTY = 9; // 9: PixelProperty - Power over PXL generation & Property ownership\n    /* Flags Constants */\n    uint8 constant FLAG_NSFW = 1;\n    uint8 constant FLAG_BAN = 2;\n    \n    /* Accesser Addresses & Levels */\n    address pixelPropertyContract; // Only contract that has control over PXL creation and Property ownership\n    mapping (address => uint8) public regulators; // Mapping of users/contracts to their control levels\n    \n    // Mapping of PropertyID to Property\n    mapping (uint16 => Property) public properties;\n    // Property Owner's website\n    mapping (address => uint256[2]) public ownerWebsite;\n    // Property Owner's hover text\n    mapping (address => uint256[2]) public ownerHoverText;\n    \n    /* ### Ownable Property Structure ### */\n    struct Property {\n        uint8 flag;\n        bool isInPrivateMode; //Whether in private mode for owner-only use or free-use mode to be shared\n        address owner; //Who owns the Property. If its zero (0), then no owner and known as a \"system-Property\"\n        address lastUpdater; //Who last changed the color of the Property\n        uint256[5] colors; //10x10 rgb pixel colors per property. colors[0] is the top row, colors[9] is the bottom row\n        uint256 salePrice; //PXL price the owner has the Property on sale for. If zero, then its not for sale.\n        uint256 lastUpdate; //Timestamp of when it had its color last updated\n        uint256 becomePublic; //Timestamp on when to become public\n        uint256 earnUntil; //Timestamp on when Property token generation will stop\n    }\n    \n    /* ### Regulation Access Modifiers ### */\n    modifier regulatorAccess(uint8 accessLevel) {\n        require(accessLevel <= LEVEL_3_ROOT); // Only request moderator, admin or root levels forr regulatorAccess\n        require(regulators[msg.sender] >= accessLevel); // Users must meet requirement\n        if (accessLevel >= LEVEL_1_ADMIN) { //\n            require(regulators[msg.sender] <= LEVEL_3_ROOT); //DApps can't do Admin/Root stuff, but can set nsfw/ban flags\n        }\n        _;\n    }\n    \n    modifier propertyDAppAccess() {\n        require(regulators[msg.sender] == LEVEL_PROPERTY_DAPPS || regulators[msg.sender] == LEVEL_PIXEL_PROPERTY );\n        _;\n    }\n    \n    modifier pixelPropertyAccess() {\n        require(regulators[msg.sender] == LEVEL_PIXEL_PROPERTY);\n        _;\n    }\n    \n    /* ### Constructor ### */\n    function PXLProperty() public {\n        regulators[msg.sender] = LEVEL_3_ROOT; // Creator set to Level 3 Root\n    }\n    \n    /* ### Moderator, Admin & Root Functions ### */\n    // Moderator Flags\n    function setPropertyFlag(uint16 propertyID, uint8 flag) public regulatorAccess(flag == FLAG_NSFW ? LEVEL_1_MODERATOR : LEVEL_2_MODERATOR) {\n        properties[propertyID].flag = flag;\n        if (flag == FLAG_BAN) {\n            require(properties[propertyID].isInPrivateMode); //Can't ban an owner's property if a public user caused the NSFW content\n            properties[propertyID].colors = [0, 0, 0, 0, 0];\n        }\n    }\n    \n    // Setting moderator/admin/root access\n    function setRegulatorAccessLevel(address user, uint8 accessLevel) public regulatorAccess(LEVEL_1_ADMIN) {\n        if (msg.sender != user) {\n            require(regulators[msg.sender] > regulators[user]); // You have to be a higher rank than the user you are changing\n        }\n        require(regulators[msg.sender] > accessLevel); // You have to be a higher rank than the role you are setting\n        regulators[user] = accessLevel;\n    }\n    \n    function setPixelPropertyContract(address newPixelPropertyContract) public regulatorAccess(LEVEL_2_ROOT) {\n        require(newPixelPropertyContract != 0);\n        if (pixelPropertyContract != 0) {\n            regulators[pixelPropertyContract] = 0; //If we already have a pixelPropertyContract, revoke its ownership\n        }\n        \n        pixelPropertyContract = newPixelPropertyContract;\n        regulators[newPixelPropertyContract] = LEVEL_PIXEL_PROPERTY;\n    }\n    \n    function setPropertyDAppContract(address propertyDAppContract, bool giveAccess) public regulatorAccess(LEVEL_1_ROOT) {\n        require(propertyDAppContract != 0);\n        regulators[propertyDAppContract] = giveAccess ? LEVEL_PROPERTY_DAPPS : 0;\n    }\n    \n    /* ### PropertyDapp Functions ### */\n    function setPropertyColors(uint16 propertyID, uint256[5] colors) public propertyDAppAccess() {\n        for(uint256 i = 0; i < 5; i++) {\n            if (properties[propertyID].colors[i] != colors[i]) {\n                properties[propertyID].colors[i] = colors[i];\n            }\n        }\n    }\n    \n    function setPropertyRowColor(uint16 propertyID, uint8 row, uint256 rowColor) public propertyDAppAccess() {\n        if (properties[propertyID].colors[row] != rowColor) {\n            properties[propertyID].colors[row] = rowColor;\n        }\n    }\n    \n    function setOwnerHoverText(address textOwner, uint256[2] hoverText) public propertyDAppAccess() {\n        require (textOwner != 0);\n        ownerHoverText[textOwner] = hoverText;\n    }\n    \n    function setOwnerLink(address websiteOwner, uint256[2] website) public propertyDAppAccess() {\n        require (websiteOwner != 0);\n        ownerWebsite[websiteOwner] = website;\n    }\n    \n    /* ### PixelProperty Property Functions ### */\n    function setPropertyPrivateMode(uint16 propertyID, bool isInPrivateMode) public pixelPropertyAccess() {\n        if (properties[propertyID].isInPrivateMode != isInPrivateMode) {\n            properties[propertyID].isInPrivateMode = isInPrivateMode;\n        }\n    }\n    \n    function setPropertyOwner(uint16 propertyID, address propertyOwner) public pixelPropertyAccess() {\n        if (properties[propertyID].owner != propertyOwner) {\n            properties[propertyID].owner = propertyOwner;\n        }\n    }\n    \n    function setPropertyLastUpdater(uint16 propertyID, address lastUpdater) public pixelPropertyAccess() {\n        if (properties[propertyID].lastUpdater != lastUpdater) {\n            properties[propertyID].lastUpdater = lastUpdater;\n        }\n    }\n    \n    function setPropertySalePrice(uint16 propertyID, uint256 salePrice) public pixelPropertyAccess() {\n        if (properties[propertyID].salePrice != salePrice) {\n            properties[propertyID].salePrice = salePrice;\n        }\n    }\n    \n    function setPropertyLastUpdate(uint16 propertyID, uint256 lastUpdate) public pixelPropertyAccess() {\n        properties[propertyID].lastUpdate = lastUpdate;\n    }\n    \n    function setPropertyBecomePublic(uint16 propertyID, uint256 becomePublic) public pixelPropertyAccess() {\n        properties[propertyID].becomePublic = becomePublic;\n    }\n    \n    function setPropertyEarnUntil(uint16 propertyID, uint256 earnUntil) public pixelPropertyAccess() {\n        properties[propertyID].earnUntil = earnUntil;\n    }\n    \n    function setPropertyPrivateModeEarnUntilLastUpdateBecomePublic(uint16 propertyID, bool privateMode, uint256 earnUntil, uint256 lastUpdate, uint256 becomePublic) public pixelPropertyAccess() {\n        if (properties[propertyID].isInPrivateMode != privateMode) {\n            properties[propertyID].isInPrivateMode = privateMode;\n        }\n        properties[propertyID].earnUntil = earnUntil;\n        properties[propertyID].lastUpdate = lastUpdate;\n        properties[propertyID].becomePublic = becomePublic;\n    }\n    \n    function setPropertyLastUpdaterLastUpdate(uint16 propertyID, address lastUpdater, uint256 lastUpdate) public pixelPropertyAccess() {\n        if (properties[propertyID].lastUpdater != lastUpdater) {\n            properties[propertyID].lastUpdater = lastUpdater;\n        }\n        properties[propertyID].lastUpdate = lastUpdate;\n    }\n    \n    function setPropertyBecomePublicEarnUntil(uint16 propertyID, uint256 becomePublic, uint256 earnUntil) public pixelPropertyAccess() {\n        properties[propertyID].becomePublic = becomePublic;\n        properties[propertyID].earnUntil = earnUntil;\n    }\n    \n    function setPropertyOwnerSalePricePrivateModeFlag(uint16 propertyID, address owner, uint256 salePrice, bool privateMode, uint8 flag) public pixelPropertyAccess() {\n        if (properties[propertyID].owner != owner) {\n            properties[propertyID].owner = owner;\n        }\n        if (properties[propertyID].salePrice != salePrice) {\n            properties[propertyID].salePrice = salePrice;\n        }\n        if (properties[propertyID].isInPrivateMode != privateMode) {\n            properties[propertyID].isInPrivateMode = privateMode;\n        }\n        if (properties[propertyID].flag != flag) {\n            properties[propertyID].flag = flag;\n        }\n    }\n    \n    function setPropertyOwnerSalePrice(uint16 propertyID, address owner, uint256 salePrice) public pixelPropertyAccess() {\n        if (properties[propertyID].owner != owner) {\n            properties[propertyID].owner = owner;\n        }\n        if (properties[propertyID].salePrice != salePrice) {\n            properties[propertyID].salePrice = salePrice;\n        }\n    }\n    \n    /* ### PixelProperty PXL Functions ### */\n    function rewardPXL(address rewardedUser, uint256 amount) public pixelPropertyAccess() {\n        require(rewardedUser != 0);\n        balances[rewardedUser] += amount;\n        totalSupply += amount;\n    }\n    \n    function burnPXL(address burningUser, uint256 amount) public pixelPropertyAccess() {\n        require(burningUser != 0);\n        require(balances[burningUser] >= amount);\n        balances[burningUser] -= amount;\n        totalSupply -= amount;\n    }\n    \n    function burnPXLRewardPXL(address burner, uint256 toBurn, address rewarder, uint256 toReward) public pixelPropertyAccess() {\n        require(balances[burner] >= toBurn);\n        if (toBurn > 0) {\n            balances[burner] -= toBurn;\n            totalSupply -= toBurn;\n        }\n        if (rewarder != 0) {\n            balances[rewarder] += toReward;\n            totalSupply += toReward;\n        }\n    } \n    \n    function burnPXLRewardPXLx2(address burner, uint256 toBurn, address rewarder1, uint256 toReward1, address rewarder2, uint256 toReward2) public pixelPropertyAccess() {\n        require(balances[burner] >= toBurn);\n        if (toBurn > 0) {\n            balances[burner] -= toBurn;\n            totalSupply -= toBurn;\n        }\n        if (rewarder1 != 0) {\n            balances[rewarder1] += toReward1;\n            totalSupply += toReward1;\n        }\n        if (rewarder2 != 0) {\n            balances[rewarder2] += toReward2;\n            totalSupply += toReward2;\n        }\n    } \n    \n    /* ### All Getters/Views ### */\n    function getOwnerHoverText(address user) public view returns(uint256[2]) {\n        return ownerHoverText[user];\n    }\n    \n    function getOwnerLink(address user) public view returns(uint256[2]) {\n        return ownerWebsite[user];\n    }\n    \n    function getPropertyFlag(uint16 propertyID) public view returns(uint8) {\n        return properties[propertyID].flag;\n    }\n    \n    function getPropertyPrivateMode(uint16 propertyID) public view returns(bool) {\n        return properties[propertyID].isInPrivateMode;\n    }\n    \n    function getPropertyOwner(uint16 propertyID) public view returns(address) {\n        return properties[propertyID].owner;\n    }\n    \n    function getPropertyLastUpdater(uint16 propertyID) public view returns(address) {\n        return properties[propertyID].lastUpdater;\n    }\n    \n    function getPropertyColors(uint16 propertyID) public view returns(uint256[5]) {\n        return properties[propertyID].colors;\n    }\n\n    function getPropertyColorsOfRow(uint16 propertyID, uint8 rowIndex) public view returns(uint256) {\n        require(rowIndex <= 9);\n        return properties[propertyID].colors[rowIndex];\n    }\n    \n    function getPropertySalePrice(uint16 propertyID) public view returns(uint256) {\n        return properties[propertyID].salePrice;\n    }\n    \n    function getPropertyLastUpdate(uint16 propertyID) public view returns(uint256) {\n        return properties[propertyID].lastUpdate;\n    }\n    \n    function getPropertyBecomePublic(uint16 propertyID) public view returns(uint256) {\n        return properties[propertyID].becomePublic;\n    }\n    \n    function getPropertyEarnUntil(uint16 propertyID) public view returns(uint256) {\n        return properties[propertyID].earnUntil;\n    }\n    \n    function getRegulatorLevel(address user) public view returns(uint8) {\n        return regulators[user];\n    }\n    \n    // Gets the (owners address, Ethereum sale price, PXL sale price, last update timestamp, whether its in private mode or not, when it becomes public timestamp, flag) for a Property\n    function getPropertyData(uint16 propertyID, uint256 systemSalePriceETH, uint256 systemSalePricePXL) public view returns(address, uint256, uint256, uint256, bool, uint256, uint8) {\n        Property memory property = properties[propertyID];\n        bool isInPrivateMode = property.isInPrivateMode;\n        //If it's in private, but it has expired and should be public, set our bool to be public\n        if (isInPrivateMode && property.becomePublic <= now) { \n            isInPrivateMode = false;\n        }\n        if (properties[propertyID].owner == 0) {\n            return (0, systemSalePriceETH, systemSalePricePXL, property.lastUpdate, isInPrivateMode, property.becomePublic, property.flag);\n        } else {\n            return (property.owner, 0, property.salePrice, property.lastUpdate, isInPrivateMode, property.becomePublic, property.flag);\n        }\n    }\n    \n    function getPropertyPrivateModeBecomePublic(uint16 propertyID) public view returns (bool, uint256) {\n        return (properties[propertyID].isInPrivateMode, properties[propertyID].becomePublic);\n    }\n    \n    function getPropertyLastUpdaterBecomePublic(uint16 propertyID) public view returns (address, uint256) {\n        return (properties[propertyID].lastUpdater, properties[propertyID].becomePublic);\n    }\n    \n    function getPropertyOwnerSalePrice(uint16 propertyID) public view returns (address, uint256) {\n        return (properties[propertyID].owner, properties[propertyID].salePrice);\n    }\n    \n    function getPropertyPrivateModeLastUpdateEarnUntil(uint16 propertyID) public view returns (bool, uint256, uint256) {\n        return (properties[propertyID].isInPrivateMode, properties[propertyID].lastUpdate, properties[propertyID].earnUntil);\n    }\n}\n",
    "sourcePath": "/Users/jaegarsarauer/Documents/DATA/CajartyComputing/Projects/PixelRealEstate/contracts/PXLProperty.sol",
    "compiler": {
        "name": "solc",
        "version": "0.4.18+commit.9cf6e910.Emscripten.clang"
    },
    "schemaVersion": "1.0.1",
    "updatedAt": "2018-05-01T13:35:08.497Z"
}