{
  "contractName": "PXLProperty_PixelPropertyAccess_Replacement",
  "abi": [
    {
      "constant": false,
      "inputs": [],
      "name": "modifyPXLPropertyState",
      "outputs": [
        {
          "name": "",
          "type": "bool"
        }
      ],
      "payable": false,
      "stateMutability": "nonpayable",
      "type": "function"
    },
    {
      "inputs": [
        {
          "name": "pxlPropertyAddress",
          "type": "address"
        }
      ],
      "payable": false,
      "stateMutability": "nonpayable",
      "type": "constructor"
    }
  ],
  "bytecode": "0x6060604052341561000f57600080fd5b60405160208061044f8339810160405280805160008054600160a060020a03909216600160a060020a031990921691909117905550506103fb806100546000396000f3006060604052600436106100275763ffffffff60e060020a60003504166324ce48c7811461002c575b600080fd5b341561003757600080fd5b61003f610053565b604051901515815260200160405180910390f35b600080548190600160a060020a03166326728b14306103e860405160e060020a63ffffffff8516028152600160a060020a0390921660048301526024820152604401600060405180830381600087803b15156100ae57600080fd5b6102c65a03f115156100bf57600080fd5b5050600054600160a060020a0316905063f6f8ca07306101f460405160e060020a63ffffffff8516028152600160a060020a0390921660048301526024820152604401600060405180830381600087803b151561011b57600080fd5b6102c65a03f1151561012c57600080fd5b505050600090505b60198110156102ee57600054600160a060020a0316634b1ec20c600a600160405160e060020a63ffffffff851602815261ffff909216600483015215156024820152604401600060405180830381600087803b151561019257600080fd5b6102c65a03f115156101a357600080fd5b5050600054600160a060020a0316905063411b65ef600a4260405160e060020a63ffffffff851602815261ffff90921660048301526024820152604401600060405180830381600087803b15156101f957600080fd5b6102c65a03f1151561020a57600080fd5b5050600054600160a060020a031690506317e0aeb8600a42840160405160e060020a63ffffffff851602815261ffff90921660048301526024820152604401600060405180830381600087803b151561026257600080fd5b6102c65a03f1151561027357600080fd5b5050600054600160a060020a0316905063c19358bb600a3360405160e060020a63ffffffff851602815261ffff9092166004830152600160a060020a03166024820152604401600060405180830381600087803b15156102d257600080fd5b6102c65a03f115156102e357600080fd5b505050600101610134565b600054600160a060020a03166326728b14336103e860405160e060020a63ffffffff8516028152600160a060020a0390921660048301526024820152604401600060405180830381600087803b151561034657600080fd5b6102c65a03f1151561035757600080fd5b5050600054600160a060020a0316905063f6f8ca07336101f460405160e060020a63ffffffff8516028152600160a060020a0390921660048301526024820152604401600060405180830381600087803b15156103b357600080fd5b6102c65a03f115156103c457600080fd5b5050506001915050905600a165627a7a72305820fbc9a83b0b70326bd2f63507c47592e1fa00b6de2f3c4a39e2647b7105772f370029",
  "source": "pragma solidity ^0.4.2;\nimport \"./PXLProperty.sol\";\n\ncontract PXLPropertyUnitTests {\n    PXLProperty_PixelPropertyAccess_UnitTests fullAccessUnitTests;\n    PXLProperty_PropertyDAppAccess_UnitTests dappAccessUnitTests;\n    PXLProperty pxlProperty;\n    \n    \n    PXLProperty_Regulator mod1;\n    PXLProperty_Regulator mod2;\n    PXLProperty_Regulator admin1;\n    PXLProperty_Regulator admin2;\n    \n    function PXLPropertyUnitTests() public {\n        \n    }\n    \n    function LoadUnitTests(address pxlPropertyAddress) public {\n        pxlProperty = PXLProperty(pxlPropertyAddress);\n        fullAccessUnitTests = new PXLProperty_PixelPropertyAccess_UnitTests(address(pxlProperty));\n        pxlProperty.setPixelPropertyContract(address(fullAccessUnitTests));\n        dappAccessUnitTests = new PXLProperty_PropertyDAppAccess_UnitTests(address(pxlProperty));\n        pxlProperty.setPropertyDAppContract(address(dappAccessUnitTests), true);\n        mod1 = new PXLProperty_Regulator(address(pxlProperty));\n        mod2 = new PXLProperty_Regulator(address(pxlProperty));\n        admin1 = new PXLProperty_Regulator(address(pxlProperty));\n        admin2 = new PXLProperty_Regulator(address(pxlProperty));\n    }\n    \n    function RunPixelPropertyAccessUnitTests() public returns(bool) {\n        \n        assert(fullAccessUnitTests.setPropertyPrivateMode_Test());\n        assert(fullAccessUnitTests.setPropertyOwner_Test());\n        assert(fullAccessUnitTests.setPropertyLastUpdater_Test());\n        assert(fullAccessUnitTests.setPropertySalePrice_Test());\n        assert(fullAccessUnitTests.setPropertyLastUpdate_Test());\n        assert(fullAccessUnitTests.setPropertyBecomePublic_Test());\n        assert(fullAccessUnitTests.setPropertyEarnUntil_Test());\n        assert(fullAccessUnitTests.setPropertyPrivateModeEarnUntilLastUpdateBecomePublic_Test());\n        assert(fullAccessUnitTests.setPropertyLastUpdaterLastUpdate_Test());\n        assert(fullAccessUnitTests.setPropertyBecomePublicEarnUntil_Test());\n        assert(fullAccessUnitTests.setPropertyOwnerSalePricePrivateModeFlag_Test());\n        assert(fullAccessUnitTests.rewardPXLburnPXL_Test());\n        assert(fullAccessUnitTests.setOwnerHoverText_Test());\n        \n        return true;\n    }\n    \n    function RunPropertyDAppAccessUnitTests() public returns(bool) {\n        \n        assert(dappAccessUnitTests.setPropertyColors_Test());\n        assert(dappAccessUnitTests.setPropertyRowColor_Test());\n        assert(dappAccessUnitTests.setOwnerHoverText_Test());\n        assert(dappAccessUnitTests.setOwnerLink_Test());\n        \n        return true;\n    }\n    \n    function RunModerationUnitTests() public returns(bool) {\n        //Root3 (owner) can give admin2\n        pxlProperty.setRegulatorAccessLevel(address(admin2), 4);\n        \n        //Admin2 can give Admin1\n        admin2.setRegulatorAccessLevel(address(admin1), 3);\n        \n        //Admin1 can mod mods1&2\n        admin1.setRegulatorAccessLevel(address(mod1), 1);\n        admin1.setRegulatorAccessLevel(address(mod2), 2);\n        \n        //Mod1 can NSFW\n        assert(mod1.setPropertyFlag(15, 1));\n        \n        //Mod2 can BAN\n        fullAccessUnitTests.setPropertyPrivateModeToBan(15);\n        assert(mod2.setPropertyFlag(15, 2));\n        \n        //Mod2 can unban\n        assert(mod2.setPropertyFlag(15, 0));\n        return true;\n    }\n    \n    function RunContractUpdateUnitTests() public returns(bool) {\n        PXLProperty_PixelPropertyAccess_Replacement replacement = new PXLProperty_PixelPropertyAccess_Replacement(address(pxlProperty));\n        pxlProperty.setPixelPropertyContract(address(replacement)); //Can replace PixelProperty DApp\n        assert(replacement.modifyPXLPropertyState()); //New PixelProperty can modify state\n        fullAccessUnitTests = new PXLProperty_PixelPropertyAccess_UnitTests(address(pxlProperty)); \n        pxlProperty.setPixelPropertyContract(address(fullAccessUnitTests)); // Update PXLProperty again but a \"new\" version of old one\n        RunPixelPropertyAccessUnitTests();\n        return true;\n    }\n}\n\n//Access as PixelProperty, which modifies ERC20 + Property Market + PropertyDApp\ncontract PXLProperty_PixelPropertyAccess_UnitTests {\n    uint16 constant PROPERTY_1 = 10;\n    PXLProperty pxlProperty;\n    \n    function PXLProperty_PixelPropertyAccess_UnitTests(address pxlPropertyAddress) public {\n        pxlProperty = PXLProperty(pxlPropertyAddress);\n    }\n    \n    function setPropertyPrivateMode_Test() public returns(bool) {\n        pxlProperty.setPropertyPrivateMode(PROPERTY_1, true);\n        assert(pxlProperty.getPropertyPrivateMode(PROPERTY_1) == true); // We can set to private mode\n        pxlProperty.setPropertyPrivateMode(PROPERTY_1, false);\n        assert(pxlProperty.getPropertyPrivateMode(PROPERTY_1) == false); // We can update it to false\n        return true;\n    }\n    \n    function setPropertyOwner_Test() public returns(bool) {\n        pxlProperty.setPropertyOwner(PROPERTY_1, msg.sender);\n        assert(pxlProperty.getPropertyOwner(PROPERTY_1) == msg.sender); // We can set the owner\n        pxlProperty.setPropertyOwner(PROPERTY_1, address(this));\n        assert(pxlProperty.getPropertyOwner(PROPERTY_1) == address(this)); // We can update the owner\n        return true;\n    }\n    \n    function setPropertyLastUpdater_Test() public returns(bool) {\n        pxlProperty.setPropertyLastUpdater(PROPERTY_1, msg.sender); \n        assert(pxlProperty.getPropertyLastUpdater(PROPERTY_1) == msg.sender); // We can set the lastUpdater\n        pxlProperty.setPropertyLastUpdater(PROPERTY_1, address(this));\n        assert(pxlProperty.getPropertyLastUpdater(PROPERTY_1) == address(this)); // We can update the lastUpdater\n        return true;\n    }\n    \n    function setPropertySalePrice_Test() public returns(bool) {\n        pxlProperty.setPropertySalePrice(PROPERTY_1, 10000);\n        assert(pxlProperty.getPropertySalePrice(PROPERTY_1) == 10000); // We can set the sale price\n        pxlProperty.setPropertySalePrice(PROPERTY_1, 555);\n        assert(pxlProperty.getPropertySalePrice(PROPERTY_1) == 555); // We can update the sale price\n        return true;\n    }\n    \n    function setPropertyLastUpdate_Test() public returns(bool) {\n        uint256 timestamp1 = now;\n        uint256 timestamp2 = timestamp1 + 50;\n        pxlProperty.setPropertyLastUpdate(PROPERTY_1, timestamp1);\n        assert(pxlProperty.getPropertyLastUpdate(PROPERTY_1) == timestamp1); // We can set the lastUpdate\n        pxlProperty.setPropertyLastUpdate(PROPERTY_1, timestamp2);\n        assert(pxlProperty.getPropertyLastUpdate(PROPERTY_1) == timestamp2); // We can update the lastUpdate\n        return true;\n    }\n    \n    function setPropertyBecomePublic_Test() public returns(bool) {\n        uint256 timestamp1 = now;\n        uint256 timestamp2 = timestamp1 + 9999;\n        pxlProperty.setPropertyBecomePublic(PROPERTY_1, timestamp1);\n        assert(pxlProperty.getPropertyBecomePublic(PROPERTY_1) == timestamp1); // We can set the becomePublic\n        pxlProperty.setPropertyBecomePublic(PROPERTY_1, timestamp2);\n        assert(pxlProperty.getPropertyBecomePublic(PROPERTY_1) == timestamp2); // We can update the becomePublic\n        return true;\n    }\n    \n    function setPropertyEarnUntil_Test() public returns(bool) {\n        uint256 timestamp1 = now;\n        uint256 timestamp2 = timestamp1 + 555;\n        pxlProperty.setPropertyEarnUntil(PROPERTY_1, timestamp1);\n        assert(pxlProperty.getPropertyEarnUntil(PROPERTY_1) == timestamp1); // We can set the earnUntil\n        pxlProperty.setPropertyEarnUntil(PROPERTY_1, timestamp2);\n        assert(pxlProperty.getPropertyEarnUntil(PROPERTY_1) == timestamp2); // We can update the earnUntil\n        return true;\n    }\n    \n    function setPropertyPrivateModeEarnUntilLastUpdateBecomePublic_Test() public returns(bool) {\n        bool currentPrivateMode = pxlProperty.getPropertyPrivateMode(PROPERTY_1);\n        \n        pxlProperty.setPropertyPrivateModeEarnUntilLastUpdateBecomePublic(PROPERTY_1, (!currentPrivateMode), 1000, 3000, 5000);\n        \n        assert(pxlProperty.getPropertyPrivateMode(PROPERTY_1) == (!currentPrivateMode));\n        assert(pxlProperty.getPropertyEarnUntil(PROPERTY_1) == 1000);\n        assert(pxlProperty.getPropertyLastUpdate(PROPERTY_1) == 3000);\n        assert(pxlProperty.getPropertyBecomePublic(PROPERTY_1) == 5000);\n        return true;\n    }\n    \n    function setPropertyLastUpdaterLastUpdate_Test() public returns(bool) {\n        uint256 timestamp = now;\n        \n        pxlProperty.setPropertyLastUpdaterLastUpdate(PROPERTY_1, msg.sender, timestamp);\n        \n        assert(pxlProperty.getPropertyLastUpdater(PROPERTY_1) == msg.sender);\n        assert(pxlProperty.getPropertyLastUpdate(PROPERTY_1) == timestamp);\n        return true;\n    }\n    \n    function setPropertyBecomePublicEarnUntil_Test() public returns(bool) {\n        pxlProperty.setPropertyBecomePublicEarnUntil(PROPERTY_1, 50000, 60000);\n        \n        assert(pxlProperty.getPropertyBecomePublic(PROPERTY_1) == 50000);\n        assert(pxlProperty.getPropertyEarnUntil(PROPERTY_1) == 60000);\n        return true;\n    }\n    \n    function setPropertyOwnerSalePricePrivateModeFlag_Test() public returns(bool) {\n        bool currentPrivateMode = pxlProperty.getPropertyPrivateMode(PROPERTY_1);\n        \n        pxlProperty.setPropertyOwnerSalePricePrivateModeFlag(PROPERTY_1, msg.sender, 1000, (!currentPrivateMode), 3);\n        \n        assert(pxlProperty.getPropertyOwner(PROPERTY_1) == msg.sender);\n        assert(pxlProperty.getPropertySalePrice(PROPERTY_1) == 1000);\n        assert(pxlProperty.getPropertyPrivateMode(PROPERTY_1) == (!currentPrivateMode));\n        assert(pxlProperty.getPropertyFlag(PROPERTY_1) == 3);\n        return true;\n    }\n    \n    function rewardPXLburnPXL_Test() public returns(bool) {\n        uint256 totalSupply = pxlProperty.totalSupply();\n        uint256 senderOriginalPXL = pxlProperty.balanceOf(msg.sender);\n        uint256 thisOriginalPXL = pxlProperty.balanceOf(address(this));\n        \n        pxlProperty.rewardPXL(msg.sender, 10000);\n        pxlProperty.rewardPXL(msg.sender, 200);\n        pxlProperty.rewardPXL(address(this), 5000);\n        pxlProperty.burnPXL(msg.sender, 1000);\n        pxlProperty.rewardPXL(msg.sender, 50);\n        pxlProperty.burnPXL(address(this), 3000);\n        pxlProperty.rewardPXL(address(this), 100);\n        pxlProperty.burnPXL(address(this), 50);\n        pxlProperty.burnPXLRewardPXLx2(address(this), 10, address(this), 100, msg.sender, 100);\n        \n        uint256 senderPXL = 10000 + 200 - 1000 + 50 + 100;\n        uint256 thisPXL = 5000 - 3000 + 100 - 50 - 10 + 100;\n        uint256 properSupply = totalSupply + senderPXL + thisPXL;\n        \n        assert(pxlProperty.totalSupply() == properSupply);\n        assert(pxlProperty.balanceOf(msg.sender) == senderOriginalPXL + senderPXL);\n        assert(pxlProperty.balanceOf(address(this)) == thisOriginalPXL + thisPXL);\n        return true;\n    }\n    \n    //Proves that we have DApp access as well\n    function setOwnerHoverText_Test() public returns(bool) {\n        uint256[2] memory oldHoverText = pxlProperty.getOwnerHoverText(msg.sender);\n        uint256[2] memory newHoverText;\n        newHoverText[0] = 55555;\n        newHoverText[1] = 63453;\n        pxlProperty.setOwnerHoverText(msg.sender, newHoverText);\n        assert(pxlProperty.getOwnerHoverText(msg.sender)[0] == newHoverText[0]);\n        assert(pxlProperty.getOwnerHoverText(msg.sender)[1] == newHoverText[1]);\n        return true;\n    }\n\n    \n    //Needed for moderation test\n    function setPropertyPrivateModeToBan(uint16 propertyID) public {\n        pxlProperty.setPropertyPrivateMode(propertyID, true);\n        uint256[10] memory newColors;\n        for(uint256 i = 0; i < 10; i++) {\n            newColors[i] = 777;\n        }\n        pxlProperty.setPropertyColors(propertyID, newColors);\n    }\n}\n\n//Access as Property DApp\ncontract PXLProperty_PropertyDAppAccess_UnitTests {\n    PXLProperty pxlProperty;\n    uint16 constant PROPERTY_1 = 50;\n    \n    function PXLProperty_PropertyDAppAccess_UnitTests(address pxlPropertyAddress) public {\n        pxlProperty = PXLProperty(pxlPropertyAddress);\n    }\n    \n    function setPropertyColors_Test() public returns(bool) {\n        uint256[10] memory defaultColors = pxlProperty.getPropertyColors(PROPERTY_1);\n        assert(defaultColors[0] == 0 && defaultColors[5] == 0 && defaultColors[9] == 0); // There is no colors\n        uint256[10] memory newColors;\n        newColors[5] = 10;\n        newColors[9] = 99;\n        pxlProperty.setPropertyColors(PROPERTY_1, newColors);\n        assert(pxlProperty.getPropertyColors(PROPERTY_1)[5] == 10); // We can set the colors\n        assert(pxlProperty.getPropertyColors(PROPERTY_1)[9] == 99);\n        newColors[5] = 66;\n        pxlProperty.setPropertyColors(PROPERTY_1, newColors);\n        assert(pxlProperty.getPropertyColors(PROPERTY_1)[5] == 66); // We can update the colors\n        return true;\n    }\n    \n    function setPropertyRowColor_Test() public returns(bool) {\n        pxlProperty.setPropertyRowColor(PROPERTY_1, 3, 33);\n        assert(pxlProperty.getPropertyColorsOfRow(PROPERTY_1, 3) == 33); // We can set the row\n        return true;\n    }\n    \n    function setOwnerHoverText_Test() public returns(bool) {\n        uint256[2] memory newHoverText;\n        newHoverText[0] = 55555;\n        newHoverText[1] = 63453;\n        pxlProperty.setOwnerHoverText(msg.sender, newHoverText);\n        assert(pxlProperty.getOwnerHoverText(msg.sender)[0] == newHoverText[0]);\n        assert(pxlProperty.getOwnerHoverText(msg.sender)[1] == newHoverText[1]);\n        return true;\n    }\n    \n    function setOwnerLink_Test() public returns(bool) {\n        uint256[2] memory newLink;\n        newLink[0] = 55555;\n        newLink[1] = 63453;\n        pxlProperty.setOwnerLink(msg.sender, newLink);\n        assert(pxlProperty.getOwnerLink(msg.sender)[0] == newLink[0]);\n        assert(pxlProperty.getOwnerLink(msg.sender)[1] == newLink[1]);\n        return true;\n    }\n}\n\ncontract PXLProperty_PixelPropertyAccess_Replacement {\n    uint16 constant PROPERTY_1 = 10;\n    PXLProperty pxlProperty;\n    \n    function PXLProperty_PixelPropertyAccess_Replacement(address pxlPropertyAddress) public {\n        pxlProperty = PXLProperty(pxlPropertyAddress);\n    }\n    \n    function modifyPXLPropertyState() public returns(bool) {\n        pxlProperty.rewardPXL(address(this), 1000);\n        pxlProperty.burnPXL(address(this), 500);\n        for(uint256 i = 0; i < 25; i++) {\n            pxlProperty.setPropertyPrivateMode(PROPERTY_1, true);\n            pxlProperty.setPropertyLastUpdate(PROPERTY_1, now);\n            pxlProperty.setPropertyEarnUntil(PROPERTY_1, now + i);\n            pxlProperty.setPropertyLastUpdater(PROPERTY_1, msg.sender);\n        }\n        pxlProperty.rewardPXL(msg.sender, 1000);\n        pxlProperty.burnPXL(msg.sender, 500);\n        return true;\n    }\n}\n\ncontract PXLProperty_Regulator {\n    PXLProperty pxlProperty;\n    \n    function PXLProperty_Regulator(address pxlPropertyAddress) public {\n        pxlProperty = PXLProperty(pxlPropertyAddress);\n    }\n    \n    function setPropertyFlag(uint16 propertyID, uint8 flag) public returns(bool) {\n        pxlProperty.setPropertyFlag(propertyID, flag);\n        assert(pxlProperty.getPropertyFlag(propertyID) == flag);\n        if (flag == 2) {\n            assert(pxlProperty.getPropertyColors(propertyID)[0] == 0);\n        }\n        return true;\n    }\n    \n    function setRegulatorAccessLevel(address user, uint8 level) public returns(bool) {\n        pxlProperty.setRegulatorAccessLevel(user, level);\n        return true;\n    }\n}",
  "sourcePath": "/Users/jaegarsarauer/Documents/DATA/CajartyComputing/Projects/PixelRealEstate/contracts/PXLPropertyUnitTests.sol",
  "compiler": {
    "name": "solc",
    "version": "0.4.18+commit.9cf6e910.Emscripten.clang"
  },
  "schemaVersion": "1.0.1",
  "updatedAt": "2018-04-14T17:54:03.166Z"
}