{
    "contractName": "VirtualRealEstate",
    "abi": [
        {
            "constant": true,
            "inputs": [
                {
                    "name": "propertyID",
                    "type": "uint24"
                }
            ],
            "name": "getPropertyData",
            "outputs": [
                {
                    "name": "",
                    "type": "address"
                },
                {
                    "name": "",
                    "type": "uint256"
                },
                {
                    "name": "",
                    "type": "uint256"
                },
                {
                    "name": "",
                    "type": "uint256"
                },
                {
                    "name": "",
                    "type": "bool"
                }
            ],
            "payable": false,
            "stateMutability": "view",
            "type": "function"
        },
        {
            "constant": false,
            "inputs": [
                {
                    "name": "_spender",
                    "type": "address"
                },
                {
                    "name": "_value",
                    "type": "uint256"
                }
            ],
            "name": "approve",
            "outputs": [
                {
                    "name": "success",
                    "type": "bool"
                }
            ],
            "payable": false,
            "stateMutability": "nonpayable",
            "type": "function"
        },
        {
            "constant": false,
            "inputs": [
                {
                    "name": "propertyID",
                    "type": "uint24"
                },
                {
                    "name": "row",
                    "type": "uint8"
                },
                {
                    "name": "newColorData",
                    "type": "uint24"
                }
            ],
            "name": "setRowColors",
            "outputs": [
                {
                    "name": "",
                    "type": "bool"
                }
            ],
            "payable": false,
            "stateMutability": "nonpayable",
            "type": "function"
        },
        {
            "constant": false,
            "inputs": [
                {
                    "name": "propertyID",
                    "type": "uint24"
                },
                {
                    "name": "price",
                    "type": "uint128"
                }
            ],
            "name": "listForSale",
            "outputs": [
                {
                    "name": "",
                    "type": "bool"
                }
            ],
            "payable": false,
            "stateMutability": "nonpayable",
            "type": "function"
        },
        {
            "constant": true,
            "inputs": [
                {
                    "name": "propertyID",
                    "type": "uint24"
                }
            ],
            "name": "getPropertyColors",
            "outputs": [
                {
                    "name": "",
                    "type": "uint256[10]"
                }
            ],
            "payable": false,
            "stateMutability": "view",
            "type": "function"
        },
        {
            "constant": true,
            "inputs": [
                {
                    "name": "user",
                    "type": "address"
                }
            ],
            "name": "getHoverText",
            "outputs": [
                {
                    "name": "",
                    "type": "bytes32[2]"
                }
            ],
            "payable": false,
            "stateMutability": "view",
            "type": "function"
        },
        {
            "constant": true,
            "inputs": [],
            "name": "totalSupply",
            "outputs": [
                {
                    "name": "",
                    "type": "uint256"
                }
            ],
            "payable": false,
            "stateMutability": "view",
            "type": "function"
        },
        {
            "constant": false,
            "inputs": [
                {
                    "name": "text",
                    "type": "bytes32[2]"
                }
            ],
            "name": "setHoverText",
            "outputs": [],
            "payable": false,
            "stateMutability": "nonpayable",
            "type": "function"
        },
        {
            "constant": false,
            "inputs": [
                {
                    "name": "_from",
                    "type": "address"
                },
                {
                    "name": "_to",
                    "type": "address"
                },
                {
                    "name": "_value",
                    "type": "uint256"
                }
            ],
            "name": "transferFrom",
            "outputs": [
                {
                    "name": "success",
                    "type": "bool"
                }
            ],
            "payable": false,
            "stateMutability": "nonpayable",
            "type": "function"
        },
        {
            "constant": false,
            "inputs": [
                {
                    "name": "link",
                    "type": "bytes32[2]"
                }
            ],
            "name": "setLink",
            "outputs": [],
            "payable": false,
            "stateMutability": "nonpayable",
            "type": "function"
        },
        {
            "constant": false,
            "inputs": [
                {
                    "name": "amount",
                    "type": "uint256"
                }
            ],
            "name": "withdraw",
            "outputs": [],
            "payable": false,
            "stateMutability": "nonpayable",
            "type": "function"
        },
        {
            "constant": false,
            "inputs": [
                {
                    "name": "propertyID",
                    "type": "uint24"
                },
                {
                    "name": "ppcValue",
                    "type": "uint256"
                }
            ],
            "name": "buyPropertyInPPC",
            "outputs": [
                {
                    "name": "",
                    "type": "bool"
                }
            ],
            "payable": false,
            "stateMutability": "nonpayable",
            "type": "function"
        },
        {
            "constant": false,
            "inputs": [
                {
                    "name": "propertyID",
                    "type": "uint24"
                }
            ],
            "name": "delist",
            "outputs": [
                {
                    "name": "",
                    "type": "bool"
                }
            ],
            "payable": false,
            "stateMutability": "nonpayable",
            "type": "function"
        },
        {
            "constant": false,
            "inputs": [
                {
                    "name": "propertyID",
                    "type": "uint24"
                },
                {
                    "name": "ppcValue",
                    "type": "uint256"
                }
            ],
            "name": "buyProperty",
            "outputs": [
                {
                    "name": "",
                    "type": "bool"
                }
            ],
            "payable": true,
            "stateMutability": "payable",
            "type": "function"
        },
        {
            "constant": true,
            "inputs": [
                {
                    "name": "_owner",
                    "type": "address"
                }
            ],
            "name": "balanceOf",
            "outputs": [
                {
                    "name": "balance",
                    "type": "uint256"
                }
            ],
            "payable": false,
            "stateMutability": "view",
            "type": "function"
        },
        {
            "constant": false,
            "inputs": [
                {
                    "name": "propertyID",
                    "type": "uint24"
                },
                {
                    "name": "newOwner",
                    "type": "address"
                }
            ],
            "name": "transferProperty",
            "outputs": [
                {
                    "name": "",
                    "type": "bool"
                }
            ],
            "payable": false,
            "stateMutability": "nonpayable",
            "type": "function"
        },
        {
            "constant": false,
            "inputs": [],
            "name": "withdrawAll",
            "outputs": [],
            "payable": false,
            "stateMutability": "nonpayable",
            "type": "function"
        },
        {
            "constant": true,
            "inputs": [
                {
                    "name": "user",
                    "type": "address"
                }
            ],
            "name": "getLink",
            "outputs": [
                {
                    "name": "",
                    "type": "bytes32[2]"
                }
            ],
            "payable": false,
            "stateMutability": "view",
            "type": "function"
        },
        {
            "constant": false,
            "inputs": [
                {
                    "name": "propertyID",
                    "type": "uint24"
                },
                {
                    "name": "isInPrivateMode",
                    "type": "bool"
                },
                {
                    "name": "numHoursPrivate",
                    "type": "uint32"
                }
            ],
            "name": "setPropertyMode",
            "outputs": [],
            "payable": false,
            "stateMutability": "nonpayable",
            "type": "function"
        },
        {
            "constant": false,
            "inputs": [
                {
                    "name": "_to",
                    "type": "address"
                },
                {
                    "name": "_value",
                    "type": "uint256"
                }
            ],
            "name": "transfer",
            "outputs": [
                {
                    "name": "success",
                    "type": "bool"
                }
            ],
            "payable": false,
            "stateMutability": "nonpayable",
            "type": "function"
        },
        {
            "constant": false,
            "inputs": [
                {
                    "name": "user",
                    "type": "address"
                },
                {
                    "name": "amount",
                    "type": "uint256"
                }
            ],
            "name": "addCoin",
            "outputs": [],
            "payable": false,
            "stateMutability": "nonpayable",
            "type": "function"
        },
        {
            "constant": true,
            "inputs": [
                {
                    "name": "propertyID",
                    "type": "uint24"
                }
            ],
            "name": "getForSalePrices",
            "outputs": [
                {
                    "name": "",
                    "type": "uint256"
                },
                {
                    "name": "",
                    "type": "uint256"
                }
            ],
            "payable": false,
            "stateMutability": "view",
            "type": "function"
        },
        {
            "constant": false,
            "inputs": [
                {
                    "name": "newOwner",
                    "type": "address"
                }
            ],
            "name": "changeOwners",
            "outputs": [],
            "payable": false,
            "stateMutability": "nonpayable",
            "type": "function"
        },
        {
            "constant": false,
            "inputs": [
                {
                    "name": "propertyID",
                    "type": "uint24"
                },
                {
                    "name": "newColors",
                    "type": "uint256[10]"
                }
            ],
            "name": "setColors",
            "outputs": [
                {
                    "name": "",
                    "type": "bool"
                }
            ],
            "payable": false,
            "stateMutability": "nonpayable",
            "type": "function"
        },
        {
            "constant": true,
            "inputs": [
                {
                    "name": "_owner",
                    "type": "address"
                },
                {
                    "name": "_spender",
                    "type": "address"
                }
            ],
            "name": "allowance",
            "outputs": [
                {
                    "name": "remaining",
                    "type": "uint256"
                }
            ],
            "payable": false,
            "stateMutability": "view",
            "type": "function"
        },
        {
            "constant": false,
            "inputs": [
                {
                    "name": "propertyID",
                    "type": "uint24"
                }
            ],
            "name": "buyPropertyInETH",
            "outputs": [
                {
                    "name": "",
                    "type": "bool"
                }
            ],
            "payable": true,
            "stateMutability": "payable",
            "type": "function"
        },
        {
            "inputs": [],
            "payable": false,
            "stateMutability": "nonpayable",
            "type": "constructor"
        },
        {
            "anonymous": false,
            "inputs": [
                {
                    "indexed": true,
                    "name": "property",
                    "type": "uint24"
                },
                {
                    "indexed": false,
                    "name": "colors",
                    "type": "uint256[10]"
                },
                {
                    "indexed": false,
                    "name": "lastUpdate",
                    "type": "uint256"
                },
                {
                    "indexed": false,
                    "name": "lastUpdaterPayee",
                    "type": "address"
                }
            ],
            "name": "PropertyColorUpdate",
            "type": "event"
        },
        {
            "anonymous": false,
            "inputs": [
                {
                    "indexed": true,
                    "name": "property",
                    "type": "uint24"
                },
                {
                    "indexed": false,
                    "name": "row",
                    "type": "uint8"
                },
                {
                    "indexed": false,
                    "name": "rgb",
                    "type": "uint24"
                }
            ],
            "name": "PropertyColorUpdatePixel",
            "type": "event"
        },
        {
            "anonymous": false,
            "inputs": [
                {
                    "indexed": true,
                    "name": "property",
                    "type": "uint24"
                },
                {
                    "indexed": false,
                    "name": "newOwner",
                    "type": "address"
                },
                {
                    "indexed": false,
                    "name": "ethAmount",
                    "type": "uint256"
                },
                {
                    "indexed": false,
                    "name": "ppcAmount",
                    "type": "uint256"
                },
                {
                    "indexed": false,
                    "name": "timestamp",
                    "type": "uint256"
                }
            ],
            "name": "PropertyBought",
            "type": "event"
        },
        {
            "anonymous": false,
            "inputs": [
                {
                    "indexed": true,
                    "name": "user",
                    "type": "address"
                },
                {
                    "indexed": false,
                    "name": "newHoverText",
                    "type": "bytes32[2]"
                }
            ],
            "name": "SetUserHoverText",
            "type": "event"
        },
        {
            "anonymous": false,
            "inputs": [
                {
                    "indexed": true,
                    "name": "user",
                    "type": "address"
                },
                {
                    "indexed": false,
                    "name": "newLink",
                    "type": "bytes32[2]"
                }
            ],
            "name": "SetUserSetLink",
            "type": "event"
        },
        {
            "anonymous": false,
            "inputs": [
                {
                    "indexed": true,
                    "name": "property",
                    "type": "uint24"
                },
                {
                    "indexed": false,
                    "name": "forSalePrice",
                    "type": "uint256"
                }
            ],
            "name": "PropertySetForSale",
            "type": "event"
        },
        {
            "anonymous": false,
            "inputs": [
                {
                    "indexed": true,
                    "name": "property",
                    "type": "uint24"
                }
            ],
            "name": "DelistProperty",
            "type": "event"
        },
        {
            "anonymous": false,
            "inputs": [
                {
                    "indexed": true,
                    "name": "property",
                    "type": "uint24"
                }
            ],
            "name": "SetPropertyPublic",
            "type": "event"
        },
        {
            "anonymous": false,
            "inputs": [
                {
                    "indexed": true,
                    "name": "property",
                    "type": "uint24"
                },
                {
                    "indexed": false,
                    "name": "numHoursPrivate",
                    "type": "uint32"
                }
            ],
            "name": "SetPropertyPrivate",
            "type": "event"
        },
        {
            "anonymous": false,
            "inputs": [
                {
                    "indexed": true,
                    "name": "_from",
                    "type": "address"
                },
                {
                    "indexed": true,
                    "name": "_to",
                    "type": "address"
                },
                {
                    "indexed": false,
                    "name": "_value",
                    "type": "uint256"
                }
            ],
            "name": "Transfer",
            "type": "event"
        },
        {
            "anonymous": false,
            "inputs": [
                {
                    "indexed": true,
                    "name": "_owner",
                    "type": "address"
                },
                {
                    "indexed": true,
                    "name": "_spender",
                    "type": "address"
                },
                {
                    "indexed": false,
                    "name": "_value",
                    "type": "uint256"
                }
            ],
            "name": "Approval",
            "type": "event"
        }
    ],
    "bytecode": "0x606060405260006004556103e86009556014600a55600a600c556014600d556062600e556002600f55341561003357600080fd5b33600360006101000a81548173ffffffffffffffffffffffffffffffffffffffff021916908373ffffffffffffffffffffffffffffffffffffffff16021790555060008081905550620151804201601081905550600a600b81905550612710600881905550612e6b806100a76000396000f300606060405260043610610154576000357c0100000000000000000000000000000000000000000000000000000000900463ffffffff168063075773fd14610159578063095ea7b3146101e15780630a88e7701461023b57806316035c7c14610295578063164e0aba146102f05780631775459d1461035457806318160ddd146103c95780631d04458d146103f257806323b872dd14610438578063284b8a64146104b15780632e1a7d4d146104f7578063410b6d7a1461051a5780635a033830146105635780636145a4f0146105a357806370a08231146105e157806382e573961461062e578063853828b61461068d5780639d6abe4f146106a2578063a690478b14610717578063a9059cbb14610759578063b4014879146107b3578063c3c9c241146107f5578063d7963f9414610838578063dc4cb7f514610871578063dd62ed3e146108de578063ef952a991461094a575b600080fd5b341561016457600080fd5b61017f600480803562ffffff1690602001909190505061097f565b604051808673ffffffffffffffffffffffffffffffffffffffff1673ffffffffffffffffffffffffffffffffffffffff168152602001858152602001848152602001838152602001821515151581526020019550505050505060405180910390f35b34156101ec57600080fd5b610221600480803573ffffffffffffffffffffffffffffffffffffffff16906020019091908035906020019091905050610aa8565b604051808215151515815260200191505060405180910390f35b341561024657600080fd5b61027b600480803562ffffff1690602001909190803560ff1690602001909190803562ffffff16906020019091905050610b9a565b604051808215151515815260200191505060405180910390f35b34156102a057600080fd5b6102d6600480803562ffffff169060200190919080356fffffffffffffffffffffffffffffffff16906020019091905050610e1e565b604051808215151515815260200191505060405180910390f35b34156102fb57600080fd5b610316600480803562ffffff16906020019091905050610f39565b6040518082600a60200280838360005b83811015610341578082015181840152602081019050610326565b5050505090500191505060405180910390f35b341561035f57600080fd5b61038b600480803573ffffffffffffffffffffffffffffffffffffffff16906020019091905050610fb6565b6040518082600260200280838360005b838110156103b657808201518184015260208101905061039b565b5050505090500191505060405180910390f35b34156103d457600080fd5b6103dc611044565b6040518082815260200191505060405180910390f35b34156103fd57600080fd5b6104366004808060400190600280602002604051908101604052809291908260026020028082843782019150505050509190505061104a565b005b341561044357600080fd5b610497600480803573ffffffffffffffffffffffffffffffffffffffff1690602001909190803573ffffffffffffffffffffffffffffffffffffffff16906020019091908035906020019091905050611112565b604051808215151515815260200191505060405180910390f35b34156104bc57600080fd5b6104f56004808060400190600280602002604051908101604052809291908260026020028082843782019150505050509190505061138e565b005b341561050257600080fd5b6105186004808035906020019091905050611456565b005b341561052557600080fd5b610549600480803562ffffff16906020019091908035906020019091905050611523565b604051808215151515815260200191505060405180910390f35b341561056e57600080fd5b610589600480803562ffffff169060200190919050506118c8565b604051808215151515815260200191505060405180910390f35b6105c7600480803562ffffff169060200190919080359060200190919050506119a0565b604051808215151515815260200191505060405180910390f35b34156105ec57600080fd5b610618600480803573ffffffffffffffffffffffffffffffffffffffff16906020019091905050611d4a565b6040518082815260200191505060405180910390f35b341561063957600080fd5b610673600480803562ffffff1690602001909190803573ffffffffffffffffffffffffffffffffffffffff16906020019091905050611d93565b604051808215151515815260200191505060405180910390f35b341561069857600080fd5b6106a0611f1b565b005b34156106ad57600080fd5b6106d9600480803573ffffffffffffffffffffffffffffffffffffffff16906020019091905050611fdd565b6040518082600260200280838360005b838110156107045780820151818401526020810190506106e9565b5050505090500191505060405180910390f35b341561072257600080fd5b610757600480803562ffffff16906020019091908035151590602001909190803563ffffffff1690602001909190505061206b565b005b341561076457600080fd5b610799600480803573ffffffffffffffffffffffffffffffffffffffff1690602001909190803590602001909190505061228b565b604051808215151515815260200191505060405180910390f35b34156107be57600080fd5b6107f3600480803573ffffffffffffffffffffffffffffffffffffffff169060200190919080359060200190919050506123f4565b005b341561080057600080fd5b61081b600480803562ffffff169060200190919050506124a1565b604051808381526020018281526020019250505060405180910390f35b341561084357600080fd5b61086f600480803573ffffffffffffffffffffffffffffffffffffffff1690602001909190505061253e565b005b341561087c57600080fd5b6108c4600480803562ffffff1690602001909190806101400190600a806020026040519081016040528092919082600a602002808284378201915050505050919050506125de565b604051808215151515815260200191505060405180910390f35b34156108e957600080fd5b610934600480803573ffffffffffffffffffffffffffffffffffffffff1690602001909190803573ffffffffffffffffffffffffffffffffffffffff16906020019091905050612aca565b6040518082815260200191505060405180910390f35b610965600480803562ffffff16906020019091905050612b51565b604051808215151515815260200191505060405180910390f35b600080600080600080866127108162ffffff161015610a9d57600560008962ffffff1662ffffff168152602001908152602001600020915060008260000160009054906101000a900473ffffffffffffffffffffffffffffffffffffffff1673ffffffffffffffffffffffffffffffffffffffff161415610a4b578160000160009054906101000a900473ffffffffffffffffffffffffffffffffffffffff16600854600b5484600d015485600c0160149054906101000a900460ff1696509650965096509650610a9c565b8160000160009054906101000a900473ffffffffffffffffffffffffffffffffffffffff16600083600b015484600d015485600c0160149054906101000a900460ff16839350965096509650965096505b5b505091939590929450565b600081600260003373ffffffffffffffffffffffffffffffffffffffff1673ffffffffffffffffffffffffffffffffffffffff16815260200190815260200160002060008573ffffffffffffffffffffffffffffffffffffffff1673ffffffffffffffffffffffffffffffffffffffff168152602001908152602001600020819055508273ffffffffffffffffffffffffffffffffffffffff163373ffffffffffffffffffffffffffffffffffffffff167f8c5be1e5ebec7d5bd14f71427d1e84f3dd0314c0f7b2291e5b200ac8c7c3b925846040518082815260200191505060405180910390a36001905092915050565b6000806000856127108162ffffff161015610e1457600560008862ffffff1662ffffff168152602001908152602001600020925060008660ff1610158015610be6575060098660ff1611155b1515610bf157600080fd5b60008360000160009054906101000a900473ffffffffffffffffffffffffffffffffffffffff1673ffffffffffffffffffffffffffffffffffffffff161415610c3b576002610c3e565b60015b60ff16915082600c0160149054906101000a900460ff1615610cbd578260000160009054906101000a900473ffffffffffffffffffffffffffffffffffffffff1673ffffffffffffffffffffffffffffffffffffffff163373ffffffffffffffffffffffffffffffffffffffff16141515610cb857600080fd5b600091505b81600160003373ffffffffffffffffffffffffffffffffffffffff1673ffffffffffffffffffffffffffffffffffffffff1681526020019081526020016000205410151515610d0b57600080fd5b81600160003373ffffffffffffffffffffffffffffffffffffffff1673ffffffffffffffffffffffffffffffffffffffff168152602001908152602001600020600082825403925050819055508462ffffff16836001018760ff16600a81101515610d7257fe5b01819055503383600c0160006101000a81548173ffffffffffffffffffffffffffffffffffffffff021916908373ffffffffffffffffffffffffffffffffffffffff1602179055508662ffffff167f1552c53109a4b1a1c4938ae91d342a910cb3f903cd2262bcaea67365553a8e478787604051808360ff1660ff1681526020018262ffffff1662ffffff1681526020019250505060405180910390a2600193505b5050509392505050565b600080836127108162ffffff161015610f3157600560008662ffffff1662ffffff16815260200190815260200160002091506000846fffffffffffffffffffffffffffffffff1614151515610e7257600080fd5b8160000160009054906101000a900473ffffffffffffffffffffffffffffffffffffffff1673ffffffffffffffffffffffffffffffffffffffff163373ffffffffffffffffffffffffffffffffffffffff16141515610ed057600080fd5b836fffffffffffffffffffffffffffffffff1682600b01819055508462ffffff167f06ebe22c29c68b4166927bf53da5a19075c3eb97bba0f0113c22c97576b6ba2683600b01546040518082815260200191505060405180910390a2600192505b505092915050565b610f41612d1c565b816127108162ffffff161015610fb057600560008462ffffff1662ffffff168152602001908152602001600020600101600a806020026040519081016040528092919082600a8015610fa8576020028201915b815481526020019060010190808311610f94575b505050505091505b50919050565b610fbe612d45565b600760008373ffffffffffffffffffffffffffffffffffffffff1673ffffffffffffffffffffffffffffffffffffffff168152602001908152602001600020600280602002604051908101604052809291908260028015611038576020028201915b81546000191681526020019060010190808311611020575b50505050509050919050565b60005481565b80600760003373ffffffffffffffffffffffffffffffffffffffff1673ffffffffffffffffffffffffffffffffffffffff168152602001908152602001600020906002611098929190612d6f565b503373ffffffffffffffffffffffffffffffffffffffff167ff6fae1282aa1dee75d2bf0c4aa362eb3949ebf974dfddcd6351e3dd61e389f29826040518082600260200280838360005b838110156110fd5780820151818401526020810190506110e2565b5050505090500191505060405180910390a250565b600081600160008673ffffffffffffffffffffffffffffffffffffffff1673ffffffffffffffffffffffffffffffffffffffff16815260200190815260200160002054101580156111df575081600260008673ffffffffffffffffffffffffffffffffffffffff1673ffffffffffffffffffffffffffffffffffffffff16815260200190815260200160002060003373ffffffffffffffffffffffffffffffffffffffff1673ffffffffffffffffffffffffffffffffffffffff1681526020019081526020016000205410155b80156111eb5750600082115b156113825781600160008573ffffffffffffffffffffffffffffffffffffffff1673ffffffffffffffffffffffffffffffffffffffff1681526020019081526020016000206000828254019250508190555081600160008673ffffffffffffffffffffffffffffffffffffffff1673ffffffffffffffffffffffffffffffffffffffff1681526020019081526020016000206000828254039250508190555081600260008673ffffffffffffffffffffffffffffffffffffffff1673ffffffffffffffffffffffffffffffffffffffff16815260200190815260200160002060003373ffffffffffffffffffffffffffffffffffffffff1673ffffffffffffffffffffffffffffffffffffffff168152602001908152602001600020600082825403925050819055508273ffffffffffffffffffffffffffffffffffffffff168473ffffffffffffffffffffffffffffffffffffffff167fddf252ad1be2c89b69c2b068fc378daa952ba7f163c4a11628f55a4df523b3ef846040518082815260200191505060405180910390a360019050611387565b600090505b9392505050565b80600660003373ffffffffffffffffffffffffffffffffffffffff1673ffffffffffffffffffffffffffffffffffffffff1681526020019081526020016000209060026113dc929190612d6f565b503373ffffffffffffffffffffffffffffffffffffffff167f010724f92c296bc87af12d2281baa10d1317850008bd8ee16a0c27313e9cd7b2826040518082600260200280838360005b83811015611441578082015181840152602081019050611426565b5050505090500191505060405180910390a250565b3373ffffffffffffffffffffffffffffffffffffffff16600360009054906101000a900473ffffffffffffffffffffffffffffffffffffffff1673ffffffffffffffffffffffffffffffffffffffff161415156114b257600080fd5b6004548111151561152057600360009054906101000a900473ffffffffffffffffffffffffffffffffffffffff1673ffffffffffffffffffffffffffffffffffffffff166108fc829081150290604051600060405180830381858888f19350505050151561151f57600080fd5b5b50565b600080600080856127108162ffffff1610156118be57600560008862ffffff1662ffffff168152602001908152602001600020935060008460000160009054906101000a900473ffffffffffffffffffffffffffffffffffffffff1673ffffffffffffffffffffffffffffffffffffffff16141561164357600b5484600b0181905550600360009054906101000a900473ffffffffffffffffffffffffffffffffffffffff168460000160006101000a81548173ffffffffffffffffffffffffffffffffffffffff021916908373ffffffffffffffffffffffffffffffffffffffff1602179055506064600d54600b540281151561161d57fe5b049250600c54831061163157600c54611633565b825b600b600082825401925050819055505b8584600b01541115151561165657600080fd5b83600b0154600160003373ffffffffffffffffffffffffffffffffffffffff1673ffffffffffffffffffffffffffffffffffffffff16815260200190815260200160002054101515156116a857600080fd5b600091506064600e5485600b0154028115156116c057fe5b04915081600160008660000160009054906101000a900473ffffffffffffffffffffffffffffffffffffffff1673ffffffffffffffffffffffffffffffffffffffff1673ffffffffffffffffffffffffffffffffffffffff1681526020019081526020016000206000828254019250508190555081860360016000600360009054906101000a900473ffffffffffffffffffffffffffffffffffffffff1673ffffffffffffffffffffffffffffffffffffffff1673ffffffffffffffffffffffffffffffffffffffff168152602001908152602001600020600082825401925050819055508662ffffff167f0abb7627f5a43ce55d691cf577de9c09e8fee6f2dd1f45678a55ce86fadfd6f28560000160009054906101000a900473ffffffffffffffffffffffffffffffffffffffff16600087600b015442604051808573ffffffffffffffffffffffffffffffffffffffff1673ffffffffffffffffffffffffffffffffffffffff16815260200184815260200183815260200182815260200194505050505060405180910390a2600084600b0181905550338460000160006101000a81548173ffffffffffffffffffffffffffffffffffffffff021916908373ffffffffffffffffffffffffffffffffffffffff160217905550600084600c0160146101000a81548160ff021916908315150217905550600194505b5050505092915050565b600080826127108162ffffff16101561199957600560008562ffffff1662ffffff16815260200190815260200160002091508160000160009054906101000a900473ffffffffffffffffffffffffffffffffffffffff1673ffffffffffffffffffffffffffffffffffffffff163373ffffffffffffffffffffffffffffffffffffffff1614151561195857600080fd5b600082600b01819055508362ffffff167fca2e47a4a4a73b5954da66cff11902dbc0e8a6d4ee892921cc381af6aabc415260405160405180910390a2600192505b5050919050565b6000806000806000866127108162ffffff161015611d3f57600560008962ffffff1662ffffff168152602001908152602001600020945060008560000160009054906101000a900473ffffffffffffffffffffffffffffffffffffffff1673ffffffffffffffffffffffffffffffffffffffff16141515611a2057600080fd5b600b548711151515611a3157600080fd5b86600160003373ffffffffffffffffffffffffffffffffffffffff1673ffffffffffffffffffffffffffffffffffffffff1681526020019081526020016000205410151515611a7f57600080fd5b60008714151515611a8f57600080fd5b86600b5403935083600b54600854811515611aa657fe5b04029250823410151515611ab957600080fd5b8660016000600360009054906101000a900473ffffffffffffffffffffffffffffffffffffffff1673ffffffffffffffffffffffffffffffffffffffff1673ffffffffffffffffffffffffffffffffffffffff1681526020019081526020016000206000828254019250508190555086600160003373ffffffffffffffffffffffffffffffffffffffff1673ffffffffffffffffffffffffffffffffffffffff168152602001908152602001600020600082825403925050819055506064600d54600b5402811515611b8757fe5b049150600b5487600c548410611b9f57600c54611ba1565b835b02811515611bab57fe5b04600b60008282540192505081905550346004600082825401925050819055506064600a5460085402811515611bdd57fe5b04915086846009548410611bf357600954611bf5565b835b02811515611bff57fe5b04600860008282540192505081905550338560000160006101000a81548173ffffffffffffffffffffffffffffffffffffffff021916908373ffffffffffffffffffffffffffffffffffffffff1602179055508762ffffff167f0abb7627f5a43ce55d691cf577de9c09e8fee6f2dd1f45678a55ce86fadfd6f28660000160009054906101000a900473ffffffffffffffffffffffffffffffffffffffff16348a42604051808573ffffffffffffffffffffffffffffffffffffffff1673ffffffffffffffffffffffffffffffffffffffff16815260200184815260200183815260200182815260200194505050505060405180910390a2338560000160006101000a81548173ffffffffffffffffffffffffffffffffffffffff021916908373ffffffffffffffffffffffffffffffffffffffff160217905550600195505b505050505092915050565b6000600160008373ffffffffffffffffffffffffffffffffffffffff1673ffffffffffffffffffffffffffffffffffffffff168152602001908152602001600020549050919050565b600080836127108162ffffff161015611f1357600560008662ffffff1662ffffff16815260200190815260200160002091503373ffffffffffffffffffffffffffffffffffffffff168260000160009054906101000a900473ffffffffffffffffffffffffffffffffffffffff1673ffffffffffffffffffffffffffffffffffffffff16141515611e2357600080fd5b60008473ffffffffffffffffffffffffffffffffffffffff1614151515611e4957600080fd5b838260000160006101000a81548173ffffffffffffffffffffffffffffffffffffffff021916908373ffffffffffffffffffffffffffffffffffffffff1602179055508462ffffff167f0abb7627f5a43ce55d691cf577de9c09e8fee6f2dd1f45678a55ce86fadfd6f28560008042604051808573ffffffffffffffffffffffffffffffffffffffff1673ffffffffffffffffffffffffffffffffffffffff16815260200184815260200183815260200182815260200194505050505060405180910390a2600192505b505092915050565b3373ffffffffffffffffffffffffffffffffffffffff16600360009054906101000a900473ffffffffffffffffffffffffffffffffffffffff1673ffffffffffffffffffffffffffffffffffffffff16141515611f7757600080fd5b600360009054906101000a900473ffffffffffffffffffffffffffffffffffffffff1673ffffffffffffffffffffffffffffffffffffffff166108fc6004549081150290604051600060405180830381858888f193505050501515611fdb57600080fd5b565b611fe5612d45565b600660008373ffffffffffffffffffffffffffffffffffffffff1673ffffffffffffffffffffffffffffffffffffffff16815260200190815260200160002060028060200260405190810160405280929190826002801561205f576020028201915b81546000191681526020019060010190808311612047575b50505050509050919050565b6000836127108162ffffff16101561228457600560008662ffffff1662ffffff16815260200190815260200160002091508160000160009054906101000a900473ffffffffffffffffffffffffffffffffffffffff1673ffffffffffffffffffffffffffffffffffffffff163373ffffffffffffffffffffffffffffffffffffffff161415156120fa57600080fd5b83156121d55760008363ffffffff1611151561211557600080fd5b8263ffffffff16600160003373ffffffffffffffffffffffffffffffffffffffff1673ffffffffffffffffffffffffffffffffffffffff168152602001908152602001600020541015151561216957600080fd5b8263ffffffff16600160003373ffffffffffffffffffffffffffffffffffffffff1673ffffffffffffffffffffffffffffffffffffffff168152602001908152602001600020600082825403925050819055508260010263ffffffff16420182600e01819055506121e0565b600082600e01819055505b8382600c0160146101000a81548160ff0219169083151502179055508315612250578462ffffff167f52e8f4b5a1626f05acec334b28b3a6e1229af95f0fdf6929ead61c976399121384604051808263ffffffff1663ffffffff16815260200191505060405180910390a2612283565b8462ffffff167f7b2ca9b1b8f3e9de64d205763935a164d5090f5e6346199c24b0612e0930a12a60405160405180910390a25b5b5050505050565b600081600160003373ffffffffffffffffffffffffffffffffffffffff1673ffffffffffffffffffffffffffffffffffffffff16815260200190815260200160002054101580156122dc5750600082115b156123e95781600160003373ffffffffffffffffffffffffffffffffffffffff1673ffffffffffffffffffffffffffffffffffffffff1681526020019081526020016000206000828254039250508190555081600160008573ffffffffffffffffffffffffffffffffffffffff1673ffffffffffffffffffffffffffffffffffffffff168152602001908152602001600020600082825401925050819055508273ffffffffffffffffffffffffffffffffffffffff163373ffffffffffffffffffffffffffffffffffffffff167fddf252ad1be2c89b69c2b068fc378daa952ba7f163c4a11628f55a4df523b3ef846040518082815260200191505060405180910390a3600190506123ee565b600090505b92915050565b3373ffffffffffffffffffffffffffffffffffffffff16600360009054906101000a900473ffffffffffffffffffffffffffffffffffffffff1673ffffffffffffffffffffffffffffffffffffffff1614151561245057600080fd5b80600160008473ffffffffffffffffffffffffffffffffffffffff1673ffffffffffffffffffffffffffffffffffffffff168152602001908152602001600020600082825401925050819055505050565b6000806000836127108162ffffff16101561253757600560008662ffffff1662ffffff168152602001908152602001600020915060008260000160009054906101000a900473ffffffffffffffffffffffffffffffffffffffff1673ffffffffffffffffffffffffffffffffffffffff16141561252757600854600b5493509350612536565b600082600b0154819150935093505b5b5050915091565b3373ffffffffffffffffffffffffffffffffffffffff16600360009054906101000a900473ffffffffffffffffffffffffffffffffffffffff1673ffffffffffffffffffffffffffffffffffffffff1614151561259a57600080fd5b80600360006101000a81548173ffffffffffffffffffffffffffffffffffffffff021916908373ffffffffffffffffffffffffffffffffffffffff16021790555050565b600080600080600080600080896127108162ffffff161015612abc57600560008c62ffffff1662ffffff168152602001908152602001600020975060008860000160009054906101000a900473ffffffffffffffffffffffffffffffffffffffff1673ffffffffffffffffffffffffffffffffffffffff161415612663576002612666565b60015b60ff16965087600c0160149054906101000a900460ff1615612722574288600e015411156126f5578760000160009054906101000a900473ffffffffffffffffffffffffffffffffffffffff1673ffffffffffffffffffffffffffffffffffffffff163373ffffffffffffffffffffffffffffffffffffffff161415156126ec57600080fd5b6000965061271d565b600088600c0160146101000a81548160ff021916908315150217905550600088600e01819055505b612733565b6010544211151561273257600096505b5b86600160003373ffffffffffffffffffffffffffffffffffffffff1673ffffffffffffffffffffffffffffffffffffffff168152602001908152602001600020541015151561278157600080fd5b87600c0160149054906101000a900460ff161580156127a55750600088600d015414155b1561296657600588600d015442038115156127bc57fe5b049550600f54860294506000851115612965578760000160009054906101000a900473ffffffffffffffffffffffffffffffffffffffff16935087600c0160009054906101000a900473ffffffffffffffffffffffffffffffffffffffff16925060008473ffffffffffffffffffffffffffffffffffffffff1614156128615760008373ffffffffffffffffffffffffffffffffffffffff16141515612860578293505b5b60008473ffffffffffffffffffffffffffffffffffffffff161415156128db5760028581151561288d57fe5b04600160008673ffffffffffffffffffffffffffffffffffffffff1673ffffffffffffffffffffffffffffffffffffffff168152602001908152602001600020600082825401925050819055505b60008373ffffffffffffffffffffffffffffffffffffffff161415156129555760028581151561290757fe5b04600160008573ffffffffffffffffffffffffffffffffffffffff1673ffffffffffffffffffffffffffffffffffffffff168152602001908152602001600020600082825401925050819055505b8460008082825401925050819055505b5b86600160003373ffffffffffffffffffffffffffffffffffffffff1673ffffffffffffffffffffffffffffffffffffffff16815260200190815260200160002060008282540392505081905550898860010190600a6129c6929190612db5565b503388600c0160006101000a81548173ffffffffffffffffffffffffffffffffffffffff021916908373ffffffffffffffffffffffffffffffffffffffff1602179055504288600d01819055504291508a62ffffff167fce9b20e38ccb718fd7b9a5fb1eacd0060f320d3e74a7e2ce393a26eb9a0f26368b84866040518084600a60200280838360005b83811015612a6b578082015181840152602081019050612a50565b505050509050018381526020018273ffffffffffffffffffffffffffffffffffffffff1673ffffffffffffffffffffffffffffffffffffffff168152602001935050505060405180910390a2600198505b505050505050505092915050565b6000600260008473ffffffffffffffffffffffffffffffffffffffff1673ffffffffffffffffffffffffffffffffffffffff16815260200190815260200160002060008373ffffffffffffffffffffffffffffffffffffffff1673ffffffffffffffffffffffffffffffffffffffff16815260200190815260200160002054905092915050565b6000806000836127108162ffffff161015612d1457600560008662ffffff1662ffffff168152602001908152602001600020925060008360000160009054906101000a900473ffffffffffffffffffffffffffffffffffffffff1673ffffffffffffffffffffffffffffffffffffffff16141515612bce57600080fd5b6008543410151515612bdf57600080fd5b346004600082825401925050819055506064600a5460085402811515612c0157fe5b0491506009548210612c1557600954612c17565b815b600860008282540192505081905550338360000160006101000a81548173ffffffffffffffffffffffffffffffffffffffff021916908373ffffffffffffffffffffffffffffffffffffffff1602179055508462ffffff167f0abb7627f5a43ce55d691cf577de9c09e8fee6f2dd1f45678a55ce86fadfd6f28460000160009054906101000a900473ffffffffffffffffffffffffffffffffffffffff1634600042604051808573ffffffffffffffffffffffffffffffffffffffff1673ffffffffffffffffffffffffffffffffffffffff16815260200184815260200183815260200182815260200194505050505060405180910390a2600193505b505050919050565b61014060405190810160405280600a905b6000815260200190600190039081612d2d5790505090565b60408051908101604052806002905b6000801916815260200190600190039081612d545790505090565b8260028101928215612da4579160200282015b82811115612da3578251829060001916905591602001919060010190612d82565b5b509050612db19190612df5565b5090565b82600a8101928215612de4579160200282015b82811115612de3578251825591602001919060010190612dc8565b5b509050612df19190612e1a565b5090565b612e1791905b80821115612e13576000816000905550600101612dfb565b5090565b90565b612e3c91905b80821115612e38576000816000905550600101612e20565b5090565b905600a165627a7a72305820f54cfd6cfb8bac0710842c4f46d43dab55a24b2c11784e43f1667d248b46f5ef0029",
    "source": "pragma solidity ^0.4.2;\n\ncontract Token {\n    uint256 public totalSupply;\n    function balanceOf(address _owner) public constant returns (uint256 balance);\n    function transfer(address _to, uint256 _value) public returns (bool success);\n    function transferFrom(address _from, address _to, uint256 _value) public returns (bool success);\n    function approve(address _spender, uint256 _value) public returns (bool success);\n    function allowance(address _owner, address _spender) public constant returns (uint256 remaining);\n    event Transfer(address indexed _from, address indexed _to, uint256 _value);\n    event Approval(address indexed _owner, address indexed _spender, uint256 _value);\n}\n/*  ERC 20 token */\ncontract StandardToken is Token {\n\n    function transfer(address _to, uint256 _value) public returns (bool success) {\n      if (balances[msg.sender] >= _value && _value > 0) {\n        balances[msg.sender] -= _value;\n        balances[_to] += _value;\n        Transfer(msg.sender, _to, _value);\n        return true;\n      } else {\n        return false;\n      }\n    }\n\n    function transferFrom(address _from, address _to, uint256 _value) public returns (bool success) {\n      if (balances[_from] >= _value && allowed[_from][msg.sender] >= _value && _value > 0) {\n        balances[_to] += _value;\n        balances[_from] -= _value;\n        allowed[_from][msg.sender] -= _value;\n        Transfer(_from, _to, _value);\n        return true;\n      } else {\n        return false;\n      }\n    }\n\n    function balanceOf(address _owner) public constant returns (uint256 balance) {\n        return balances[_owner];\n    }\n\n    function approve(address _spender, uint256 _value) public returns (bool success) {\n        allowed[msg.sender][_spender] = _value;\n        Approval(msg.sender, _spender, _value);\n        return true;\n    }\n\n    function allowance(address _owner, address _spender) public constant returns (uint256 remaining) {\n      return allowed[_owner][_spender];\n    }\n\n    mapping (address => uint256) balances;\n    mapping (address => mapping (address => uint256)) allowed;\n}\n\ncontract VirtualRealEstate is StandardToken {\n    address owner;\n    uint256 ownerEth = 0;\n    \n    //Mapping of propertyID to property\n    mapping (uint24 => Property) map;\n    //propertyOwner to link\n    mapping (address => bytes32[2]) ownerLink;\n    //propertyRenter to link\n    mapping (address => bytes32[2]) ownerHoverText;\n    \n    uint256 priceETH;\n    uint256 PRICE_ETH_MIN_INCREASE = 1000;//10000000000000000000000; //0.0001 ETH\n    uint256 PRICE_ETH_MIN_PERCENT = 20; //0.0001 ETH\n    uint256 pricePPC;\n    uint256 PRICE_PPC_MIN_INCREASE = 10;\n    uint256 PRICE_PPC_MIN_PERCENT = 20;\n    \n    uint256 USER_BUY_CUT_PERCENT = 98; //%\n    \n    uint256 PROPERTY_GENERATES_PER_HOUR = 2;\n    uint256 FREE_COLOR_SETTING_UNTIL;\n    \n    event PropertyColorUpdate(uint24 indexed property, uint256[10] colors, uint256 lastUpdate, address lastUpdaterPayee);\n    event PropertyColorUpdatePixel(uint24 indexed property, uint8 row, uint24 rgb);\n    event PropertyBought(uint24 indexed property,  address newOwner, uint256 ethAmount, uint256 ppcAmount, uint256 timestamp); //Added ethAmount, ppcAmount and timestamp\n    event SetUserHoverText(address indexed user, bytes32[2] newHoverText);\n    event SetUserSetLink(address indexed user, bytes32[2] newLink);\n    event PropertySetForSale(uint24 indexed property, uint256 forSalePrice);\n    event DelistProperty(uint24 indexed property);\n    event SetPropertyPublic(uint24 indexed property);\n    event SetPropertyPrivate(uint24 indexed property, uint32 numHoursPrivate);\n    \n    struct TradeOffer {\n        uint256 ethPer;\n        uint256 ppcAmount;\n        bool buyingPPC;\n    }\n    \n    struct Property {\n        address owner;\n        uint256[10] colors; //10x10 rgb pixel colors per property\n        uint256 salePrice;\n        address lastUpdater;\n        bool isInPrivateMode;\n        uint256 lastUpdate;\n        uint256 becomePublic;\n    }\n    \n    modifier ownerOnly() {\n        require(owner == msg.sender);\n        _;\n    }\n    \n    modifier validPropertyID(uint24 propertyID) {\n        if (propertyID < 10000) {\n            _;\n        }\n    }\n    \n    function VirtualRealEstate() public {\n        owner = msg.sender;\n        totalSupply = 0;\n        FREE_COLOR_SETTING_UNTIL = now + 1 days;\n        pricePPC = 10;\n        priceETH = 10000;//1000000000000000000; //0.001 ETH\n    }\n    function setHoverText(bytes32[2] text) public {\n        ownerHoverText[msg.sender] = text;\n        SetUserHoverText(msg.sender, text);\n    }\n    function setLink(bytes32[2] link) public {\n        ownerLink[msg.sender] = link;\n        SetUserSetLink(msg.sender, link);\n    }\n    function getForSalePrices(uint24 propertyID) public validPropertyID(propertyID) view returns(uint256, uint256) {\n        Property storage property = map[propertyID];\n        if (property.owner == 0) {\n            return (priceETH, pricePPC);\n        } else {\n            return (0, property.salePrice);\n        }\n    }\n    function getHoverText(address user) public view returns(bytes32[2]) {\n        return ownerHoverText[user];\n    }\n    function getLink(address user) public view returns(bytes32[2]) {\n        return ownerLink[user];\n    }\n    \n    function getPropertyColors(uint24 propertyID) public validPropertyID(propertyID) view returns(uint256[10]) {\n        return map[propertyID].colors;\n    }\n    \n    function getPropertyData(uint24 propertyID) public validPropertyID(propertyID) view returns(address, uint256, uint256, uint256, bool) {\n        Property storage property = map[propertyID];\n        if (property.owner == 0) {\n            return (property.owner, priceETH, pricePPC, property.lastUpdate, property.isInPrivateMode);\n        } else {\n            return (property.owner, 0, property.salePrice, property.lastUpdate, property.isInPrivateMode);\n        }\n    }\n    //Change a 10x10 == 70 | 30 | 0 cost\n    function setColors(uint24 propertyID, uint256[10] newColors) public validPropertyID(propertyID) returns(bool) {\n        Property storage property = map[propertyID];\n        \n        //Cost 2 if no owner, 1 if owned\n        uint256 cost = property.owner != 0 ? 1 : 2;\n        \n        //If it's in private mode, we must be the owner, but it's free\n        if (property.isInPrivateMode) {\n            //If it's still privately owned\n            if (property.becomePublic > now) {\n                require(msg.sender == property.owner);\n                cost = 0;\n            }\n            //No long erin private mode, ran out\n            else {\n                property.isInPrivateMode = false;\n                property.becomePublic = 0;\n            }\n        } \n        //If we're in the first few days, setting the color is free\n        else if (now <= FREE_COLOR_SETTING_UNTIL) {\n            cost = 0;\n        }\n        \n        require(balances[msg.sender] >= cost);\n        \n        //If we're in Public Mode, payouts occur\n        \n        if (!property.isInPrivateMode && property.lastUpdate != 0) {\n            uint256 hoursSinceLastColorChange = (now - property.lastUpdate) / (5 seconds); //ERRORs on property.lastUpdate = 0\n            uint256 payout = hoursSinceLastColorChange * PROPERTY_GENERATES_PER_HOUR;\n    \n            if (payout > 0) {\n                address propertyOwnerPayee = property.owner;\n                address lastUpdaterPayee = property.lastUpdater;\n                if (propertyOwnerPayee == 0) {\n                    if (lastUpdaterPayee != 0) {\n                        propertyOwnerPayee = lastUpdaterPayee;\n                    }\n                }\n                //Payout half to ownerPayee and half to updaterPayee\n                if (propertyOwnerPayee != 0) {\n                    balances[propertyOwnerPayee] += payout / 2;\n                }\n                if (lastUpdaterPayee != 0) {\n                    balances[lastUpdaterPayee] += payout / 2;\n                }\n                totalSupply += payout;\n            }\n        }\n        \n        //Burn the coins from the sender\n        balances[msg.sender] -= cost; //Burn the coin to set the color\n        \n        property.colors = newColors;\n        property.lastUpdater = msg.sender;\n        property.lastUpdate = now;\n        uint256 timeUpdate = now;\n        \n        PropertyColorUpdate(propertyID, newColors, timeUpdate, lastUpdaterPayee);\n        \n        return true;\n    }\n    function setPropertyMode(uint24 propertyID, bool isInPrivateMode, uint32 numHoursPrivate) public validPropertyID(propertyID) {\n        Property storage property = map[propertyID];\n        require(msg.sender == property.owner);\n        if (isInPrivateMode) {\n            require(numHoursPrivate > 0);\n            require(balances[msg.sender] >= numHoursPrivate);\n            balances[msg.sender] -= numHoursPrivate;\n            property.becomePublic = now + (1 seconds) * numHoursPrivate; //TODO: seconds to hours\n        } else {\n            property.becomePublic = 0;\n        }\n        property.isInPrivateMode = isInPrivateMode;\n        \n        if (isInPrivateMode) {\n            SetPropertyPrivate(propertyID, numHoursPrivate);\n        } else {\n            SetPropertyPublic(propertyID);\n        }\n    }\n    //Change pixel or 10x1 costs 7 | 3 | 0\n    function setRowColors(uint24 propertyID, uint8 row, uint24 newColorData) public validPropertyID(propertyID) returns(bool) {\n        Property storage property = map[propertyID];\n        \n        require(row >= 0 && row <= 9);\n        \n        uint256 cost = property.owner != 0 ? 1 : 2;\n        \n        if (property.isInPrivateMode) {\n                require(msg.sender == property.owner);\n                cost = 0;\n        } \n        \n        require(balances[msg.sender] >= cost);\n        \n        balances[msg.sender] -= cost; //Burn the coin to set the color\n        \n        property.colors[row] = newColorData;\n        property.lastUpdater = msg.sender;\n\n        PropertyColorUpdatePixel(propertyID, row, newColorData);\n        \n        return true;\n    }\n    \n    function transferProperty(uint24 propertyID, address newOwner) public validPropertyID(propertyID) returns(bool) {\n        Property storage property = map[propertyID];\n        \n        require(property.owner == msg.sender);\n        require(newOwner != 0);\n        \n        property.owner = newOwner;\n\n        PropertyBought(propertyID, newOwner, 0, 0, now);\n        \n        return true;\n    }\n    function buyProperty(uint24 propertyID, uint256 ppcValue) public validPropertyID(propertyID) payable returns(bool) {\n        Property storage property = map[propertyID];\n        \n        //Must be the first purchase, otherwise do it with ppc\n        require(property.owner == 0);\n        //Required to avoid underflowing (pricePPC - ppcValue)\n        require(ppcValue <= pricePPC);\n        require(balances[msg.sender] >= ppcValue);\n        require(ppcValue != 0);\n        \n        uint256 ppcLeft = pricePPC - ppcValue;\n        uint256 ethLeft = priceETH / pricePPC * ppcLeft;\n        \n        require(msg.value >= ethLeft);\n    \n        balances[owner] += ppcValue;\n        balances[msg.sender] -= ppcValue;\n\n        uint256 minPercent = pricePPC * PRICE_PPC_MIN_PERCENT / 100;\n        pricePPC += ((minPercent < PRICE_PPC_MIN_INCREASE) ? minPercent : PRICE_PPC_MIN_INCREASE) * ppcValue / pricePPC;\n\n        ownerEth += msg.value;\n        minPercent = priceETH * PRICE_ETH_MIN_PERCENT / 100;\n        priceETH += ((minPercent < PRICE_ETH_MIN_INCREASE) ? minPercent : PRICE_ETH_MIN_INCREASE) * ppcLeft / ppcValue;\n        \n        property.owner = msg.sender;\n        \n        PropertyBought(propertyID, property.owner, msg.value, ppcValue, now);\n\n        property.owner = msg.sender;\n        \n        return true;\n    }\n    function buyPropertyInPPC(uint24 propertyID, uint256 ppcValue) public validPropertyID(propertyID) returns(bool) {\n        Property storage property = map[propertyID];\n        \n        //If they have no owner, do the PPC price and update it\n        if (property.owner == 0) {\n            property.salePrice = pricePPC;\n            property.owner = owner;\n            uint256 minPercent = pricePPC * PRICE_PPC_MIN_PERCENT / 100;\n            pricePPC += (minPercent < PRICE_PPC_MIN_INCREASE) ? minPercent : PRICE_PPC_MIN_INCREASE;\n        }\n        \n        require(property.salePrice <= ppcValue);\n        require(balances[msg.sender] >= property.salePrice);\n        \n        uint256 amountTransfered = 0;\n        amountTransfered = property.salePrice * USER_BUY_CUT_PERCENT / 100;\n        \n        balances[property.owner] += amountTransfered;\n        balances[owner] += ppcValue - amountTransfered;\n        \n        PropertyBought(propertyID, property.owner, 0, property.salePrice, now);\n\n        property.salePrice = 0;\n        property.owner = msg.sender;\n        property.isInPrivateMode = false;\n        \n        return true;\n    }\n    //Use Case: Buyer wants to buy a property.\n    function buyPropertyInETH(uint24 propertyID) public validPropertyID(propertyID) payable returns(bool) {\n        Property storage property = map[propertyID];\n        \n        require(property.owner == 0);\n        require(msg.value >= priceETH);\n        \n        ownerEth += msg.value;\n    \n        uint256 minPercent = priceETH * PRICE_ETH_MIN_PERCENT / 100;\n        priceETH += (minPercent < PRICE_ETH_MIN_INCREASE) ? minPercent : PRICE_ETH_MIN_INCREASE;\n        \n        property.owner = msg.sender;\n        \n        PropertyBought(propertyID, property.owner, msg.value, 0, now);\n        \n        return true;\n    }\n    \n    //Use Case: Owner of a property lists for sale at a given price\n    function listForSale(uint24 propertyID, uint128 price ) public validPropertyID(propertyID) returns(bool) {\n        Property storage property = map[propertyID];\n      \n        require(price != 0);\n      \n        require(msg.sender == property.owner); //Must be the owner\n        //You can listForSale an already listed item to update the listing\n        property.salePrice = price;\n        \n        PropertySetForSale(propertyID, property.salePrice);\n        \n        return true;\n    }\n    \n    //Use Case: Owner of a property delists from sale offer\n    function delist(uint24 propertyID) public validPropertyID(propertyID) returns(bool) {\n        Property storage property = map[propertyID];\n        \n        require(msg.sender == property.owner); //Must be the owner\n        \n        property.salePrice = 0;\n        \n        DelistProperty(propertyID);\n        \n        return true;\n    }\n    \n    //////////////////////////////////////////////////////\n    ////Owner Sections: Meta-Functions For Owner only/////\n    //////////////////////////////////////////////////////\n    function withdraw(uint256 amount) public ownerOnly() {\n        if (amount <= ownerEth) {\n            owner.transfer(amount);\n        }\n    }\n    \n    function withdrawAll() public ownerOnly() {\n        owner.transfer(ownerEth);\n    }\n    \n    function changeOwners(address newOwner) public ownerOnly() {\n        owner = newOwner;\n    }\n    \n    ////////////////////////////////////////////////\n    ///TODO: TESTING ONLY: REMOVE BEFORE RELEASE:///\n    ////////////////////////////////////////////////\n    function addCoin(address user, uint256 amount) public ownerOnly() {\n        balances[user] += amount;\n    }\n    //setPropertyMode ->seconds to hours\n    //setColors -> 5 seconds to 1 hour\n    //FREE_COLOR_SETTING_UNTIL in constructor needs to be changed to have the +1 days\n}",
    "sourcePath": "/Volumes/Lexar/DATA/PixelRealEstate/PixelRealEstate/contracts/VirtualRealEstate.sol",
    "compiler": {
        "name": "solc",
        "version": "0.4.18+commit.9cf6e910.Emscripten.clang"
    },
    "schemaVersion": "1.0.1",
    "updatedAt": "2018-02-05T00:39:26.359Z"
}