{
    "contractName": "VirtualRealEstate",
    "abi": [
        {
            "constant": true,
            "inputs": [
                {
                    "name": "propertyID",
                    "type": "uint24"
                }
            ],
            "name": "getPropertyData",
            "outputs": [
                {
                    "name": "",
                    "type": "address"
                },
                {
                    "name": "",
                    "type": "uint256"
                },
                {
                    "name": "",
                    "type": "uint256"
                },
                {
                    "name": "",
                    "type": "uint256"
                },
                {
                    "name": "",
                    "type": "bool"
                },
                {
                    "name": "",
                    "type": "uint256"
                },
                {
                    "name": "",
                    "type": "uint32"
                }
            ],
            "payable": false,
            "stateMutability": "view",
            "type": "function"
        },
        {
            "constant": false,
            "inputs": [
                {
                    "name": "_spender",
                    "type": "address"
                },
                {
                    "name": "_value",
                    "type": "uint256"
                }
            ],
            "name": "approve",
            "outputs": [
                {
                    "name": "success",
                    "type": "bool"
                }
            ],
            "payable": false,
            "stateMutability": "nonpayable",
            "type": "function"
        },
        {
            "constant": false,
            "inputs": [
                {
                    "name": "propertyID",
                    "type": "uint24"
                },
                {
                    "name": "price",
                    "type": "uint128"
                }
            ],
            "name": "listForSale",
            "outputs": [
                {
                    "name": "",
                    "type": "bool"
                }
            ],
            "payable": false,
            "stateMutability": "nonpayable",
            "type": "function"
        },
        {
            "constant": true,
            "inputs": [
                {
                    "name": "propertyID",
                    "type": "uint24"
                }
            ],
            "name": "getPropertyColors",
            "outputs": [
                {
                    "name": "",
                    "type": "uint256[10]"
                }
            ],
            "payable": false,
            "stateMutability": "view",
            "type": "function"
        },
        {
            "constant": true,
            "inputs": [
                {
                    "name": "user",
                    "type": "address"
                }
            ],
            "name": "getHoverText",
            "outputs": [
                {
                    "name": "",
                    "type": "uint256[2]"
                }
            ],
            "payable": false,
            "stateMutability": "view",
            "type": "function"
        },
        {
            "constant": true,
            "inputs": [],
            "name": "totalSupply",
            "outputs": [
                {
                    "name": "",
                    "type": "uint256"
                }
            ],
            "payable": false,
            "stateMutability": "view",
            "type": "function"
        },
        {
            "constant": false,
            "inputs": [
                {
                    "name": "_from",
                    "type": "address"
                },
                {
                    "name": "_to",
                    "type": "address"
                },
                {
                    "name": "_value",
                    "type": "uint256"
                }
            ],
            "name": "transferFrom",
            "outputs": [
                {
                    "name": "success",
                    "type": "bool"
                }
            ],
            "payable": false,
            "stateMutability": "nonpayable",
            "type": "function"
        },
        {
            "constant": false,
            "inputs": [
                {
                    "name": "propertyID",
                    "type": "uint24"
                },
                {
                    "name": "row",
                    "type": "uint8"
                },
                {
                    "name": "newColorData",
                    "type": "uint256"
                },
                {
                    "name": "pptToSpend",
                    "type": "uint256"
                }
            ],
            "name": "setRowColors",
            "outputs": [
                {
                    "name": "",
                    "type": "bool"
                }
            ],
            "payable": false,
            "stateMutability": "nonpayable",
            "type": "function"
        },
        {
            "constant": false,
            "inputs": [
                {
                    "name": "amount",
                    "type": "uint256"
                }
            ],
            "name": "withdraw",
            "outputs": [],
            "payable": false,
            "stateMutability": "nonpayable",
            "type": "function"
        },
        {
            "constant": false,
            "inputs": [
                {
                    "name": "user",
                    "type": "address"
                },
                {
                    "name": "level",
                    "type": "uint32"
                }
            ],
            "name": "setModeratorLevel",
            "outputs": [],
            "payable": false,
            "stateMutability": "nonpayable",
            "type": "function"
        },
        {
            "constant": false,
            "inputs": [
                {
                    "name": "propertyID",
                    "type": "uint24"
                }
            ],
            "name": "delist",
            "outputs": [
                {
                    "name": "",
                    "type": "bool"
                }
            ],
            "payable": false,
            "stateMutability": "nonpayable",
            "type": "function"
        },
        {
            "constant": true,
            "inputs": [
                {
                    "name": "propertyID",
                    "type": "uint24"
                }
            ],
            "name": "getProjectedPayout",
            "outputs": [
                {
                    "name": "",
                    "type": "uint256"
                }
            ],
            "payable": false,
            "stateMutability": "view",
            "type": "function"
        },
        {
            "constant": false,
            "inputs": [
                {
                    "name": "propertyID",
                    "type": "uint24"
                },
                {
                    "name": "PPTValue",
                    "type": "uint256"
                }
            ],
            "name": "buyProperty",
            "outputs": [
                {
                    "name": "",
                    "type": "bool"
                }
            ],
            "payable": true,
            "stateMutability": "payable",
            "type": "function"
        },
        {
            "constant": true,
            "inputs": [
                {
                    "name": "_owner",
                    "type": "address"
                }
            ],
            "name": "balanceOf",
            "outputs": [
                {
                    "name": "balance",
                    "type": "uint256"
                }
            ],
            "payable": false,
            "stateMutability": "view",
            "type": "function"
        },
        {
            "constant": false,
            "inputs": [
                {
                    "name": "propertyID",
                    "type": "uint24"
                }
            ],
            "name": "tryForcePublic",
            "outputs": [],
            "payable": false,
            "stateMutability": "nonpayable",
            "type": "function"
        },
        {
            "constant": false,
            "inputs": [
                {
                    "name": "propertyID",
                    "type": "uint24"
                },
                {
                    "name": "newColors",
                    "type": "uint256[10]"
                },
                {
                    "name": "pptToSpend",
                    "type": "uint256"
                }
            ],
            "name": "setColors",
            "outputs": [
                {
                    "name": "",
                    "type": "bool"
                }
            ],
            "payable": false,
            "stateMutability": "nonpayable",
            "type": "function"
        },
        {
            "constant": false,
            "inputs": [
                {
                    "name": "propertyID",
                    "type": "uint24"
                },
                {
                    "name": "newOwner",
                    "type": "address"
                }
            ],
            "name": "transferProperty",
            "outputs": [
                {
                    "name": "",
                    "type": "bool"
                }
            ],
            "payable": false,
            "stateMutability": "nonpayable",
            "type": "function"
        },
        {
            "constant": false,
            "inputs": [],
            "name": "withdrawAll",
            "outputs": [],
            "payable": false,
            "stateMutability": "nonpayable",
            "type": "function"
        },
        {
            "constant": false,
            "inputs": [
                {
                    "name": "propertyID",
                    "type": "uint24"
                },
                {
                    "name": "bidAmount",
                    "type": "uint256"
                }
            ],
            "name": "makeBid",
            "outputs": [],
            "payable": false,
            "stateMutability": "nonpayable",
            "type": "function"
        },
        {
            "constant": true,
            "inputs": [
                {
                    "name": "user",
                    "type": "address"
                }
            ],
            "name": "getLink",
            "outputs": [
                {
                    "name": "",
                    "type": "uint256[2]"
                }
            ],
            "payable": false,
            "stateMutability": "view",
            "type": "function"
        },
        {
            "constant": false,
            "inputs": [
                {
                    "name": "propertyID",
                    "type": "uint24"
                },
                {
                    "name": "PPTValue",
                    "type": "uint256"
                }
            ],
            "name": "buyPropertyInPPT",
            "outputs": [
                {
                    "name": "",
                    "type": "bool"
                }
            ],
            "payable": false,
            "stateMutability": "nonpayable",
            "type": "function"
        },
        {
            "constant": false,
            "inputs": [
                {
                    "name": "propertyID",
                    "type": "uint24"
                },
                {
                    "name": "setPrivateMode",
                    "type": "bool"
                },
                {
                    "name": "numMinutesPrivate",
                    "type": "uint32"
                }
            ],
            "name": "setPropertyMode",
            "outputs": [],
            "payable": false,
            "stateMutability": "nonpayable",
            "type": "function"
        },
        {
            "constant": false,
            "inputs": [
                {
                    "name": "_to",
                    "type": "address"
                },
                {
                    "name": "_value",
                    "type": "uint256"
                }
            ],
            "name": "transfer",
            "outputs": [
                {
                    "name": "success",
                    "type": "bool"
                }
            ],
            "payable": false,
            "stateMutability": "nonpayable",
            "type": "function"
        },
        {
            "constant": true,
            "inputs": [],
            "name": "getSystemSalePrices",
            "outputs": [
                {
                    "name": "",
                    "type": "uint256"
                },
                {
                    "name": "",
                    "type": "uint256"
                }
            ],
            "payable": false,
            "stateMutability": "view",
            "type": "function"
        },
        {
            "constant": false,
            "inputs": [
                {
                    "name": "text",
                    "type": "uint256[2]"
                }
            ],
            "name": "setHoverText",
            "outputs": [],
            "payable": false,
            "stateMutability": "nonpayable",
            "type": "function"
        },
        {
            "constant": false,
            "inputs": [
                {
                    "name": "user",
                    "type": "address"
                },
                {
                    "name": "amount",
                    "type": "uint256"
                }
            ],
            "name": "addCoin",
            "outputs": [],
            "payable": false,
            "stateMutability": "nonpayable",
            "type": "function"
        },
        {
            "constant": true,
            "inputs": [
                {
                    "name": "propertyID",
                    "type": "uint24"
                }
            ],
            "name": "getForSalePrices",
            "outputs": [
                {
                    "name": "",
                    "type": "uint256"
                },
                {
                    "name": "",
                    "type": "uint256"
                }
            ],
            "payable": false,
            "stateMutability": "view",
            "type": "function"
        },
        {
            "constant": false,
            "inputs": [
                {
                    "name": "propertyID",
                    "type": "uint24"
                },
                {
                    "name": "flag",
                    "type": "uint8"
                }
            ],
            "name": "setFlag",
            "outputs": [],
            "payable": false,
            "stateMutability": "nonpayable",
            "type": "function"
        },
        {
            "constant": false,
            "inputs": [
                {
                    "name": "link",
                    "type": "uint256[2]"
                }
            ],
            "name": "setLink",
            "outputs": [],
            "payable": false,
            "stateMutability": "nonpayable",
            "type": "function"
        },
        {
            "constant": false,
            "inputs": [
                {
                    "name": "newOwner",
                    "type": "address"
                }
            ],
            "name": "changeOwners",
            "outputs": [],
            "payable": false,
            "stateMutability": "nonpayable",
            "type": "function"
        },
        {
            "constant": true,
            "inputs": [
                {
                    "name": "_owner",
                    "type": "address"
                },
                {
                    "name": "_spender",
                    "type": "address"
                }
            ],
            "name": "allowance",
            "outputs": [
                {
                    "name": "remaining",
                    "type": "uint256"
                }
            ],
            "payable": false,
            "stateMutability": "view",
            "type": "function"
        },
        {
            "constant": false,
            "inputs": [
                {
                    "name": "propertyID",
                    "type": "uint24"
                }
            ],
            "name": "buyPropertyInETH",
            "outputs": [
                {
                    "name": "",
                    "type": "bool"
                }
            ],
            "payable": true,
            "stateMutability": "payable",
            "type": "function"
        },
        {
            "inputs": [],
            "payable": false,
            "stateMutability": "nonpayable",
            "type": "constructor"
        },
        {
            "anonymous": false,
            "inputs": [
                {
                    "indexed": true,
                    "name": "property",
                    "type": "uint24"
                },
                {
                    "indexed": false,
                    "name": "colors",
                    "type": "uint256[10]"
                },
                {
                    "indexed": false,
                    "name": "lastUpdate",
                    "type": "uint256"
                },
                {
                    "indexed": false,
                    "name": "lastUpdaterPayee",
                    "type": "address"
                }
            ],
            "name": "PropertyColorUpdate",
            "type": "event"
        },
        {
            "anonymous": false,
            "inputs": [
                {
                    "indexed": true,
                    "name": "property",
                    "type": "uint24"
                },
                {
                    "indexed": false,
                    "name": "newOwner",
                    "type": "address"
                },
                {
                    "indexed": false,
                    "name": "ethAmount",
                    "type": "uint256"
                },
                {
                    "indexed": false,
                    "name": "PPTAmount",
                    "type": "uint256"
                },
                {
                    "indexed": false,
                    "name": "timestamp",
                    "type": "uint256"
                }
            ],
            "name": "PropertyBought",
            "type": "event"
        },
        {
            "anonymous": false,
            "inputs": [
                {
                    "indexed": true,
                    "name": "user",
                    "type": "address"
                },
                {
                    "indexed": false,
                    "name": "newHoverText",
                    "type": "uint256[2]"
                }
            ],
            "name": "SetUserHoverText",
            "type": "event"
        },
        {
            "anonymous": false,
            "inputs": [
                {
                    "indexed": true,
                    "name": "user",
                    "type": "address"
                },
                {
                    "indexed": false,
                    "name": "newLink",
                    "type": "uint256[2]"
                }
            ],
            "name": "SetUserSetLink",
            "type": "event"
        },
        {
            "anonymous": false,
            "inputs": [
                {
                    "indexed": true,
                    "name": "property",
                    "type": "uint24"
                },
                {
                    "indexed": false,
                    "name": "forSalePrice",
                    "type": "uint256"
                }
            ],
            "name": "PropertySetForSale",
            "type": "event"
        },
        {
            "anonymous": false,
            "inputs": [
                {
                    "indexed": true,
                    "name": "property",
                    "type": "uint24"
                }
            ],
            "name": "DelistProperty",
            "type": "event"
        },
        {
            "anonymous": false,
            "inputs": [
                {
                    "indexed": true,
                    "name": "property",
                    "type": "uint24"
                }
            ],
            "name": "SetPropertyPublic",
            "type": "event"
        },
        {
            "anonymous": false,
            "inputs": [
                {
                    "indexed": true,
                    "name": "property",
                    "type": "uint24"
                },
                {
                    "indexed": false,
                    "name": "numMinutesPrivate",
                    "type": "uint32"
                }
            ],
            "name": "SetPropertyPrivate",
            "type": "event"
        },
        {
            "anonymous": false,
            "inputs": [
                {
                    "indexed": true,
                    "name": "property",
                    "type": "uint24"
                },
                {
                    "indexed": false,
                    "name": "bid",
                    "type": "uint256"
                }
            ],
            "name": "Bid",
            "type": "event"
        },
        {
            "anonymous": false,
            "inputs": [
                {
                    "indexed": true,
                    "name": "_from",
                    "type": "address"
                },
                {
                    "indexed": true,
                    "name": "_to",
                    "type": "address"
                },
                {
                    "indexed": false,
                    "name": "_value",
                    "type": "uint256"
                }
            ],
            "name": "Transfer",
            "type": "event"
        },
        {
            "anonymous": false,
            "inputs": [
                {
                    "indexed": true,
                    "name": "_owner",
                    "type": "address"
                },
                {
                    "indexed": true,
                    "name": "_spender",
                    "type": "address"
                },
                {
                    "indexed": false,
                    "name": "_value",
                    "type": "uint256"
                }
            ],
            "name": "Approval",
            "type": "event"
        }
    ],
    "bytecode": "0x606060405260006004556103e8600a556014600b55600a600d556014600e5560626010556001601155341561003357600080fd5b33600360006101000a81548173ffffffffffffffffffffffffffffffffffffffff021916908373ffffffffffffffffffffffffffffffffffffffff160217905550600080819055506203f48042016012819055506064600c819055506127106009819055506003600860003373ffffffffffffffffffffffffffffffffffffffff1673ffffffffffffffffffffffffffffffffffffffff16815260200190815260200160002060006101000a81548163ffffffff021916908363ffffffff160217905550603c600f8190555061365c8061010e6000396000f300606060405260043610610196576000357c0100000000000000000000000000000000000000000000000000000000900463ffffffff168063075773fd1461019b578063095ea7b31461023d57806316035c7c14610297578063164e0aba146102f25780631775459d1461035657806318160ddd146103cb57806323b872dd146103f4578063291299771461046d5780632e1a7d4d146104cb5780633ac8e296146104ee5780635a033830146105365780635b61ce14146105765780636145a4f0146105b257806370a08231146105f0578063735834c11461063d57806374e593aa1461066557806382e57396146106db578063853828b61461073a57806398bc00411461074f5780639d6abe4f14610780578063a2ab4b15146107f5578063a690478b1461083e578063a9059cbb14610880578063ab4c4487146108da578063acd9930b1461090a578063b401487914610950578063c3c9c24114610992578063cee2d1eb146109d5578063d56a455514610a09578063d7963f9414610a4f578063dd62ed3e14610a88578063ef952a9914610af4575b600080fd5b34156101a657600080fd5b6101c1600480803562ffffff16906020019091905050610b29565b604051808873ffffffffffffffffffffffffffffffffffffffff1673ffffffffffffffffffffffffffffffffffffffff168152602001878152602001868152602001858152602001841515151581526020018381526020018263ffffffff1663ffffffff16815260200197505050505050505060405180910390f35b341561024857600080fd5b61027d600480803573ffffffffffffffffffffffffffffffffffffffff16906020019091908035906020019091905050610d6a565b604051808215151515815260200191505060405180910390f35b34156102a257600080fd5b6102d8600480803562ffffff169060200190919080356fffffffffffffffffffffffffffffffff16906020019091905050610e5c565b604051808215151515815260200191505060405180910390f35b34156102fd57600080fd5b610318600480803562ffffff16906020019091905050610f77565b6040518082600a60200280838360005b83811015610343578082015181840152602081019050610328565b5050505090500191505060405180910390f35b341561036157600080fd5b61038d600480803573ffffffffffffffffffffffffffffffffffffffff16906020019091905050610ff4565b6040518082600260200280838360005b838110156103b857808201518184015260208101905061039d565b5050505090500191505060405180910390f35b34156103d657600080fd5b6103de61107e565b6040518082815260200191505060405180910390f35b34156103ff57600080fd5b610453600480803573ffffffffffffffffffffffffffffffffffffffff1690602001909190803573ffffffffffffffffffffffffffffffffffffffff16906020019091908035906020019091905050611084565b604051808215151515815260200191505060405180910390f35b341561047857600080fd5b6104b1600480803562ffffff1690602001909190803560ff16906020019091908035906020019091908035906020019091905050611300565b604051808215151515815260200191505060405180910390f35b34156104d657600080fd5b6104ec6004808035906020019091905050611446565b005b34156104f957600080fd5b610534600480803573ffffffffffffffffffffffffffffffffffffffff1690602001909190803563ffffffff16906020019091905050611513565b005b341561054157600080fd5b61055c600480803562ffffff16906020019091905050611614565b604051808215151515815260200191505060405180910390f35b341561058157600080fd5b61059c600480803562ffffff169060200190919050506116ec565b6040518082815260200191505060405180910390f35b6105d6600480803562ffffff16906020019091908035906020019091905050611884565b604051808215151515815260200191505060405180910390f35b34156105fb57600080fd5b610627600480803573ffffffffffffffffffffffffffffffffffffffff16906020019091905050611b12565b6040518082815260200191505060405180910390f35b341561064857600080fd5b610663600480803562ffffff16906020019091905050611b5b565b005b341561067057600080fd5b6106c1600480803562ffffff1690602001909190806101400190600a806020026040519081016040528092919082600a60200280828437820191505050505091908035906020019091905050611bd6565b604051808215151515815260200191505060405180910390f35b34156106e657600080fd5b610720600480803562ffffff1690602001909190803573ffffffffffffffffffffffffffffffffffffffff16906020019091905050611d08565b604051808215151515815260200191505060405180910390f35b341561074557600080fd5b61074d611dc5565b005b341561075a57600080fd5b61077e600480803562ffffff16906020019091908035906020019091905050611e87565b005b341561078b57600080fd5b6107b7600480803573ffffffffffffffffffffffffffffffffffffffff16906020019091905050611f23565b6040518082600260200280838360005b838110156107e25780820151818401526020810190506107c7565b5050505090500191505060405180910390f35b341561080057600080fd5b610824600480803562ffffff16906020019091908035906020019091905050611fad565b604051808215151515815260200191505060405180910390f35b341561084957600080fd5b61087e600480803562ffffff16906020019091908035151590602001909190803563ffffffff1690602001909190505061229f565b005b341561088b57600080fd5b6108c0600480803573ffffffffffffffffffffffffffffffffffffffff16906020019091908035906020019091905050612501565b604051808215151515815260200191505060405180910390f35b34156108e557600080fd5b6108ed61266a565b604051808381526020018281526020019250505060405180910390f35b341561091557600080fd5b61094e6004808060400190600280602002604051908101604052809291908260026020028082843782019150505050509190505061267b565b005b341561095b57600080fd5b610990600480803573ffffffffffffffffffffffffffffffffffffffff16906020019091908035906020019091905050612743565b005b341561099d57600080fd5b6109b8600480803562ffffff1690602001909190505061284c565b604051808381526020018281526020019250505060405180910390f35b34156109e057600080fd5b610a07600480803562ffffff1690602001909190803560ff169060200190919050506128e9565b005b3415610a1457600080fd5b610a4d60048080604001906002806020026040519081016040528092919082600260200280828437820191505050505091905050612a76565b005b3415610a5a57600080fd5b610a86600480803573ffffffffffffffffffffffffffffffffffffffff16906020019091905050612b3e565b005b3415610a9357600080fd5b610ade600480803573ffffffffffffffffffffffffffffffffffffffff1690602001909190803573ffffffffffffffffffffffffffffffffffffffff16906020019091905050612bde565b6040518082815260200191505060405180910390f35b610b0f600480803562ffffff16906020019091905050612c65565b604051808215151515815260200191505060405180910390f35b6000806000806000806000610b3c613449565b886127108162ffffff161015610d5d57600560008b62ffffff1662ffffff16815260200190815260200160002061012060405190810160405290816000820160009054906101000a900460ff1660ff1660ff1681526020016000820160019054906101000a900460ff161515151581526020016000820160029054906101000a900473ffffffffffffffffffffffffffffffffffffffff1673ffffffffffffffffffffffffffffffffffffffff1673ffffffffffffffffffffffffffffffffffffffff1681526020016001820160009054906101000a900473ffffffffffffffffffffffffffffffffffffffff1673ffffffffffffffffffffffffffffffffffffffff1673ffffffffffffffffffffffffffffffffffffffff16815260200160028201600a806020026040519081016040528092919082600a8015610c96576020028201915b815481526020019060010190808311610c82575b50505050508152602001600c8201548152602001600d8201548152602001600e8201548152602001600f8201548152505091506000826040015173ffffffffffffffffffffffffffffffffffffffff161415610d24578160400151600954600c548460c0015185602001518660e0015187600001518060ff1690509850985098509850985098509850610d5c565b816040015160008360a001518460c0015185602001518660e0015187600001518595508060ff16905098509850985098509850985098505b5b5050919395979092949650565b600081600260003373ffffffffffffffffffffffffffffffffffffffff1673ffffffffffffffffffffffffffffffffffffffff16815260200190815260200160002060008573ffffffffffffffffffffffffffffffffffffffff1673ffffffffffffffffffffffffffffffffffffffff168152602001908152602001600020819055508273ffffffffffffffffffffffffffffffffffffffff163373ffffffffffffffffffffffffffffffffffffffff167f8c5be1e5ebec7d5bd14f71427d1e84f3dd0314c0f7b2291e5b200ac8c7c3b925846040518082815260200191505060405180910390a36001905092915050565b600080836127108162ffffff161015610f6f57600560008662ffffff1662ffffff16815260200190815260200160002091506000846fffffffffffffffffffffffffffffffff1614151515610eb057600080fd5b8160000160029054906101000a900473ffffffffffffffffffffffffffffffffffffffff1673ffffffffffffffffffffffffffffffffffffffff163373ffffffffffffffffffffffffffffffffffffffff16141515610f0e57600080fd5b836fffffffffffffffffffffffffffffffff1682600c01819055508462ffffff167f06ebe22c29c68b4166927bf53da5a19075c3eb97bba0f0113c22c97576b6ba2683600c01546040518082815260200191505060405180910390a2600192505b505092915050565b610f7f6134cd565b816127108162ffffff161015610fee57600560008462ffffff1662ffffff168152602001908152602001600020600201600a806020026040519081016040528092919082600a8015610fe6576020028201915b815481526020019060010190808311610fd2575b505050505091505b50919050565b610ffc6134f6565b600760008373ffffffffffffffffffffffffffffffffffffffff1673ffffffffffffffffffffffffffffffffffffffff168152602001908152602001600020600280602002604051908101604052809291908260028015611072576020028201915b81548152602001906001019080831161105e575b50505050509050919050565b60005481565b600081600160008673ffffffffffffffffffffffffffffffffffffffff1673ffffffffffffffffffffffffffffffffffffffff1681526020019081526020016000205410158015611151575081600260008673ffffffffffffffffffffffffffffffffffffffff1673ffffffffffffffffffffffffffffffffffffffff16815260200190815260200160002060003373ffffffffffffffffffffffffffffffffffffffff1673ffffffffffffffffffffffffffffffffffffffff1681526020019081526020016000205410155b801561115d5750600082115b156112f45781600160008573ffffffffffffffffffffffffffffffffffffffff1673ffffffffffffffffffffffffffffffffffffffff1681526020019081526020016000206000828254019250508190555081600160008673ffffffffffffffffffffffffffffffffffffffff1673ffffffffffffffffffffffffffffffffffffffff1681526020019081526020016000206000828254039250508190555081600260008673ffffffffffffffffffffffffffffffffffffffff1673ffffffffffffffffffffffffffffffffffffffff16815260200190815260200160002060003373ffffffffffffffffffffffffffffffffffffffff1673ffffffffffffffffffffffffffffffffffffffff168152602001908152602001600020600082825403925050819055508273ffffffffffffffffffffffffffffffffffffffff168473ffffffffffffffffffffffffffffffffffffffff167fddf252ad1be2c89b69c2b068fc378daa952ba7f163c4a11628f55a4df523b3ef846040518082815260200191505060405180910390a3600190506112f9565b600090505b9392505050565b600080856127108162ffffff16101561143c57600a8660ff1610151561132557600080fd5b600560008862ffffff1662ffffff168152602001908152602001600020915061134e8285612d56565b156114365784826002018760ff16600a8110151561136857fe5b01819055508662ffffff167fce9b20e38ccb718fd7b9a5fb1eacd0060f320d3e74a7e2ce393a26eb9a0f263683600201428560010160009054906101000a900473ffffffffffffffffffffffffffffffffffffffff166040518084600a80156113e6576020028201915b8154815260200190600101908083116113d2575b50508381526020018273ffffffffffffffffffffffffffffffffffffffff1673ffffffffffffffffffffffffffffffffffffffff168152602001935050505060405180910390a26001925061143b565b600092505b5b5050949350505050565b3373ffffffffffffffffffffffffffffffffffffffff16600360009054906101000a900473ffffffffffffffffffffffffffffffffffffffff1673ffffffffffffffffffffffffffffffffffffffff161415156114a257600080fd5b6004548111151561151057600360009054906101000a900473ffffffffffffffffffffffffffffffffffffffff1673ffffffffffffffffffffffffffffffffffffffff166108fc829081150290604051600060405180830381858888f19350505050151561150f57600080fd5b5b50565b6003600860003373ffffffffffffffffffffffffffffffffffffffff1673ffffffffffffffffffffffffffffffffffffffff16815260200190815260200160002060009054906101000a900463ffffffff1663ffffffff1614151561157757600080fd5b60048163ffffffff1610151561158c57600080fd5b60008273ffffffffffffffffffffffffffffffffffffffff16141515156115b257600080fd5b80600860008473ffffffffffffffffffffffffffffffffffffffff1673ffffffffffffffffffffffffffffffffffffffff16815260200190815260200160002060006101000a81548163ffffffff021916908363ffffffff1602179055505050565b600080826127108162ffffff1610156116e557600560008562ffffff1662ffffff16815260200190815260200160002091508160000160029054906101000a900473ffffffffffffffffffffffffffffffffffffffff1673ffffffffffffffffffffffffffffffffffffffff163373ffffffffffffffffffffffffffffffffffffffff161415156116a457600080fd5b600082600c01819055508362ffffff167fca2e47a4a4a73b5954da66cff11902dbc0e8a6d4ee892921cc381af6aabc415260405160405180910390a2600192505b5050919050565b60006116f6613449565b600560008462ffffff1662ffffff16815260200190815260200160002061012060405190810160405290816000820160009054906101000a900460ff1660ff1660ff1681526020016000820160019054906101000a900460ff161515151581526020016000820160029054906101000a900473ffffffffffffffffffffffffffffffffffffffff1673ffffffffffffffffffffffffffffffffffffffff1673ffffffffffffffffffffffffffffffffffffffff1681526020016001820160009054906101000a900473ffffffffffffffffffffffffffffffffffffffff1673ffffffffffffffffffffffffffffffffffffffff1673ffffffffffffffffffffffffffffffffffffffff16815260200160028201600a806020026040519081016040528092919082600a8015611840576020028201915b81548152602001906001019080831161182c575b50505050508152602001600c8201548152602001600d8201548152602001600e8201548152602001600f82015481525050905061187c816132a9565b915050919050565b6000806000806000866127108162ffffff161015611b0757600560008962ffffff1662ffffff168152602001908152602001600020945060008560000160029054906101000a900473ffffffffffffffffffffffffffffffffffffffff1673ffffffffffffffffffffffffffffffffffffffff1614151561190457600080fd5b600c54871115151561191557600080fd5b86600160003373ffffffffffffffffffffffffffffffffffffffff1673ffffffffffffffffffffffffffffffffffffffff168152602001908152602001600020541015151561196357600080fd5b6000871415151561197357600080fd5b86600c5403935083600c5460095481151561198a57fe5b0402925082341015151561199d57600080fd5b8660016000600360009054906101000a900473ffffffffffffffffffffffffffffffffffffffff1673ffffffffffffffffffffffffffffffffffffffff1673ffffffffffffffffffffffffffffffffffffffff1681526020019081526020016000206000828254019250508190555086600160003373ffffffffffffffffffffffffffffffffffffffff1673ffffffffffffffffffffffffffffffffffffffff168152602001908152602001600020600082825403925050819055506064600e54600c5402811515611a6b57fe5b049150600c5487600d548410611a8357600d54611a85565b835b02811515611a8f57fe5b04600c60008282540192505081905550346004600082825401925050819055506064600b5460095402811515611ac157fe5b0491508684600a548410611ad757600a54611ad9565b835b02811515611ae357fe5b04600960008282540192505081905550611b02858933348b6000613313565b600195505b505050505092915050565b6000600160008373ffffffffffffffffffffffffffffffffffffffff1673ffffffffffffffffffffffffffffffffffffffff168152602001908152602001600020549050919050565b6000816127108162ffffff161015611bd157600560008462ffffff1662ffffff16815260200190815260200160002091508160000160019054906101000a900460ff168015611bad57504282600e0154105b15611bd05760008260000160016101000a81548160ff0219169083151502179055505b5b505050565b600080846127108162ffffff161015611cff57600560008762ffffff1662ffffff1681526020019081526020016000209150611c128285612d56565b15611cf957848260020190600a611c2a92919061351d565b508562ffffff167fce9b20e38ccb718fd7b9a5fb1eacd0060f320d3e74a7e2ce393a26eb9a0f263686428560010160009054906101000a900473ffffffffffffffffffffffffffffffffffffffff166040518084600a60200280838360005b83811015611ca4578082015181840152602081019050611c89565b505050509050018381526020018273ffffffffffffffffffffffffffffffffffffffff1673ffffffffffffffffffffffffffffffffffffffff168152602001935050505060405180910390a260019250611cfe565b600092505b5b50509392505050565b600080836127108162ffffff161015611dbd57600560008662ffffff1662ffffff16815260200190815260200160002091503373ffffffffffffffffffffffffffffffffffffffff168260000160029054906101000a900473ffffffffffffffffffffffffffffffffffffffff1673ffffffffffffffffffffffffffffffffffffffff16141515611d9857600080fd5b611db88286866000808760000160009054906101000a900460ff16613313565b600192505b505092915050565b3373ffffffffffffffffffffffffffffffffffffffff16600360009054906101000a900473ffffffffffffffffffffffffffffffffffffffff1673ffffffffffffffffffffffffffffffffffffffff16141515611e2157600080fd5b600360009054906101000a900473ffffffffffffffffffffffffffffffffffffffff1673ffffffffffffffffffffffffffffffffffffffff166108fc6004549081150290604051600060405180830381858888f193505050501515611e8557600080fd5b565b816127108162ffffff161015611f1e5781600160003373ffffffffffffffffffffffffffffffffffffffff1673ffffffffffffffffffffffffffffffffffffffff16815260200190815260200160002054101515611f1d578262ffffff167fdb312315a406f7d51001b64e96b7a90d5308617cfa97ffcd93575f543f97e632836040518082815260200191505060405180910390a25b5b505050565b611f2b6134f6565b600660008373ffffffffffffffffffffffffffffffffffffffff1673ffffffffffffffffffffffffffffffffffffffff168152602001908152602001600020600280602002604051908101604052809291908260028015611fa1576020028201915b815481526020019060010190808311611f8d575b50505050509050919050565b600080600080856127108162ffffff16101561229557600560008862ffffff1662ffffff168152602001908152602001600020935060008460000160029054906101000a900473ffffffffffffffffffffffffffffffffffffffff1673ffffffffffffffffffffffffffffffffffffffff1614156120cd57600c5484600c0181905550600360009054906101000a900473ffffffffffffffffffffffffffffffffffffffff168460000160026101000a81548173ffffffffffffffffffffffffffffffffffffffff021916908373ffffffffffffffffffffffffffffffffffffffff1602179055506064600e54600c54028115156120a757fe5b049250600d5483106120bb57600d546120bd565b825b600c600082825401925050819055505b8584600c0154111515156120e057600080fd5b83600c0154600160003373ffffffffffffffffffffffffffffffffffffffff1673ffffffffffffffffffffffffffffffffffffffff168152602001908152602001600020541015151561213257600080fd5b60009150606460105485600c01540281151561214a57fe5b04915081600160003373ffffffffffffffffffffffffffffffffffffffff1673ffffffffffffffffffffffffffffffffffffffff1681526020019081526020016000206000828254039250508190555081600160008660000160029054906101000a900473ffffffffffffffffffffffffffffffffffffffff1673ffffffffffffffffffffffffffffffffffffffff1673ffffffffffffffffffffffffffffffffffffffff1681526020019081526020016000206000828254019250508190555081860360016000600360009054906101000a900473ffffffffffffffffffffffffffffffffffffffff1673ffffffffffffffffffffffffffffffffffffffff1673ffffffffffffffffffffffffffffffffffffffff16815260200190815260200160002060008282540192505081905550612290848833600088600c01546000613313565b600194505b5050505092915050565b6000836127108162ffffff1610156124fa57600560008662ffffff1662ffffff16815260200190815260200160002091508160000160029054906101000a900473ffffffffffffffffffffffffffffffffffffffff1673ffffffffffffffffffffffffffffffffffffffff163373ffffffffffffffffffffffffffffffffffffffff1614151561232e57600080fd5b831561244b578160000160019054906101000a900460ff168061235557504282600e015411155b151561236057600080fd5b60008363ffffffff1611151561237557600080fd5b8263ffffffff16600160003373ffffffffffffffffffffffffffffffffffffffff1673ffffffffffffffffffffffffffffffffffffffff16815260200190815260200160002054101515156123c957600080fd5b8263ffffffff16600160003373ffffffffffffffffffffffffffffffffffffffff1673ffffffffffffffffffffffffffffffffffffffff168152602001908152602001600020600082825403925050819055508263ffffffff1660008082825403925050819055508263ffffffff16600f5402420182600e0181905550612456565b600082600e01819055505b838260000160016101000a81548160ff02191690831515021790555083156124c6578462ffffff167f52e8f4b5a1626f05acec334b28b3a6e1229af95f0fdf6929ead61c976399121384604051808263ffffffff1663ffffffff16815260200191505060405180910390a26124f9565b8462ffffff167f7b2ca9b1b8f3e9de64d205763935a164d5090f5e6346199c24b0612e0930a12a60405160405180910390a25b5b5050505050565b600081600160003373ffffffffffffffffffffffffffffffffffffffff1673ffffffffffffffffffffffffffffffffffffffff16815260200190815260200160002054101580156125525750600082115b1561265f5781600160003373ffffffffffffffffffffffffffffffffffffffff1673ffffffffffffffffffffffffffffffffffffffff1681526020019081526020016000206000828254039250508190555081600160008573ffffffffffffffffffffffffffffffffffffffff1673ffffffffffffffffffffffffffffffffffffffff168152602001908152602001600020600082825401925050819055508273ffffffffffffffffffffffffffffffffffffffff163373ffffffffffffffffffffffffffffffffffffffff167fddf252ad1be2c89b69c2b068fc378daa952ba7f163c4a11628f55a4df523b3ef846040518082815260200191505060405180910390a360019050612664565b600090505b92915050565b600080600954600c54915091509091565b80600760003373ffffffffffffffffffffffffffffffffffffffff1673ffffffffffffffffffffffffffffffffffffffff1681526020019081526020016000209060026126c992919061355d565b503373ffffffffffffffffffffffffffffffffffffffff167fb05ccb51f2408b99be7026712c574396fced9c3e0480bf7b8f8874d8c830b7cc826040518082600260200280838360005b8381101561272e578082015181840152602081019050612713565b5050505090500191505060405180910390a250565b3373ffffffffffffffffffffffffffffffffffffffff16600360009054906101000a900473ffffffffffffffffffffffffffffffffffffffff1673ffffffffffffffffffffffffffffffffffffffff1614151561279f57600080fd5b600360009054906101000a900473ffffffffffffffffffffffffffffffffffffffff1673ffffffffffffffffffffffffffffffffffffffff163373ffffffffffffffffffffffffffffffffffffffff161415156127fb57600080fd5b80600160008473ffffffffffffffffffffffffffffffffffffffff1673ffffffffffffffffffffffffffffffffffffffff168152602001908152602001600020600082825401925050819055505050565b6000806000836127108162ffffff1610156128e257600560008662ffffff1662ffffff168152602001908152602001600020915060008260000160029054906101000a900473ffffffffffffffffffffffffffffffffffffffff1673ffffffffffffffffffffffffffffffffffffffff1614156128d257600954600c54935093506128e1565b600082600c0154819150935093505b5b5050915091565b600080836127108162ffffff161015612a6f57600560008662ffffff1662ffffff168152602001908152602001600020925060038460ff1610151561292d57600080fd5b600860003373ffffffffffffffffffffffffffffffffffffffff1673ffffffffffffffffffffffffffffffffffffffff16815260200190815260200160002060009054906101000a900463ffffffff1663ffffffff1691506001821015151561299557600080fd5b60028460ff161415612a5157600282101515156129b157600080fd5b8260000160019054906101000a900460ff1615156129ce57600080fd5b61014060405190810160405280600060ff168152602001600060ff168152602001600060ff168152602001600060ff168152602001600060ff168152602001600060ff168152602001600060ff168152602001600060ff168152602001600060ff168152602001600060ff168152508360020190600a612a4f92919061359d565b505b838360000160006101000a81548160ff021916908360ff1602179055505b5050505050565b80600660003373ffffffffffffffffffffffffffffffffffffffff1673ffffffffffffffffffffffffffffffffffffffff168152602001908152602001600020906002612ac492919061355d565b503373ffffffffffffffffffffffffffffffffffffffff167f4d267d545ed24f4a32ae8dafe3dd6b7015cf92b46e36306b74986fc9288964a7826040518082600260200280838360005b83811015612b29578082015181840152602081019050612b0e565b5050505090500191505060405180910390a250565b3373ffffffffffffffffffffffffffffffffffffffff16600360009054906101000a900473ffffffffffffffffffffffffffffffffffffffff1673ffffffffffffffffffffffffffffffffffffffff16141515612b9a57600080fd5b80600360006101000a81548173ffffffffffffffffffffffffffffffffffffffff021916908373ffffffffffffffffffffffffffffffffffffffff16021790555050565b6000600260008473ffffffffffffffffffffffffffffffffffffffff1673ffffffffffffffffffffffffffffffffffffffff16815260200190815260200160002060008373ffffffffffffffffffffffffffffffffffffffff1673ffffffffffffffffffffffffffffffffffffffff16815260200190815260200160002054905092915050565b6000806000836127108162ffffff161015612d4e57600560008662ffffff1662ffffff168152602001908152602001600020925060008360000160029054906101000a900473ffffffffffffffffffffffffffffffffffffffff1673ffffffffffffffffffffffffffffffffffffffff16141515612ce257600080fd5b6009543410151515612cf357600080fd5b346004600082825401925050819055506064600b5460095402811515612d1557fe5b049150600a548210612d2957600a54612d2b565b815b600960008282540192505081905550612d4983863334600080613313565b600193505b505050919050565b60008060008460000160019054906101000a900460ff168015612d7c57504285600e0154105b15612d9f5760008560000160016101000a81548160ff0219169083151502179055505b8460000160019054906101000a900460ff1615612e3d578460000160029054906101000a900473ffffffffffffffffffffffffffffffffffffffff1673ffffffffffffffffffffffffffffffffffffffff163373ffffffffffffffffffffffffffffffffffffffff16141515612e1457600080fd5b60028560000160009054906101000a900460ff1660ff1614151515612e3857600080fd5b613250565b4285600e0154101561324657839150600284108015612e5e57506012544211155b15612e6857600291505b83600160003373ffffffffffffffffffffffffffffffffffffffff1673ffffffffffffffffffffffffffffffffffffffff1681526020019081526020016000205410151515612eb657600080fd5b83600160003373ffffffffffffffffffffffffffffffffffffffff1673ffffffffffffffffffffffffffffffffffffffff168152602001908152602001600020600082825403925050819055508360008082825403925050819055506130798561012060405190810160405290816000820160009054906101000a900460ff1660ff1660ff1681526020016000820160019054906101000a900460ff161515151581526020016000820160029054906101000a900473ffffffffffffffffffffffffffffffffffffffff1673ffffffffffffffffffffffffffffffffffffffff1673ffffffffffffffffffffffffffffffffffffffff1681526020016001820160009054906101000a900473ffffffffffffffffffffffffffffffffffffffff1673ffffffffffffffffffffffffffffffffffffffff1673ffffffffffffffffffffffffffffffffffffffff16815260200160028201600a806020026040519081016040528092919082600a8015613043576020028201915b81548152602001906001019080831161302f575b50505050508152602001600c8201548152602001600d8201548152602001600e8201548152602001600f820154815250506132a9565b9050600081111561320f5760008560010160009054906101000a900473ffffffffffffffffffffffffffffffffffffffff1673ffffffffffffffffffffffffffffffffffffffff161415156131495780600160008760010160009054906101000a900473ffffffffffffffffffffffffffffffffffffffff1673ffffffffffffffffffffffffffffffffffffffff1673ffffffffffffffffffffffffffffffffffffffff168152602001908152602001600020600082825401925050819055508060008082825401925050819055505b60008560000160029054906101000a900473ffffffffffffffffffffffffffffffffffffffff1673ffffffffffffffffffffffffffffffffffffffff1614151561320e5780600160008760000160029054906101000a900473ffffffffffffffffffffffffffffffffffffffff1673ffffffffffffffffffffffffffffffffffffffff1673ffffffffffffffffffffffffffffffffffffffff168152602001908152602001600020600082825401925050819055508060008082825401925050819055505b5b6002600f54830281151561321f57fe5b04420185600e0181905550600f5460018301600184010202420185600f018190555061324f565b600092506132a1565b5b338560010160006101000a81548173ffffffffffffffffffffffffffffffffffffffff021916908373ffffffffffffffffffffffffffffffffffffffff1602179055504285600d0181905550600192505b505092915050565b600080600083602001511580156132c5575060008460c0015114155b156133075783610100015142106132e1578361010001516132e3565b425b9150600f548460c0015183038115156132f857fe5b0490506011548102925061330c565b600092505b5050919050565b60008473ffffffffffffffffffffffffffffffffffffffff161415151561333957600080fd5b838660000160026101000a81548173ffffffffffffffffffffffffffffffffffffffff021916908373ffffffffffffffffffffffffffffffffffffffff160217905550600086600c018190555060008660000160016101000a81548160ff021916908315150217905550808660000160006101000a81548160ff021916908360ff1602179055508462ffffff167f0abb7627f5a43ce55d691cf577de9c09e8fee6f2dd1f45678a55ce86fadfd6f285848642604051808573ffffffffffffffffffffffffffffffffffffffff1673ffffffffffffffffffffffffffffffffffffffff16815260200184815260200183815260200182815260200194505050505060405180910390a2505050505050565b61024060405190810160405280600060ff168152602001600015158152602001600073ffffffffffffffffffffffffffffffffffffffff168152602001600073ffffffffffffffffffffffffffffffffffffffff1681526020016134ab6135e2565b8152602001600081526020016000815260200160008152602001600081525090565b61014060405190810160405280600a905b60008152602001906001900390816134de5790505090565b60408051908101604052806002905b60008152602001906001900390816135055790505090565b82600a810192821561354c579160200282015b8281111561354b578251825591602001919060010190613530565b5b509050613559919061360b565b5090565b826002810192821561358c579160200282015b8281111561358b578251825591602001919060010190613570565b5b509050613599919061360b565b5090565b82600a81019282156135d1579160200282015b828111156135d0578251829060ff169055916020019190600101906135b0565b5b5090506135de919061360b565b5090565b61014060405190810160405280600a905b60008152602001906001900390816135f35790505090565b61362d91905b80821115613629576000816000905550600101613611565b5090565b905600a165627a7a72305820b90f72225db1bb59199042d0967380674186c5a7c3e74a72aca2779501ed3d7b0029",
    "source": "pragma solidity ^0.4.2;\n\ncontract Token {\n    uint256 public totalSupply;\n    function balanceOf(address _owner) public constant returns (uint256 balance);\n    function transfer(address _to, uint256 _value) public returns (bool success);\n    function transferFrom(address _from, address _to, uint256 _value) public returns (bool success);\n    function approve(address _spender, uint256 _value) public returns (bool success);\n    function allowance(address _owner, address _spender) public constant returns (uint256 remaining);\n    event Transfer(address indexed _from, address indexed _to, uint256 _value);\n    event Approval(address indexed _owner, address indexed _spender, uint256 _value);\n}\n\n/*  ERC 20 token */\ncontract StandardToken is Token {\n    function transfer(address _to, uint256 _value) public returns (bool success) {\n      if (balances[msg.sender] >= _value && _value > 0) {\n        balances[msg.sender] -= _value;\n        balances[_to] += _value;\n        Transfer(msg.sender, _to, _value);\n        return true;\n      } else {\n        return false;\n      }\n    }\n\n    function transferFrom(address _from, address _to, uint256 _value) public returns (bool success) {\n      if (balances[_from] >= _value && allowed[_from][msg.sender] >= _value && _value > 0) {\n        balances[_to] += _value;\n        balances[_from] -= _value;\n        allowed[_from][msg.sender] -= _value;\n        Transfer(_from, _to, _value);\n        return true;\n      } else {\n        return false;\n      }\n    }\n\n    function balanceOf(address _owner) public constant returns (uint256 balance) {\n        return balances[_owner];\n    }\n\n    function approve(address _spender, uint256 _value) public returns (bool success) {\n        allowed[msg.sender][_spender] = _value;\n        Approval(msg.sender, _spender, _value);\n        return true;\n    }\n\n    function allowance(address _owner, address _spender) public constant returns (uint256 remaining) {\n      return allowed[_owner][_spender];\n    }\n\n    mapping (address => uint256) balances;\n    mapping (address => mapping (address => uint256)) allowed;\n}\n\ncontract VirtualRealEstate is StandardToken {\n    address owner;\n    uint256 ownerEth = 0;\n    \n    mapping (uint24 => Property) map;\n    mapping (address => uint256[2]) ownerLink;\n    mapping (address => uint256[2]) ownerHoverText;\n    mapping (address => uint32) moderators; // 0 = Not, 1 = nsfw-power, 2 = ban-power, 3 = set-moderator-level-power\n    \n    uint256 priceETH;\n    uint256 PRICE_ETH_MIN_INCREASE = 1000;//10000000000000000000000; //0.0001 ETH\n    uint256 PRICE_ETH_MIN_PERCENT = 20; //0.0001 ETH\n    uint256 pricePPT;\n    uint256 PRICE_PPT_MIN_INCREASE = 10;\n    uint256 PRICE_PPT_MIN_PERCENT = 20;\n    uint256 payoutInterval;\n    \n    uint256 USER_BUY_CUT_PERCENT = 98; //%\n    \n    uint256 PROPERTY_GENERATES_PER_MINUTE = 1;\n    uint256 EXTA_COLOR_SPEND_UNTIL;\n    \n    event PropertyColorUpdate(uint24 indexed property, uint256[10] colors, uint256 lastUpdate, address lastUpdaterPayee);\n    event PropertyBought(uint24 indexed property,  address newOwner, uint256 ethAmount, uint256 PPTAmount, uint256 timestamp); //Added ethAmount, PPTAmount and timestamp\n    event SetUserHoverText(address indexed user, uint256[2] newHoverText);\n    event SetUserSetLink(address indexed user, uint256[2] newLink);\n    event PropertySetForSale(uint24 indexed property, uint256 forSalePrice);\n    event DelistProperty(uint24 indexed property);\n    event SetPropertyPublic(uint24 indexed property);\n    event SetPropertyPrivate(uint24 indexed property, uint32 numMinutesPrivate);\n    event Bid(uint24 indexed property, uint256 bid);\n    \n    struct Property {\n        uint8 flag; //0 == none, 1 == nsfw, 2 == ban\n        bool isInPrivateMode;\n        address owner;\n        address lastUpdater;\n        uint256[10] colors; //10x10 rgb pixel colors per property\n        uint256 salePrice;\n        uint256 lastUpdate; //Last Update\n        uint256 becomePublic;\n        uint256 earnUntil;\n    }\n    \n    modifier ownerOnly() {\n        require(owner == msg.sender);\n        _;\n    }\n    \n    modifier validPropertyID(uint24 propertyID) {\n        if (propertyID < 10000) {\n            _;\n        }\n    }\n    \n    function VirtualRealEstate() public {\n        owner = msg.sender;\n        totalSupply = 0;\n        EXTA_COLOR_SPEND_UNTIL = now + 3 days;\n        pricePPT = 100;\n        priceETH = 10000;//1000000000000000000; //0.001 ETH\n        moderators[msg.sender] = 3;\n        payoutInterval = (1 minutes);\n    }\n    function setFlag(uint24 propertyID, uint8 flag) public validPropertyID(propertyID)  {\n        Property storage property = map[propertyID];\n\n        require(flag < 3);\n\n        uint256 moderationLevel = moderators[msg.sender];\n        require(moderationLevel >= 1); //Must be moderator or higher\n    \n        if (flag == 2) { //If ban, must be higher than nsfw\n            require(moderationLevel >= 2);\n            require(property.isInPrivateMode); //Can't ban an owner's property if a public user did it\n            property.colors = [0, 0, 0, 0, 0, 0, 0, 0, 0, 0];\n        }\n\n        property.flag = flag;\n    }\n    function setHoverText(uint256[2] text) public {\n        ownerHoverText[msg.sender] = text;\n        SetUserHoverText(msg.sender, text);\n    }\n    function setLink(uint256[2] link) public {\n        ownerLink[msg.sender] = link;\n        SetUserSetLink(msg.sender, link);\n    }\n    function getSystemSalePrices() public view returns(uint256, uint256) {\n        return (priceETH, pricePPT);\n    }\n    function getForSalePrices(uint24 propertyID) public validPropertyID(propertyID) view returns(uint256, uint256) {\n        Property storage property = map[propertyID];\n        if (property.owner == 0) {\n            return (priceETH, pricePPT);\n        } else {\n            return (0, property.salePrice);\n        }\n    }\n    function getHoverText(address user) public view returns(uint256[2]) {\n        return ownerHoverText[user];\n    }\n    function getLink(address user) public view returns(uint256[2]) {\n        return ownerLink[user];\n    }\n    \n    function getPropertyColors(uint24 propertyID) public validPropertyID(propertyID) view returns(uint256[10]) {\n        return map[propertyID].colors;\n    }\n    \n    function getPropertyData(uint24 propertyID) public validPropertyID(propertyID) view returns(address, uint256, uint256, uint256, bool, uint256, uint32) {\n        Property memory property = map[propertyID];\n        if (property.owner == 0) {\n            return (property.owner, priceETH, pricePPT, property.lastUpdate, property.isInPrivateMode, property.becomePublic, property.flag);\n        } else {\n            return (property.owner, 0, property.salePrice, property.lastUpdate, property.isInPrivateMode, property.becomePublic, property.flag);\n        }\n    }\n    function tryForcePublic(uint24 propertyID) public validPropertyID(propertyID) {\n        Property storage property = map[propertyID];\n        //If its private when it shouldnt be\n        if (property.isInPrivateMode && property.becomePublic < now) {\n            property.isInPrivateMode = false;\n        }\n    }\n    function _getProjectedPayout(Property memory property) private view returns(uint256) {\n        if (!property.isInPrivateMode && property.lastUpdate != 0) {\n            uint256 earnedUntil = (now < property.earnUntil) ? now : property.earnUntil;\n            uint256 minutesSinceLastColourChange = (earnedUntil - property.lastUpdate) / payoutInterval;\n            return minutesSinceLastColourChange * PROPERTY_GENERATES_PER_MINUTE;\n        }\n        return 0;\n    }\n    function getProjectedPayout(uint24 propertyID) public view returns(uint256) {\n        Property memory property = map[propertyID];\n        return _getProjectedPayout(property);\n    }\n    function _tryTriggerPayout(Property storage property, uint256 pptToSpend) private returns(bool) {\n        if (property.isInPrivateMode && property.becomePublic < now) {//If its private when it shouldnt be\n            property.isInPrivateMode = false;\n        }\n        if (property.isInPrivateMode) {\n            require(msg.sender == property.owner);\n            require(property.flag != 2);\n        } else if (property.becomePublic < now) {\n            uint256 pptSpent = pptToSpend;\n            if (pptToSpend < 2 && now <= EXTA_COLOR_SPEND_UNTIL) { //If first 3 days and we spent <2 coins, treat it as if we spent 2\n                pptSpent = 2;\n            }\n            require(balances[msg.sender] >= pptToSpend);\n            balances[msg.sender] -= pptToSpend;\n            totalSupply -= pptToSpend;\n            uint256 payoutEach = _getProjectedPayout(property);\n            if (payoutEach > 0) {\n                if (property.lastUpdater != 0) {\n                    balances[property.lastUpdater] += payoutEach;\n                    totalSupply += payoutEach;\n                }\n                if (property.owner != 0) {\n                    balances[property.owner] += payoutEach;\n                    totalSupply += payoutEach;\n                }\n            }\n            property.becomePublic = now + (pptSpent * payoutInterval / 2); //N/2 minutes of user-private mode\n            property.earnUntil = now + (pptSpent + 1) * (pptSpent + 1) * payoutInterval; //(N+1)^2 coins earned max/minutes we can earn from\n        } else {\n            return false;\n        }\n        property.lastUpdater = msg.sender;\n        property.lastUpdate = now;\n        return true;\n    }\n    //Change a 10x10 == 70 | 30 | 0 cost\n    function setColors(uint24 propertyID, uint256[10] newColors, uint256 pptToSpend) public validPropertyID(propertyID) returns(bool) {\n        Property storage property = map[propertyID];\n        if (_tryTriggerPayout(property, pptToSpend)) {\n            property.colors = newColors;\n            PropertyColorUpdate(propertyID, newColors, now, property.lastUpdater);\n            return true;\n        }\n        return false;\n    }\n    function setRowColors(uint24 propertyID, uint8 row, uint256 newColorData, uint256 pptToSpend) public validPropertyID(propertyID) returns(bool) {\n        require(row < 10);\n        Property storage property = map[propertyID];\n        if (_tryTriggerPayout(property, pptToSpend)) {\n            property.colors[row] = newColorData;\n            PropertyColorUpdate(propertyID, property.colors, now, property.lastUpdater);\n            return true;\n        }\n        return false;\n    }\n    function setPropertyMode(uint24 propertyID, bool setPrivateMode, uint32 numMinutesPrivate) public validPropertyID(propertyID) {\n        Property storage property = map[propertyID];\n        require(msg.sender == property.owner);\n        if (setPrivateMode) {\n            require(property.isInPrivateMode || property.becomePublic <= now); //If inprivate, we can extend, otherwise it must not be locked by someone else\n            require(numMinutesPrivate > 0);\n            require(balances[msg.sender] >= numMinutesPrivate);\n            balances[msg.sender] -= numMinutesPrivate;\n            totalSupply -= numMinutesPrivate;\n            property.becomePublic = now + payoutInterval * numMinutesPrivate;\n        } else {\n            property.becomePublic = 0;\n        }\n        property.isInPrivateMode = setPrivateMode;\n        \n        if (setPrivateMode) {\n            SetPropertyPrivate(propertyID, numMinutesPrivate);\n        } else {\n            SetPropertyPublic(propertyID);\n        }\n    }\n    function _transferProperty(Property storage property, uint24 propertyID, address newOwner, uint256 pptAmount, uint256 ethAmount, uint8 flag) private {\n        require(newOwner != 0);\n        property.owner = newOwner;\n        property.salePrice = 0;\n        property.isInPrivateMode = false;\n        property.flag = flag;\n        PropertyBought(propertyID, newOwner, ethAmount, pptAmount, now);\n    }\n    function transferProperty(uint24 propertyID, address newOwner) public validPropertyID(propertyID) returns(bool) {\n        Property storage property = map[propertyID];\n        require(property.owner == msg.sender);\n        _transferProperty(property, propertyID, newOwner, 0, 0, property.flag);\n        return true;\n    }\n    function buyProperty(uint24 propertyID, uint256 PPTValue) public validPropertyID(propertyID) payable returns(bool) {\n        Property storage property = map[propertyID];\n        \n        //Must be the first purchase, otherwise do it with PPT\n        require(property.owner == 0);\n        //Required to avoid underflowing (pricePPT - PPTValue)\n        require(PPTValue <= pricePPT);\n        require(balances[msg.sender] >= PPTValue);\n        require(PPTValue != 0);\n        \n        uint256 PPTLeft = pricePPT - PPTValue;\n        uint256 ethLeft = priceETH / pricePPT * PPTLeft;\n        \n        require(msg.value >= ethLeft);\n    \n        balances[owner] += PPTValue;\n        balances[msg.sender] -= PPTValue;\n\n        uint256 minPercent = pricePPT * PRICE_PPT_MIN_PERCENT / 100;\n        pricePPT += ((minPercent < PRICE_PPT_MIN_INCREASE) ? minPercent : PRICE_PPT_MIN_INCREASE) * PPTValue / pricePPT;\n\n        ownerEth += msg.value;\n        minPercent = priceETH * PRICE_ETH_MIN_PERCENT / 100;\n        priceETH += ((minPercent < PRICE_ETH_MIN_INCREASE) ? minPercent : PRICE_ETH_MIN_INCREASE) * PPTLeft / PPTValue;\n        \n        _transferProperty(property, propertyID, msg.sender, msg.value, PPTValue, 0);\n        \n        return true;\n    }\n    function buyPropertyInPPT(uint24 propertyID, uint256 PPTValue) public validPropertyID(propertyID) returns(bool) {\n        Property storage property = map[propertyID];\n        \n        //If they have no owner, do the PPT price and update it\n        if (property.owner == 0) {\n            property.salePrice = pricePPT;\n            property.owner = owner;\n            uint256 minPercent = pricePPT * PRICE_PPT_MIN_PERCENT / 100;\n            pricePPT += (minPercent < PRICE_PPT_MIN_INCREASE) ? minPercent : PRICE_PPT_MIN_INCREASE;\n        }\n        \n        require(property.salePrice <= PPTValue);\n        require(balances[msg.sender] >= property.salePrice);\n        \n        uint256 amountTransfered = 0;\n        amountTransfered = property.salePrice * USER_BUY_CUT_PERCENT / 100;\n        \n        balances[msg.sender] -= amountTransfered;\n        balances[property.owner] += amountTransfered;\n        balances[owner] += PPTValue - amountTransfered;\n\n        _transferProperty(property, propertyID, msg.sender, 0, property.salePrice, 0);\n        \n        return true;\n    }\n    //Use Case: Buyer wants to buy a property.\n    function buyPropertyInETH(uint24 propertyID) public validPropertyID(propertyID) payable returns(bool) {\n        Property storage property = map[propertyID];\n        \n        require(property.owner == 0);\n        require(msg.value >= priceETH);\n        \n        ownerEth += msg.value;\n    \n        uint256 minPercent = priceETH * PRICE_ETH_MIN_PERCENT / 100;\n        priceETH += (minPercent < PRICE_ETH_MIN_INCREASE) ? minPercent : PRICE_ETH_MIN_INCREASE;\n        \n        _transferProperty(property, propertyID, msg.sender, msg.value, 0, 0);\n        return true;\n    }\n    \n    //Use Case: Owner of a property lists for sale at a given price\n    function listForSale(uint24 propertyID, uint128 price ) public validPropertyID(propertyID) returns(bool) {\n        Property storage property = map[propertyID];\n      \n        require(price != 0);\n      \n        require(msg.sender == property.owner); //Must be the owner\n        //You can listForSale an already listed item to update the listing\n        property.salePrice = price;\n        \n        PropertySetForSale(propertyID, property.salePrice);\n        \n        return true;\n    }\n    \n    //Use Case: Owner of a property delists from sale offer\n    function delist(uint24 propertyID) public validPropertyID(propertyID) returns(bool) {\n        Property storage property = map[propertyID];\n        \n        require(msg.sender == property.owner); //Must be the owner\n\n        property.salePrice = 0;\n        \n        DelistProperty(propertyID);\n        \n        return true;\n    }\n    function setModeratorLevel(address user, uint32 level) public {\n        require(moderators[msg.sender] == 3);\n        require(level < 4);\n        require(user != 0);\n        moderators[user] = level;\n    }\n\n    function makeBid(uint24 propertyID, uint256 bidAmount) public validPropertyID(propertyID) {\n        if (balances[msg.sender] >= bidAmount) {\n            Bid(propertyID, bidAmount);\n        }\n    }\n    \n    //////////////////////////////////////////////////////\n    ////Owner Sections: Meta-Functions For Owner only/////\n    //////////////////////////////////////////////////////\n    function withdraw(uint256 amount) public ownerOnly() {\n        if (amount <= ownerEth) {\n            owner.transfer(amount);\n        }\n    }\n    \n    function withdrawAll() public ownerOnly() {\n        owner.transfer(ownerEth);\n    }\n    \n    function changeOwners(address newOwner) public ownerOnly() {\n        owner = newOwner;\n    }\n    \n    ////////////////////////////////////////////////\n    ///TODO: TESTING ONLY: REMOVE BEFORE RELEASE:///\n    ////////////////////////////////////////////////\n    function addCoin(address user, uint256 amount) public ownerOnly() {\n        require(msg.sender == owner);\n        balances[user] += amount;\n    }\n}",
    "sourcePath": "/Users/jaegarsarauer/Documents/DATA/PixelRealEstate/contracts/VirtualRealEstate.sol",
    "compiler": {
        "name": "solc",
        "version": "0.4.18+commit.9cf6e910.Emscripten.clang"
    },
    "schemaVersion": "1.0.1",
    "updatedAt": "2018-03-08T21:39:05.164Z"
}