{
    "contractName": "VirtualRealEstate",
    "abi": [
        {
            "constant": true,
            "inputs": [
                {
                    "name": "propertyID",
                    "type": "uint24"
                }
            ],
            "name": "getPropertyData",
            "outputs": [
                {
                    "name": "",
                    "type": "address"
                },
                {
                    "name": "",
                    "type": "uint256"
                },
                {
                    "name": "",
                    "type": "uint256"
                },
                {
                    "name": "",
                    "type": "uint256"
                },
                {
                    "name": "",
                    "type": "bool"
                }
            ],
            "payable": false,
            "stateMutability": "view",
            "type": "function"
        },
        {
            "constant": false,
            "inputs": [
                {
                    "name": "_spender",
                    "type": "address"
                },
                {
                    "name": "_value",
                    "type": "uint256"
                }
            ],
            "name": "approve",
            "outputs": [
                {
                    "name": "success",
                    "type": "bool"
                }
            ],
            "payable": false,
            "stateMutability": "nonpayable",
            "type": "function"
        },
        {
            "constant": false,
            "inputs": [
                {
                    "name": "propertyID",
                    "type": "uint24"
                },
                {
                    "name": "row",
                    "type": "uint8"
                },
                {
                    "name": "newColorData",
                    "type": "uint24"
                }
            ],
            "name": "setRowColors",
            "outputs": [
                {
                    "name": "",
                    "type": "bool"
                }
            ],
            "payable": false,
            "stateMutability": "nonpayable",
            "type": "function"
        },
        {
            "constant": false,
            "inputs": [
                {
                    "name": "propertyID",
                    "type": "uint24"
                },
                {
                    "name": "price",
                    "type": "uint128"
                }
            ],
            "name": "listForSale",
            "outputs": [
                {
                    "name": "",
                    "type": "bool"
                }
            ],
            "payable": false,
            "stateMutability": "nonpayable",
            "type": "function"
        },
        {
            "constant": true,
            "inputs": [
                {
                    "name": "propertyID",
                    "type": "uint24"
                }
            ],
            "name": "getPropertyColors",
            "outputs": [
                {
                    "name": "",
                    "type": "uint256[10]"
                }
            ],
            "payable": false,
            "stateMutability": "view",
            "type": "function"
        },
        {
            "constant": true,
            "inputs": [
                {
                    "name": "user",
                    "type": "address"
                }
            ],
            "name": "getHoverText",
            "outputs": [
                {
                    "name": "",
                    "type": "bytes32[2]"
                }
            ],
            "payable": false,
            "stateMutability": "view",
            "type": "function"
        },
        {
            "constant": true,
            "inputs": [],
            "name": "totalSupply",
            "outputs": [
                {
                    "name": "",
                    "type": "uint256"
                }
            ],
            "payable": false,
            "stateMutability": "view",
            "type": "function"
        },
        {
            "constant": false,
            "inputs": [
                {
                    "name": "text",
                    "type": "bytes32[2]"
                }
            ],
            "name": "setHoverText",
            "outputs": [],
            "payable": false,
            "stateMutability": "nonpayable",
            "type": "function"
        },
        {
            "constant": false,
            "inputs": [
                {
                    "name": "_from",
                    "type": "address"
                },
                {
                    "name": "_to",
                    "type": "address"
                },
                {
                    "name": "_value",
                    "type": "uint256"
                }
            ],
            "name": "transferFrom",
            "outputs": [
                {
                    "name": "success",
                    "type": "bool"
                }
            ],
            "payable": false,
            "stateMutability": "nonpayable",
            "type": "function"
        },
        {
            "constant": false,
            "inputs": [
                {
                    "name": "link",
                    "type": "bytes32[2]"
                }
            ],
            "name": "setLink",
            "outputs": [],
            "payable": false,
            "stateMutability": "nonpayable",
            "type": "function"
        },
        {
            "constant": false,
            "inputs": [
                {
                    "name": "amount",
                    "type": "uint256"
                }
            ],
            "name": "withdraw",
            "outputs": [],
            "payable": false,
            "stateMutability": "nonpayable",
            "type": "function"
        },
        {
            "constant": false,
            "inputs": [
                {
                    "name": "user",
                    "type": "address"
                },
                {
                    "name": "level",
                    "type": "uint32"
                }
            ],
            "name": "setModeratorLevel",
            "outputs": [],
            "payable": false,
            "stateMutability": "nonpayable",
            "type": "function"
        },
        {
            "constant": false,
            "inputs": [
                {
                    "name": "propertyID",
                    "type": "uint24"
                },
                {
                    "name": "ppcValue",
                    "type": "uint256"
                }
            ],
            "name": "buyPropertyInPPC",
            "outputs": [
                {
                    "name": "",
                    "type": "bool"
                }
            ],
            "payable": false,
            "stateMutability": "nonpayable",
            "type": "function"
        },
        {
            "constant": false,
            "inputs": [
                {
                    "name": "propertyID",
                    "type": "uint24"
                }
            ],
            "name": "delist",
            "outputs": [
                {
                    "name": "",
                    "type": "bool"
                }
            ],
            "payable": false,
            "stateMutability": "nonpayable",
            "type": "function"
        },
        {
            "constant": true,
            "inputs": [
                {
                    "name": "propertyID",
                    "type": "uint24"
                }
            ],
            "name": "getProjectedPayout",
            "outputs": [
                {
                    "name": "",
                    "type": "uint256"
                }
            ],
            "payable": false,
            "stateMutability": "view",
            "type": "function"
        },
        {
            "constant": false,
            "inputs": [
                {
                    "name": "propertyID",
                    "type": "uint24"
                },
                {
                    "name": "ppcValue",
                    "type": "uint256"
                }
            ],
            "name": "buyProperty",
            "outputs": [
                {
                    "name": "",
                    "type": "bool"
                }
            ],
            "payable": true,
            "stateMutability": "payable",
            "type": "function"
        },
        {
            "constant": true,
            "inputs": [
                {
                    "name": "_owner",
                    "type": "address"
                }
            ],
            "name": "balanceOf",
            "outputs": [
                {
                    "name": "balance",
                    "type": "uint256"
                }
            ],
            "payable": false,
            "stateMutability": "view",
            "type": "function"
        },
        {
            "constant": false,
            "inputs": [
                {
                    "name": "propertyID",
                    "type": "uint24"
                },
                {
                    "name": "flag",
                    "type": "uint256"
                }
            ],
            "name": "setFlag",
            "outputs": [],
            "payable": false,
            "stateMutability": "nonpayable",
            "type": "function"
        },
        {
            "constant": false,
            "inputs": [
                {
                    "name": "propertyID",
                    "type": "uint24"
                },
                {
                    "name": "newOwner",
                    "type": "address"
                }
            ],
            "name": "transferProperty",
            "outputs": [
                {
                    "name": "",
                    "type": "bool"
                }
            ],
            "payable": false,
            "stateMutability": "nonpayable",
            "type": "function"
        },
        {
            "constant": false,
            "inputs": [],
            "name": "withdrawAll",
            "outputs": [],
            "payable": false,
            "stateMutability": "nonpayable",
            "type": "function"
        },
        {
            "constant": true,
            "inputs": [
                {
                    "name": "user",
                    "type": "address"
                }
            ],
            "name": "getLink",
            "outputs": [
                {
                    "name": "",
                    "type": "bytes32[2]"
                }
            ],
            "payable": false,
            "stateMutability": "view",
            "type": "function"
        },
        {
            "constant": false,
            "inputs": [
                {
                    "name": "propertyID",
                    "type": "uint24"
                },
                {
                    "name": "isInPrivateMode",
                    "type": "bool"
                },
                {
                    "name": "numHoursPrivate",
                    "type": "uint32"
                }
            ],
            "name": "setPropertyMode",
            "outputs": [],
            "payable": false,
            "stateMutability": "nonpayable",
            "type": "function"
        },
        {
            "constant": false,
            "inputs": [
                {
                    "name": "_to",
                    "type": "address"
                },
                {
                    "name": "_value",
                    "type": "uint256"
                }
            ],
            "name": "transfer",
            "outputs": [
                {
                    "name": "success",
                    "type": "bool"
                }
            ],
            "payable": false,
            "stateMutability": "nonpayable",
            "type": "function"
        },
        {
            "constant": true,
            "inputs": [],
            "name": "getSystemSalePrices",
            "outputs": [
                {
                    "name": "",
                    "type": "uint256"
                },
                {
                    "name": "",
                    "type": "uint256"
                }
            ],
            "payable": false,
            "stateMutability": "view",
            "type": "function"
        },
        {
            "constant": false,
            "inputs": [
                {
                    "name": "user",
                    "type": "address"
                },
                {
                    "name": "amount",
                    "type": "uint256"
                }
            ],
            "name": "addCoin",
            "outputs": [],
            "payable": false,
            "stateMutability": "nonpayable",
            "type": "function"
        },
        {
            "constant": true,
            "inputs": [
                {
                    "name": "propertyID",
                    "type": "uint24"
                }
            ],
            "name": "getForSalePrices",
            "outputs": [
                {
                    "name": "",
                    "type": "uint256"
                },
                {
                    "name": "",
                    "type": "uint256"
                }
            ],
            "payable": false,
            "stateMutability": "view",
            "type": "function"
        },
        {
            "constant": false,
            "inputs": [
                {
                    "name": "newOwner",
                    "type": "address"
                }
            ],
            "name": "changeOwners",
            "outputs": [],
            "payable": false,
            "stateMutability": "nonpayable",
            "type": "function"
        },
        {
            "constant": false,
            "inputs": [
                {
                    "name": "propertyID",
                    "type": "uint24"
                },
                {
                    "name": "newColors",
                    "type": "uint256[10]"
                }
            ],
            "name": "setColors",
            "outputs": [
                {
                    "name": "",
                    "type": "bool"
                }
            ],
            "payable": false,
            "stateMutability": "nonpayable",
            "type": "function"
        },
        {
            "constant": true,
            "inputs": [
                {
                    "name": "_owner",
                    "type": "address"
                },
                {
                    "name": "_spender",
                    "type": "address"
                }
            ],
            "name": "allowance",
            "outputs": [
                {
                    "name": "remaining",
                    "type": "uint256"
                }
            ],
            "payable": false,
            "stateMutability": "view",
            "type": "function"
        },
        {
            "constant": false,
            "inputs": [
                {
                    "name": "propertyID",
                    "type": "uint24"
                }
            ],
            "name": "buyPropertyInETH",
            "outputs": [
                {
                    "name": "",
                    "type": "bool"
                }
            ],
            "payable": true,
            "stateMutability": "payable",
            "type": "function"
        },
        {
            "inputs": [],
            "payable": false,
            "stateMutability": "nonpayable",
            "type": "constructor"
        },
        {
            "anonymous": false,
            "inputs": [
                {
                    "indexed": true,
                    "name": "property",
                    "type": "uint24"
                },
                {
                    "indexed": false,
                    "name": "colors",
                    "type": "uint256[10]"
                },
                {
                    "indexed": false,
                    "name": "lastUpdate",
                    "type": "uint256"
                },
                {
                    "indexed": false,
                    "name": "lastUpdaterPayee",
                    "type": "address"
                }
            ],
            "name": "PropertyColorUpdate",
            "type": "event"
        },
        {
            "anonymous": false,
            "inputs": [
                {
                    "indexed": true,
                    "name": "property",
                    "type": "uint24"
                },
                {
                    "indexed": false,
                    "name": "row",
                    "type": "uint8"
                },
                {
                    "indexed": false,
                    "name": "rgb",
                    "type": "uint24"
                }
            ],
            "name": "PropertyColorUpdatePixel",
            "type": "event"
        },
        {
            "anonymous": false,
            "inputs": [
                {
                    "indexed": true,
                    "name": "property",
                    "type": "uint24"
                },
                {
                    "indexed": false,
                    "name": "newOwner",
                    "type": "address"
                },
                {
                    "indexed": false,
                    "name": "ethAmount",
                    "type": "uint256"
                },
                {
                    "indexed": false,
                    "name": "ppcAmount",
                    "type": "uint256"
                },
                {
                    "indexed": false,
                    "name": "timestamp",
                    "type": "uint256"
                }
            ],
            "name": "PropertyBought",
            "type": "event"
        },
        {
            "anonymous": false,
            "inputs": [
                {
                    "indexed": true,
                    "name": "user",
                    "type": "address"
                },
                {
                    "indexed": false,
                    "name": "newHoverText",
                    "type": "bytes32[2]"
                }
            ],
            "name": "SetUserHoverText",
            "type": "event"
        },
        {
            "anonymous": false,
            "inputs": [
                {
                    "indexed": true,
                    "name": "user",
                    "type": "address"
                },
                {
                    "indexed": false,
                    "name": "newLink",
                    "type": "bytes32[2]"
                }
            ],
            "name": "SetUserSetLink",
            "type": "event"
        },
        {
            "anonymous": false,
            "inputs": [
                {
                    "indexed": true,
                    "name": "property",
                    "type": "uint24"
                },
                {
                    "indexed": false,
                    "name": "forSalePrice",
                    "type": "uint256"
                }
            ],
            "name": "PropertySetForSale",
            "type": "event"
        },
        {
            "anonymous": false,
            "inputs": [
                {
                    "indexed": true,
                    "name": "property",
                    "type": "uint24"
                }
            ],
            "name": "DelistProperty",
            "type": "event"
        },
        {
            "anonymous": false,
            "inputs": [
                {
                    "indexed": true,
                    "name": "property",
                    "type": "uint24"
                }
            ],
            "name": "SetPropertyPublic",
            "type": "event"
        },
        {
            "anonymous": false,
            "inputs": [
                {
                    "indexed": true,
                    "name": "property",
                    "type": "uint24"
                },
                {
                    "indexed": false,
                    "name": "numHoursPrivate",
                    "type": "uint32"
                }
            ],
            "name": "SetPropertyPrivate",
            "type": "event"
        },
        {
            "anonymous": false,
            "inputs": [
                {
                    "indexed": true,
                    "name": "_from",
                    "type": "address"
                },
                {
                    "indexed": true,
                    "name": "_to",
                    "type": "address"
                },
                {
                    "indexed": false,
                    "name": "_value",
                    "type": "uint256"
                }
            ],
            "name": "Transfer",
            "type": "event"
        },
        {
            "anonymous": false,
            "inputs": [
                {
                    "indexed": true,
                    "name": "_owner",
                    "type": "address"
                },
                {
                    "indexed": true,
                    "name": "_spender",
                    "type": "address"
                },
                {
                    "indexed": false,
                    "name": "_value",
                    "type": "uint256"
                }
            ],
            "name": "Approval",
            "type": "event"
        }
    ],
    "bytecode": "0x606060405260006004556103e8600a556014600b55600a600d556014600e556062600f556002601055341561003357600080fd5b33600360006101000a81548173ffffffffffffffffffffffffffffffffffffffff021916908373ffffffffffffffffffffffffffffffffffffffff1602179055506000808190555042601181905550600a600c819055506127106009819055506003600860003373ffffffffffffffffffffffffffffffffffffffff1673ffffffffffffffffffffffffffffffffffffffff16815260200190815260200160002060006101000a81548163ffffffff021916908363ffffffff160217905550613302806101016000396000f300606060405260043610610180576000357c0100000000000000000000000000000000000000000000000000000000900463ffffffff168063075773fd14610185578063095ea7b31461020d5780630a88e7701461026757806316035c7c146102c1578063164e0aba1461031c5780631775459d1461038057806318160ddd146103f55780631d04458d1461041e57806323b872dd14610464578063284b8a64146104dd5780632e1a7d4d146105235780633ac8e29614610546578063410b6d7a1461058e5780635a033830146105d75780635b61ce14146106175780636145a4f01461065357806370a08231146106915780637a146dae146106de57806382e573961461070f578063853828b61461076e5780639d6abe4f14610783578063a690478b146107f8578063a9059cbb1461083a578063ab4c448714610894578063b4014879146108c4578063c3c9c24114610906578063d7963f9414610949578063dc4cb7f514610982578063dd62ed3e146109ef578063ef952a9914610a5b575b600080fd5b341561019057600080fd5b6101ab600480803562ffffff16906020019091905050610a90565b604051808673ffffffffffffffffffffffffffffffffffffffff1673ffffffffffffffffffffffffffffffffffffffff168152602001858152602001848152602001838152602001821515151581526020019550505050505060405180910390f35b341561021857600080fd5b61024d600480803573ffffffffffffffffffffffffffffffffffffffff16906020019091908035906020019091905050610bb9565b604051808215151515815260200191505060405180910390f35b341561027257600080fd5b6102a7600480803562ffffff1690602001909190803560ff1690602001909190803562ffffff16906020019091905050610cab565b604051808215151515815260200191505060405180910390f35b34156102cc57600080fd5b610302600480803562ffffff169060200190919080356fffffffffffffffffffffffffffffffff16906020019091905050610f2f565b604051808215151515815260200191505060405180910390f35b341561032757600080fd5b610342600480803562ffffff1690602001909190505061104a565b6040518082600a60200280838360005b8381101561036d578082015181840152602081019050610352565b5050505090500191505060405180910390f35b341561038b57600080fd5b6103b7600480803573ffffffffffffffffffffffffffffffffffffffff169060200190919050506110c7565b6040518082600260200280838360005b838110156103e25780820151818401526020810190506103c7565b5050505090500191505060405180910390f35b341561040057600080fd5b610408611155565b6040518082815260200191505060405180910390f35b341561042957600080fd5b6104626004808060400190600280602002604051908101604052809291908260026020028082843782019150505050509190505061115b565b005b341561046f57600080fd5b6104c3600480803573ffffffffffffffffffffffffffffffffffffffff1690602001909190803573ffffffffffffffffffffffffffffffffffffffff16906020019091908035906020019091905050611223565b604051808215151515815260200191505060405180910390f35b34156104e857600080fd5b6105216004808060400190600280602002604051908101604052809291908260026020028082843782019150505050509190505061149f565b005b341561052e57600080fd5b6105446004808035906020019091905050611567565b005b341561055157600080fd5b61058c600480803573ffffffffffffffffffffffffffffffffffffffff1690602001909190803563ffffffff16906020019091905050611634565b005b341561059957600080fd5b6105bd600480803562ffffff16906020019091908035906020019091905050611735565b604051808215151515815260200191505060405180910390f35b34156105e257600080fd5b6105fd600480803562ffffff16906020019091905050611b31565b604051808215151515815260200191505060405180910390f35b341561062257600080fd5b61063d600480803562ffffff16906020019091905050611c09565b6040518082815260200191505060405180910390f35b610677600480803562ffffff16906020019091908035906020019091905050611c83565b604051808215151515815260200191505060405180910390f35b341561069c57600080fd5b6106c8600480803573ffffffffffffffffffffffffffffffffffffffff16906020019091905050612037565b6040518082815260200191505060405180910390f35b34156106e957600080fd5b61070d600480803562ffffff16906020019091908035906020019091905050612080565b005b341561071a57600080fd5b610754600480803562ffffff1690602001909190803573ffffffffffffffffffffffffffffffffffffffff169060200190919050506121f3565b604051808215151515815260200191505060405180910390f35b341561077957600080fd5b61078161237b565b005b341561078e57600080fd5b6107ba600480803573ffffffffffffffffffffffffffffffffffffffff1690602001909190505061243d565b6040518082600260200280838360005b838110156107e55780820151818401526020810190506107ca565b5050505090500191505060405180910390f35b341561080357600080fd5b610838600480803562ffffff16906020019091908035151590602001909190803563ffffffff169060200190919050506124cb565b005b341561084557600080fd5b61087a600480803573ffffffffffffffffffffffffffffffffffffffff169060200190919080359060200190919050506126eb565b604051808215151515815260200191505060405180910390f35b341561089f57600080fd5b6108a7612854565b604051808381526020018281526020019250505060405180910390f35b34156108cf57600080fd5b610904600480803573ffffffffffffffffffffffffffffffffffffffff16906020019091908035906020019091905050612865565b005b341561091157600080fd5b61092c600480803562ffffff16906020019091905050612912565b604051808381526020018281526020019250505060405180910390f35b341561095457600080fd5b610980600480803573ffffffffffffffffffffffffffffffffffffffff169060200190919050506129af565b005b341561098d57600080fd5b6109d5600480803562ffffff1690602001909190806101400190600a806020026040519081016040528092919082600a60200280828437820191505050505091905050612a4f565b604051808215151515815260200191505060405180910390f35b34156109fa57600080fd5b610a45600480803573ffffffffffffffffffffffffffffffffffffffff1690602001909190803573ffffffffffffffffffffffffffffffffffffffff16906020019091905050612f12565b6040518082815260200191505060405180910390f35b610a76600480803562ffffff16906020019091905050612f99565b604051808215151515815260200191505060405180910390f35b600080600080600080866127108162ffffff161015610bae57600560008962ffffff1662ffffff168152602001908152602001600020915060008260000160009054906101000a900473ffffffffffffffffffffffffffffffffffffffff1673ffffffffffffffffffffffffffffffffffffffff161415610b5c578160000160009054906101000a900473ffffffffffffffffffffffffffffffffffffffff16600954600c5484600d015485600c0160149054906101000a900460ff1696509650965096509650610bad565b8160000160009054906101000a900473ffffffffffffffffffffffffffffffffffffffff16600083600b015484600d015485600c0160149054906101000a900460ff16839350965096509650965096505b5b505091939590929450565b600081600260003373ffffffffffffffffffffffffffffffffffffffff1673ffffffffffffffffffffffffffffffffffffffff16815260200190815260200160002060008573ffffffffffffffffffffffffffffffffffffffff1673ffffffffffffffffffffffffffffffffffffffff168152602001908152602001600020819055508273ffffffffffffffffffffffffffffffffffffffff163373ffffffffffffffffffffffffffffffffffffffff167f8c5be1e5ebec7d5bd14f71427d1e84f3dd0314c0f7b2291e5b200ac8c7c3b925846040518082815260200191505060405180910390a36001905092915050565b6000806000856127108162ffffff161015610f2557600560008862ffffff1662ffffff168152602001908152602001600020925060008660ff1610158015610cf7575060098660ff1611155b1515610d0257600080fd5b60008360000160009054906101000a900473ffffffffffffffffffffffffffffffffffffffff1673ffffffffffffffffffffffffffffffffffffffff161415610d4c576002610d4f565b60015b60ff16915082600c0160149054906101000a900460ff1615610dce578260000160009054906101000a900473ffffffffffffffffffffffffffffffffffffffff1673ffffffffffffffffffffffffffffffffffffffff163373ffffffffffffffffffffffffffffffffffffffff16141515610dc957600080fd5b600091505b81600160003373ffffffffffffffffffffffffffffffffffffffff1673ffffffffffffffffffffffffffffffffffffffff1681526020019081526020016000205410151515610e1c57600080fd5b81600160003373ffffffffffffffffffffffffffffffffffffffff1673ffffffffffffffffffffffffffffffffffffffff168152602001908152602001600020600082825403925050819055508462ffffff16836001018760ff16600a81101515610e8357fe5b01819055503383600c0160006101000a81548173ffffffffffffffffffffffffffffffffffffffff021916908373ffffffffffffffffffffffffffffffffffffffff1602179055508662ffffff167f1552c53109a4b1a1c4938ae91d342a910cb3f903cd2262bcaea67365553a8e478787604051808360ff1660ff1681526020018262ffffff1662ffffff1681526020019250505060405180910390a2600193505b5050509392505050565b600080836127108162ffffff16101561104257600560008662ffffff1662ffffff16815260200190815260200160002091506000846fffffffffffffffffffffffffffffffff1614151515610f8357600080fd5b8160000160009054906101000a900473ffffffffffffffffffffffffffffffffffffffff1673ffffffffffffffffffffffffffffffffffffffff163373ffffffffffffffffffffffffffffffffffffffff16141515610fe157600080fd5b836fffffffffffffffffffffffffffffffff1682600b01819055508462ffffff167f06ebe22c29c68b4166927bf53da5a19075c3eb97bba0f0113c22c97576b6ba2683600b01546040518082815260200191505060405180910390a2600192505b505092915050565b61105261316e565b816127108162ffffff1610156110c157600560008462ffffff1662ffffff168152602001908152602001600020600101600a806020026040519081016040528092919082600a80156110b9576020028201915b8154815260200190600101908083116110a5575b505050505091505b50919050565b6110cf613197565b600760008373ffffffffffffffffffffffffffffffffffffffff1673ffffffffffffffffffffffffffffffffffffffff168152602001908152602001600020600280602002604051908101604052809291908260028015611149576020028201915b81546000191681526020019060010190808311611131575b50505050509050919050565b60005481565b80600760003373ffffffffffffffffffffffffffffffffffffffff1673ffffffffffffffffffffffffffffffffffffffff1681526020019081526020016000209060026111a99291906131c1565b503373ffffffffffffffffffffffffffffffffffffffff167ff6fae1282aa1dee75d2bf0c4aa362eb3949ebf974dfddcd6351e3dd61e389f29826040518082600260200280838360005b8381101561120e5780820151818401526020810190506111f3565b5050505090500191505060405180910390a250565b600081600160008673ffffffffffffffffffffffffffffffffffffffff1673ffffffffffffffffffffffffffffffffffffffff16815260200190815260200160002054101580156112f0575081600260008673ffffffffffffffffffffffffffffffffffffffff1673ffffffffffffffffffffffffffffffffffffffff16815260200190815260200160002060003373ffffffffffffffffffffffffffffffffffffffff1673ffffffffffffffffffffffffffffffffffffffff1681526020019081526020016000205410155b80156112fc5750600082115b156114935781600160008573ffffffffffffffffffffffffffffffffffffffff1673ffffffffffffffffffffffffffffffffffffffff1681526020019081526020016000206000828254019250508190555081600160008673ffffffffffffffffffffffffffffffffffffffff1673ffffffffffffffffffffffffffffffffffffffff1681526020019081526020016000206000828254039250508190555081600260008673ffffffffffffffffffffffffffffffffffffffff1673ffffffffffffffffffffffffffffffffffffffff16815260200190815260200160002060003373ffffffffffffffffffffffffffffffffffffffff1673ffffffffffffffffffffffffffffffffffffffff168152602001908152602001600020600082825403925050819055508273ffffffffffffffffffffffffffffffffffffffff168473ffffffffffffffffffffffffffffffffffffffff167fddf252ad1be2c89b69c2b068fc378daa952ba7f163c4a11628f55a4df523b3ef846040518082815260200191505060405180910390a360019050611498565b600090505b9392505050565b80600660003373ffffffffffffffffffffffffffffffffffffffff1673ffffffffffffffffffffffffffffffffffffffff1681526020019081526020016000209060026114ed9291906131c1565b503373ffffffffffffffffffffffffffffffffffffffff167f010724f92c296bc87af12d2281baa10d1317850008bd8ee16a0c27313e9cd7b2826040518082600260200280838360005b83811015611552578082015181840152602081019050611537565b5050505090500191505060405180910390a250565b3373ffffffffffffffffffffffffffffffffffffffff16600360009054906101000a900473ffffffffffffffffffffffffffffffffffffffff1673ffffffffffffffffffffffffffffffffffffffff161415156115c357600080fd5b6004548111151561163157600360009054906101000a900473ffffffffffffffffffffffffffffffffffffffff1673ffffffffffffffffffffffffffffffffffffffff166108fc829081150290604051600060405180830381858888f19350505050151561163057600080fd5b5b50565b6003600860003373ffffffffffffffffffffffffffffffffffffffff1673ffffffffffffffffffffffffffffffffffffffff16815260200190815260200160002060009054906101000a900463ffffffff1663ffffffff1614151561169857600080fd5b60048163ffffffff161015156116ad57600080fd5b60008273ffffffffffffffffffffffffffffffffffffffff16141515156116d357600080fd5b80600860008473ffffffffffffffffffffffffffffffffffffffff1673ffffffffffffffffffffffffffffffffffffffff16815260200190815260200160002060006101000a81548163ffffffff021916908363ffffffff1602179055505050565b600080600080856127108162ffffff161015611b2757600560008862ffffff1662ffffff168152602001908152602001600020935060008460000160009054906101000a900473ffffffffffffffffffffffffffffffffffffffff1673ffffffffffffffffffffffffffffffffffffffff16141561185557600c5484600b0181905550600360009054906101000a900473ffffffffffffffffffffffffffffffffffffffff168460000160006101000a81548173ffffffffffffffffffffffffffffffffffffffff021916908373ffffffffffffffffffffffffffffffffffffffff1602179055506064600e54600c540281151561182f57fe5b049250600d54831061184357600d54611845565b825b600c600082825401925050819055505b8584600b01541115151561186857600080fd5b83600b0154600160003373ffffffffffffffffffffffffffffffffffffffff1673ffffffffffffffffffffffffffffffffffffffff16815260200190815260200160002054101515156118ba57600080fd5b600091506064600f5485600b0154028115156118d257fe5b04915081600160003373ffffffffffffffffffffffffffffffffffffffff1673ffffffffffffffffffffffffffffffffffffffff1681526020019081526020016000206000828254039250508190555081600160008660000160009054906101000a900473ffffffffffffffffffffffffffffffffffffffff1673ffffffffffffffffffffffffffffffffffffffff1673ffffffffffffffffffffffffffffffffffffffff1681526020019081526020016000206000828254019250508190555081860360016000600360009054906101000a900473ffffffffffffffffffffffffffffffffffffffff1673ffffffffffffffffffffffffffffffffffffffff1673ffffffffffffffffffffffffffffffffffffffff168152602001908152602001600020600082825401925050819055508662ffffff167f0abb7627f5a43ce55d691cf577de9c09e8fee6f2dd1f45678a55ce86fadfd6f28560000160009054906101000a900473ffffffffffffffffffffffffffffffffffffffff16600087600b015442604051808573ffffffffffffffffffffffffffffffffffffffff1673ffffffffffffffffffffffffffffffffffffffff16815260200184815260200183815260200182815260200194505050505060405180910390a2600084600b0181905550338460000160006101000a81548173ffffffffffffffffffffffffffffffffffffffff021916908373ffffffffffffffffffffffffffffffffffffffff160217905550600084600c0160146101000a81548160ff021916908315150217905550600084600f0181905550600194505b5050505092915050565b600080826127108162ffffff161015611c0257600560008562ffffff1662ffffff16815260200190815260200160002091508160000160009054906101000a900473ffffffffffffffffffffffffffffffffffffffff1673ffffffffffffffffffffffffffffffffffffffff163373ffffffffffffffffffffffffffffffffffffffff16141515611bc157600080fd5b600082600b01819055508362ffffff167fca2e47a4a4a73b5954da66cff11902dbc0e8a6d4ee892921cc381af6aabc415260405160405180910390a2600192505b5050919050565b6000806000600560008562ffffff1662ffffff168152602001908152602001600020915081600c0160149054906101000a900460ff16158015611c515750600082600d015414155b15611c7757600582600d01544203811515611c6857fe5b04905060105481029250611c7c565b600092505b5050919050565b6000806000806000866127108162ffffff16101561202c57600560008962ffffff1662ffffff168152602001908152602001600020945060008560000160009054906101000a900473ffffffffffffffffffffffffffffffffffffffff1673ffffffffffffffffffffffffffffffffffffffff16141515611d0357600080fd5b600c548711151515611d1457600080fd5b86600160003373ffffffffffffffffffffffffffffffffffffffff1673ffffffffffffffffffffffffffffffffffffffff1681526020019081526020016000205410151515611d6257600080fd5b60008714151515611d7257600080fd5b86600c5403935083600c54600954811515611d8957fe5b04029250823410151515611d9c57600080fd5b8660016000600360009054906101000a900473ffffffffffffffffffffffffffffffffffffffff1673ffffffffffffffffffffffffffffffffffffffff1673ffffffffffffffffffffffffffffffffffffffff1681526020019081526020016000206000828254019250508190555086600160003373ffffffffffffffffffffffffffffffffffffffff1673ffffffffffffffffffffffffffffffffffffffff168152602001908152602001600020600082825403925050819055506064600e54600c5402811515611e6a57fe5b049150600c5487600d548410611e8257600d54611e84565b835b02811515611e8e57fe5b04600c60008282540192505081905550346004600082825401925050819055506064600b5460095402811515611ec057fe5b0491508684600a548410611ed657600a54611ed8565b835b02811515611ee257fe5b04600960008282540192505081905550338560000160006101000a81548173ffffffffffffffffffffffffffffffffffffffff021916908373ffffffffffffffffffffffffffffffffffffffff1602179055508762ffffff167f0abb7627f5a43ce55d691cf577de9c09e8fee6f2dd1f45678a55ce86fadfd6f28660000160009054906101000a900473ffffffffffffffffffffffffffffffffffffffff16348a42604051808573ffffffffffffffffffffffffffffffffffffffff1673ffffffffffffffffffffffffffffffffffffffff16815260200184815260200183815260200182815260200194505050505060405180910390a2338560000160006101000a81548173ffffffffffffffffffffffffffffffffffffffff021916908373ffffffffffffffffffffffffffffffffffffffff160217905550600085600f0181905550600195505b505050505092915050565b6000600160008373ffffffffffffffffffffffffffffffffffffffff1673ffffffffffffffffffffffffffffffffffffffff168152602001908152602001600020549050919050565b600080836127108162ffffff1610156121ec57600560008662ffffff1662ffffff16815260200190815260200160002092506003841015156120c157600080fd5b600860003373ffffffffffffffffffffffffffffffffffffffff1673ffffffffffffffffffffffffffffffffffffffff16815260200190815260200160002060009054906101000a900463ffffffff1663ffffffff1691506001821015151561212957600080fd5b60028414156121e2576002821015151561214257600080fd5b82600c0160149054906101000a900460ff16151561215f57600080fd5b61014060405190810160405280600060ff168152602001600060ff168152602001600060ff168152602001600060ff168152602001600060ff168152602001600060ff168152602001600060ff168152602001600060ff168152602001600060ff168152602001600060ff168152508360010190600a6121e0929190613207565b505b8383600f01819055505b5050505050565b600080836127108162ffffff16101561237357600560008662ffffff1662ffffff16815260200190815260200160002091503373ffffffffffffffffffffffffffffffffffffffff168260000160009054906101000a900473ffffffffffffffffffffffffffffffffffffffff1673ffffffffffffffffffffffffffffffffffffffff1614151561228357600080fd5b60008473ffffffffffffffffffffffffffffffffffffffff16141515156122a957600080fd5b838260000160006101000a81548173ffffffffffffffffffffffffffffffffffffffff021916908373ffffffffffffffffffffffffffffffffffffffff1602179055508462ffffff167f0abb7627f5a43ce55d691cf577de9c09e8fee6f2dd1f45678a55ce86fadfd6f28560008042604051808573ffffffffffffffffffffffffffffffffffffffff1673ffffffffffffffffffffffffffffffffffffffff16815260200184815260200183815260200182815260200194505050505060405180910390a2600192505b505092915050565b3373ffffffffffffffffffffffffffffffffffffffff16600360009054906101000a900473ffffffffffffffffffffffffffffffffffffffff1673ffffffffffffffffffffffffffffffffffffffff161415156123d757600080fd5b600360009054906101000a900473ffffffffffffffffffffffffffffffffffffffff1673ffffffffffffffffffffffffffffffffffffffff166108fc6004549081150290604051600060405180830381858888f19350505050151561243b57600080fd5b565b612445613197565b600660008373ffffffffffffffffffffffffffffffffffffffff1673ffffffffffffffffffffffffffffffffffffffff1681526020019081526020016000206002806020026040519081016040528092919082600280156124bf576020028201915b815460001916815260200190600101908083116124a7575b50505050509050919050565b6000836127108162ffffff1610156126e457600560008662ffffff1662ffffff16815260200190815260200160002091508160000160009054906101000a900473ffffffffffffffffffffffffffffffffffffffff1673ffffffffffffffffffffffffffffffffffffffff163373ffffffffffffffffffffffffffffffffffffffff1614151561255a57600080fd5b83156126355760008363ffffffff1611151561257557600080fd5b8263ffffffff16600160003373ffffffffffffffffffffffffffffffffffffffff1673ffffffffffffffffffffffffffffffffffffffff16815260200190815260200160002054101515156125c957600080fd5b8263ffffffff16600160003373ffffffffffffffffffffffffffffffffffffffff1673ffffffffffffffffffffffffffffffffffffffff168152602001908152602001600020600082825403925050819055508260010263ffffffff16420182600e0181905550612640565b600082600e01819055505b8382600c0160146101000a81548160ff02191690831515021790555083156126b0578462ffffff167f52e8f4b5a1626f05acec334b28b3a6e1229af95f0fdf6929ead61c976399121384604051808263ffffffff1663ffffffff16815260200191505060405180910390a26126e3565b8462ffffff167f7b2ca9b1b8f3e9de64d205763935a164d5090f5e6346199c24b0612e0930a12a60405160405180910390a25b5b5050505050565b600081600160003373ffffffffffffffffffffffffffffffffffffffff1673ffffffffffffffffffffffffffffffffffffffff168152602001908152602001600020541015801561273c5750600082115b156128495781600160003373ffffffffffffffffffffffffffffffffffffffff1673ffffffffffffffffffffffffffffffffffffffff1681526020019081526020016000206000828254039250508190555081600160008573ffffffffffffffffffffffffffffffffffffffff1673ffffffffffffffffffffffffffffffffffffffff168152602001908152602001600020600082825401925050819055508273ffffffffffffffffffffffffffffffffffffffff163373ffffffffffffffffffffffffffffffffffffffff167fddf252ad1be2c89b69c2b068fc378daa952ba7f163c4a11628f55a4df523b3ef846040518082815260200191505060405180910390a36001905061284e565b600090505b92915050565b600080600954600c54915091509091565b3373ffffffffffffffffffffffffffffffffffffffff16600360009054906101000a900473ffffffffffffffffffffffffffffffffffffffff1673ffffffffffffffffffffffffffffffffffffffff161415156128c157600080fd5b80600160008473ffffffffffffffffffffffffffffffffffffffff1673ffffffffffffffffffffffffffffffffffffffff168152602001908152602001600020600082825401925050819055505050565b6000806000836127108162ffffff1610156129a857600560008662ffffff1662ffffff168152602001908152602001600020915060008260000160009054906101000a900473ffffffffffffffffffffffffffffffffffffffff1673ffffffffffffffffffffffffffffffffffffffff16141561299857600954600c54935093506129a7565b600082600b0154819150935093505b5b5050915091565b3373ffffffffffffffffffffffffffffffffffffffff16600360009054906101000a900473ffffffffffffffffffffffffffffffffffffffff1673ffffffffffffffffffffffffffffffffffffffff16141515612a0b57600080fd5b80600360006101000a81548173ffffffffffffffffffffffffffffffffffffffff021916908373ffffffffffffffffffffffffffffffffffffffff16021790555050565b6000806000806000806000886127108162ffffff161015612f0557600560008b62ffffff1662ffffff168152602001908152602001600020965060008760000160009054906101000a900473ffffffffffffffffffffffffffffffffffffffff1673ffffffffffffffffffffffffffffffffffffffff161415612ad3576002612ad6565b60015b60ff16955086600c0160149054906101000a900460ff1615612ba657600287600f015414151515612b0657600080fd5b4287600e01541115612b79578660000160009054906101000a900473ffffffffffffffffffffffffffffffffffffffff1673ffffffffffffffffffffffffffffffffffffffff163373ffffffffffffffffffffffffffffffffffffffff16141515612b7057600080fd5b60009550612ba1565b600087600c0160146101000a81548160ff021916908315150217905550600087600e01819055505b612bb7565b60115442111515612bb657600095505b5b85600160003373ffffffffffffffffffffffffffffffffffffffff1673ffffffffffffffffffffffffffffffffffffffff1681526020019081526020016000205410151515612c0557600080fd5b612c0e8a611c09565b94506000851115612daf578660000160009054906101000a900473ffffffffffffffffffffffffffffffffffffffff16935086600c0160009054906101000a900473ffffffffffffffffffffffffffffffffffffffff16925060008473ffffffffffffffffffffffffffffffffffffffff161415612cab5760008373ffffffffffffffffffffffffffffffffffffffff16141515612caa578293505b5b60008473ffffffffffffffffffffffffffffffffffffffff16141515612d2557600285811515612cd757fe5b04600160008673ffffffffffffffffffffffffffffffffffffffff1673ffffffffffffffffffffffffffffffffffffffff168152602001908152602001600020600082825401925050819055505b60008373ffffffffffffffffffffffffffffffffffffffff16141515612d9f57600285811515612d5157fe5b04600160008573ffffffffffffffffffffffffffffffffffffffff1673ffffffffffffffffffffffffffffffffffffffff168152602001908152602001600020600082825401925050819055505b8460008082825401925050819055505b85600160003373ffffffffffffffffffffffffffffffffffffffff1673ffffffffffffffffffffffffffffffffffffffff16815260200190815260200160002060008282540392505081905550888760010190600a612e0f92919061324c565b503387600c0160006101000a81548173ffffffffffffffffffffffffffffffffffffffff021916908373ffffffffffffffffffffffffffffffffffffffff1602179055504287600d01819055504291508962ffffff167fce9b20e38ccb718fd7b9a5fb1eacd0060f320d3e74a7e2ce393a26eb9a0f26368a84866040518084600a60200280838360005b83811015612eb4578082015181840152602081019050612e99565b505050509050018381526020018273ffffffffffffffffffffffffffffffffffffffff1673ffffffffffffffffffffffffffffffffffffffff168152602001935050505060405180910390a2600197505b5050505050505092915050565b6000600260008473ffffffffffffffffffffffffffffffffffffffff1673ffffffffffffffffffffffffffffffffffffffff16815260200190815260200160002060008373ffffffffffffffffffffffffffffffffffffffff1673ffffffffffffffffffffffffffffffffffffffff16815260200190815260200160002054905092915050565b6000806000836127108162ffffff16101561316657600560008662ffffff1662ffffff168152602001908152602001600020925060008360000160009054906101000a900473ffffffffffffffffffffffffffffffffffffffff1673ffffffffffffffffffffffffffffffffffffffff1614151561301657600080fd5b600954341015151561302757600080fd5b346004600082825401925050819055506064600b546009540281151561304957fe5b049150600a54821061305d57600a5461305f565b815b600960008282540192505081905550338360000160006101000a81548173ffffffffffffffffffffffffffffffffffffffff021916908373ffffffffffffffffffffffffffffffffffffffff1602179055508462ffffff167f0abb7627f5a43ce55d691cf577de9c09e8fee6f2dd1f45678a55ce86fadfd6f28460000160009054906101000a900473ffffffffffffffffffffffffffffffffffffffff1634600042604051808573ffffffffffffffffffffffffffffffffffffffff1673ffffffffffffffffffffffffffffffffffffffff16815260200184815260200183815260200182815260200194505050505060405180910390a2600083600f0181905550600193505b505050919050565b61014060405190810160405280600a905b600081526020019060019003908161317f5790505090565b60408051908101604052806002905b60008019168152602001906001900390816131a65790505090565b82600281019282156131f6579160200282015b828111156131f55782518290600019169055916020019190600101906131d4565b5b509050613203919061328c565b5090565b82600a810192821561323b579160200282015b8281111561323a578251829060ff1690559160200191906001019061321a565b5b50905061324891906132b1565b5090565b82600a810192821561327b579160200282015b8281111561327a57825182559160200191906001019061325f565b5b50905061328891906132b1565b5090565b6132ae91905b808211156132aa576000816000905550600101613292565b5090565b90565b6132d391905b808211156132cf5760008160009055506001016132b7565b5090565b905600a165627a7a72305820a0d61c437259044d52e02b268f88991c8aa0f50ba81739d9b9d774ccacaa4fb60029",
    "source": "pragma solidity ^0.4.2;\n\ncontract Token {\n    uint256 public totalSupply;\n    function balanceOf(address _owner) public constant returns (uint256 balance);\n    function transfer(address _to, uint256 _value) public returns (bool success);\n    function transferFrom(address _from, address _to, uint256 _value) public returns (bool success);\n    function approve(address _spender, uint256 _value) public returns (bool success);\n    function allowance(address _owner, address _spender) public constant returns (uint256 remaining);\n    event Transfer(address indexed _from, address indexed _to, uint256 _value);\n    event Approval(address indexed _owner, address indexed _spender, uint256 _value);\n}\n/*  ERC 20 token */\ncontract StandardToken is Token {\n\n    function transfer(address _to, uint256 _value) public returns (bool success) {\n      if (balances[msg.sender] >= _value && _value > 0) {\n        balances[msg.sender] -= _value;\n        balances[_to] += _value;\n        Transfer(msg.sender, _to, _value);\n        return true;\n      } else {\n        return false;\n      }\n    }\n\n    function transferFrom(address _from, address _to, uint256 _value) public returns (bool success) {\n      if (balances[_from] >= _value && allowed[_from][msg.sender] >= _value && _value > 0) {\n        balances[_to] += _value;\n        balances[_from] -= _value;\n        allowed[_from][msg.sender] -= _value;\n        Transfer(_from, _to, _value);\n        return true;\n      } else {\n        return false;\n      }\n    }\n\n    function balanceOf(address _owner) public constant returns (uint256 balance) {\n        return balances[_owner];\n    }\n\n    function approve(address _spender, uint256 _value) public returns (bool success) {\n        allowed[msg.sender][_spender] = _value;\n        Approval(msg.sender, _spender, _value);\n        return true;\n    }\n\n    function allowance(address _owner, address _spender) public constant returns (uint256 remaining) {\n      return allowed[_owner][_spender];\n    }\n\n    mapping (address => uint256) balances;\n    mapping (address => mapping (address => uint256)) allowed;\n}\n\ncontract VirtualRealEstate is StandardToken {\n    address owner;\n    uint256 ownerEth = 0;\n    \n    //Mapping of propertyID to property\n    mapping (uint24 => Property) map;\n    //propertyOwner to link\n    mapping (address => bytes32[2]) ownerLink;\n    //propertyRenter to link\n    mapping (address => bytes32[2]) ownerHoverText;\n    mapping (address => uint32) moderators; // 0 = Not, 1 = nsfw-power, 2 = ban-power, 3 = set-moderator-level-power\n    \n    uint256 priceETH;\n    uint256 PRICE_ETH_MIN_INCREASE = 1000;//10000000000000000000000; //0.0001 ETH\n    uint256 PRICE_ETH_MIN_PERCENT = 20; //0.0001 ETH\n    uint256 pricePPC;\n    uint256 PRICE_PPC_MIN_INCREASE = 10;\n    uint256 PRICE_PPC_MIN_PERCENT = 20;\n    \n    uint256 USER_BUY_CUT_PERCENT = 98; //%\n    \n    uint256 PROPERTY_GENERATES_PER_HOUR = 2;\n    uint256 FREE_COLOR_SETTING_UNTIL;\n    \n    event PropertyColorUpdate(uint24 indexed property, uint256[10] colors, uint256 lastUpdate, address lastUpdaterPayee);\n    event PropertyColorUpdatePixel(uint24 indexed property, uint8 row, uint24 rgb);\n    event PropertyBought(uint24 indexed property,  address newOwner, uint256 ethAmount, uint256 ppcAmount, uint256 timestamp); //Added ethAmount, ppcAmount and timestamp\n    event SetUserHoverText(address indexed user, bytes32[2] newHoverText);\n    event SetUserSetLink(address indexed user, bytes32[2] newLink);\n    event PropertySetForSale(uint24 indexed property, uint256 forSalePrice);\n    event DelistProperty(uint24 indexed property);\n    event SetPropertyPublic(uint24 indexed property);\n    event SetPropertyPrivate(uint24 indexed property, uint32 numHoursPrivate);\n    \n    struct TradeOffer {\n        uint256 ethPer;\n        uint256 ppcAmount;\n        bool buyingPPC;\n    }\n    \n    struct Property {\n        address owner;\n        uint256[10] colors; //10x10 rgb pixel colors per property\n        uint256 salePrice;\n        address lastUpdater;\n        bool isInPrivateMode;\n        uint256 lastUpdate;\n        uint256 becomePublic;\n        uint256 flag; //0 == none, 1 == nsfw, 2 == ban\n    }\n    \n    modifier ownerOnly() {\n        require(owner == msg.sender);\n        _;\n    }\n    \n    modifier validPropertyID(uint24 propertyID) {\n        if (propertyID < 10000) {\n            _;\n        }\n    }\n    \n    function VirtualRealEstate() public {\n        owner = msg.sender;\n        totalSupply = 0;\n        FREE_COLOR_SETTING_UNTIL = now;// + 1 days;\n        pricePPC = 10;\n        priceETH = 10000;//1000000000000000000; //0.001 ETH\n        moderators[msg.sender] = 3;\n    }\n    function setFlag(uint24 propertyID, uint256 flag) public validPropertyID(propertyID)  {\n        Property storage property = map[propertyID];\n\n        require(flag < 3);\n\n        uint256 moderationLevel = moderators[msg.sender];\n        require(moderationLevel >= 1); //Must be moderator or higher\n    \n        if (flag == 2) { //If ban, must be higher than nsfw\n            require(moderationLevel >= 2);\n            require(property.isInPrivateMode); //Can't ban an owner's property if a public user did it\n            property.colors = [0, 0, 0, 0, 0, 0, 0, 0, 0, 0];\n        }\n\n        property.flag = flag;\n    }\n    function setHoverText(bytes32[2] text) public {\n        ownerHoverText[msg.sender] = text;\n        SetUserHoverText(msg.sender, text);\n    }\n    function setLink(bytes32[2] link) public {\n        ownerLink[msg.sender] = link;\n        SetUserSetLink(msg.sender, link);\n    }\n    function getSystemSalePrices() public view returns(uint256, uint256) {\n        return (priceETH, pricePPC);\n    }\n    function getForSalePrices(uint24 propertyID) public validPropertyID(propertyID) view returns(uint256, uint256) {\n        Property storage property = map[propertyID];\n        if (property.owner == 0) {\n            return (priceETH, pricePPC);\n        } else {\n            return (0, property.salePrice);\n        }\n    }\n    function getHoverText(address user) public view returns(bytes32[2]) {\n        return ownerHoverText[user];\n    }\n    function getLink(address user) public view returns(bytes32[2]) {\n        return ownerLink[user];\n    }\n    \n    function getPropertyColors(uint24 propertyID) public validPropertyID(propertyID) view returns(uint256[10]) {\n        return map[propertyID].colors;\n    }\n    \n    function getPropertyData(uint24 propertyID) public validPropertyID(propertyID) view returns(address, uint256, uint256, uint256, bool) {\n        Property storage property = map[propertyID];\n        if (property.owner == 0) {\n            return (property.owner, priceETH, pricePPC, property.lastUpdate, property.isInPrivateMode);\n        } else {\n            return (property.owner, 0, property.salePrice, property.lastUpdate, property.isInPrivateMode);\n        }\n    }\n    function getProjectedPayout(uint24 propertyID) public view returns(uint256) {\n        Property storage property = map[propertyID];\n        if (!property.isInPrivateMode && property.lastUpdate != 0) {\n            uint256 hoursSinceLastColorChange = (now - property.lastUpdate) / (5 seconds); //ERRORs on property.lastUpdate = 0\n            return hoursSinceLastColorChange * PROPERTY_GENERATES_PER_HOUR;\n        }\n        return 0;\n    }\n    //Change a 10x10 == 70 | 30 | 0 cost\n    function setColors(uint24 propertyID, uint256[10] newColors) public validPropertyID(propertyID) returns(bool) {\n        Property storage property = map[propertyID];\n        \n        //Cost 2 if no owner, 1 if owned\n        uint256 cost = property.owner != 0 ? 1 : 2;\n        \n        //If it's in private mode, we must be the owner, but it's free\n        if (property.isInPrivateMode) {\n            require(property.flag != 2); //Banned properties can't be set in private mode, only public\n\n            //If it's still privately owned\n            if (property.becomePublic > now) {\n                require(msg.sender == property.owner);\n                cost = 0;\n            }\n            //No long erin private mode, ran out\n            else {\n                property.isInPrivateMode = false;\n                property.becomePublic = 0;\n            }\n        } \n        //If we're in the first few days, setting the color is free\n        else if (now <= FREE_COLOR_SETTING_UNTIL) {\n            cost = 0;\n        }\n        \n        require(balances[msg.sender] >= cost);\n        \n        //If we're in Public Mode, payouts occur\n        \n        uint256 payout = getProjectedPayout(propertyID);\n        if (payout > 0) {\n            address propertyOwnerPayee = property.owner;\n            address lastUpdaterPayee = property.lastUpdater;\n            if (propertyOwnerPayee == 0) {\n                if (lastUpdaterPayee != 0) {\n                    propertyOwnerPayee = lastUpdaterPayee;\n                }\n            }\n            //Payout half to ownerPayee and half to updaterPayee\n            if (propertyOwnerPayee != 0) {\n                balances[propertyOwnerPayee] += payout / 2;\n            }\n            if (lastUpdaterPayee != 0) {\n                balances[lastUpdaterPayee] += payout / 2;\n            }\n            totalSupply += payout;\n        }\n        \n        //Burn the coins from the sender\n        balances[msg.sender] -= cost; //Burn the coin to set the color\n        \n        property.colors = newColors;\n        property.lastUpdater = msg.sender;\n        property.lastUpdate = now;\n        uint256 timeUpdate = now;\n        \n        PropertyColorUpdate(propertyID, newColors, timeUpdate, lastUpdaterPayee);\n        \n        return true;\n    }\n    function setPropertyMode(uint24 propertyID, bool isInPrivateMode, uint32 numHoursPrivate) public validPropertyID(propertyID) {\n        Property storage property = map[propertyID];\n        require(msg.sender == property.owner);\n        if (isInPrivateMode) {\n            require(numHoursPrivate > 0);\n            require(balances[msg.sender] >= numHoursPrivate);\n            balances[msg.sender] -= numHoursPrivate;\n            property.becomePublic = now + (1 seconds) * numHoursPrivate; //TODO: seconds to hours\n        } else {\n            property.becomePublic = 0;\n        }\n        property.isInPrivateMode = isInPrivateMode;\n        \n        if (isInPrivateMode) {\n            SetPropertyPrivate(propertyID, numHoursPrivate);\n        } else {\n            SetPropertyPublic(propertyID);\n        }\n    }\n    //Change pixel or 10x1 costs 7 | 3 | 0\n    function setRowColors(uint24 propertyID, uint8 row, uint24 newColorData) public validPropertyID(propertyID) returns(bool) {\n        Property storage property = map[propertyID];\n        \n        require(row >= 0 && row <= 9);\n        \n        uint256 cost = property.owner != 0 ? 1 : 2;\n        \n        if (property.isInPrivateMode) {\n                require(msg.sender == property.owner);\n                cost = 0;\n        } \n        \n        require(balances[msg.sender] >= cost);\n        \n        balances[msg.sender] -= cost; //Burn the coin to set the color\n        \n        property.colors[row] = newColorData;\n        property.lastUpdater = msg.sender;\n\n        PropertyColorUpdatePixel(propertyID, row, newColorData);\n        \n        return true;\n    }\n    \n    function transferProperty(uint24 propertyID, address newOwner) public validPropertyID(propertyID) returns(bool) {\n        Property storage property = map[propertyID];\n        \n        require(property.owner == msg.sender);\n        require(newOwner != 0);\n        \n        property.owner = newOwner;\n\n        PropertyBought(propertyID, newOwner, 0, 0, now);\n        \n        return true;\n    }\n    function buyProperty(uint24 propertyID, uint256 ppcValue) public validPropertyID(propertyID) payable returns(bool) {\n        Property storage property = map[propertyID];\n        \n        //Must be the first purchase, otherwise do it with ppc\n        require(property.owner == 0);\n        //Required to avoid underflowing (pricePPC - ppcValue)\n        require(ppcValue <= pricePPC);\n        require(balances[msg.sender] >= ppcValue);\n        require(ppcValue != 0);\n        \n        uint256 ppcLeft = pricePPC - ppcValue;\n        uint256 ethLeft = priceETH / pricePPC * ppcLeft;\n        \n        require(msg.value >= ethLeft);\n    \n        balances[owner] += ppcValue;\n        balances[msg.sender] -= ppcValue;\n\n        uint256 minPercent = pricePPC * PRICE_PPC_MIN_PERCENT / 100;\n        pricePPC += ((minPercent < PRICE_PPC_MIN_INCREASE) ? minPercent : PRICE_PPC_MIN_INCREASE) * ppcValue / pricePPC;\n\n        ownerEth += msg.value;\n        minPercent = priceETH * PRICE_ETH_MIN_PERCENT / 100;\n        priceETH += ((minPercent < PRICE_ETH_MIN_INCREASE) ? minPercent : PRICE_ETH_MIN_INCREASE) * ppcLeft / ppcValue;\n        \n        property.owner = msg.sender;\n        \n        PropertyBought(propertyID, property.owner, msg.value, ppcValue, now);\n\n        property.owner = msg.sender;\n        property.flag = 0;\n        \n        return true;\n    }\n    function buyPropertyInPPC(uint24 propertyID, uint256 ppcValue) public validPropertyID(propertyID) returns(bool) {\n        Property storage property = map[propertyID];\n        \n        //If they have no owner, do the PPC price and update it\n        if (property.owner == 0) {\n            property.salePrice = pricePPC;\n            property.owner = owner;\n            uint256 minPercent = pricePPC * PRICE_PPC_MIN_PERCENT / 100;\n            pricePPC += (minPercent < PRICE_PPC_MIN_INCREASE) ? minPercent : PRICE_PPC_MIN_INCREASE;\n        }\n        \n        require(property.salePrice <= ppcValue);\n        require(balances[msg.sender] >= property.salePrice);\n        \n        uint256 amountTransfered = 0;\n        amountTransfered = property.salePrice * USER_BUY_CUT_PERCENT / 100;\n        \n        balances[msg.sender] -= amountTransfered;\n        balances[property.owner] += amountTransfered;\n        balances[owner] += ppcValue - amountTransfered;\n        \n        PropertyBought(propertyID, property.owner, 0, property.salePrice, now);\n\n        property.salePrice = 0;\n        property.owner = msg.sender;\n        property.isInPrivateMode = false;\n        property.flag = 0;\n        \n        return true;\n    }\n    //Use Case: Buyer wants to buy a property.\n    function buyPropertyInETH(uint24 propertyID) public validPropertyID(propertyID) payable returns(bool) {\n        Property storage property = map[propertyID];\n        \n        require(property.owner == 0);\n        require(msg.value >= priceETH);\n        \n        ownerEth += msg.value;\n    \n        uint256 minPercent = priceETH * PRICE_ETH_MIN_PERCENT / 100;\n        priceETH += (minPercent < PRICE_ETH_MIN_INCREASE) ? minPercent : PRICE_ETH_MIN_INCREASE;\n        \n        property.owner = msg.sender;\n        \n        PropertyBought(propertyID, property.owner, msg.value, 0, now);\n        property.flag = 0;\n        \n        return true;\n    }\n    \n    //Use Case: Owner of a property lists for sale at a given price\n    function listForSale(uint24 propertyID, uint128 price ) public validPropertyID(propertyID) returns(bool) {\n        Property storage property = map[propertyID];\n      \n        require(price != 0);\n      \n        require(msg.sender == property.owner); //Must be the owner\n        //You can listForSale an already listed item to update the listing\n        property.salePrice = price;\n        \n        PropertySetForSale(propertyID, property.salePrice);\n        \n        return true;\n    }\n    \n    //Use Case: Owner of a property delists from sale offer\n    function delist(uint24 propertyID) public validPropertyID(propertyID) returns(bool) {\n        Property storage property = map[propertyID];\n        \n        require(msg.sender == property.owner); //Must be the owner\n\n        property.salePrice = 0;\n        \n        DelistProperty(propertyID);\n        \n        return true;\n    }\n    function setModeratorLevel(address user, uint32 level) public {\n        require(moderators[msg.sender] == 3);\n        require(level < 4);\n        require(user != 0);\n        moderators[user] = level;\n    }\n    \n    //////////////////////////////////////////////////////\n    ////Owner Sections: Meta-Functions For Owner only/////\n    //////////////////////////////////////////////////////\n    function withdraw(uint256 amount) public ownerOnly() {\n        if (amount <= ownerEth) {\n            owner.transfer(amount);\n        }\n    }\n    \n    function withdrawAll() public ownerOnly() {\n        owner.transfer(ownerEth);\n    }\n    \n    function changeOwners(address newOwner) public ownerOnly() {\n        owner = newOwner;\n    }\n    \n    ////////////////////////////////////////////////\n    ///TODO: TESTING ONLY: REMOVE BEFORE RELEASE:///\n    ////////////////////////////////////////////////\n    function addCoin(address user, uint256 amount) public ownerOnly() {\n        balances[user] += amount;\n    }\n    //setPropertyMode ->seconds to hours\n    //setColors -> 5 seconds to 1 hour\n    //FREE_COLOR_SETTING_UNTIL in constructor needs to be changed to have the +1 days\n}",
    "sourcePath": "/Volumes/Lexar/DATA/PixelRealEstate/PixelRealEstate/contracts/VirtualRealEstate.sol",
    "compiler": {
        "name": "solc",
        "version": "0.4.18+commit.9cf6e910.Emscripten.clang"
    },
    "schemaVersion": "1.0.1",
    "updatedAt": "2018-02-10T01:37:03.390Z"
}