{
  "contractName": "VirtualRealEstate",
  "abi": [
    {
      "constant": false,
      "inputs": [
        {
          "name": "_spender",
          "type": "address"
        },
        {
          "name": "_value",
          "type": "uint256"
        }
      ],
      "name": "approve",
      "outputs": [
        {
          "name": "success",
          "type": "bool"
        }
      ],
      "payable": false,
      "stateMutability": "nonpayable",
      "type": "function"
    },
    {
      "constant": true,
      "inputs": [
        {
          "name": "propertyID",
          "type": "uint16"
        }
      ],
      "name": "getPropertyData",
      "outputs": [
        {
          "name": "",
          "type": "address"
        },
        {
          "name": "",
          "type": "uint256"
        },
        {
          "name": "",
          "type": "uint256"
        },
        {
          "name": "",
          "type": "uint256"
        },
        {
          "name": "",
          "type": "bool"
        },
        {
          "name": "",
          "type": "uint256"
        },
        {
          "name": "",
          "type": "uint32"
        }
      ],
      "payable": false,
      "stateMutability": "view",
      "type": "function"
    },
    {
      "constant": false,
      "inputs": [
        {
          "name": "propertyID",
          "type": "uint16"
        }
      ],
      "name": "buyPropertyInETH",
      "outputs": [
        {
          "name": "",
          "type": "bool"
        }
      ],
      "payable": true,
      "stateMutability": "payable",
      "type": "function"
    },
    {
      "constant": false,
      "inputs": [
        {
          "name": "propertyID",
          "type": "uint16"
        },
        {
          "name": "row",
          "type": "uint8"
        },
        {
          "name": "newColorData",
          "type": "uint256"
        },
        {
          "name": "PXLToSpend",
          "type": "uint256"
        }
      ],
      "name": "setRowColors",
      "outputs": [
        {
          "name": "",
          "type": "bool"
        }
      ],
      "payable": false,
      "stateMutability": "nonpayable",
      "type": "function"
    },
    {
      "constant": true,
      "inputs": [
        {
          "name": "user",
          "type": "address"
        }
      ],
      "name": "getHoverText",
      "outputs": [
        {
          "name": "",
          "type": "uint256[2]"
        }
      ],
      "payable": false,
      "stateMutability": "view",
      "type": "function"
    },
    {
      "constant": true,
      "inputs": [],
      "name": "totalSupply",
      "outputs": [
        {
          "name": "",
          "type": "uint256"
        }
      ],
      "payable": false,
      "stateMutability": "view",
      "type": "function"
    },
    {
      "constant": true,
      "inputs": [
        {
          "name": "propertyID",
          "type": "uint16"
        }
      ],
      "name": "getProjectedPayout",
      "outputs": [
        {
          "name": "",
          "type": "uint256"
        }
      ],
      "payable": false,
      "stateMutability": "view",
      "type": "function"
    },
    {
      "constant": false,
      "inputs": [
        {
          "name": "propertyID",
          "type": "uint16"
        },
        {
          "name": "newOwner",
          "type": "address"
        }
      ],
      "name": "transferProperty",
      "outputs": [
        {
          "name": "",
          "type": "bool"
        }
      ],
      "payable": false,
      "stateMutability": "nonpayable",
      "type": "function"
    },
    {
      "constant": false,
      "inputs": [
        {
          "name": "propertyID",
          "type": "uint16"
        }
      ],
      "name": "tryForcePublic",
      "outputs": [],
      "payable": false,
      "stateMutability": "nonpayable",
      "type": "function"
    },
    {
      "constant": false,
      "inputs": [
        {
          "name": "_from",
          "type": "address"
        },
        {
          "name": "_to",
          "type": "address"
        },
        {
          "name": "_value",
          "type": "uint256"
        }
      ],
      "name": "transferFrom",
      "outputs": [
        {
          "name": "success",
          "type": "bool"
        }
      ],
      "payable": false,
      "stateMutability": "nonpayable",
      "type": "function"
    },
    {
      "constant": false,
      "inputs": [
        {
          "name": "amount",
          "type": "uint256"
        }
      ],
      "name": "withdraw",
      "outputs": [],
      "payable": false,
      "stateMutability": "nonpayable",
      "type": "function"
    },
    {
      "constant": false,
      "inputs": [
        {
          "name": "propertyID",
          "type": "uint16"
        },
        {
          "name": "PXLValue",
          "type": "uint256"
        }
      ],
      "name": "buyPropertyInPXL",
      "outputs": [
        {
          "name": "",
          "type": "bool"
        }
      ],
      "payable": false,
      "stateMutability": "nonpayable",
      "type": "function"
    },
    {
      "constant": false,
      "inputs": [
        {
          "name": "user",
          "type": "address"
        },
        {
          "name": "level",
          "type": "uint32"
        }
      ],
      "name": "setModeratorLevel",
      "outputs": [],
      "payable": false,
      "stateMutability": "nonpayable",
      "type": "function"
    },
    {
      "constant": false,
      "inputs": [
        {
          "name": "propertyID",
          "type": "uint16"
        },
        {
          "name": "flag",
          "type": "uint8"
        }
      ],
      "name": "setFlag",
      "outputs": [],
      "payable": false,
      "stateMutability": "nonpayable",
      "type": "function"
    },
    {
      "constant": true,
      "inputs": [
        {
          "name": "_owner",
          "type": "address"
        }
      ],
      "name": "balanceOf",
      "outputs": [
        {
          "name": "balance",
          "type": "uint256"
        }
      ],
      "payable": false,
      "stateMutability": "view",
      "type": "function"
    },
    {
      "constant": false,
      "inputs": [],
      "name": "withdrawAll",
      "outputs": [],
      "payable": false,
      "stateMutability": "nonpayable",
      "type": "function"
    },
    {
      "constant": false,
      "inputs": [
        {
          "name": "propertyID",
          "type": "uint16"
        },
        {
          "name": "newColors",
          "type": "uint256[10]"
        },
        {
          "name": "PXLToSpend",
          "type": "uint256"
        }
      ],
      "name": "setColors",
      "outputs": [
        {
          "name": "",
          "type": "bool"
        }
      ],
      "payable": false,
      "stateMutability": "nonpayable",
      "type": "function"
    },
    {
      "constant": true,
      "inputs": [
        {
          "name": "user",
          "type": "address"
        }
      ],
      "name": "getLink",
      "outputs": [
        {
          "name": "",
          "type": "uint256[2]"
        }
      ],
      "payable": false,
      "stateMutability": "view",
      "type": "function"
    },
    {
      "constant": false,
      "inputs": [
        {
          "name": "propertyID",
          "type": "uint16"
        },
        {
          "name": "setPrivateMode",
          "type": "bool"
        },
        {
          "name": "numMinutesPrivate",
          "type": "uint32"
        }
      ],
      "name": "setPropertyMode",
      "outputs": [],
      "payable": false,
      "stateMutability": "nonpayable",
      "type": "function"
    },
    {
      "constant": false,
      "inputs": [
        {
          "name": "_to",
          "type": "address"
        },
        {
          "name": "_value",
          "type": "uint256"
        }
      ],
      "name": "transfer",
      "outputs": [
        {
          "name": "success",
          "type": "bool"
        }
      ],
      "payable": false,
      "stateMutability": "nonpayable",
      "type": "function"
    },
    {
      "constant": true,
      "inputs": [],
      "name": "getSystemSalePrices",
      "outputs": [
        {
          "name": "",
          "type": "uint256"
        },
        {
          "name": "",
          "type": "uint256"
        }
      ],
      "payable": false,
      "stateMutability": "view",
      "type": "function"
    },
    {
      "constant": false,
      "inputs": [
        {
          "name": "text",
          "type": "uint256[2]"
        }
      ],
      "name": "setHoverText",
      "outputs": [],
      "payable": false,
      "stateMutability": "nonpayable",
      "type": "function"
    },
    {
      "constant": false,
      "inputs": [
        {
          "name": "propertyID",
          "type": "uint16"
        },
        {
          "name": "bidAmount",
          "type": "uint256"
        }
      ],
      "name": "makeBid",
      "outputs": [],
      "payable": false,
      "stateMutability": "nonpayable",
      "type": "function"
    },
    {
      "constant": false,
      "inputs": [
        {
          "name": "propertyID",
          "type": "uint16"
        },
        {
          "name": "price",
          "type": "uint256"
        }
      ],
      "name": "listForSale",
      "outputs": [
        {
          "name": "",
          "type": "bool"
        }
      ],
      "payable": false,
      "stateMutability": "nonpayable",
      "type": "function"
    },
    {
      "constant": false,
      "inputs": [
        {
          "name": "user",
          "type": "address"
        },
        {
          "name": "amount",
          "type": "uint256"
        }
      ],
      "name": "addCoin",
      "outputs": [],
      "payable": false,
      "stateMutability": "nonpayable",
      "type": "function"
    },
    {
      "constant": true,
      "inputs": [
        {
          "name": "propertyID",
          "type": "uint16"
        }
      ],
      "name": "getForSalePrices",
      "outputs": [
        {
          "name": "",
          "type": "uint256"
        },
        {
          "name": "",
          "type": "uint256"
        }
      ],
      "payable": false,
      "stateMutability": "view",
      "type": "function"
    },
    {
      "constant": false,
      "inputs": [
        {
          "name": "propertyID",
          "type": "uint16"
        }
      ],
      "name": "delist",
      "outputs": [
        {
          "name": "",
          "type": "bool"
        }
      ],
      "payable": false,
      "stateMutability": "nonpayable",
      "type": "function"
    },
    {
      "constant": true,
      "inputs": [],
      "name": "isInGracePeriod",
      "outputs": [
        {
          "name": "",
          "type": "bool"
        }
      ],
      "payable": false,
      "stateMutability": "view",
      "type": "function"
    },
    {
      "constant": false,
      "inputs": [
        {
          "name": "link",
          "type": "uint256[2]"
        }
      ],
      "name": "setLink",
      "outputs": [],
      "payable": false,
      "stateMutability": "nonpayable",
      "type": "function"
    },
    {
      "constant": false,
      "inputs": [
        {
          "name": "newOwner",
          "type": "address"
        }
      ],
      "name": "changeOwners",
      "outputs": [],
      "payable": false,
      "stateMutability": "nonpayable",
      "type": "function"
    },
    {
      "constant": true,
      "inputs": [
        {
          "name": "_owner",
          "type": "address"
        },
        {
          "name": "_spender",
          "type": "address"
        }
      ],
      "name": "allowance",
      "outputs": [
        {
          "name": "remaining",
          "type": "uint256"
        }
      ],
      "payable": false,
      "stateMutability": "view",
      "type": "function"
    },
    {
      "constant": false,
      "inputs": [
        {
          "name": "propertyID",
          "type": "uint16"
        },
        {
          "name": "pxlValue",
          "type": "uint256"
        }
      ],
      "name": "buyProperty",
      "outputs": [
        {
          "name": "",
          "type": "bool"
        }
      ],
      "payable": true,
      "stateMutability": "payable",
      "type": "function"
    },
    {
      "constant": true,
      "inputs": [
        {
          "name": "propertyID",
          "type": "uint16"
        }
      ],
      "name": "getPropertyColors",
      "outputs": [
        {
          "name": "",
          "type": "uint256[10]"
        }
      ],
      "payable": false,
      "stateMutability": "view",
      "type": "function"
    },
    {
      "inputs": [],
      "payable": false,
      "stateMutability": "nonpayable",
      "type": "constructor"
    },
    {
      "anonymous": false,
      "inputs": [
        {
          "indexed": true,
          "name": "property",
          "type": "uint16"
        },
        {
          "indexed": false,
          "name": "colors",
          "type": "uint256[10]"
        },
        {
          "indexed": false,
          "name": "lastUpdate",
          "type": "uint256"
        },
        {
          "indexed": true,
          "name": "lastUpdaterPayee",
          "type": "address"
        },
        {
          "indexed": false,
          "name": "becomePublic",
          "type": "uint256"
        },
        {
          "indexed": true,
          "name": "rewardedCoins",
          "type": "uint256"
        }
      ],
      "name": "PropertyColorUpdate",
      "type": "event"
    },
    {
      "anonymous": false,
      "inputs": [
        {
          "indexed": true,
          "name": "property",
          "type": "uint16"
        },
        {
          "indexed": true,
          "name": "newOwner",
          "type": "address"
        },
        {
          "indexed": false,
          "name": "ethAmount",
          "type": "uint256"
        },
        {
          "indexed": false,
          "name": "PXLAmount",
          "type": "uint256"
        },
        {
          "indexed": false,
          "name": "timestamp",
          "type": "uint256"
        },
        {
          "indexed": true,
          "name": "oldOwner",
          "type": "address"
        }
      ],
      "name": "PropertyBought",
      "type": "event"
    },
    {
      "anonymous": false,
      "inputs": [
        {
          "indexed": true,
          "name": "user",
          "type": "address"
        },
        {
          "indexed": false,
          "name": "newHoverText",
          "type": "uint256[2]"
        }
      ],
      "name": "SetUserHoverText",
      "type": "event"
    },
    {
      "anonymous": false,
      "inputs": [
        {
          "indexed": true,
          "name": "user",
          "type": "address"
        },
        {
          "indexed": false,
          "name": "newLink",
          "type": "uint256[2]"
        }
      ],
      "name": "SetUserSetLink",
      "type": "event"
    },
    {
      "anonymous": false,
      "inputs": [
        {
          "indexed": true,
          "name": "property",
          "type": "uint16"
        },
        {
          "indexed": false,
          "name": "forSalePrice",
          "type": "uint256"
        }
      ],
      "name": "PropertySetForSale",
      "type": "event"
    },
    {
      "anonymous": false,
      "inputs": [
        {
          "indexed": true,
          "name": "property",
          "type": "uint16"
        }
      ],
      "name": "DelistProperty",
      "type": "event"
    },
    {
      "anonymous": false,
      "inputs": [
        {
          "indexed": true,
          "name": "property",
          "type": "uint16"
        }
      ],
      "name": "SetPropertyPublic",
      "type": "event"
    },
    {
      "anonymous": false,
      "inputs": [
        {
          "indexed": true,
          "name": "property",
          "type": "uint16"
        },
        {
          "indexed": false,
          "name": "numMinutesPrivate",
          "type": "uint32"
        },
        {
          "indexed": true,
          "name": "rewardedUser",
          "type": "address"
        },
        {
          "indexed": true,
          "name": "rewardedCoins",
          "type": "uint256"
        }
      ],
      "name": "SetPropertyPrivate",
      "type": "event"
    },
    {
      "anonymous": false,
      "inputs": [
        {
          "indexed": true,
          "name": "property",
          "type": "uint16"
        },
        {
          "indexed": false,
          "name": "bid",
          "type": "uint256"
        },
        {
          "indexed": false,
          "name": "timestamp",
          "type": "uint256"
        }
      ],
      "name": "Bid",
      "type": "event"
    },
    {
      "anonymous": false,
      "inputs": [
        {
          "indexed": true,
          "name": "_from",
          "type": "address"
        },
        {
          "indexed": true,
          "name": "_to",
          "type": "address"
        },
        {
          "indexed": false,
          "name": "_value",
          "type": "uint256"
        }
      ],
      "name": "Transfer",
      "type": "event"
    },
    {
      "anonymous": false,
      "inputs": [
        {
          "indexed": true,
          "name": "_owner",
          "type": "address"
        },
        {
          "indexed": true,
          "name": "_spender",
          "type": "address"
        },
        {
          "indexed": false,
          "name": "_value",
          "type": "uint256"
        }
      ],
      "name": "Approval",
      "type": "event"
    }
  ],
  "bytecode": "0x606060405260006004556103e8600b55600a600c556014600d60006101000a81548160ff021916908360ff1602179055506014600d60016101000a81548160ff021916908360ff1602179055506062600d60026101000a81548160ff021916908360ff1602179055506001600d60036101000a81548160ff021916908360ff160217905550603c600f55341561009457600080fd5b33600360006101000a81548173ffffffffffffffffffffffffffffffffffffffff021916908373ffffffffffffffffffffffffffffffffffffffff1602179055506064600a819055506127106009819055506003600860003373ffffffffffffffffffffffffffffffffffffffff1673ffffffffffffffffffffffffffffffffffffffff16815260200190815260200160002060006101000a81548163ffffffff021916908363ffffffff1602179055506203f4804201600e81905550613bab806101606000396000f3006060604052600436106101a1576000357c0100000000000000000000000000000000000000000000000000000000900463ffffffff168063095ea7b3146101a657806309ddc583146102005780630ad50c02146102a15780631286d9e8146102d55780631775459d1461033257806318160ddd146103a75780631bb2921b146103d05780631db939681461040b5780631e7769de1461046957806323b872dd146104905780632e1a7d4d1461050957806332a428821461052c5780633ac8e296146105745780633be730ba146105bc57806370a08231146105ef578063853828b61461063c57806389d252a3146106515780639d6abe4f146106c6578063a72aa1631461073b578063a9059cbb1461077c578063ab4c4487146107d6578063acd9930b14610806578063ae8130291461084c578063b047f2451461087c578063b4014879146108c4578063b4f6aa5614610906578063ba08651814610948578063cf27d01614610987578063d56a4555146109b4578063d7963f94146109fa578063dd62ed3e14610a33578063e829945a14610a9f578063e86994ea14610adc575b600080fd5b34156101b157600080fd5b6101e6600480803573ffffffffffffffffffffffffffffffffffffffff16906020019091908035906020019091905050610b3f565b604051808215151515815260200191505060405180910390f35b341561020b57600080fd5b610225600480803561ffff16906020019091905050610c31565b604051808873ffffffffffffffffffffffffffffffffffffffff1673ffffffffffffffffffffffffffffffffffffffff168152602001878152602001868152602001858152602001841515151581526020018381526020018263ffffffff1663ffffffff16815260200197505050505050505060405180910390f35b6102bb600480803561ffff16906020019091905050610e8c565b604051808215151515815260200191505060405180910390f35b34156102e057600080fd5b610318600480803561ffff1690602001909190803560ff16906020019091908035906020019091908035906020019091905050610faf565b604051808215151515815260200191505060405180910390f35b341561033d57600080fd5b610369600480803573ffffffffffffffffffffffffffffffffffffffff1690602001909190505061124d565b6040518082600260200280838360005b83811015610394578082015181840152602081019050610379565b5050505090500191505060405180910390f35b34156103b257600080fd5b6103ba6112d7565b6040518082815260200191505060405180910390f35b34156103db57600080fd5b6103f5600480803561ffff169060200190919050506112dd565b6040518082815260200191505060405180910390f35b341561041657600080fd5b61044f600480803561ffff1690602001909190803573ffffffffffffffffffffffffffffffffffffffff16906020019091905050611473565b604051808215151515815260200191505060405180910390f35b341561047457600080fd5b61048e600480803561ffff16906020019091905050611552565b005b341561049b57600080fd5b6104ef600480803573ffffffffffffffffffffffffffffffffffffffff1690602001909190803573ffffffffffffffffffffffffffffffffffffffff169060200190919080359060200190919050506115ca565b604051808215151515815260200191505060405180910390f35b341561051457600080fd5b61052a6004808035906020019091905050611846565b005b341561053757600080fd5b61055a600480803561ffff16906020019091908035906020019091905050611913565b604051808215151515815260200191505060405180910390f35b341561057f57600080fd5b6105ba600480803573ffffffffffffffffffffffffffffffffffffffff1690602001909190803563ffffffff16906020019091905050611c47565b005b34156105c757600080fd5b6105ed600480803561ffff1690602001909190803560ff16906020019091905050611d48565b005b34156105fa57600080fd5b610626600480803573ffffffffffffffffffffffffffffffffffffffff16906020019091905050611ed3565b6040518082815260200191505060405180910390f35b341561064757600080fd5b61064f611f1c565b005b341561065c57600080fd5b6106ac600480803561ffff1690602001909190806101400190600a806020026040519081016040528092919082600a60200280828437820191505050505091908035906020019091905050611fde565b604051808215151515815260200191505060405180910390f35b34156106d157600080fd5b6106fd600480803573ffffffffffffffffffffffffffffffffffffffff169060200190919050506122aa565b6040518082600260200280838360005b8381101561072857808201518184015260208101905061070d565b5050505090500191505060405180910390f35b341561074657600080fd5b61077a600480803561ffff16906020019091908035151590602001909190803563ffffffff16906020019091905050612334565b005b341561078757600080fd5b6107bc600480803573ffffffffffffffffffffffffffffffffffffffff1690602001909190803590602001909190505061268b565b604051808215151515815260200191505060405180910390f35b34156107e157600080fd5b6107e96127f4565b604051808381526020018281526020019250505060405180910390f35b341561081157600080fd5b61084a60048080604001906002806020026040519081016040528092919082600260200280828437820191505050505091905050612805565b005b341561085757600080fd5b61087a600480803561ffff169060200190919080359060200190919050506128cd565b005b341561088757600080fd5b6108aa600480803561ffff169060200190919080359060200190919050506129e8565b604051808215151515815260200191505060405180910390f35b34156108cf57600080fd5b610904600480803573ffffffffffffffffffffffffffffffffffffffff16906020019091908035906020019091905050612adb565b005b341561091157600080fd5b61092b600480803561ffff16906020019091905050612be4565b604051808381526020018281526020019250505060405180910390f35b341561095357600080fd5b61096d600480803561ffff16906020019091905050612c80565b604051808215151515815260200191505060405180910390f35b341561099257600080fd5b61099a612d54565b604051808215151515815260200191505060405180910390f35b34156109bf57600080fd5b6109f860048080604001906002806020026040519081016040528092919082600260200280828437820191505050505091905050612d61565b005b3415610a0557600080fd5b610a31600480803573ffffffffffffffffffffffffffffffffffffffff16906020019091905050612e29565b005b3415610a3e57600080fd5b610a89600480803573ffffffffffffffffffffffffffffffffffffffff1690602001909190803573ffffffffffffffffffffffffffffffffffffffff16906020019091905050612ec9565b6040518082815260200191505060405180910390f35b610ac2600480803561ffff16906020019091908035906020019091905050612f50565b604051808215151515815260200191505060405180910390f35b3415610ae757600080fd5b610b01600480803561ffff16906020019091905050613222565b6040518082600a60200280838360005b83811015610b2c578082015181840152602081019050610b11565b5050505090500191505060405180910390f35b600081600260003373ffffffffffffffffffffffffffffffffffffffff1673ffffffffffffffffffffffffffffffffffffffff16815260200190815260200160002060008573ffffffffffffffffffffffffffffffffffffffff1673ffffffffffffffffffffffffffffffffffffffff168152602001908152602001600020819055508273ffffffffffffffffffffffffffffffffffffffff163373ffffffffffffffffffffffffffffffffffffffff167f8c5be1e5ebec7d5bd14f71427d1e84f3dd0314c0f7b2291e5b200ac8c7c3b925846040518082815260200191505060405180910390a36001905092915050565b6000806000806000806000610c44613998565b6000896127108161ffff161015610e7e57600560008c61ffff1661ffff16815260200190815260200160002061012060405190810160405290816000820160009054906101000a900460ff1660ff1660ff1681526020016000820160019054906101000a900460ff161515151581526020016000820160029054906101000a900473ffffffffffffffffffffffffffffffffffffffff1673ffffffffffffffffffffffffffffffffffffffff1673ffffffffffffffffffffffffffffffffffffffff1681526020016001820160009054906101000a900473ffffffffffffffffffffffffffffffffffffffff1673ffffffffffffffffffffffffffffffffffffffff1673ffffffffffffffffffffffffffffffffffffffff16815260200160028201600a806020026040519081016040528092919082600a8015610d9d576020028201915b815481526020019060010190808311610d89575b50505050508152602001600c8201548152602001600d8201548152602001600e8201548152602001600f82015481525050925082602001519150818015610de85750428360e0015111155b15610df257600091505b6000836040015173ffffffffffffffffffffffffffffffffffffffff161415610e49578260400151600954600a548560c00151858760e0015188600001518060ff1690509950995099509950995099509950610e7d565b826040015160008460a001518560c00151858760e0015188600001518595508060ff16905099509950995099509950995099505b5b505050919395979092949650565b6000806000836127108161ffff161015610fa757600560008661ffff1661ffff168152602001908152602001600020925060008360000160029054906101000a900473ffffffffffffffffffffffffffffffffffffffff1673ffffffffffffffffffffffffffffffffffffffff16141515610f0657600080fd5b6009543410151515610f1757600080fd5b346004600082825401925050819055506064600d60009054906101000a900460ff1660ff1660095402811515610f4957fe5b049150600b548210610f5d57600b54610f5f565b815b600960008282540192505081905550610fa2838633346000808960000160029054906101000a900473ffffffffffffffffffffffffffffffffffffffff1661329c565b600193505b505050919050565b6000806000866127108161ffff16101561124257600a8760ff16101515610fd557600080fd5b600560008961ffff1661ffff16815260200190815260200160002092506111598361012060405190810160405290816000820160009054906101000a900460ff1660ff1660ff1681526020016000820160019054906101000a900460ff161515151581526020016000820160029054906101000a900473ffffffffffffffffffffffffffffffffffffffff1673ffffffffffffffffffffffffffffffffffffffff1673ffffffffffffffffffffffffffffffffffffffff1681526020016001820160009054906101000a900473ffffffffffffffffffffffffffffffffffffffff1673ffffffffffffffffffffffffffffffffffffffff1673ffffffffffffffffffffffffffffffffffffffff16815260200160028201600a806020026040519081016040528092919082600a8015611123576020028201915b81548152602001906001019080831161110f575b50505050508152602001600c8201548152602001600d8201548152602001600e8201548152602001600f820154815250506133cc565b91506111658386613446565b1561123c5785836002018860ff16600a8110151561117f57fe5b0181905550818360010160009054906101000a900473ffffffffffffffffffffffffffffffffffffffff1673ffffffffffffffffffffffffffffffffffffffff168961ffff167f3c8b91684bea07e62eb622da55243a6e33687ac6e88fcbe77c0213ee27d9706d866002014288600e01546040518084600a8015611218576020028201915b815481526020019060010190808311611204575b5050838152602001828152602001935050505060405180910390a460019350611241565b600093505b5b505050949350505050565b611255613a1c565b600760008373ffffffffffffffffffffffffffffffffffffffff1673ffffffffffffffffffffffffffffffffffffffff1681526020019081526020016000206002806020026040519081016040528092919082600280156112cb576020028201915b8154815260200190600101908083116112b7575b50505050509050919050565b60005481565b60006112e7613998565b600560008461ffff1661ffff16815260200190815260200160002061012060405190810160405290816000820160009054906101000a900460ff1660ff1660ff1681526020016000820160019054906101000a900460ff161515151581526020016000820160029054906101000a900473ffffffffffffffffffffffffffffffffffffffff1673ffffffffffffffffffffffffffffffffffffffff1673ffffffffffffffffffffffffffffffffffffffff1681526020016001820160009054906101000a900473ffffffffffffffffffffffffffffffffffffffff1673ffffffffffffffffffffffffffffffffffffffff1673ffffffffffffffffffffffffffffffffffffffff16815260200160028201600a806020026040519081016040528092919082600a801561142f576020028201915b81548152602001906001019080831161141b575b50505050508152602001600c8201548152602001600d8201548152602001600e8201548152602001600f82015481525050905061146b816133cc565b915050919050565b600080836127108161ffff16101561154a57600560008661ffff1661ffff16815260200190815260200160002091503373ffffffffffffffffffffffffffffffffffffffff168260000160029054906101000a900473ffffffffffffffffffffffffffffffffffffffff1673ffffffffffffffffffffffffffffffffffffffff1614151561150057600080fd5b6115458286866000808760000160009054906101000a900460ff168860000160029054906101000a900473ffffffffffffffffffffffffffffffffffffffff1661329c565b600192505b505092915050565b6000816127108161ffff1610156115c557600560008461ffff1661ffff16815260200190815260200160002091508160000160019054906101000a900460ff1680156115a157504282600e0154105b156115c45760008260000160016101000a81548160ff0219169083151502179055505b5b505050565b600081600160008673ffffffffffffffffffffffffffffffffffffffff1673ffffffffffffffffffffffffffffffffffffffff1681526020019081526020016000205410158015611697575081600260008673ffffffffffffffffffffffffffffffffffffffff1673ffffffffffffffffffffffffffffffffffffffff16815260200190815260200160002060003373ffffffffffffffffffffffffffffffffffffffff1673ffffffffffffffffffffffffffffffffffffffff1681526020019081526020016000205410155b80156116a35750600082115b1561183a5781600160008573ffffffffffffffffffffffffffffffffffffffff1673ffffffffffffffffffffffffffffffffffffffff1681526020019081526020016000206000828254019250508190555081600160008673ffffffffffffffffffffffffffffffffffffffff1673ffffffffffffffffffffffffffffffffffffffff1681526020019081526020016000206000828254039250508190555081600260008673ffffffffffffffffffffffffffffffffffffffff1673ffffffffffffffffffffffffffffffffffffffff16815260200190815260200160002060003373ffffffffffffffffffffffffffffffffffffffff1673ffffffffffffffffffffffffffffffffffffffff168152602001908152602001600020600082825403925050819055508273ffffffffffffffffffffffffffffffffffffffff168473ffffffffffffffffffffffffffffffffffffffff167fddf252ad1be2c89b69c2b068fc378daa952ba7f163c4a11628f55a4df523b3ef846040518082815260200191505060405180910390a36001905061183f565b600090505b9392505050565b3373ffffffffffffffffffffffffffffffffffffffff16600360009054906101000a900473ffffffffffffffffffffffffffffffffffffffff1673ffffffffffffffffffffffffffffffffffffffff161415156118a257600080fd5b6004548111151561191057600360009054906101000a900473ffffffffffffffffffffffffffffffffffffffff1673ffffffffffffffffffffffffffffffffffffffff166108fc829081150290604051600060405180830381858888f19350505050151561190f57600080fd5b5b50565b600080600080856127108161ffff161015611c3d57600560008861ffff1661ffff168152602001908152602001600020935060008460000160029054906101000a900473ffffffffffffffffffffffffffffffffffffffff1673ffffffffffffffffffffffffffffffffffffffff161415611a4057600a5484600c0181905550600360009054906101000a900473ffffffffffffffffffffffffffffffffffffffff168460000160026101000a81548173ffffffffffffffffffffffffffffffffffffffff021916908373ffffffffffffffffffffffffffffffffffffffff1602179055506064600d60019054906101000a900460ff1660ff16600a5402811515611a1a57fe5b049250600c548310611a2e57600c54611a30565b825b600a600082825401925050819055505b8584600c015411151515611a5357600080fd5b83600c0154600160003373ffffffffffffffffffffffffffffffffffffffff1673ffffffffffffffffffffffffffffffffffffffff1681526020019081526020016000205410151515611aa557600080fd5b600091506064600d60029054906101000a900460ff1660ff1685600c015402811515611acd57fe5b04915081600160003373ffffffffffffffffffffffffffffffffffffffff1673ffffffffffffffffffffffffffffffffffffffff1681526020019081526020016000206000828254039250508190555081600160008660000160029054906101000a900473ffffffffffffffffffffffffffffffffffffffff1673ffffffffffffffffffffffffffffffffffffffff1673ffffffffffffffffffffffffffffffffffffffff1681526020019081526020016000206000828254019250508190555081860360016000600360009054906101000a900473ffffffffffffffffffffffffffffffffffffffff1673ffffffffffffffffffffffffffffffffffffffff1673ffffffffffffffffffffffffffffffffffffffff16815260200190815260200160002060008282540192505081905550611c38848833600088600c015460008a60000160029054906101000a900473ffffffffffffffffffffffffffffffffffffffff1661329c565b600194505b5050505092915050565b6003600860003373ffffffffffffffffffffffffffffffffffffffff1673ffffffffffffffffffffffffffffffffffffffff16815260200190815260200160002060009054906101000a900463ffffffff1663ffffffff16141515611cab57600080fd5b60048163ffffffff16101515611cc057600080fd5b60008273ffffffffffffffffffffffffffffffffffffffff1614151515611ce657600080fd5b80600860008473ffffffffffffffffffffffffffffffffffffffff1673ffffffffffffffffffffffffffffffffffffffff16815260200190815260200160002060006101000a81548163ffffffff021916908363ffffffff1602179055505050565b6000826127108161ffff161015611ecd57600560008561ffff1661ffff168152602001908152602001600020915060038360ff16101515611d8857600080fd5b60028360ff1614611d9a576001611d9d565b60025b60ff16600860003373ffffffffffffffffffffffffffffffffffffffff1673ffffffffffffffffffffffffffffffffffffffff16815260200190815260200160002060009054906101000a900463ffffffff1663ffffffff1610151515611e0357600080fd5b60028360ff161415611eaf578160000160019054906101000a900460ff161515611e2c57600080fd5b61014060405190810160405280600060ff168152602001600060ff168152602001600060ff168152602001600060ff168152602001600060ff168152602001600060ff168152602001600060ff168152602001600060ff168152602001600060ff168152602001600060ff168152508260020190600a611ead929190613a43565b505b828260000160006101000a81548160ff021916908360ff1602179055505b50505050565b6000600160008373ffffffffffffffffffffffffffffffffffffffff1673ffffffffffffffffffffffffffffffffffffffff168152602001908152602001600020549050919050565b3373ffffffffffffffffffffffffffffffffffffffff16600360009054906101000a900473ffffffffffffffffffffffffffffffffffffffff1673ffffffffffffffffffffffffffffffffffffffff16141515611f7857600080fd5b600360009054906101000a900473ffffffffffffffffffffffffffffffffffffffff1673ffffffffffffffffffffffffffffffffffffffff166108fc6004549081150290604051600060405180830381858888f193505050501515611fdc57600080fd5b565b600080600080866127108161ffff16101561229f57600560008961ffff1661ffff168152602001908152602001600020935060008460010160009054906101000a900473ffffffffffffffffffffffffffffffffffffffff1673ffffffffffffffffffffffffffffffffffffffff161492506121b78461012060405190810160405290816000820160009054906101000a900460ff1660ff1660ff1681526020016000820160019054906101000a900460ff161515151581526020016000820160029054906101000a900473ffffffffffffffffffffffffffffffffffffffff1673ffffffffffffffffffffffffffffffffffffffff1673ffffffffffffffffffffffffffffffffffffffff1681526020016001820160009054906101000a900473ffffffffffffffffffffffffffffffffffffffff1673ffffffffffffffffffffffffffffffffffffffff1673ffffffffffffffffffffffffffffffffffffffff16815260200160028201600a806020026040519081016040528092919082600a8015612181576020028201915b81548152602001906001019080831161216d575b50505050508152602001600c8201548152602001600d8201548152602001600e8201548152602001600f820154815250506133cc565b91506121c38487613446565b1561229957868460020190600a6121db929190613a88565b50818460010160009054906101000a900473ffffffffffffffffffffffffffffffffffffffff1673ffffffffffffffffffffffffffffffffffffffff168961ffff167f3c8b91684bea07e62eb622da55243a6e33687ac6e88fcbe77c0213ee27d9706d8a4289600e01546040518084600a60200280838360005b83811015612270578082015181840152602081019050612255565b50505050905001838152602001828152602001935050505060405180910390a46001945061229e565b600094505b5b505050509392505050565b6122b2613a1c565b600660008373ffffffffffffffffffffffffffffffffffffffff1673ffffffffffffffffffffffffffffffffffffffff168152602001908152602001600020600280602002604051908101604052809291908260028015612328576020028201915b815481526020019060010190808311612314575b50505050509050919050565b6000806000856127108161ffff16101561268257600560008861ffff1661ffff16815260200190815260200160002093508360000160029054906101000a900473ffffffffffffffffffffffffffffffffffffffff1673ffffffffffffffffffffffffffffffffffffffff163373ffffffffffffffffffffffffffffffffffffffff161415156123c357600080fd5b85156124e0578360000160019054906101000a900460ff16806123ea57504284600e015411155b15156123f557600080fd5b60008563ffffffff1611151561240a57600080fd5b8463ffffffff16600160003373ffffffffffffffffffffffffffffffffffffffff1673ffffffffffffffffffffffffffffffffffffffff168152602001908152602001600020541015151561245e57600080fd5b8463ffffffff16600160003373ffffffffffffffffffffffffffffffffffffffff1673ffffffffffffffffffffffffffffffffffffffff168152602001908152602001600020600082825403925050819055508463ffffffff1660008082825403925050819055508463ffffffff16600f5402420184600e018190555061258a565b8360000160019054906101000a900460ff16801561250157504284600e0154115b1561257f57600f544285600e01540381151561251957fe5b04925060018303600160003373ffffffffffffffffffffffffffffffffffffffff1673ffffffffffffffffffffffffffffffffffffffff168152602001908152602001600020600082825401925050819055506001830360008082825401925050819055505b600084600e01819055505b858460000160016101000a81548160ff021916908315150217905550600084600f0181905550600084600d0181905550851561264f578360000160029054906101000a900473ffffffffffffffffffffffffffffffffffffffff1691506201869f8273ffffffffffffffffffffffffffffffffffffffff168861ffff167fa21d884986f2c87cfb81054448f66071c9363735665db28d236c882a5c09179688604051808263ffffffff1663ffffffff16815260200191505060405180910390a4612681565b8661ffff167f3f7bf071636ed8429b752f79e5cd881beb27062a4d0092050a0fc633850d387d60405160405180910390a25b5b50505050505050565b600081600160003373ffffffffffffffffffffffffffffffffffffffff1673ffffffffffffffffffffffffffffffffffffffff16815260200190815260200160002054101580156126dc5750600082115b156127e95781600160003373ffffffffffffffffffffffffffffffffffffffff1673ffffffffffffffffffffffffffffffffffffffff1681526020019081526020016000206000828254039250508190555081600160008573ffffffffffffffffffffffffffffffffffffffff1673ffffffffffffffffffffffffffffffffffffffff168152602001908152602001600020600082825401925050819055508273ffffffffffffffffffffffffffffffffffffffff163373ffffffffffffffffffffffffffffffffffffffff167fddf252ad1be2c89b69c2b068fc378daa952ba7f163c4a11628f55a4df523b3ef846040518082815260200191505060405180910390a3600190506127ee565b600090505b92915050565b600080600954600a54915091509091565b80600760003373ffffffffffffffffffffffffffffffffffffffff1673ffffffffffffffffffffffffffffffffffffffff168152602001908152602001600020906002612853929190613ac8565b503373ffffffffffffffffffffffffffffffffffffffff167fb05ccb51f2408b99be7026712c574396fced9c3e0480bf7b8f8874d8c830b7cc826040518082600260200280838360005b838110156128b857808201518184015260208101905061289d565b5050505090500191505060405180910390a250565b816127108161ffff1610156129e3576000821115156128eb57600080fd5b81600101600160003373ffffffffffffffffffffffffffffffffffffffff1673ffffffffffffffffffffffffffffffffffffffff168152602001908152602001600020541015151561293c57600080fd5b8261ffff167f606e2d57e3221093069398002086bf333ae29b8033fc68ddf70c7a4516b530f88342604051808381526020018281526020019250505060405180910390a2600160003373ffffffffffffffffffffffffffffffffffffffff1673ffffffffffffffffffffffffffffffffffffffff16815260200190815260200160002060008154809291906001900391905055506000808154809291906001900391905055505b505050565b600080836127108161ffff161015612ad357600560008661ffff1661ffff168152602001908152602001600020915060008414151515612a2757600080fd5b8160000160029054906101000a900473ffffffffffffffffffffffffffffffffffffffff1673ffffffffffffffffffffffffffffffffffffffff163373ffffffffffffffffffffffffffffffffffffffff16141515612a8557600080fd5b8382600c01819055508461ffff167ffbf70f26ac04d08c24acb352205513f53182e26fe61c050a6dd445a584cd145183600c01546040518082815260200191505060405180910390a2600192505b505092915050565b3373ffffffffffffffffffffffffffffffffffffffff16600360009054906101000a900473ffffffffffffffffffffffffffffffffffffffff1673ffffffffffffffffffffffffffffffffffffffff16141515612b3757600080fd5b600360009054906101000a900473ffffffffffffffffffffffffffffffffffffffff1673ffffffffffffffffffffffffffffffffffffffff163373ffffffffffffffffffffffffffffffffffffffff16141515612b9357600080fd5b80600160008473ffffffffffffffffffffffffffffffffffffffff1673ffffffffffffffffffffffffffffffffffffffff168152602001908152602001600020600082825401925050819055505050565b6000806000836127108161ffff161015612c7957600560008661ffff1661ffff168152602001908152602001600020915060008260000160029054906101000a900473ffffffffffffffffffffffffffffffffffffffff1673ffffffffffffffffffffffffffffffffffffffff161415612c6957612c606127f4565b93509350612c78565b600082600c0154819150935093505b5b5050915091565b600080826127108161ffff161015612d4d57600560008561ffff1661ffff16815260200190815260200160002091508160000160029054906101000a900473ffffffffffffffffffffffffffffffffffffffff1673ffffffffffffffffffffffffffffffffffffffff163373ffffffffffffffffffffffffffffffffffffffff16141515612d0d57600080fd5b600082600c01819055508361ffff167f01a14d3ac14361bc1087c805becdb2946b166a265e22798f7011f3a9e8b5fc6c60405160405180910390a2600192505b5050919050565b6000600e54421115905090565b80600660003373ffffffffffffffffffffffffffffffffffffffff1673ffffffffffffffffffffffffffffffffffffffff168152602001908152602001600020906002612daf929190613ac8565b503373ffffffffffffffffffffffffffffffffffffffff167f4d267d545ed24f4a32ae8dafe3dd6b7015cf92b46e36306b74986fc9288964a7826040518082600260200280838360005b83811015612e14578082015181840152602081019050612df9565b5050505090500191505060405180910390a250565b3373ffffffffffffffffffffffffffffffffffffffff16600360009054906101000a900473ffffffffffffffffffffffffffffffffffffffff1673ffffffffffffffffffffffffffffffffffffffff16141515612e8557600080fd5b80600360006101000a81548173ffffffffffffffffffffffffffffffffffffffff021916908373ffffffffffffffffffffffffffffffffffffffff16021790555050565b6000600260008473ffffffffffffffffffffffffffffffffffffffff1673ffffffffffffffffffffffffffffffffffffffff16815260200190815260200160002060008373ffffffffffffffffffffffffffffffffffffffff1673ffffffffffffffffffffffffffffffffffffffff16815260200190815260200160002054905092915050565b6000806000806000866127108161ffff16101561321757600560008961ffff1661ffff168152602001908152602001600020945060008560000160029054906101000a900473ffffffffffffffffffffffffffffffffffffffff1673ffffffffffffffffffffffffffffffffffffffff16141515612fcd57600080fd5b86600160003373ffffffffffffffffffffffffffffffffffffffff1673ffffffffffffffffffffffffffffffffffffffff168152602001908152602001600020541015151561301b57600080fd5b6000871415151561302b57600080fd5b600a54871115151561303c57600080fd5b86600a5403935083600a5460095481151561305357fe5b0402925082341015151561306657600080fd5b8660016000600360009054906101000a900473ffffffffffffffffffffffffffffffffffffffff1673ffffffffffffffffffffffffffffffffffffffff1673ffffffffffffffffffffffffffffffffffffffff1681526020019081526020016000206000828254019250508190555086600160003373ffffffffffffffffffffffffffffffffffffffff1673ffffffffffffffffffffffffffffffffffffffff168152602001908152602001600020600082825403925050819055506064600d60019054906101000a900460ff1660ff16600a540281151561314457fe5b049150600a5487600c54841061315c57600c5461315e565b835b0281151561316857fe5b04600a60008282540192505081905550346004600082825401925050819055506064600d60009054906101000a900460ff1660ff16600954028115156131aa57fe5b049150600a5484600b5484106131c257600b546131c4565b835b028115156131ce57fe5b04600960008282540192505081905550613212858933348b60008b60000160029054906101000a900473ffffffffffffffffffffffffffffffffffffffff1661329c565b600195505b505050505092915050565b61322a613b08565b816127108161ffff16101561329657600560008461ffff1661ffff168152602001908152602001600020600201600a806020026040519081016040528092919082600a801561328e576020028201915b81548152602001906001019080831161327a575b505050505091505b50919050565b60008573ffffffffffffffffffffffffffffffffffffffff16141515156132c257600080fd5b848760000160026101000a81548173ffffffffffffffffffffffffffffffffffffffff021916908373ffffffffffffffffffffffffffffffffffffffff160217905550600087600c018190555060008760000160016101000a81548160ff021916908315150217905550818760000160006101000a81548160ff021916908360ff1602179055508073ffffffffffffffffffffffffffffffffffffffff168573ffffffffffffffffffffffffffffffffffffffff168761ffff167f75d46023a8160c0896514b1afdbbaf5d7b2175bb0ef87ee9c94df9e7455f962787874260405180848152602001838152602001828152602001935050505060405180910390a450505050505050565b600080600083602001511580156133e8575060008460c0015114155b1561343a57836101000151421061340457836101000151613406565b425b9150600f548460c00151830381151561341b57fe5b049050600d60039054906101000a900460ff1660ff168102925061343f565b600092505b5050919050565b60008060008460000160019054906101000a900460ff16801561346c57504285600e0154105b1561348f5760008560000160016101000a81548160ff0219169083151502179055505b8460000160019054906101000a900460ff161561352d578460000160029054906101000a900473ffffffffffffffffffffffffffffffffffffffff1673ffffffffffffffffffffffffffffffffffffffff163373ffffffffffffffffffffffffffffffffffffffff1614151561350457600080fd5b60028560000160009054906101000a900460ff1660ff161415151561352857600080fd5b61393f565b4285600e01541015613935576001840191506002841080156135535750613552612d54565b5b1561355d57600391505b83600160003373ffffffffffffffffffffffffffffffffffffffff1673ffffffffffffffffffffffffffffffffffffffff16815260200190815260200160002054101515156135ab57600080fd5b83600160003373ffffffffffffffffffffffffffffffffffffffff1673ffffffffffffffffffffffffffffffffffffffff1681526020019081526020016000206000828254039250508190555083600080828254039250508190555061376e8561012060405190810160405290816000820160009054906101000a900460ff1660ff1660ff1681526020016000820160019054906101000a900460ff161515151581526020016000820160029054906101000a900473ffffffffffffffffffffffffffffffffffffffff1673ffffffffffffffffffffffffffffffffffffffff1673ffffffffffffffffffffffffffffffffffffffff1681526020016001820160009054906101000a900473ffffffffffffffffffffffffffffffffffffffff1673ffffffffffffffffffffffffffffffffffffffff1673ffffffffffffffffffffffffffffffffffffffff16815260200160028201600a806020026040519081016040528092919082600a8015613738576020028201915b815481526020019060010190808311613724575b50505050508152602001600c8201548152602001600d8201548152602001600e8201548152602001600f820154815250506133cc565b905060008111156139045760008560010160009054906101000a900473ffffffffffffffffffffffffffffffffffffffff1673ffffffffffffffffffffffffffffffffffffffff1614151561383e5780600160008760010160009054906101000a900473ffffffffffffffffffffffffffffffffffffffff1673ffffffffffffffffffffffffffffffffffffffff1673ffffffffffffffffffffffffffffffffffffffff168152602001908152602001600020600082825401925050819055508060008082825401925050819055505b60008560000160029054906101000a900473ffffffffffffffffffffffffffffffffffffffff1673ffffffffffffffffffffffffffffffffffffffff161415156139035780600160008760000160029054906101000a900473ffffffffffffffffffffffffffffffffffffffff1673ffffffffffffffffffffffffffffffffffffffff1673ffffffffffffffffffffffffffffffffffffffff168152602001908152602001600020600082825401925050819055508060008082825401925050819055505b5b6002600f54830281151561391457fe5b04420185600e0181905550600f5482830202420185600f018190555061393e565b60009250613990565b5b338560010160006101000a81548173ffffffffffffffffffffffffffffffffffffffff021916908373ffffffffffffffffffffffffffffffffffffffff1602179055504285600d0181905550600192505b505092915050565b61024060405190810160405280600060ff168152602001600015158152602001600073ffffffffffffffffffffffffffffffffffffffff168152602001600073ffffffffffffffffffffffffffffffffffffffff1681526020016139fa613b31565b8152602001600081526020016000815260200160008152602001600081525090565b60408051908101604052806002905b6000815260200190600190039081613a2b5790505090565b82600a8101928215613a77579160200282015b82811115613a76578251829060ff16905591602001919060010190613a56565b5b509050613a849190613b5a565b5090565b82600a8101928215613ab7579160200282015b82811115613ab6578251825591602001919060010190613a9b565b5b509050613ac49190613b5a565b5090565b8260028101928215613af7579160200282015b82811115613af6578251825591602001919060010190613adb565b5b509050613b049190613b5a565b5090565b61014060405190810160405280600a905b6000815260200190600190039081613b195790505090565b61014060405190810160405280600a905b6000815260200190600190039081613b425790505090565b613b7c91905b80821115613b78576000816000905550600101613b60565b5090565b905600a165627a7a723058201445eb518d688ceb1e856a03c37fe9263fc961be44d7d5c87be25a582715301b0029",
  "source": "pragma solidity ^0.4.2;\n\n// ERC20 Token Interface\ncontract Token {\n    uint256 public totalSupply;\n    function balanceOf(address _owner) public constant returns (uint256 balance);\n    function transfer(address _to, uint256 _value) public returns (bool success);\n    function transferFrom(address _from, address _to, uint256 _value) public returns (bool success);\n    function approve(address _spender, uint256 _value) public returns (bool success);\n    function allowance(address _owner, address _spender) public constant returns (uint256 remaining);\n    event Transfer(address indexed _from, address indexed _to, uint256 _value);\n    event Approval(address indexed _owner, address indexed _spender, uint256 _value);\n}\n\n// ERC20 Token Implementation\ncontract StandardToken is Token {\n    function transfer(address _to, uint256 _value) public returns (bool success) {\n      if (balances[msg.sender] >= _value && _value > 0) {\n        balances[msg.sender] -= _value;\n        balances[_to] += _value;\n        Transfer(msg.sender, _to, _value);\n        return true;\n      } else {\n        return false;\n      }\n    }\n\n    function transferFrom(address _from, address _to, uint256 _value) public returns (bool success) {\n      if (balances[_from] >= _value && allowed[_from][msg.sender] >= _value && _value > 0) {\n        balances[_to] += _value;\n        balances[_from] -= _value;\n        allowed[_from][msg.sender] -= _value;\n        Transfer(_from, _to, _value);\n        return true;\n      } else {\n        return false;\n      }\n    }\n\n    function balanceOf(address _owner) public constant returns (uint256 balance) {\n        return balances[_owner];\n    }\n\n    function approve(address _spender, uint256 _value) public returns (bool success) {\n        allowed[msg.sender][_spender] = _value;\n        Approval(msg.sender, _spender, _value);\n        return true;\n    }\n\n    function allowance(address _owner, address _spender) public constant returns (uint256 remaining) {\n      return allowed[_owner][_spender];\n    }\n\n    mapping (address => uint256) balances;\n    mapping (address => mapping (address => uint256)) allowed;\n}\n\n// PixelProperty\ncontract VirtualRealEstate is StandardToken {\n    /* ### Variables ### */\n    // Contract owner\n    address owner;\n    // Amount of ETH the contract owner is entitled to withdraw\n    uint256 ownerEth = 0;\n    // Mapping of PropertyID to Property\n    mapping (uint16 => Property) properties;\n    // Property Owner's website\n    mapping (address => uint256[2]) ownerWebsite;\n    // Property Owner's hover text\n    mapping (address => uint256[2]) ownerHoverText;\n    // A users moderation level\n    mapping (address => uint32) moderators; // 0 = Not, 1 = nsfw-power, 2 = ban-power, 3 = set-moderator-level-power\n    // The current system prices of ETH and PXL, for which unsold Properties are listed for sale at\n    uint256 priceETH;\n    uint256 pricePXL;\n    // The amount for with ETH and PXL system prices increase\n    uint256 PRICE_ETH_MIN_INCREASE = 1000;//10000000000000000000000; //0.0001 ETH\n    uint256 PRICE_PXL_MIN_INCREASE = 10;\n    uint8 PRICE_ETH_MIN_PERCENT = 20; //0.0001 ETH\n    uint8 PRICE_PXL_MIN_PERCENT = 20;\n    // The amount in % for which a user is paid\n    uint8 USER_BUY_CUT_PERCENT = 98;\n    // Maximum amount of generated PXL a property can give away per minute\n    uint8 PROPERTY_GENERATES_PER_MINUTE = 1;\n    // The point in time when the initial grace period is over, and users get the default values based on coins burned\n    uint256 GRACE_PERIOD_END_TIMESTAMP;\n    // The amount of time required for a Property to generate tokens for payouts\n    uint256 PROPERTY_GENERATION_PAYOUT_INTERVAL = (1 minutes); //Generation amount\n\n    /* ### Events ### */\n    event PropertyColorUpdate(uint16 indexed property, uint256[10] colors, uint256 lastUpdate, address indexed lastUpdaterPayee, uint256 becomePublic, uint256 indexed rewardedCoins);\n    event PropertyBought(uint16 indexed property, address indexed newOwner, uint256 ethAmount, uint256 PXLAmount, uint256 timestamp, address indexed oldOwner);\n    event SetUserHoverText(address indexed user, uint256[2] newHoverText);\n    event SetUserSetLink(address indexed user, uint256[2] newLink);\n    event PropertySetForSale(uint16 indexed property, uint256 forSalePrice);\n    event DelistProperty(uint16 indexed property);\n    event SetPropertyPublic(uint16 indexed property);\n    event SetPropertyPrivate(uint16 indexed property, uint32 numMinutesPrivate, address indexed rewardedUser, uint256 indexed rewardedCoins);\n    event Bid(uint16 indexed property, uint256 bid, uint256 timestamp);\n    \n    /* ### Ownable Property Structure ### */\n    struct Property {\n        uint8 flag; //0 == none, 1 == nsfw, 2 == ban\n        bool isInPrivateMode; //Whether in private mode for owner-only use or free-use mode to be shared\n        address owner; //Who owns the Property. If its zero (0), then no owner and known as a \"system-Property\"\n        address lastUpdater; //Who last changed the color of the Property\n        uint256[10] colors; //10x10 rgb pixel colors per property. colors[0] is the top row, colors[9] is the bottom row\n        uint256 salePrice; //PXL price the owner has the Property on sale for. If zero, then its not for sale.\n        uint256 lastUpdate; //Timestamp of when it had its color last updated\n        uint256 becomePublic; //Timestamp on when to become public\n        uint256 earnUntil; //Timestamp on when Property token generation will stop\n    }\n    \n    /* ### MODIFIERS ### */\n\n    // Only the contract owner can call these methods\n    modifier ownerOnly() {\n        require(owner == msg.sender);\n        _;\n    }\n    \n    // Can only be called on Properties referecing a valid PropertyID\n    modifier validPropertyID(uint16 propertyID) {\n        if (propertyID < 10000) {\n            _;\n        }\n    }\n    \n    /* ### PUBLICALLY INVOKABLE FUNCTIONS ### */\n    \n    /* CONSTRUCTOR */\n    function VirtualRealEstate() public {\n        owner = msg.sender; // Default the owner to be whichever Ethereum account created the contract\n        pricePXL = 100; //Initial PXL system price\n        priceETH = 10000;//1000000000000000000; //0.001 ETH //Initial ETH system price\n        moderators[msg.sender] = 3; // Set us, as contract owner, to be a full admin for moderation\n        GRACE_PERIOD_END_TIMESTAMP = now + 3 days; // Give all users extra functionality for the first three days\n    }\n    \n    /* MODERATOR FUNCTIONS */\n    \n    // Moderators use setFlag to flag Properties which may contain NSFW or bannable content\n    function setFlag(uint16 propertyID, uint8 flag) public validPropertyID(propertyID)  {\n        Property storage property = properties[propertyID];\n\n        require(flag < 3);\n        \n        require(moderators[msg.sender] >= ((flag == 2) ? 2 : 1)); // Invoking moderator must be level 1 for NSFW or 2+ for ban\n    \n        // If its a ban instead of a flag, clear the content\n        if (flag == 2) {\n            require(property.isInPrivateMode); //Can't ban an owner's property if a public user caused the NSFW content\n            property.colors = [0, 0, 0, 0, 0, 0, 0, 0, 0, 0];\n        }\n\n        property.flag = flag;\n    }\n    \n    // Admins (moderator level 3's) can modify the moderation powers of any user\n    function setModeratorLevel(address user, uint32 level) public {\n        require(moderators[msg.sender] == 3);\n        require(level < 4);\n        require(user != 0);\n        moderators[user] = level;\n    }\n    \n    /* USER FUNCTIONS */\n    \n    // Property owners can change their hoverText for when a user mouses over their Properties\n    function setHoverText(uint256[2] text) public {\n        ownerHoverText[msg.sender] = text;\n        SetUserHoverText(msg.sender, text);\n    }\n    \n    // Property owners can change the clickable link for when a user clicks on their Properties\n    function setLink(uint256[2] link) public {\n        ownerWebsite[msg.sender] = link;\n        SetUserSetLink(msg.sender, link);\n    }\n    \n    // If a Property is private which has expired, make it public\n    function tryForcePublic(uint16 propertyID) public validPropertyID(propertyID) {\n        Property storage property = properties[propertyID];\n        if (property.isInPrivateMode && property.becomePublic < now) {\n            property.isInPrivateMode = false;\n        }\n    }\n\n    \n    \n    // Update the 10x10 image data for a Property, triggering potential payouts if it succeeds\n    function setColors(uint16 propertyID, uint256[10] newColors, uint256 PXLToSpend) public validPropertyID(propertyID) returns(bool) {\n        Property storage property = properties[propertyID];\n        bool firstSet = property.lastUpdater == 0;\n        uint256 projectedPayout = _getProjectedPayout(property);\n        if (_tryTriggerPayout(property, PXLToSpend)) {\n            property.colors = newColors;\n            PropertyColorUpdate(propertyID, newColors, now, property.lastUpdater, property.becomePublic, projectedPayout);\n            // The first user to set a Properties color ever is awarded extra PXL due to eating the extra GAS cost of creating the uint256[10]\n            if (firstSet) {\n                //totalSupply += 25;\n                //balances[msg.sender] += 25;\n            }\n            return true;\n        }\n        return false;\n    }\n    // Update a row of image data for a Property, triggering potential payouts if it succeeds\n    function setRowColors(uint16 propertyID, uint8 row, uint256 newColorData, uint256 PXLToSpend) public validPropertyID(propertyID) returns(bool) {\n        require(row < 10);\n        Property storage property = properties[propertyID];\n        uint256 projectedPayout = _getProjectedPayout(property);\n        if (_tryTriggerPayout(property, PXLToSpend)) {\n            property.colors[row] = newColorData;\n            PropertyColorUpdate(propertyID, property.colors, now, property.lastUpdater, property.becomePublic, projectedPayout);\n            return true;\n        }\n        return false;\n    }\n    // Property owners can toggle their Properties between private mode and free-use mode\n    function setPropertyMode(uint16 propertyID, bool setPrivateMode, uint32 numMinutesPrivate) public validPropertyID(propertyID) {\n        Property storage property = properties[propertyID];\n        require(msg.sender == property.owner);\n        if (setPrivateMode) {\n            //If inprivate, we can extend the duration, otherwise if becomePublic > now it means a free-use user locked it\n            require(property.isInPrivateMode || property.becomePublic <= now); \n            require(numMinutesPrivate > 0);\n            require(balances[msg.sender] >= numMinutesPrivate);\n            balances[msg.sender] -= numMinutesPrivate;\n            totalSupply -= numMinutesPrivate;\n            // Determines when the Property becomes public, one payout interval per coin burned\n            property.becomePublic = now + PROPERTY_GENERATION_PAYOUT_INTERVAL * numMinutesPrivate;\n        } else {\n            // If its in private mode and still has time left, reimburse them for N-1 minutes tokens back\n            if (property.isInPrivateMode && property.becomePublic > now) {\n                uint256 refundedAmount = (property.becomePublic - now) / PROPERTY_GENERATION_PAYOUT_INTERVAL;\n                balances[msg.sender] += refundedAmount - 1;\n                totalSupply += refundedAmount - 1;\n            }\n            property.becomePublic = 0;\n        }\n        property.isInPrivateMode = setPrivateMode;\n        property.earnUntil = 0;\n        property.lastUpdate = 0;\n        \n        if (setPrivateMode) {\n            address rewardedUser = property.owner; //Will be rewarded user\n            SetPropertyPrivate(propertyID, numMinutesPrivate, rewardedUser, 99999);\n        } else {\n            SetPropertyPublic(propertyID);\n        }\n    }\n    // Transfer Property ownership between accounts. This has no cost, no cut and does not change flag status\n    function transferProperty(uint16 propertyID, address newOwner) public validPropertyID(propertyID) returns(bool) {\n        Property storage property = properties[propertyID];\n        require(property.owner == msg.sender);\n        _transferProperty(property, propertyID, newOwner, 0, 0, property.flag, property.owner);\n        return true;\n    }\n    // Purchase a unowned system-Property in a combination of PXL and ETH\n    function buyProperty(uint16 propertyID, uint256 pxlValue) public validPropertyID(propertyID) payable returns(bool) {\n        Property storage property = properties[propertyID];\n        \n        //Must be the first purchase, otherwise do it with PXL from another user\n        require(property.owner == 0);\n        // Must be able to afford the given PXL\n        require(balances[msg.sender] >= pxlValue);\n        require(pxlValue != 0);\n        \n        // Protect against underflow\n        require(pxlValue <= pricePXL);\n        uint256 pxlLeft = pricePXL - pxlValue;\n        uint256 ethLeft = priceETH / pricePXL * pxlLeft;\n        \n        // Must have spent enough ETH to cover the ETH left after PXL price was subtracted\n        require(msg.value >= ethLeft);\n    \n        balances[owner] += pxlValue;\n        balances[msg.sender] -= pxlValue;\n\n        uint256 minPercent = pricePXL * PRICE_PXL_MIN_PERCENT / 100;\n        pricePXL += ((minPercent < PRICE_PXL_MIN_INCREASE) ? minPercent : PRICE_PXL_MIN_INCREASE) * pxlValue / pricePXL;\n\n        ownerEth += msg.value;\n        minPercent = priceETH * PRICE_ETH_MIN_PERCENT / 100;\n        priceETH += ((minPercent < PRICE_ETH_MIN_INCREASE) ? minPercent : PRICE_ETH_MIN_INCREASE) * pxlLeft / pricePXL;\n        \n        _transferProperty(property, propertyID, msg.sender, msg.value, pxlValue, 0, property.owner);\n        \n        return true;\n    }\n    // Purchase a listed user-owner Property in PXL\n    function buyPropertyInPXL(uint16 propertyID, uint256 PXLValue) public validPropertyID(propertyID) returns(bool) {\n        Property storage property = properties[propertyID];\n        \n        // If Property is system-owned\n        if (property.owner == 0) {\n            // Turn it into a user-owned at system price with contract owner as owner\n            property.salePrice = pricePXL;\n            property.owner = owner;\n            // Increase system PXL price\n            uint256 minPercent = pricePXL * PRICE_PXL_MIN_PERCENT / 100;\n            pricePXL += (minPercent < PRICE_PXL_MIN_INCREASE) ? minPercent : PRICE_PXL_MIN_INCREASE;\n        }\n        \n        require(property.salePrice <= PXLValue);\n        require(balances[msg.sender] >= property.salePrice);\n        \n        uint256 amountTransfered = 0;\n        amountTransfered = property.salePrice * USER_BUY_CUT_PERCENT / 100;\n        \n        balances[msg.sender] -= amountTransfered;\n        balances[property.owner] += amountTransfered;\n        balances[owner] += PXLValue - amountTransfered;\n\n        _transferProperty(property, propertyID, msg.sender, 0, property.salePrice, 0, property.owner);\n        \n        return true;\n    }\n    // Purchase a system-Property in pure ETH\n    function buyPropertyInETH(uint16 propertyID) public validPropertyID(propertyID) payable returns(bool) {\n        Property storage property = properties[propertyID];\n        \n        require(property.owner == 0);\n        require(msg.value >= priceETH);\n        \n        ownerEth += msg.value;\n    \n        uint256 minPercent = priceETH * PRICE_ETH_MIN_PERCENT / 100;\n        priceETH += (minPercent < PRICE_ETH_MIN_INCREASE) ? minPercent : PRICE_ETH_MIN_INCREASE;\n        \n        _transferProperty(property, propertyID, msg.sender, msg.value, 0, 0, property.owner);\n        return true;\n    }\n    \n    // Property owner lists their Property for sale at their preferred price\n    function listForSale(uint16 propertyID, uint256 price ) public validPropertyID(propertyID) returns(bool) {\n        Property storage property = properties[propertyID];\n      \n        require(price != 0);\n        require(msg.sender == property.owner);\n        \n        property.salePrice = price;\n        \n        PropertySetForSale(propertyID, property.salePrice);\n        \n        return true;\n    }\n    \n    // Property owner delists their Property from being for sale\n    function delist(uint16 propertyID) public validPropertyID(propertyID) returns(bool) {\n        Property storage property = properties[propertyID];\n        \n        require(msg.sender == property.owner); //Must be the owner\n\n        property.salePrice = 0;\n        \n        DelistProperty(propertyID);\n        \n        return true;\n    }\n\n    // Make a public bid and notify a Property owner of your bid. Burn 1 coin\n    function makeBid(uint16 propertyID, uint256 bidAmount) public validPropertyID(propertyID) {\n        require(bidAmount > 0);\n        require(balances[msg.sender] >= 1 + bidAmount);\n        Bid(propertyID, bidAmount, now);\n        balances[msg.sender]--;\n        totalSupply--;\n    }\n    \n    /* CONTRACT OWNER FUNCTIONS */\n    \n    // Contract owner can withdraw up to ownerEth amount\n    function withdraw(uint256 amount) public ownerOnly() {\n        if (amount <= ownerEth) {\n            owner.transfer(amount);\n        }\n    }\n    \n    // Contract owner can withdraw ownerEth amount\n    function withdrawAll() public ownerOnly() {\n        owner.transfer(ownerEth);\n    }\n    \n    // Contract owner can change who is the contract owner\n    function changeOwners(address newOwner) public ownerOnly() {\n        owner = newOwner;\n    }\n    \n    /* ## PRIVATE FUNCTIONS ## */\n    \n    // Function which wraps payouts for setColors\n    function _tryTriggerPayout(Property storage property, uint256 pxlToSpend) private returns(bool) {\n        //If the Property is in private mode and expired, make it public\n        if (property.isInPrivateMode && property.becomePublic < now) {\n            property.isInPrivateMode = false;\n        }\n        //If its in public mode, only the owner can interact with it\n        if (property.isInPrivateMode) {\n            require(msg.sender == property.owner);\n            require(property.flag != 2);\n        //If if its in free-use mode\n        } else if (property.becomePublic < now) {\n            uint256 pxlSpent = pxlToSpend + 1; //All pxlSpent math uses N+1, so built in for convenience\n            if (pxlToSpend < 2 && isInGracePeriod()) { //If first 3 days and we spent <2 coins, treat it as if we spent 2\n                pxlSpent = 3; //We're treating it like 2, but it's N+1 in the math using this\n            }\n            require(balances[msg.sender] >= pxlToSpend);\n            balances[msg.sender] -= pxlToSpend;\n            totalSupply -= pxlToSpend;\n            //Get the amount of generated PXL for this trigger\n            uint256 payoutEach = _getProjectedPayout(property);\n            if (payoutEach > 0) {\n                if (property.lastUpdater != 0) {\n                    //Payout lastUpdater\n                    balances[property.lastUpdater] += payoutEach;\n                    totalSupply += payoutEach;\n                }\n                if (property.owner != 0) {\n                    //Payout the owner of the Property\n                    balances[property.owner] += payoutEach;\n                    totalSupply += payoutEach;\n                }\n            }\n            property.becomePublic = now + (pxlSpent * PROPERTY_GENERATION_PAYOUT_INTERVAL / 2); //(N+1)/2 minutes of user-private mode\n            property.earnUntil = now + (pxlSpent) * (pxlSpent) * PROPERTY_GENERATION_PAYOUT_INTERVAL; //(N+1)^2 coins earned max/minutes we can earn from\n        } else {\n            return false;\n        }\n        property.lastUpdater = msg.sender;\n        property.lastUpdate = now;\n        return true;\n    }\n    // Transfer ownership of a Property and reset their info\n    function _transferProperty(Property storage property, uint16 propertyID, address newOwner, uint256 ethAmount, uint256 PXLAmount, uint8 flag, address oldOwner) private {\n        require(newOwner != 0);\n        property.owner = newOwner;\n        property.salePrice = 0;\n        property.isInPrivateMode = false;\n        property.flag = flag;\n        PropertyBought(propertyID, newOwner, ethAmount, PXLAmount, now, oldOwner);\n    }\n    \n    /* ## VIEWS ## */\n    // Gets an owners hover text when a user hovers over their Property\n    function getHoverText(address user) public view returns(uint256[2]) {\n        return ownerHoverText[user];\n    }\n    \n    // Gets an owners website for when a user clicks on their Property\n    function getLink(address user) public view returns(uint256[2]) {\n        return ownerWebsite[user];\n    }\n    \n    // Gets the current RGB colors of a Property\n    function getPropertyColors(uint16 propertyID) public validPropertyID(propertyID) view returns(uint256[10]) {\n        return properties[propertyID].colors;\n    }\n    \n    // Gets the (owners address, Ethereum sale price, PXL sale price, last update timestamp, whether its in private mode or not, when it becomes public timestamp, flag) for a Property\n    function getPropertyData(uint16 propertyID) public validPropertyID(propertyID) view returns(address, uint256, uint256, uint256, bool, uint256, uint32) {\n        Property memory property = properties[propertyID];\n        bool isInPrivateMode = property.isInPrivateMode;\n        //If it's in private, but it has expired and should be public, set our bool to be public\n        if (isInPrivateMode && property.becomePublic <= now) { \n            isInPrivateMode = false;\n        }\n        if (property.owner == 0) {\n            return (property.owner, priceETH, pricePXL, property.lastUpdate, isInPrivateMode, property.becomePublic, property.flag);\n        } else {\n            return (property.owner, 0, property.salePrice, property.lastUpdate, isInPrivateMode, property.becomePublic, property.flag);\n        }\n    }\n    \n    // Gets the system ETH and PXL prices\n    function getSystemSalePrices() public view returns(uint256, uint256) {\n        return (priceETH, pricePXL);\n    }\n    \n    // Gets the sale prices of any Property in ETH and PXL\n    function getForSalePrices(uint16 propertyID) public validPropertyID(propertyID) view returns(uint256, uint256) {\n        Property storage property = properties[propertyID];\n        if (property.owner == 0) {\n            return getSystemSalePrices();\n        } else {\n            return (0, property.salePrice);\n        }\n    }\n    \n    // Gets the projected sale price for a property should it be triggered at this very moment\n    function getProjectedPayout(uint16 propertyID) public view returns(uint256) {\n        Property memory property = properties[propertyID];\n        return _getProjectedPayout(property);\n    }\n    \n    // Gets the projected sale price for a property should it be triggered at this very moment\n    function _getProjectedPayout(Property memory property) private view returns(uint256) {\n        if (!property.isInPrivateMode && property.lastUpdate != 0) {\n            uint256 earnedUntil = (now < property.earnUntil) ? now : property.earnUntil;\n            uint256 minutesSinceLastColourChange = (earnedUntil - property.lastUpdate) / PROPERTY_GENERATION_PAYOUT_INTERVAL;\n            return minutesSinceLastColourChange * PROPERTY_GENERATES_PER_MINUTE;\n        }\n        return 0;\n    }\n    \n    // Gets whether the contract is still in the intial grace period where we give extra features to color setters\n    function isInGracePeriod() public view returns(bool) {\n        return now <= GRACE_PERIOD_END_TIMESTAMP;\n    }\n    \n    ////////////////////////////////////////////////\n    ///TODO: TESTING ONLY: REMOVE BEFORE RELEASE:///\n    ////////////////////////////////////////////////\n    function addCoin(address user, uint256 amount) public ownerOnly() {\n        require(msg.sender == owner);\n        balances[user] += amount;\n    }\n}",
  "sourcePath": "/Users/jaegarsarauer/Documents/DATA/CajartyComputing/Projects/PixelRealEstate/contracts/VirtualRealEstate.sol",
  "compiler": {
    "name": "solc",
    "version": "0.4.18+commit.9cf6e910.Emscripten.clang"
  },
  "schemaVersion": "1.0.1",
  "updatedAt": "2018-04-04T22:09:00.751Z"
}