{
    "contractName": "VirtualRealEstate",
    "abi": [
        {
            "constant": true,
            "inputs": [
                {
                    "name": "propertyID",
                    "type": "uint16"
                }
            ],
            "name": "getPropertyData",
            "outputs": [
                {
                    "name": "",
                    "type": "address"
                },
                {
                    "name": "",
                    "type": "uint256"
                },
                {
                    "name": "",
                    "type": "uint256"
                },
                {
                    "name": "",
                    "type": "uint256"
                },
                {
                    "name": "",
                    "type": "bool"
                },
                {
                    "name": "",
                    "type": "uint256"
                },
                {
                    "name": "",
                    "type": "uint32"
                }
            ],
            "payable": false,
            "stateMutability": "view",
            "type": "function"
        },
        {
            "constant": false,
            "inputs": [
                {
                    "name": "propertyID",
                    "type": "uint16"
                }
            ],
            "name": "buyPropertyInETH",
            "outputs": [
                {
                    "name": "",
                    "type": "bool"
                }
            ],
            "payable": true,
            "stateMutability": "payable",
            "type": "function"
        },
        {
            "constant": false,
            "inputs": [
                {
                    "name": "propertyID",
                    "type": "uint16"
                },
                {
                    "name": "row",
                    "type": "uint8"
                },
                {
                    "name": "newColorData",
                    "type": "uint256"
                },
                {
                    "name": "PXLToSpend",
                    "type": "uint256"
                }
            ],
            "name": "setRowColors",
            "outputs": [
                {
                    "name": "",
                    "type": "bool"
                }
            ],
            "payable": false,
            "stateMutability": "nonpayable",
            "type": "function"
        },
        {
            "constant": true,
            "inputs": [
                {
                    "name": "propertyID",
                    "type": "uint16"
                }
            ],
            "name": "getProjectedPayout",
            "outputs": [
                {
                    "name": "",
                    "type": "uint256"
                }
            ],
            "payable": false,
            "stateMutability": "view",
            "type": "function"
        },
        {
            "constant": false,
            "inputs": [
                {
                    "name": "propertyID",
                    "type": "uint16"
                },
                {
                    "name": "newOwner",
                    "type": "address"
                }
            ],
            "name": "transferProperty",
            "outputs": [
                {
                    "name": "",
                    "type": "bool"
                }
            ],
            "payable": false,
            "stateMutability": "nonpayable",
            "type": "function"
        },
        {
            "constant": false,
            "inputs": [
                {
                    "name": "propertyID",
                    "type": "uint16"
                }
            ],
            "name": "tryForcePublic",
            "outputs": [],
            "payable": false,
            "stateMutability": "nonpayable",
            "type": "function"
        },
        {
            "constant": false,
            "inputs": [
                {
                    "name": "amount",
                    "type": "uint256"
                }
            ],
            "name": "withdraw",
            "outputs": [],
            "payable": false,
            "stateMutability": "nonpayable",
            "type": "function"
        },
        {
            "constant": false,
            "inputs": [
                {
                    "name": "propertyID",
                    "type": "uint16"
                },
                {
                    "name": "PXLValue",
                    "type": "uint256"
                }
            ],
            "name": "buyPropertyInPXL",
            "outputs": [],
            "payable": false,
            "stateMutability": "nonpayable",
            "type": "function"
        },
        {
            "constant": false,
            "inputs": [
                {
                    "name": "propertyID",
                    "type": "uint16"
                },
                {
                    "name": "newColors",
                    "type": "uint256[5]"
                },
                {
                    "name": "PXLToSpend",
                    "type": "uint256"
                }
            ],
            "name": "setColors",
            "outputs": [
                {
                    "name": "",
                    "type": "bool"
                }
            ],
            "payable": false,
            "stateMutability": "nonpayable",
            "type": "function"
        },
        {
            "constant": false,
            "inputs": [
                {
                    "name": "pxlPropertyContract",
                    "type": "address"
                }
            ],
            "name": "setPXLPropertyContract",
            "outputs": [],
            "payable": false,
            "stateMutability": "nonpayable",
            "type": "function"
        },
        {
            "constant": true,
            "inputs": [
                {
                    "name": "propertyIsInPrivateMode",
                    "type": "bool"
                },
                {
                    "name": "propertyLastUpdate",
                    "type": "uint256"
                },
                {
                    "name": "propertyEarnUntil",
                    "type": "uint256"
                }
            ],
            "name": "getProjectedPayout",
            "outputs": [
                {
                    "name": "",
                    "type": "uint256"
                }
            ],
            "payable": false,
            "stateMutability": "view",
            "type": "function"
        },
        {
            "constant": false,
            "inputs": [],
            "name": "withdrawAll",
            "outputs": [],
            "payable": false,
            "stateMutability": "nonpayable",
            "type": "function"
        },
        {
            "constant": false,
            "inputs": [
                {
                    "name": "propertyID",
                    "type": "uint16"
                },
                {
                    "name": "setPrivateMode",
                    "type": "bool"
                },
                {
                    "name": "numMinutesPrivate",
                    "type": "uint32"
                }
            ],
            "name": "setPropertyMode",
            "outputs": [],
            "payable": false,
            "stateMutability": "nonpayable",
            "type": "function"
        },
        {
            "constant": true,
            "inputs": [],
            "name": "getSystemSalePrices",
            "outputs": [
                {
                    "name": "",
                    "type": "uint256"
                },
                {
                    "name": "",
                    "type": "uint256"
                }
            ],
            "payable": false,
            "stateMutability": "view",
            "type": "function"
        },
        {
            "constant": false,
            "inputs": [
                {
                    "name": "text",
                    "type": "uint256[2]"
                }
            ],
            "name": "setHoverText",
            "outputs": [],
            "payable": false,
            "stateMutability": "nonpayable",
            "type": "function"
        },
        {
            "constant": false,
            "inputs": [
                {
                    "name": "propertyID",
                    "type": "uint16"
                },
                {
                    "name": "bidAmount",
                    "type": "uint256"
                }
            ],
            "name": "makeBid",
            "outputs": [],
            "payable": false,
            "stateMutability": "nonpayable",
            "type": "function"
        },
        {
            "constant": false,
            "inputs": [
                {
                    "name": "propertyID",
                    "type": "uint16"
                },
                {
                    "name": "price",
                    "type": "uint256"
                }
            ],
            "name": "listForSale",
            "outputs": [
                {
                    "name": "",
                    "type": "bool"
                }
            ],
            "payable": false,
            "stateMutability": "nonpayable",
            "type": "function"
        },
        {
            "constant": false,
            "inputs": [
                {
                    "name": "user",
                    "type": "address"
                },
                {
                    "name": "amount",
                    "type": "uint256"
                }
            ],
            "name": "addCoin",
            "outputs": [],
            "payable": false,
            "stateMutability": "nonpayable",
            "type": "function"
        },
        {
            "constant": true,
            "inputs": [
                {
                    "name": "propertyID",
                    "type": "uint16"
                }
            ],
            "name": "getForSalePrices",
            "outputs": [
                {
                    "name": "",
                    "type": "uint256"
                },
                {
                    "name": "",
                    "type": "uint256"
                }
            ],
            "payable": false,
            "stateMutability": "view",
            "type": "function"
        },
        {
            "constant": false,
            "inputs": [
                {
                    "name": "propertyID",
                    "type": "uint16"
                }
            ],
            "name": "delist",
            "outputs": [
                {
                    "name": "",
                    "type": "bool"
                }
            ],
            "payable": false,
            "stateMutability": "nonpayable",
            "type": "function"
        },
        {
            "constant": true,
            "inputs": [],
            "name": "isInGracePeriod",
            "outputs": [
                {
                    "name": "",
                    "type": "bool"
                }
            ],
            "payable": false,
            "stateMutability": "view",
            "type": "function"
        },
        {
            "constant": false,
            "inputs": [
                {
                    "name": "website",
                    "type": "uint256[2]"
                }
            ],
            "name": "setLink",
            "outputs": [],
            "payable": false,
            "stateMutability": "nonpayable",
            "type": "function"
        },
        {
            "constant": false,
            "inputs": [
                {
                    "name": "newOwner",
                    "type": "address"
                }
            ],
            "name": "changeOwners",
            "outputs": [],
            "payable": false,
            "stateMutability": "nonpayable",
            "type": "function"
        },
        {
            "constant": false,
            "inputs": [
                {
                    "name": "propertyID",
                    "type": "uint16"
                },
                {
                    "name": "pxlValue",
                    "type": "uint256"
                }
            ],
            "name": "buyProperty",
            "outputs": [
                {
                    "name": "",
                    "type": "bool"
                }
            ],
            "payable": true,
            "stateMutability": "payable",
            "type": "function"
        },
        {
            "inputs": [],
            "payable": false,
            "stateMutability": "nonpayable",
            "type": "constructor"
        },
        {
            "anonymous": false,
            "inputs": [
                {
                    "indexed": true,
                    "name": "property",
                    "type": "uint16"
                },
                {
                    "indexed": false,
                    "name": "colors",
                    "type": "uint256[5]"
                },
                {
                    "indexed": false,
                    "name": "lastUpdate",
                    "type": "uint256"
                },
                {
                    "indexed": true,
                    "name": "lastUpdaterPayee",
                    "type": "address"
                },
                {
                    "indexed": false,
                    "name": "becomePublic",
                    "type": "uint256"
                },
                {
                    "indexed": true,
                    "name": "rewardedCoins",
                    "type": "uint256"
                }
            ],
            "name": "PropertyColorUpdate",
            "type": "event"
        },
        {
            "anonymous": false,
            "inputs": [
                {
                    "indexed": true,
                    "name": "property",
                    "type": "uint16"
                },
                {
                    "indexed": true,
                    "name": "newOwner",
                    "type": "address"
                },
                {
                    "indexed": false,
                    "name": "ethAmount",
                    "type": "uint256"
                },
                {
                    "indexed": false,
                    "name": "PXLAmount",
                    "type": "uint256"
                },
                {
                    "indexed": false,
                    "name": "timestamp",
                    "type": "uint256"
                },
                {
                    "indexed": true,
                    "name": "oldOwner",
                    "type": "address"
                }
            ],
            "name": "PropertyBought",
            "type": "event"
        },
        {
            "anonymous": false,
            "inputs": [
                {
                    "indexed": true,
                    "name": "user",
                    "type": "address"
                },
                {
                    "indexed": false,
                    "name": "newHoverText",
                    "type": "uint256[2]"
                }
            ],
            "name": "SetUserHoverText",
            "type": "event"
        },
        {
            "anonymous": false,
            "inputs": [
                {
                    "indexed": true,
                    "name": "user",
                    "type": "address"
                },
                {
                    "indexed": false,
                    "name": "newLink",
                    "type": "uint256[2]"
                }
            ],
            "name": "SetUserSetLink",
            "type": "event"
        },
        {
            "anonymous": false,
            "inputs": [
                {
                    "indexed": true,
                    "name": "property",
                    "type": "uint16"
                },
                {
                    "indexed": false,
                    "name": "forSalePrice",
                    "type": "uint256"
                }
            ],
            "name": "PropertySetForSale",
            "type": "event"
        },
        {
            "anonymous": false,
            "inputs": [
                {
                    "indexed": true,
                    "name": "property",
                    "type": "uint16"
                }
            ],
            "name": "DelistProperty",
            "type": "event"
        },
        {
            "anonymous": false,
            "inputs": [
                {
                    "indexed": true,
                    "name": "property",
                    "type": "uint16"
                }
            ],
            "name": "SetPropertyPublic",
            "type": "event"
        },
        {
            "anonymous": false,
            "inputs": [
                {
                    "indexed": true,
                    "name": "property",
                    "type": "uint16"
                },
                {
                    "indexed": false,
                    "name": "numMinutesPrivate",
                    "type": "uint32"
                },
                {
                    "indexed": true,
                    "name": "rewardedUser",
                    "type": "address"
                },
                {
                    "indexed": true,
                    "name": "rewardedCoins",
                    "type": "uint256"
                }
            ],
            "name": "SetPropertyPrivate",
            "type": "event"
        },
        {
            "anonymous": false,
            "inputs": [
                {
                    "indexed": true,
                    "name": "property",
                    "type": "uint16"
                },
                {
                    "indexed": false,
                    "name": "bid",
                    "type": "uint256"
                },
                {
                    "indexed": false,
                    "name": "timestamp",
                    "type": "uint256"
                }
            ],
            "name": "Bid",
            "type": "event"
        }
    ],
    "bytecode": "0x60606040526003805461ff001960ff1990911660621716610100179055603c6005556000600655341561003157600080fd5b60008054600160a060020a03191633600160a060020a03161781556103e8600855664547258d1ec000600755426203f4800160045560098054680100000000000000006601000000000000600561ff0019909316610a001760ff19169290921767ffffffffffff0000191691909117604060020a61ffff0219161790556001805460a060020a60ff021916905561285b9081906100ce90396000f3006060604052600436106101245763ffffffff60e060020a60003504166309ddc58381146101295780630ad50c02146101925780631286d9e8146101b55780631bb2921b146101db5780631db93968146102075780631e7769de1461022d5780632e1a7d4d1461024957806332a428821461025f57806335b11b721461027c5780636b1ac900146102bf578063728516c2146102de578063853828b6146102fc578063a72aa1631461030f578063ab4c448714610337578063acd9930b14610362578063ae8130291461039e578063b047f245146103bb578063b4014879146103d8578063b4f6aa56146103fa578063ba08651814610414578063cf27d0161461042e578063d56a455514610441578063d7963f941461047d578063e829945a1461049c575b600080fd5b341561013457600080fd5b61014361ffff600435166104ae565b604051600160a060020a039097168752602087019590955260408087019490945260608601929092521515608085015260a084015263ffffffff90911660c083015260e0909101905180910390f35b6101a161ffff60043516610594565b604051901515815260200160405180910390f35b34156101c057600080fd5b6101a161ffff6004351660ff60243516604435606435610716565b34156101e657600080fd5b6101f561ffff6004351661093f565b60405190815260200160405180910390f35b341561021257600080fd5b6101a161ffff60043516600160a060020a03602435166109dc565b341561023857600080fd5b61024761ffff60043516610b02565b005b341561025457600080fd5b610247600435610c0c565b341561026a57600080fd5b61024761ffff60043516602435610c70565b341561028757600080fd5b6101a16004803561ffff169060c46024600560a06040519081016040529190828260a080828437509395505092359250610f3f915050565b34156102ca57600080fd5b610247600160a060020a03600435166111ae565b34156102e957600080fd5b6101f560043515156024356044356112a5565b341561030757600080fd5b610247611304565b341561031a57600080fd5b61024761ffff60043516602435151563ffffffff6044351661135f565b341561034257600080fd5b61034a611812565b60405191825260208201526040908101905180910390f35b341561036d57600080fd5b610247600460448160026040805190810160405280929190826002602002808284375093955061181c945050505050565b34156103a957600080fd5b61024761ffff60043516602435611915565b34156103c657600080fd5b6101a161ffff60043516602435611a69565b34156103e357600080fd5b610247600160a060020a0360043516602435611bbb565b341561040557600080fd5b61034a61ffff60043516611c58565b341561041f57600080fd5b6101a161ffff60043516611d7b565b341561043957600080fd5b6101a1611eba565b341561044c57600080fd5b6102476004604481600260408051908101604052809291908260026020028082843750939550611ec3945050505050565b341561048857600080fd5b610247600160a060020a0360043516611f9c565b6101a161ffff60043516602435611fe6565b6000806000806000806000876127108161ffff16101561058857600154600754600854600160a060020a039092169163b7b1e3cc918c91600060405160e0015260405160e060020a63ffffffff861602815261ffff90931660048401526024830191909152604482015260640160e060405180830381600087803b151561053457600080fd5b6102c65a03f1151561054557600080fd5b505050604051805190602001805190602001805190602001805190602001805190602001805190602001805190508060ff16905097509750975097509750975097505b50919395979092949650565b6000816127108161ffff16101561071057600154600160a060020a0316632ccaa3e98460006040516020015260405160e060020a63ffffffff841602815261ffff9091166004820152602401602060405180830381600087803b15156105f957600080fd5b6102c65a03f1151561060a57600080fd5b5050506040518051600160a060020a031615905061062757600080fd5b60075434101561063657600080fd5b60068054340190556009805461ffff6201000080830482166064018216810263ffff00001990931692909217928390556103e891909204909116106106fb576009805467ffff00000000000019811666010000000000009182900461ffff9081166001018116830291909117808455600754600a949390910490911691028115156106bd57fe5b048115156106c757fe5b600780549290910490910190556009805463ffff0000198116620100009182900461ffff9081166103e71901169091021790555b61070b8333346000806000612397565b600191505b50919050565b600080600080876127108161ffff16101561093357600a60ff89161061073b57600080fd5b6107448961093f565b9350610750898761249f565b1561092e57600154600160a060020a0316633953ca8b8a8a8a60405160e060020a63ffffffff861602815261ffff909316600484015260ff90911660248301526044820152606401600060405180830381600087803b15156107b157600080fd5b6102c65a03f115156107c257600080fd5b5050600154600160a060020a031690506363a6568f8a60006040516040015260405160e060020a63ffffffff841602815261ffff90911660048201526024016040805180830381600087803b151561081957600080fd5b6102c65a03f1151561082a57600080fd5b505050604051805190602001805160015492955093508591600160a060020a03808716925061ffff8d16917fdf630a0a8e935495f00b4eb29dc220bc326d500d01e41767674b995bc1833b51911663e86994ea8e600060405160a0015260405160e060020a63ffffffff841602815261ffff909116600482015260240160a060405180830381600087803b15156108c057600080fd5b6102c65a03f115156108d157600080fd5b5050506040518060a0016040524287604051808460a080838360005b838110156109055780820151838201526020016108ed565b50505050905001838152602001828152602001935050505060405180910390a460019450610933565b600094505b50505050949350505050565b600154600090819081908190600160a060020a0316631f12da0686836040516060015260405160e060020a63ffffffff841602815261ffff9091166004820152602401606060405180830381600087803b151561099b57600080fd5b6102c65a03f115156109ac57600080fd5b505050604051805190602001805190602001805190509250925092506109d38383836112a5565b95945050505050565b6000826127108161ffff161015610afb57600154600160a060020a033381169116632ccaa3e98660006040516020015260405160e060020a63ffffffff841602815261ffff9091166004820152602401602060405180830381600087803b1515610a4557600080fd5b6102c65a03f11515610a5657600080fd5b50505060405180519050600160a060020a0316141515610a7557600080fd5b600154610af690859085906000908190600160a060020a03166398864aaf85836040516020015260405160e060020a63ffffffff841602815261ffff9091166004820152602401602060405180830381600087803b1515610ad557600080fd5b6102c65a03f11515610ae657600080fd5b5050506040518051905033612397565b600191505b5092915050565b600080826127108161ffff161015610c0657600154600160a060020a031663ab383a6b8560006040516040015260405160e060020a63ffffffff841602815261ffff90911660048201526024016040805180830381600087803b1515610b6757600080fd5b6102c65a03f11515610b7857600080fd5b5050506040518051906020018051905092509250828015610b9857504282105b15610c0657600154600160a060020a0316634b1ec20c85600060405160e060020a63ffffffff851602815261ffff909216600483015215156024820152604401600060405180830381600087803b1515610bf157600080fd5b6102c65a03f11515610c0257600080fd5b5050505b50505050565b60005433600160a060020a03908116911614610c2757600080fd5b6006548111610c6d57600054600160a060020a031681156108fc0282604051600060405180830381858888f193505050501515610c6357600080fd5b6006805482900390555b50565b600080600080856127108161ffff161015610c0257600154600160a060020a031663cf09e8208860006040516040015260405160e060020a63ffffffff841602815261ffff90911660048201526024016040805180830381600087803b1515610cd857600080fd5b6102c65a03f11515610ce957600080fd5b505050604051805190602001805190509450945084925084600160a060020a031660001415610e7357600154600054600854600160a060020a03928316926345ede900928b9291169060405160e060020a63ffffffff861602815261ffff9093166004840152600160a060020a0390911660248301526044820152606401600060405180830381600087803b1515610d8057600080fd5b6102c65a03f11515610d9157600080fd5b50506000546008546009805461ffff64010000000080830482166064018216810265ffff00000000199093169290921792839055600160a060020a0390941699509197506103e8919004909116109050610e73576009805469ffff0000000000000000198116680100000000000000009182900461ffff9081166001018116830291909117808455600854600a94939091049091169102811515610e3157fe5b04811515610e3b57fe5b600880549290910490910190556009805465ffff000000001981166401000000009182900461ffff9081166103e71901169091021790555b85841115610e8057600080fd5b60035460649060ff168502600154600054929091049350600160a060020a039081169163121c2b3591339188918a9188911681840360405160e060020a63ffffffff8916028152600160a060020a039687166004820152602481019590955292851660448501526064840191909152909216608482015260a481019190915260c401600060405180830381600087803b1515610f1b57600080fd5b6102c65a03f11515610f2c57600080fd5b505050610c028733600087600088612397565b600080600080866127108161ffff1610156111a357610f5d8861093f565b9350610f69888761249f565b1561119e57600154600160a060020a031663eb39bc90898960405160e060020a63ffffffff851602815261ffff831660048201908152906024018260a080838360005b83811015610fc4578082015183820152602001610fac565b5050505090500192505050600060405180830381600087803b1515610fe857600080fd5b6102c65a03f11515610ff957600080fd5b5050600154600160a060020a031690506363a6568f8960006040516040015260405160e060020a63ffffffff841602815261ffff90911660048201526024016040805180830381600087803b151561105057600080fd5b6102c65a03f1151561106157600080fd5b50505060405180519060200180519050925092508383600160a060020a03168961ffff167fdf630a0a8e935495f00b4eb29dc220bc326d500d01e41767674b995bc1833b518a4287604051808460a080838360005b838110156110ce5780820151838201526020016110b6565b50505050905001838152602001828152602001935050505060405180910390a461ffff881660009081526002602052604090205460ff16151561119557600154600160a060020a03166326728b1433601960405160e060020a63ffffffff8516028152600160a060020a0390921660048301526024820152604401600060405180830381600087803b151561116257600080fd5b6102c65a03f1151561117357600080fd5b50505061ffff88166000908152600260205260409020805460ff191660011790555b600194506111a3565b600094505b505050509392505050565b6000805481908190819033600160a060020a039081169116146111d057600080fd5b6001805473ffffffffffffffffffffffffffffffffffffffff1916600160a060020a038716179081905574010000000000000000000000000000000000000000900460ff16151561129e57602d935060009250600091505b600a8261ffff16101561126857506000805460648402858401019161125d918391600160a060020a0390911690808080612397565b816001019150611228565b6001805474ff00000000000000000000000000000000000000001916740100000000000000000000000000000000000000001790555b5050505050565b6000806000851580156112b757508415155b156112f6578342106112c957836112cb565b425b91506005548583038115156112dc57fe5b60035491900461010090910460ff168102935090506112fb565b600092505b50509392505050565b60005433600160a060020a0390811691161461131f57600080fd5b600054600654600160a060020a039091169080156108fc0290604051600060405180830381858888f19350505050151561135857600080fd5b6000600655565b6000806000806000806000806000808c6127108161ffff16101561180257600154600160a060020a03166369a4c4e78f6000604051610100015260405160e060020a63ffffffff841602815261ffff909116600482015260240161010060405180830381600087803b15156113d357600080fd5b6102c65a03f115156113e457600080fd5b505050604051805190602001805190602001805190602001805190602001805190602001805190602001805190602001805190509a509a509a509a509a509a509a509a5088600160a060020a031633600160a060020a031614151561144857600080fd5b60009250600091508c1561166a5789806114625750428511155b8061147e575033600160a060020a031688600160a060020a0316145b151561148957600080fd5b600063ffffffff8d161161149c57600080fd5b60015463ffffffff8d1690600160a060020a03166370a082313360006040516020015260405160e060020a63ffffffff8416028152600160a060020a039091166004820152602401602060405180830381600087803b15156114fd57600080fd5b6102c65a03f1151561150e57600080fd5b505050604051805190501015151561152557600080fd5b8b63ffffffff16600554024201925061153f8a87866112a5565b91506000821180156115595750600160a060020a03881615155b156115f657600154600160a060020a031663121c2b35338e8b86838160405163ffffffff88811660e060020a028252600160a060020a03978816600483015295909516602486015292851660448501526064840191909152909216608482015260a481019190915260c401600060405180830381600087803b15156115dd57600080fd5b6102c65a03f115156115ee57600080fd5b505050611665565b600154600160a060020a031663f6f8ca07338e60405163ffffffff84811660e060020a028252600160a060020a0393909316600482015291166024820152604401600060405180830381600087803b151561165057600080fd5b6102c65a03f1151561166157600080fd5b5050505b6116fd565b89801561167657504285115b156116fd5760018054600554600160a060020a03909116916326728b1491339190428a038115156116a357fe5b040360405160e060020a63ffffffff8516028152600160a060020a0390921660048301526024820152604401600060405180830381600087803b15156116e857600080fd5b6102c65a03f115156116f957600080fd5b5050505b600154600160a060020a031663886b148d8f8f6000808860405160e060020a63ffffffff881602815261ffff9095166004860152921515602485015260448401919091526064830152608482015260a401600060405180830381600087803b151561176757600080fd5b6102c65a03f1151561177857600080fd5b5050508c156117d0578188600160a060020a03168f61ffff167fa21d884986f2c87cfb81054448f66071c9363735665db28d236c882a5c0917968f60405163ffffffff909116815260200160405180910390a4611802565b8d61ffff167f3f7bf071636ed8429b752f79e5cd881beb27062a4d0092050a0fc633850d387d60405160405180910390a25b5050505050505050505050505050565b6007546008549091565b600154600160a060020a031663606bc9a5338360405160e060020a63ffffffff8516028152600160a060020a038316600482019081529060240182604080838360005b8381101561187757808201518382015260200161185f565b5050505090500192505050600060405180830381600087803b151561189b57600080fd5b6102c65a03f115156118ac57600080fd5b50505033600160a060020a03167fb05ccb51f2408b99be7026712c574396fced9c3e0480bf7b8f8874d8c830b7cc826040518082604080838360005b838110156119005780820151838201526020016118e8565b5050505090500191505060405180910390a250565b816127108161ffff161015611a64576000821161193157600080fd5b6001805490830190600160a060020a03166370a082313360006040516020015260405160e060020a63ffffffff8416028152600160a060020a039091166004820152602401602060405180830381600087803b151561198f57600080fd5b6102c65a03f115156119a057600080fd5b50505060405180519050101515156119b757600080fd5b8261ffff167f606e2d57e3221093069398002086bf333ae29b8033fc68ddf70c7a4516b530f8834260405191825260208201526040908101905180910390a260018054600160a060020a03169063f6f8ca0790339060405160e060020a63ffffffff8516028152600160a060020a0390921660048301526024820152604401600060405180830381600087803b1515611a4f57600080fd5b6102c65a03f11515611a6057600080fd5b5050505b505050565b6000826127108161ffff161015610afb57821515611a8657600080fd5b600154600160a060020a0316632ccaa3e98560006040516020015260405160e060020a63ffffffff841602815261ffff9091166004820152602401602060405180830381600087803b1515611ada57600080fd5b6102c65a03f11515611aeb57600080fd5b50505060405180519050600160a060020a031633600160a060020a0316141515611b1457600080fd5b600154600160a060020a0316636d87b65c858560405160e060020a63ffffffff851602815261ffff90921660048301526024820152604401600060405180830381600087803b1515611b6557600080fd5b6102c65a03f11515611b7657600080fd5b5050508361ffff167ffbf70f26ac04d08c24acb352205513f53182e26fe61c050a6dd445a584cd14518460405190815260200160405180910390a25060019392505050565b60005433600160a060020a03908116911614611bd657600080fd5b60005433600160a060020a03908116911614611bf157600080fd5b600154600160a060020a03166326728b14838360405160e060020a63ffffffff8516028152600160a060020a0390921660048301526024820152604401600060405180830381600087803b1515611c4757600080fd5b6102c65a03f1151561129e57600080fd5b600080826127108161ffff161015611d7557600154600160a060020a0316632ccaa3e98560006040516020015260405160e060020a63ffffffff841602815261ffff9091166004820152602401602060405180830381600087803b1515611cbe57600080fd5b6102c65a03f11515611ccf57600080fd5b5050506040518051600160a060020a031615159050611cf957611cf0611812565b92509250611d75565b600154600090600160a060020a0316631bbc795286836040516020015260405160e060020a63ffffffff841602815261ffff9091166004820152602401602060405180830381600087803b1515611d4f57600080fd5b6102c65a03f11515611d6057600080fd5b5050506040518051919450909250611d759050565b50915091565b6000816127108161ffff16101561071057600154600160a060020a0316632ccaa3e98460006040516020015260405160e060020a63ffffffff841602815261ffff9091166004820152602401602060405180830381600087803b1515611de057600080fd5b6102c65a03f11515611df157600080fd5b50505060405180519050600160a060020a031633600160a060020a0316141515611e1a57600080fd5b600154600160a060020a0316636d87b65c84600060405160e060020a63ffffffff851602815261ffff90921660048301526024820152604401600060405180830381600087803b1515611e6c57600080fd5b6102c65a03f11515611e7d57600080fd5b5050508261ffff167f01a14d3ac14361bc1087c805becdb2946b166a265e22798f7011f3a9e8b5fc6c60405160405180910390a250600192915050565b60045442111590565b600154600160a060020a0316636fcdcb3e338360405160e060020a63ffffffff8516028152600160a060020a038316600482019081529060240182604080838360005b83811015611f1e578082015183820152602001611f06565b5050505090500192505050600060405180830381600087803b1515611f4257600080fd5b6102c65a03f11515611f5357600080fd5b50505033600160a060020a03167f4d267d545ed24f4a32ae8dafe3dd6b7015cf92b46e36306b74986fc9288964a7826040518082604080838360008151838201526020016118e8565b60005433600160a060020a03908116911614611fb757600080fd5b6000805473ffffffffffffffffffffffffffffffffffffffff1916600160a060020a0392909216919091179055565b6000806000846127108161ffff16101561238e57600154600160a060020a0316632ccaa3e98760006040516020015260405160e060020a63ffffffff841602815261ffff9091166004820152602401602060405180830381600087803b151561204e57600080fd5b6102c65a03f1151561205f57600080fd5b5050506040518051600160a060020a031615905061207c57600080fd5b6001548590600160a060020a03166370a082313360006040516020015260405160e060020a63ffffffff8416028152600160a060020a039091166004820152602401602060405180830381600087803b15156120d757600080fd5b6102c65a03f115156120e857600080fd5b50505060405180519050101515156120ff57600080fd5b84151561210b57600080fd5b60085485111561211a57600080fd5b846008540392508260085460075481151561213157fe5b04029150348290101561214357600080fd5b600154600054600160a060020a0391821691632a3967349133918991168160405160e060020a63ffffffff8716028152600160a060020a0394851660048201526024810193909352921660448201526064810191909152608401600060405180830381600087803b15156121b657600080fd5b6102c65a03f115156121c757600080fd5b505050600854856064028115156121da57fe5b6009805461ffff640100000000808304821695909404949094018416830265ffff000000001990911617908190556103e8919004909116106122a4576009805469ffff0000000000000000198116680100000000000000009182900461ffff9081166001018116830291909117808455600854600a9493909104909116910281151561226257fe5b0481151561226c57fe5b600880549290910490910190556009805465ffff000000001981166401000000009182900461ffff9081166103e71901169091021790555b6006805434019055600854606484028115156122bc57fe5b6009805461ffff62010000808304821695909404949094018416830263ffff00001990911617908190556103e89190049091161061237a576009805467ffff00000000000019811666010000000000009182900461ffff9081166001018116830291909117808455600754600a9493909104909116910281151561233c57fe5b0481151561234657fe5b600780549290910490910190556009805463ffff0000198116620100009182900461ffff9081166103e71901169091021790555b61238986333488600080612397565b600193505b50505092915050565b600160a060020a03851615156123ac57600080fd5b600154600160a060020a031663b9e58ab087876000808760405160e060020a63ffffffff881602815261ffff9095166004860152600160a060020a03909316602485015260448401919091521515606483015260ff16608482015260a401600060405180830381600087803b151561242357600080fd5b6102c65a03f1151561243457600080fd5b50505080600160a060020a031685600160a060020a03168761ffff167f75d46023a8160c0896514b1afdbbaf5d7b2175bb0ef87ee9c94df9e7455f962787874260405180848152602001838152602001828152602001935050505060405180910390a4505050505050565b6000806000806000806000806000806000600160009054906101000a9004600160a060020a0316600160a060020a03166369a4c4e78e6000604051610100015260405160e060020a63ffffffff841602815261ffff909116600482015260240161010060405180830381600087803b151561251957600080fd5b6102c65a03f1151561252a57600080fd5b505050604051805190602001805190602001805190602001805190602001805190602001805190602001805190602001805190509950995099509950995099509950995088801561257b5750428411155b156125ed57600154600160a060020a0316634b1ec20c8e600060405160e060020a63ffffffff851602815261ffff909216600483015215156024820152604401600060405180830381600087803b15156125d457600080fd5b6102c65a03f115156125e557600080fd5b505050600098505b88156126295787600160a060020a031633600160a060020a031614151561261357600080fd5b600260ff8b16141561262457600080fd5b6127a4565b4284111580612649575033600160a060020a031687600160a060020a0316145b1561279b578b600101915060028c1080156126675750612667611eba565b1561267157600391505b61267c8986856112a5565b600154909150600160a060020a031663121c2b35338e8a858d8160405160e060020a63ffffffff8916028152600160a060020a039687166004820152602481019590955292851660448501526064840191909152909216608482015260a481019190915260c401600060405180830381600087803b15156126fc57600080fd5b6102c65a03f1151561270d57600080fd5b5050600154600554600160a060020a03909116915063c575200d908f9060029086020442016005548660050202420160405160e060020a63ffffffff861602815261ffff909316600484015260248301919091526044820152606401600060405180830381600087803b151561278257600080fd5b6102c65a03f1151561279357600080fd5b5050506127a4565b60009a5061281f565b600154600160a060020a03166315f590338e334260405160e060020a63ffffffff861602815261ffff9093166004840152600160a060020a0390911660248301526044820152606401600060405180830381600087803b151561280657600080fd5b6102c65a03f1151561281757600080fd5b50505060019a505b50505050505050505050929150505600a165627a7a7230582050ec99c92ee335a75d8682da91b1f97aa0e5e46cf53caee4932e1df9b72a3b3f0029",
    "source": "pragma solidity ^0.4.2;\nimport \"./PXLProperty.sol\";\n\n// PixelProperty\ncontract VirtualRealEstate {\n    /* ### Variables ### */\n    // Contract owner\n    address owner;\n    PXLProperty pxlProperty;\n    \n    bool initialPropertiesReserved;\n    \n    mapping (uint16 => bool) hasBeenSet;\n    \n    // The amount in % for which a user is paid\n    uint8 USER_BUY_CUT_PERCENT = 98;\n    // Maximum amount of generated PXL a property can give away per minute\n    uint8 PROPERTY_GENERATES_PER_MINUTE = 1;\n    // The point in time when the initial grace period is over, and users get the default values based on coins burned\n    uint256 GRACE_PERIOD_END_TIMESTAMP;\n    // The amount of time required for a Property to generate tokens for payouts\n    uint256 PROPERTY_GENERATION_PAYOUT_INTERVAL = (1 minutes); //Generation amount\n    \n    uint256 ownerEth = 0; // Amount of ETH the contract owner is entitled to withdraw (only Root account can do withdraws)\n    \n    // The current system prices of ETH and PXL, for which unsold Properties are listed for sale at\n    uint256 systemSalePriceETH;\n    uint256 systemSalePricePXL;\n    uint8 systemPixelIncreasePercent;\n    uint8 systemPriceIncreaseStep;\n    uint16 systemETHStepTally;\n    uint16 systemPXLStepTally;\n    uint16 systemETHStepCount;\n    uint16 systemPXLStepCount;\n\n    /* ### Events ### */\n    event PropertyColorUpdate(uint16 indexed property, uint256[5] colors, uint256 lastUpdate, address indexed lastUpdaterPayee, uint256 becomePublic, uint256 indexed rewardedCoins);\n    event PropertyBought(uint16 indexed property, address indexed newOwner, uint256 ethAmount, uint256 PXLAmount, uint256 timestamp, address indexed oldOwner);\n    event SetUserHoverText(address indexed user, uint256[2] newHoverText);\n    event SetUserSetLink(address indexed user, uint256[2] newLink);\n    event PropertySetForSale(uint16 indexed property, uint256 forSalePrice);\n    event DelistProperty(uint16 indexed property);\n    event SetPropertyPublic(uint16 indexed property);\n    event SetPropertyPrivate(uint16 indexed property, uint32 numMinutesPrivate, address indexed rewardedUser, uint256 indexed rewardedCoins);\n    event Bid(uint16 indexed property, uint256 bid, uint256 timestamp);\n    \n    /* ### MODIFIERS ### */\n\n    // Only the contract owner can call these methods\n    modifier ownerOnly() {\n        require(owner == msg.sender);\n        _;\n    }\n    \n    // Can only be called on Properties referecing a valid PropertyID\n    modifier validPropertyID(uint16 propertyID) {\n        if (propertyID < 10000) {\n            _;\n        }\n    }\n    \n    /* ### PUBLICALLY INVOKABLE FUNCTIONS ### */\n    \n    /* CONSTRUCTOR */\n    function VirtualRealEstate() public {\n        owner = msg.sender; // Default the owner to be whichever Ethereum account created the contract\n        systemSalePricePXL = 1000; //Initial PXL system price\n        systemSalePriceETH = 19500000000000000; //Initial ETH system price\n        GRACE_PERIOD_END_TIMESTAMP = now + 3 days; // Give all users extra functionality for the first three days\n        systemPriceIncreaseStep = 10;\n        systemPixelIncreasePercent = 5;\n        systemETHStepTally = 0;\n        systemPXLStepTally = 0;\n        systemETHStepCount = 1;\n        systemPXLStepCount = 1;\n        initialPropertiesReserved = false;\n    }\n    \n    function setPXLPropertyContract(address pxlPropertyContract) public ownerOnly() {\n        pxlProperty = PXLProperty(pxlPropertyContract);\n        if (!initialPropertiesReserved) {\n            uint16 xReserved = 45;\n            uint16 yReserved = 0;\n            for(uint16 x = 0; x < 10; ++x) {\n                uint16 propertyID = (yReserved) * 100 + (xReserved + x);\n                _transferProperty(propertyID, owner, 0, 0, 0, 0);\n            }\n            initialPropertiesReserved = true;\n        }\n    }\n    \n    /* USER FUNCTIONS */\n    \n    // Property owners can change their hoverText for when a user mouses over their Properties\n    function setHoverText(uint256[2] text) public {\n        pxlProperty.setOwnerHoverText(msg.sender, text);\n        SetUserHoverText(msg.sender, text);\n    }\n    \n    // Property owners can change the clickable link for when a user clicks on their Properties\n    function setLink(uint256[2] website) public {\n        pxlProperty.setOwnerLink(msg.sender, website);\n        SetUserSetLink(msg.sender, website);\n    }\n    \n    // If a Property is private which has expired, make it public\n    function tryForcePublic(uint16 propertyID) public validPropertyID(propertyID) { \n        var (isInPrivateMode, becomePublic) = pxlProperty.getPropertyPrivateModeBecomePublic(propertyID);\n        if (isInPrivateMode && becomePublic < now) {\n            pxlProperty.setPropertyPrivateMode(propertyID, false);\n        }\n    }\n    \n    // Update the 10x10 image data for a Property, triggering potential payouts if it succeeds\n    function setColors(uint16 propertyID, uint256[5] newColors, uint256 PXLToSpend) public validPropertyID(propertyID) returns(bool) {\n        uint256 projectedPayout = getProjectedPayout(propertyID);\n        if (_tryTriggerPayout(propertyID, PXLToSpend)) {\n            pxlProperty.setPropertyColors(propertyID, newColors);\n            var (lastUpdater, becomePublic) = pxlProperty.getPropertyLastUpdaterBecomePublic(propertyID);\n            PropertyColorUpdate(propertyID, newColors, now, lastUpdater, becomePublic, projectedPayout);\n            // The first user to set a Properties color ever is awarded extra PXL due to eating the extra GAS cost of creating the uint256[5]\n            if (!hasBeenSet[propertyID]) {\n                pxlProperty.rewardPXL(msg.sender, 25);\n                hasBeenSet[propertyID] = true;\n            }\n            return true;\n        }\n        return false;\n    }\n    \n    // Update a row of image data for a Property, triggering potential payouts if it succeeds\n    function setRowColors(uint16 propertyID, uint8 row, uint256 newColorData, uint256 PXLToSpend) public validPropertyID(propertyID) returns(bool) {\n        require(row < 10);\n        uint256 projectedPayout = getProjectedPayout(propertyID);\n        if (_tryTriggerPayout(propertyID, PXLToSpend)) {\n            pxlProperty.setPropertyRowColor(propertyID, row, newColorData);\n            var (lastUpdater, becomePublic) = pxlProperty.getPropertyLastUpdaterBecomePublic(propertyID);\n            PropertyColorUpdate(propertyID, pxlProperty.getPropertyColors(propertyID), now, lastUpdater, becomePublic, projectedPayout);\n            return true;\n        }\n        return false;\n    }\n    // Property owners can toggle their Properties between private mode and free-use mode\n    function setPropertyMode(uint16 propertyID, bool setPrivateMode, uint32 numMinutesPrivate) public validPropertyID(propertyID) {\n        var (propertyFlag, propertyIsInPrivateMode, propertyOwner, propertyLastUpdater, propertySalePrice, propertyLastUpdate, propertyBecomePublic, propertyEarnUntil) = pxlProperty.properties(propertyID);\n        \n        require(msg.sender == propertyOwner);\n        uint256 whenToBecomePublic = 0;\n        uint256 rewardedAmount = 0;\n        \n        if (setPrivateMode) {\n            //If inprivate, we can extend the duration, otherwise if becomePublic > now it means a free-use user locked it\n            require(propertyIsInPrivateMode || propertyBecomePublic <= now || propertyLastUpdater == msg.sender ); \n            require(numMinutesPrivate > 0);\n            require(pxlProperty.balanceOf(msg.sender) >= numMinutesPrivate);\n            // Determines when the Property becomes public, one payout interval per coin burned\n            whenToBecomePublic = now + PROPERTY_GENERATION_PAYOUT_INTERVAL * numMinutesPrivate;\n\n            rewardedAmount = getProjectedPayout(propertyIsInPrivateMode, propertyLastUpdate, propertyEarnUntil);\n            if (rewardedAmount > 0 && propertyLastUpdater != 0) {\n                pxlProperty.burnPXLRewardPXLx2(msg.sender, numMinutesPrivate, propertyLastUpdater, rewardedAmount, msg.sender, rewardedAmount);\n            } else {\n                pxlProperty.burnPXL(msg.sender, numMinutesPrivate);\n            }\n\n        } else {\n            // If its in private mode and still has time left, reimburse them for N-1 minutes tokens back\n            if (propertyIsInPrivateMode && propertyBecomePublic > now) {\n                pxlProperty.rewardPXL(msg.sender, ((propertyBecomePublic - now) / PROPERTY_GENERATION_PAYOUT_INTERVAL) - 1);\n            }\n        }\n        \n        pxlProperty.setPropertyPrivateModeEarnUntilLastUpdateBecomePublic(propertyID, setPrivateMode, 0, 0, whenToBecomePublic);\n        \n        if (setPrivateMode) {\n            SetPropertyPrivate(propertyID, numMinutesPrivate, propertyLastUpdater, rewardedAmount);\n        } else {\n            SetPropertyPublic(propertyID);\n        }\n    }\n    // Transfer Property ownership between accounts. This has no cost, no cut and does not change flag status\n    function transferProperty(uint16 propertyID, address newOwner) public validPropertyID(propertyID) returns(bool) {\n        require(pxlProperty.getPropertyOwner(propertyID) == msg.sender);\n        _transferProperty(propertyID, newOwner, 0, 0, pxlProperty.getPropertyFlag(propertyID), msg.sender);\n        return true;\n    }\n    // Purchase a unowned system-Property in a combination of PXL and ETH\n    function buyProperty(uint16 propertyID, uint256 pxlValue) public validPropertyID(propertyID) payable returns(bool) {\n        //Must be the first purchase, otherwise do it with PXL from another user\n        require(pxlProperty.getPropertyOwner(propertyID) == 0);\n        // Must be able to afford the given PXL\n        require(pxlProperty.balanceOf(msg.sender) >= pxlValue);\n        require(pxlValue != 0);\n        \n        // Protect against underflow\n        require(pxlValue <= systemSalePricePXL);\n        uint256 pxlLeft = systemSalePricePXL - pxlValue;\n        uint256 ethLeft = systemSalePriceETH / systemSalePricePXL * pxlLeft;\n        \n        // Must have spent enough ETH to cover the ETH left after PXL price was subtracted\n        require(msg.value >= ethLeft);\n        \n        pxlProperty.burnPXLRewardPXL(msg.sender, pxlValue, owner, pxlValue);\n        \n        systemPXLStepTally += uint16(100 * pxlValue / systemSalePricePXL);\n        if (systemPXLStepTally >= 1000) {\n             systemPXLStepCount++;\n            systemSalePricePXL += systemSalePricePXL * 9 / systemPXLStepCount / 10;\n            systemPXLStepTally -= 1000;\n        }\n        \n        ownerEth += msg.value;\n\n        systemETHStepTally += uint16(100 * pxlLeft / systemSalePricePXL);\n        if (systemETHStepTally >= 1000) {\n            systemETHStepCount++;\n            systemSalePriceETH += systemSalePriceETH * 9 / systemETHStepCount / 10;\n            systemETHStepTally -= 1000;\n        }\n\n        _transferProperty(propertyID, msg.sender, msg.value, pxlValue, 0, 0);\n        \n        return true;\n    }\n    // Purchase a listed user-owner Property in PXL\n    function buyPropertyInPXL(uint16 propertyID, uint256 PXLValue) public validPropertyID(propertyID) {\n        // If Property is system-owned\n        var (propertyOwner, propertySalePrice) = pxlProperty.getPropertyOwnerSalePrice(propertyID);\n        address originalOwner = propertyOwner;\n        if (propertyOwner == 0) {\n            // Turn it into a user-owned at system price with contract owner as owner\n            pxlProperty.setPropertyOwnerSalePrice(propertyID, owner, systemSalePricePXL);\n            propertyOwner = owner;\n            propertySalePrice = systemSalePricePXL;\n            // Increase system PXL price\n            systemPXLStepTally += 100;\n            if (systemPXLStepTally >= 1000) {\n                systemPXLStepCount++;\n                systemSalePricePXL += systemSalePricePXL * 9 / systemPXLStepCount / 10;\n                systemPXLStepTally -= 1000;\n            }\n        }\n        require(propertySalePrice <= PXLValue);\n        uint256 amountTransfered = propertySalePrice * USER_BUY_CUT_PERCENT / 100;\n        pxlProperty.burnPXLRewardPXLx2(msg.sender, propertySalePrice, propertyOwner, amountTransfered, owner, (propertySalePrice - amountTransfered));        \n        _transferProperty(propertyID, msg.sender, 0, propertySalePrice, 0, originalOwner);\n    }\n\n    // Purchase a system-Property in pure ETH\n    function buyPropertyInETH(uint16 propertyID) public validPropertyID(propertyID) payable returns(bool) {\n        require(pxlProperty.getPropertyOwner(propertyID) == 0);\n        require(msg.value >= systemSalePriceETH);\n        \n        ownerEth += msg.value;\n        systemETHStepTally += 100;\n        if (systemETHStepTally >= 1000) {\n            systemETHStepCount++;\n            systemSalePriceETH += systemSalePriceETH * 9 / systemETHStepCount / 10;\n            systemETHStepTally -= 1000;\n        }\n        _transferProperty(propertyID, msg.sender, msg.value, 0, 0, 0);\n        return true;\n    }\n    \n    // Property owner lists their Property for sale at their preferred price\n    function listForSale(uint16 propertyID, uint256 price) public validPropertyID(propertyID) returns(bool) {\n        require(price != 0);\n        require(msg.sender == pxlProperty.getPropertyOwner(propertyID));\n        pxlProperty.setPropertySalePrice(propertyID, price);\n        PropertySetForSale(propertyID, price);\n        return true;\n    }\n    \n    // Property owner delists their Property from being for sale\n    function delist(uint16 propertyID) public validPropertyID(propertyID) returns(bool) {\n        require(msg.sender == pxlProperty.getPropertyOwner(propertyID));\n        pxlProperty.setPropertySalePrice(propertyID, 0);\n        DelistProperty(propertyID);\n        return true;\n    }\n\n    // Make a public bid and notify a Property owner of your bid. Burn 1 coin\n    function makeBid(uint16 propertyID, uint256 bidAmount) public validPropertyID(propertyID) {\n        require(bidAmount > 0);\n        require(pxlProperty.balanceOf(msg.sender) >= 1 + bidAmount);\n        Bid(propertyID, bidAmount, now);\n        pxlProperty.burnPXL(msg.sender, 1);\n    }\n    \n    /* CONTRACT OWNER FUNCTIONS */\n    \n    // Contract owner can withdraw up to ownerEth amount\n    function withdraw(uint256 amount) public ownerOnly() {\n        if (amount <= ownerEth) {\n            owner.transfer(amount);\n            ownerEth -= amount;\n        }\n    }\n    \n    // Contract owner can withdraw ownerEth amount\n    function withdrawAll() public ownerOnly() {\n        owner.transfer(ownerEth);\n        ownerEth = 0;\n    }\n    \n    // Contract owner can change who is the contract owner\n    function changeOwners(address newOwner) public ownerOnly() {\n        owner = newOwner;\n    }\n    \n    /* ## PRIVATE FUNCTIONS ## */\n    \n    // Function which wraps payouts for setColors\n    function _tryTriggerPayout(uint16 propertyID, uint256 pxlToSpend) private returns(bool) {\n        var (propertyFlag, propertyIsInPrivateMode, propertyOwner, propertyLastUpdater, propertySalePrice, propertyLastUpdate, propertyBecomePublic, propertyEarnUntil) = pxlProperty.properties(propertyID);\n        //If the Property is in private mode and expired, make it public\n        if (propertyIsInPrivateMode && propertyBecomePublic <= now) {\n            pxlProperty.setPropertyPrivateMode(propertyID, false);\n            propertyIsInPrivateMode = false;\n        }\n        //If its in private mode, only the owner can interact with it\n        if (propertyIsInPrivateMode) {\n            require(msg.sender == propertyOwner);\n            require(propertyFlag != 2);\n        //If if its in free-use mode\n        } else if (propertyBecomePublic <= now || propertyLastUpdater == msg.sender) {\n            uint256 pxlSpent = pxlToSpend + 1; //All pxlSpent math uses N+1, so built in for convenience\n            if (pxlToSpend < 2 && isInGracePeriod()) { //If first 3 days and we spent <2 coins, treat it as if we spent 2\n                pxlSpent = 3; //We're treating it like 2, but it's N+1 in the math using this\n            }\n            \n            uint256 projectedAmount = getProjectedPayout(propertyIsInPrivateMode, propertyLastUpdate, propertyEarnUntil );\n            pxlProperty.burnPXLRewardPXLx2(msg.sender, pxlToSpend, propertyLastUpdater, projectedAmount, propertyOwner, projectedAmount);\n            \n            //BecomePublic = (N+1)/2 minutes of user-private mode\n            //EarnUntil = (N+1)*5 coins earned max/minutes we can earn from\n            pxlProperty.setPropertyBecomePublicEarnUntil(propertyID, now + (pxlSpent * PROPERTY_GENERATION_PAYOUT_INTERVAL / 2), now + (pxlSpent * 5 * PROPERTY_GENERATION_PAYOUT_INTERVAL));\n        } else {\n            return false;\n        }\n        pxlProperty.setPropertyLastUpdaterLastUpdate(propertyID, msg.sender, now);\n        return true;\n    }\n    // Transfer ownership of a Property and reset their info\n    function _transferProperty(uint16 propertyID, address newOwner, uint256 ethAmount, uint256 PXLAmount, uint8 flag, address oldOwner) private {\n        require(newOwner != 0);\n        pxlProperty.setPropertyOwnerSalePricePrivateModeFlag(propertyID, newOwner, 0, false, flag);\n        PropertyBought(propertyID, newOwner, ethAmount, PXLAmount, now, oldOwner);\n    }\n    \n    // Gets the (owners address, Ethereum sale price, PXL sale price, last update timestamp, whether its in private mode or not, when it becomes public timestamp, flag) for a Property\n    function getPropertyData(uint16 propertyID) public validPropertyID(propertyID) view returns(address, uint256, uint256, uint256, bool, uint256, uint32) {\n        return pxlProperty.getPropertyData(propertyID, systemSalePriceETH, systemSalePricePXL);\n    }\n    \n    // Gets the system ETH and PXL prices\n    function getSystemSalePrices() public view returns(uint256, uint256) {\n        return (systemSalePriceETH, systemSalePricePXL);\n    }\n    \n    // Gets the sale prices of any Property in ETH and PXL\n    function getForSalePrices(uint16 propertyID) public validPropertyID(propertyID) view returns(uint256, uint256) {\n        if (pxlProperty.getPropertyOwner(propertyID) == 0) {\n            return getSystemSalePrices();\n        } else {\n            return (0, pxlProperty.getPropertySalePrice(propertyID));\n        }\n    }\n    \n    // Gets the projected sale price for a property should it be triggered at this very moment\n    function getProjectedPayout(uint16 propertyID) public view returns(uint256) {\n        var (propertyIsInPrivateMode, propertyLastUpdate, propertyEarnUntil) = pxlProperty.getPropertyPrivateModeLastUpdateEarnUntil(propertyID);\n        return getProjectedPayout(propertyIsInPrivateMode, propertyLastUpdate, propertyEarnUntil);\n    }\n    \n    function getProjectedPayout(bool propertyIsInPrivateMode, uint256 propertyLastUpdate, uint256 propertyEarnUntil) public view returns(uint256) {\n        if (!propertyIsInPrivateMode && propertyLastUpdate != 0) {\n            uint256 earnedUntil = (now < propertyEarnUntil) ? now : propertyEarnUntil;\n            uint256 minutesSinceLastColourChange = (earnedUntil - propertyLastUpdate) / PROPERTY_GENERATION_PAYOUT_INTERVAL;\n            return minutesSinceLastColourChange * PROPERTY_GENERATES_PER_MINUTE;\n            //return (((now < propertyEarnUntil) ? now : propertyEarnUntil - propertyLastUpdate) / PROPERTY_GENERATION_PAYOUT_INTERVAL) * PROPERTY_GENERATES_PER_MINUTE; //Gave too high number wtf?\n        }\n        return 0;\n    }\n    \n    // Gets whether the contract is still in the intial grace period where we give extra features to color setters\n    function isInGracePeriod() public view returns(bool) {\n        return now <= GRACE_PERIOD_END_TIMESTAMP;\n    }\n    \n    ////////////////////////////////////////////////\n    ///TODO: TESTING ONLY: REMOVE BEFORE RELEASE:///\n    ////////////////////////////////////////////////\n    function addCoin(address user, uint256 amount) public ownerOnly() {\n        require(msg.sender == owner);\n        pxlProperty.rewardPXL(user, amount);\n    }\n}\n",
    "sourcePath": "/Users/jaegarsarauer/Documents/DATA/CajartyComputing/Projects/PixelRealEstate/contracts/VirtualRealEstate.sol",
    "compiler": {
        "name": "solc",
        "version": "0.4.18+commit.9cf6e910.Emscripten.clang"
    },
    "schemaVersion": "1.0.1",
    "updatedAt": "2018-04-26T22:44:58.805Z"
}