{
    "contractName": "VirtualRealEstate",
    "abi": [
        {
            "constant": true,
            "inputs": [
                {
                    "name": "propertyID",
                    "type": "uint24"
                }
            ],
            "name": "getPropertyData",
            "outputs": [
                {
                    "name": "",
                    "type": "address"
                },
                {
                    "name": "",
                    "type": "uint256"
                },
                {
                    "name": "",
                    "type": "uint256"
                },
                {
                    "name": "",
                    "type": "uint256"
                },
                {
                    "name": "",
                    "type": "bool"
                },
                {
                    "name": "",
                    "type": "uint256"
                },
                {
                    "name": "",
                    "type": "uint256"
                }
            ],
            "payable": false,
            "stateMutability": "view",
            "type": "function"
        },
        {
            "constant": false,
            "inputs": [
                {
                    "name": "_spender",
                    "type": "address"
                },
                {
                    "name": "_value",
                    "type": "uint256"
                }
            ],
            "name": "approve",
            "outputs": [
                {
                    "name": "success",
                    "type": "bool"
                }
            ],
            "payable": false,
            "stateMutability": "nonpayable",
            "type": "function"
        },
        {
            "constant": false,
            "inputs": [
                {
                    "name": "propertyID",
                    "type": "uint24"
                },
                {
                    "name": "row",
                    "type": "uint8"
                },
                {
                    "name": "newColorData",
                    "type": "uint24"
                }
            ],
            "name": "setRowColors",
            "outputs": [
                {
                    "name": "",
                    "type": "bool"
                }
            ],
            "payable": false,
            "stateMutability": "nonpayable",
            "type": "function"
        },
        {
            "constant": false,
            "inputs": [
                {
                    "name": "propertyID",
                    "type": "uint24"
                },
                {
                    "name": "price",
                    "type": "uint128"
                }
            ],
            "name": "listForSale",
            "outputs": [
                {
                    "name": "",
                    "type": "bool"
                }
            ],
            "payable": false,
            "stateMutability": "nonpayable",
            "type": "function"
        },
        {
            "constant": true,
            "inputs": [
                {
                    "name": "propertyID",
                    "type": "uint24"
                }
            ],
            "name": "getPropertyColors",
            "outputs": [
                {
                    "name": "",
                    "type": "uint256[10]"
                }
            ],
            "payable": false,
            "stateMutability": "view",
            "type": "function"
        },
        {
            "constant": true,
            "inputs": [
                {
                    "name": "user",
                    "type": "address"
                }
            ],
            "name": "getHoverText",
            "outputs": [
                {
                    "name": "",
                    "type": "bytes1[64]"
                }
            ],
            "payable": false,
            "stateMutability": "view",
            "type": "function"
        },
        {
            "constant": true,
            "inputs": [],
            "name": "totalSupply",
            "outputs": [
                {
                    "name": "",
                    "type": "uint256"
                }
            ],
            "payable": false,
            "stateMutability": "view",
            "type": "function"
        },
        {
            "constant": false,
            "inputs": [
                {
                    "name": "_from",
                    "type": "address"
                },
                {
                    "name": "_to",
                    "type": "address"
                },
                {
                    "name": "_value",
                    "type": "uint256"
                }
            ],
            "name": "transferFrom",
            "outputs": [
                {
                    "name": "success",
                    "type": "bool"
                }
            ],
            "payable": false,
            "stateMutability": "nonpayable",
            "type": "function"
        },
        {
            "constant": false,
            "inputs": [
                {
                    "name": "amount",
                    "type": "uint256"
                }
            ],
            "name": "withdraw",
            "outputs": [],
            "payable": false,
            "stateMutability": "nonpayable",
            "type": "function"
        },
        {
            "constant": false,
            "inputs": [
                {
                    "name": "user",
                    "type": "address"
                },
                {
                    "name": "level",
                    "type": "uint32"
                }
            ],
            "name": "setModeratorLevel",
            "outputs": [],
            "payable": false,
            "stateMutability": "nonpayable",
            "type": "function"
        },
        {
            "constant": false,
            "inputs": [
                {
                    "name": "propertyID",
                    "type": "uint24"
                }
            ],
            "name": "delist",
            "outputs": [
                {
                    "name": "",
                    "type": "bool"
                }
            ],
            "payable": false,
            "stateMutability": "nonpayable",
            "type": "function"
        },
        {
            "constant": true,
            "inputs": [
                {
                    "name": "propertyID",
                    "type": "uint24"
                }
            ],
            "name": "getProjectedPayout",
            "outputs": [
                {
                    "name": "",
                    "type": "uint256"
                }
            ],
            "payable": false,
            "stateMutability": "view",
            "type": "function"
        },
        {
            "constant": false,
            "inputs": [
                {
                    "name": "propertyID",
                    "type": "uint24"
                },
                {
                    "name": "PPTValue",
                    "type": "uint256"
                }
            ],
            "name": "buyProperty",
            "outputs": [
                {
                    "name": "",
                    "type": "bool"
                }
            ],
            "payable": true,
            "stateMutability": "payable",
            "type": "function"
        },
        {
            "constant": false,
            "inputs": [
                {
                    "name": "link",
                    "type": "bytes1[64]"
                }
            ],
            "name": "setLink",
            "outputs": [],
            "payable": false,
            "stateMutability": "nonpayable",
            "type": "function"
        },
        {
            "constant": true,
            "inputs": [
                {
                    "name": "_owner",
                    "type": "address"
                }
            ],
            "name": "balanceOf",
            "outputs": [
                {
                    "name": "balance",
                    "type": "uint256"
                }
            ],
            "payable": false,
            "stateMutability": "view",
            "type": "function"
        },
        {
            "constant": false,
            "inputs": [
                {
                    "name": "propertyID",
                    "type": "uint24"
                }
            ],
            "name": "tryForcePublic",
            "outputs": [],
            "payable": false,
            "stateMutability": "nonpayable",
            "type": "function"
        },
        {
            "constant": false,
            "inputs": [
                {
                    "name": "propertyID",
                    "type": "uint24"
                },
                {
                    "name": "newColors",
                    "type": "uint256[10]"
                },
                {
                    "name": "pptToSpend",
                    "type": "uint256"
                }
            ],
            "name": "setColors",
            "outputs": [
                {
                    "name": "",
                    "type": "bool"
                }
            ],
            "payable": false,
            "stateMutability": "nonpayable",
            "type": "function"
        },
        {
            "constant": false,
            "inputs": [
                {
                    "name": "propertyID",
                    "type": "uint24"
                },
                {
                    "name": "newOwner",
                    "type": "address"
                }
            ],
            "name": "transferProperty",
            "outputs": [
                {
                    "name": "",
                    "type": "bool"
                }
            ],
            "payable": false,
            "stateMutability": "nonpayable",
            "type": "function"
        },
        {
            "constant": false,
            "inputs": [
                {
                    "name": "propertyID",
                    "type": "uint24"
                },
                {
                    "name": "flag",
                    "type": "uint32"
                }
            ],
            "name": "setFlag",
            "outputs": [],
            "payable": false,
            "stateMutability": "nonpayable",
            "type": "function"
        },
        {
            "constant": false,
            "inputs": [],
            "name": "withdrawAll",
            "outputs": [],
            "payable": false,
            "stateMutability": "nonpayable",
            "type": "function"
        },
        {
            "constant": false,
            "inputs": [
                {
                    "name": "text",
                    "type": "bytes1[64]"
                }
            ],
            "name": "setHoverText",
            "outputs": [],
            "payable": false,
            "stateMutability": "nonpayable",
            "type": "function"
        },
        {
            "constant": false,
            "inputs": [
                {
                    "name": "propertyID",
                    "type": "uint24"
                },
                {
                    "name": "bidAmount",
                    "type": "uint256"
                }
            ],
            "name": "makeBid",
            "outputs": [],
            "payable": false,
            "stateMutability": "nonpayable",
            "type": "function"
        },
        {
            "constant": true,
            "inputs": [
                {
                    "name": "user",
                    "type": "address"
                }
            ],
            "name": "getLink",
            "outputs": [
                {
                    "name": "",
                    "type": "bytes1[64]"
                }
            ],
            "payable": false,
            "stateMutability": "view",
            "type": "function"
        },
        {
            "constant": false,
            "inputs": [
                {
                    "name": "propertyID",
                    "type": "uint24"
                },
                {
                    "name": "PPTValue",
                    "type": "uint256"
                }
            ],
            "name": "buyPropertyInPPT",
            "outputs": [
                {
                    "name": "",
                    "type": "bool"
                }
            ],
            "payable": false,
            "stateMutability": "nonpayable",
            "type": "function"
        },
        {
            "constant": false,
            "inputs": [
                {
                    "name": "propertyID",
                    "type": "uint24"
                },
                {
                    "name": "isInPrivateMode",
                    "type": "bool"
                },
                {
                    "name": "numMinutesPrivate",
                    "type": "uint32"
                }
            ],
            "name": "setPropertyMode",
            "outputs": [],
            "payable": false,
            "stateMutability": "nonpayable",
            "type": "function"
        },
        {
            "constant": false,
            "inputs": [
                {
                    "name": "_to",
                    "type": "address"
                },
                {
                    "name": "_value",
                    "type": "uint256"
                }
            ],
            "name": "transfer",
            "outputs": [
                {
                    "name": "success",
                    "type": "bool"
                }
            ],
            "payable": false,
            "stateMutability": "nonpayable",
            "type": "function"
        },
        {
            "constant": true,
            "inputs": [],
            "name": "getSystemSalePrices",
            "outputs": [
                {
                    "name": "",
                    "type": "uint256"
                },
                {
                    "name": "",
                    "type": "uint256"
                }
            ],
            "payable": false,
            "stateMutability": "view",
            "type": "function"
        },
        {
            "constant": false,
            "inputs": [
                {
                    "name": "user",
                    "type": "address"
                },
                {
                    "name": "amount",
                    "type": "uint256"
                }
            ],
            "name": "addCoin",
            "outputs": [],
            "payable": false,
            "stateMutability": "nonpayable",
            "type": "function"
        },
        {
            "constant": true,
            "inputs": [
                {
                    "name": "propertyID",
                    "type": "uint24"
                }
            ],
            "name": "getForSalePrices",
            "outputs": [
                {
                    "name": "",
                    "type": "uint256"
                },
                {
                    "name": "",
                    "type": "uint256"
                }
            ],
            "payable": false,
            "stateMutability": "view",
            "type": "function"
        },
        {
            "constant": false,
            "inputs": [
                {
                    "name": "newOwner",
                    "type": "address"
                }
            ],
            "name": "changeOwners",
            "outputs": [],
            "payable": false,
            "stateMutability": "nonpayable",
            "type": "function"
        },
        {
            "constant": true,
            "inputs": [
                {
                    "name": "_owner",
                    "type": "address"
                },
                {
                    "name": "_spender",
                    "type": "address"
                }
            ],
            "name": "allowance",
            "outputs": [
                {
                    "name": "remaining",
                    "type": "uint256"
                }
            ],
            "payable": false,
            "stateMutability": "view",
            "type": "function"
        },
        {
            "constant": false,
            "inputs": [
                {
                    "name": "propertyID",
                    "type": "uint24"
                }
            ],
            "name": "buyPropertyInETH",
            "outputs": [
                {
                    "name": "",
                    "type": "bool"
                }
            ],
            "payable": true,
            "stateMutability": "payable",
            "type": "function"
        },
        {
            "inputs": [],
            "payable": false,
            "stateMutability": "nonpayable",
            "type": "constructor"
        },
        {
            "anonymous": false,
            "inputs": [
                {
                    "indexed": true,
                    "name": "property",
                    "type": "uint24"
                },
                {
                    "indexed": false,
                    "name": "colors",
                    "type": "uint256[10]"
                },
                {
                    "indexed": false,
                    "name": "lastUpdate",
                    "type": "uint256"
                },
                {
                    "indexed": false,
                    "name": "lastUpdaterPayee",
                    "type": "address"
                }
            ],
            "name": "PropertyColorUpdate",
            "type": "event"
        },
        {
            "anonymous": false,
            "inputs": [
                {
                    "indexed": true,
                    "name": "property",
                    "type": "uint24"
                },
                {
                    "indexed": false,
                    "name": "row",
                    "type": "uint8"
                },
                {
                    "indexed": false,
                    "name": "rgb",
                    "type": "uint24"
                }
            ],
            "name": "PropertyColorUpdatePixel",
            "type": "event"
        },
        {
            "anonymous": false,
            "inputs": [
                {
                    "indexed": true,
                    "name": "property",
                    "type": "uint24"
                },
                {
                    "indexed": false,
                    "name": "newOwner",
                    "type": "address"
                },
                {
                    "indexed": false,
                    "name": "ethAmount",
                    "type": "uint256"
                },
                {
                    "indexed": false,
                    "name": "PPTAmount",
                    "type": "uint256"
                },
                {
                    "indexed": false,
                    "name": "timestamp",
                    "type": "uint256"
                }
            ],
            "name": "PropertyBought",
            "type": "event"
        },
        {
            "anonymous": false,
            "inputs": [
                {
                    "indexed": true,
                    "name": "user",
                    "type": "address"
                },
                {
                    "indexed": false,
                    "name": "newHoverText",
                    "type": "bytes1[64]"
                }
            ],
            "name": "SetUserHoverText",
            "type": "event"
        },
        {
            "anonymous": false,
            "inputs": [
                {
                    "indexed": true,
                    "name": "user",
                    "type": "address"
                },
                {
                    "indexed": false,
                    "name": "newLink",
                    "type": "bytes1[64]"
                }
            ],
            "name": "SetUserSetLink",
            "type": "event"
        },
        {
            "anonymous": false,
            "inputs": [
                {
                    "indexed": true,
                    "name": "property",
                    "type": "uint24"
                },
                {
                    "indexed": false,
                    "name": "forSalePrice",
                    "type": "uint256"
                }
            ],
            "name": "PropertySetForSale",
            "type": "event"
        },
        {
            "anonymous": false,
            "inputs": [
                {
                    "indexed": true,
                    "name": "property",
                    "type": "uint24"
                }
            ],
            "name": "DelistProperty",
            "type": "event"
        },
        {
            "anonymous": false,
            "inputs": [
                {
                    "indexed": true,
                    "name": "property",
                    "type": "uint24"
                }
            ],
            "name": "SetPropertyPublic",
            "type": "event"
        },
        {
            "anonymous": false,
            "inputs": [
                {
                    "indexed": true,
                    "name": "property",
                    "type": "uint24"
                },
                {
                    "indexed": false,
                    "name": "numMinutesPrivate",
                    "type": "uint32"
                }
            ],
            "name": "SetPropertyPrivate",
            "type": "event"
        },
        {
            "anonymous": false,
            "inputs": [
                {
                    "indexed": true,
                    "name": "property",
                    "type": "uint24"
                },
                {
                    "indexed": false,
                    "name": "bid",
                    "type": "uint256"
                }
            ],
            "name": "Bid",
            "type": "event"
        },
        {
            "anonymous": false,
            "inputs": [
                {
                    "indexed": true,
                    "name": "_from",
                    "type": "address"
                },
                {
                    "indexed": true,
                    "name": "_to",
                    "type": "address"
                },
                {
                    "indexed": false,
                    "name": "_value",
                    "type": "uint256"
                }
            ],
            "name": "Transfer",
            "type": "event"
        },
        {
            "anonymous": false,
            "inputs": [
                {
                    "indexed": true,
                    "name": "_owner",
                    "type": "address"
                },
                {
                    "indexed": true,
                    "name": "_spender",
                    "type": "address"
                },
                {
                    "indexed": false,
                    "name": "_value",
                    "type": "uint256"
                }
            ],
            "name": "Approval",
            "type": "event"
        }
    ],
    "bytecode": "0x606060405260006004556103e8600a556014600b55600a600d556014600e5560626010556001601155341561003357600080fd5b33600360006101000a81548173ffffffffffffffffffffffffffffffffffffffff021916908373ffffffffffffffffffffffffffffffffffffffff160217905550600080819055506203f48042016012819055506064600c819055506127106009819055506003600860003373ffffffffffffffffffffffffffffffffffffffff1673ffffffffffffffffffffffffffffffffffffffff16815260200190815260200160002060006101000a81548163ffffffff021916908363ffffffff160217905550603c600f819055506137808061010e6000396000f300606060405260043610610196576000357c0100000000000000000000000000000000000000000000000000000000900463ffffffff168063075773fd1461019b578063095ea7b3146102315780630a88e7701461028b57806316035c7c146102e5578063164e0aba146103405780631775459d146103a457806318160ddd1461041957806323b872dd146104425780632e1a7d4d146104bb5780633ac8e296146104de5780635a033830146105265780635b61ce14146105665780636145a4f0146105a2578063658e8892146105e057806370a0823114610627578063735834c11461067457806374e593aa1461069c57806382e573961461071257806383075db714610771578063853828b6146107a8578063857cf8b0146107bd57806398bc0041146108045780639d6abe4f14610835578063a2ab4b15146108aa578063a690478b146108f3578063a9059cbb14610935578063ab4c44871461098f578063b4014879146109bf578063c3c9c24114610a01578063d7963f9414610a44578063dd62ed3e14610a7d578063ef952a9914610ae9575b600080fd5b34156101a657600080fd5b6101c1600480803562ffffff16906020019091905050610b1e565b604051808873ffffffffffffffffffffffffffffffffffffffff1673ffffffffffffffffffffffffffffffffffffffff1681526020018781526020018681526020018581526020018415151515815260200183815260200182815260200197505050505050505060405180910390f35b341561023c57600080fd5b610271600480803573ffffffffffffffffffffffffffffffffffffffff16906020019091908035906020019091905050610c68565b604051808215151515815260200191505060405180910390f35b341561029657600080fd5b6102cb600480803562ffffff1690602001909190803560ff1690602001909190803562ffffff16906020019091905050610d5a565b604051808215151515815260200191505060405180910390f35b34156102f057600080fd5b610326600480803562ffffff169060200190919080356fffffffffffffffffffffffffffffffff16906020019091905050610fed565b604051808215151515815260200191505060405180910390f35b341561034b57600080fd5b610366600480803562ffffff16906020019091905050611108565b6040518082600a60200280838360005b83811015610391578082015181840152602081019050610376565b5050505090500191505060405180910390f35b34156103af57600080fd5b6103db600480803573ffffffffffffffffffffffffffffffffffffffff16906020019091905050611185565b6040518082604060200280838360005b838110156104065780820151818401526020810190506103eb565b5050505090500191505060405180910390f35b341561042457600080fd5b61042c611273565b6040518082815260200191505060405180910390f35b341561044d57600080fd5b6104a1600480803573ffffffffffffffffffffffffffffffffffffffff1690602001909190803573ffffffffffffffffffffffffffffffffffffffff16906020019091908035906020019091905050611279565b604051808215151515815260200191505060405180910390f35b34156104c657600080fd5b6104dc60048080359060200190919050506114f5565b005b34156104e957600080fd5b610524600480803573ffffffffffffffffffffffffffffffffffffffff1690602001909190803563ffffffff169060200190919050506115c2565b005b341561053157600080fd5b61054c600480803562ffffff169060200190919050506116c3565b604051808215151515815260200191505060405180910390f35b341561057157600080fd5b61058c600480803562ffffff1690602001909190505061179b565b6040518082815260200191505060405180910390f35b6105c6600480803562ffffff16906020019091908035906020019091905050611831565b604051808215151515815260200191505060405180910390f35b34156105eb57600080fd5b6106256004808061080001906040806020026040519081016040528092919082604060200280828437820191505050505091905050611bff565b005b341561063257600080fd5b61065e600480803573ffffffffffffffffffffffffffffffffffffffff16906020019091905050611cc7565b6040518082815260200191505060405180910390f35b341561067f57600080fd5b61069a600480803562ffffff16906020019091905050611d10565b005b34156106a757600080fd5b6106f8600480803562ffffff1690602001909190806101400190600a806020026040519081016040528092919082600a60200280828437820191505050505091908035906020019091905050611d8b565b604051808215151515815260200191505060405180910390f35b341561071d57600080fd5b610757600480803562ffffff1690602001909190803573ffffffffffffffffffffffffffffffffffffffff1690602001909190505061226a565b604051808215151515815260200191505060405180910390f35b341561077c57600080fd5b6107a6600480803562ffffff1690602001909190803563ffffffff169060200190919050506123f2565b005b34156107b357600080fd5b6107bb61258b565b005b34156107c857600080fd5b610802600480806108000190604080602002604051908101604052809291908260406020028082843782019150505050509190505061264d565b005b341561080f57600080fd5b610833600480803562ffffff16906020019091908035906020019091905050612715565b005b341561084057600080fd5b61086c600480803573ffffffffffffffffffffffffffffffffffffffff169060200190919050506127dc565b6040518082604060200280838360005b8381101561089757808201518184015260208101905061087c565b5050505090500191505060405180910390f35b34156108b557600080fd5b6108d9600480803562ffffff169060200190919080359060200190919050506128ca565b604051808215151515815260200191505060405180910390f35b34156108fe57600080fd5b610933600480803562ffffff16906020019091908035151590602001909190803563ffffffff16906020019091905050612ce0565b005b341561094057600080fd5b610975600480803573ffffffffffffffffffffffffffffffffffffffff16906020019091908035906020019091905050612f16565b604051808215151515815260200191505060405180910390f35b341561099a57600080fd5b6109a261307f565b604051808381526020018281526020019250505060405180910390f35b34156109ca57600080fd5b6109ff600480803573ffffffffffffffffffffffffffffffffffffffff16906020019091908035906020019091905050613090565b005b3415610a0c57600080fd5b610a27600480803562ffffff16906020019091905050613199565b604051808381526020018281526020019250505060405180910390f35b3415610a4f57600080fd5b610a7b600480803573ffffffffffffffffffffffffffffffffffffffff16906020019091905050613236565b005b3415610a8857600080fd5b610ad3600480803573ffffffffffffffffffffffffffffffffffffffff1690602001909190803573ffffffffffffffffffffffffffffffffffffffff169060200190919050506132d6565b6040518082815260200191505060405180910390f35b610b04600480803562ffffff1690602001909190505061335d565b604051808215151515815260200191505060405180910390f35b600080600080600080600080886127108162ffffff161015610c5b57600560008b62ffffff1662ffffff168152602001908152602001600020915060008260000160009054906101000a900473ffffffffffffffffffffffffffffffffffffffff1673ffffffffffffffffffffffffffffffffffffffff161415610bfb578160000160009054906101000a900473ffffffffffffffffffffffffffffffffffffffff16600954600c5484600d015485600c0160149054906101000a900460ff1686600e015487601001549850985098509850985098509850610c5a565b8160000160009054906101000a900473ffffffffffffffffffffffffffffffffffffffff16600083600b015484600d015485600c0160149054906101000a900460ff1686600e0154876010015485955098509850985098509850985098505b5b5050919395979092949650565b600081600260003373ffffffffffffffffffffffffffffffffffffffff1673ffffffffffffffffffffffffffffffffffffffff16815260200190815260200160002060008573ffffffffffffffffffffffffffffffffffffffff1673ffffffffffffffffffffffffffffffffffffffff168152602001908152602001600020819055508273ffffffffffffffffffffffffffffffffffffffff163373ffffffffffffffffffffffffffffffffffffffff167f8c5be1e5ebec7d5bd14f71427d1e84f3dd0314c0f7b2291e5b200ac8c7c3b925846040518082815260200191505060405180910390a36001905092915050565b6000806000856127108162ffffff161015610fe357600560008862ffffff1662ffffff168152602001908152602001600020925060008660ff1610158015610da6575060098660ff1611155b1515610db157600080fd5b60008360000160009054906101000a900473ffffffffffffffffffffffffffffffffffffffff1673ffffffffffffffffffffffffffffffffffffffff161415610dfb576002610dfe565b60015b60ff16915082600c0160149054906101000a900460ff1615610e7d578260000160009054906101000a900473ffffffffffffffffffffffffffffffffffffffff1673ffffffffffffffffffffffffffffffffffffffff163373ffffffffffffffffffffffffffffffffffffffff16141515610e7857600080fd5b600091505b81600160003373ffffffffffffffffffffffffffffffffffffffff1673ffffffffffffffffffffffffffffffffffffffff1681526020019081526020016000205410151515610ecb57600080fd5b81600160003373ffffffffffffffffffffffffffffffffffffffff1673ffffffffffffffffffffffffffffffffffffffff168152602001908152602001600020600082825403925050819055508160008082825403925050819055508462ffffff16836001018760ff16600a81101515610f4157fe5b01819055503383600c0160006101000a81548173ffffffffffffffffffffffffffffffffffffffff021916908373ffffffffffffffffffffffffffffffffffffffff1602179055508662ffffff167f1552c53109a4b1a1c4938ae91d342a910cb3f903cd2262bcaea67365553a8e478787604051808360ff1660ff1681526020018262ffffff1662ffffff1681526020019250505060405180910390a2600193505b5050509392505050565b600080836127108162ffffff16101561110057600560008662ffffff1662ffffff16815260200190815260200160002091506000846fffffffffffffffffffffffffffffffff161415151561104157600080fd5b8160000160009054906101000a900473ffffffffffffffffffffffffffffffffffffffff1673ffffffffffffffffffffffffffffffffffffffff163373ffffffffffffffffffffffffffffffffffffffff1614151561109f57600080fd5b836fffffffffffffffffffffffffffffffff1682600b01819055508462ffffff167f06ebe22c29c68b4166927bf53da5a19075c3eb97bba0f0113c22c97576b6ba2683600b01546040518082815260200191505060405180910390a2600192505b505092915050565b61111061354c565b816127108162ffffff16101561117f57600560008462ffffff1662ffffff168152602001908152602001600020600101600a806020026040519081016040528092919082600a8015611177576020028201915b815481526020019060010190808311611163575b505050505091505b50919050565b61118d613575565b600760008373ffffffffffffffffffffffffffffffffffffffff1673ffffffffffffffffffffffffffffffffffffffff168152602001908152602001600020604080602002604051908101604052809291908260408015611267576020028201916000905b82829054906101000a90047f0100000000000000000000000000000000000000000000000000000000000000027effffffffffffffffffffffffffffffffffffffffffffffffffffffffffffff1916815260200190600101906020826000010492830192600103820291508084116111f25790505b50505050509050919050565b60005481565b600081600160008673ffffffffffffffffffffffffffffffffffffffff1673ffffffffffffffffffffffffffffffffffffffff1681526020019081526020016000205410158015611346575081600260008673ffffffffffffffffffffffffffffffffffffffff1673ffffffffffffffffffffffffffffffffffffffff16815260200190815260200160002060003373ffffffffffffffffffffffffffffffffffffffff1673ffffffffffffffffffffffffffffffffffffffff1681526020019081526020016000205410155b80156113525750600082115b156114e95781600160008573ffffffffffffffffffffffffffffffffffffffff1673ffffffffffffffffffffffffffffffffffffffff1681526020019081526020016000206000828254019250508190555081600160008673ffffffffffffffffffffffffffffffffffffffff1673ffffffffffffffffffffffffffffffffffffffff1681526020019081526020016000206000828254039250508190555081600260008673ffffffffffffffffffffffffffffffffffffffff1673ffffffffffffffffffffffffffffffffffffffff16815260200190815260200160002060003373ffffffffffffffffffffffffffffffffffffffff1673ffffffffffffffffffffffffffffffffffffffff168152602001908152602001600020600082825403925050819055508273ffffffffffffffffffffffffffffffffffffffff168473ffffffffffffffffffffffffffffffffffffffff167fddf252ad1be2c89b69c2b068fc378daa952ba7f163c4a11628f55a4df523b3ef846040518082815260200191505060405180910390a3600190506114ee565b600090505b9392505050565b3373ffffffffffffffffffffffffffffffffffffffff16600360009054906101000a900473ffffffffffffffffffffffffffffffffffffffff1673ffffffffffffffffffffffffffffffffffffffff1614151561155157600080fd5b600454811115156115bf57600360009054906101000a900473ffffffffffffffffffffffffffffffffffffffff1673ffffffffffffffffffffffffffffffffffffffff166108fc829081150290604051600060405180830381858888f1935050505015156115be57600080fd5b5b50565b6003600860003373ffffffffffffffffffffffffffffffffffffffff1673ffffffffffffffffffffffffffffffffffffffff16815260200190815260200160002060009054906101000a900463ffffffff1663ffffffff1614151561162657600080fd5b60048163ffffffff1610151561163b57600080fd5b60008273ffffffffffffffffffffffffffffffffffffffff161415151561166157600080fd5b80600860008473ffffffffffffffffffffffffffffffffffffffff1673ffffffffffffffffffffffffffffffffffffffff16815260200190815260200160002060006101000a81548163ffffffff021916908363ffffffff1602179055505050565b600080826127108162ffffff16101561179457600560008562ffffff1662ffffff16815260200190815260200160002091508160000160009054906101000a900473ffffffffffffffffffffffffffffffffffffffff1673ffffffffffffffffffffffffffffffffffffffff163373ffffffffffffffffffffffffffffffffffffffff1614151561175357600080fd5b600082600b01819055508362ffffff167fca2e47a4a4a73b5954da66cff11902dbc0e8a6d4ee892921cc381af6aabc415260405160405180910390a2600192505b5050919050565b600080600080600560008662ffffff1662ffffff168152602001908152602001600020925082600c0160149054906101000a900460ff161580156117e45750600083600d015414155b156118245782600f015442106117fe5782600f0154611800565b425b9150600f5483600d0154830381151561181557fe5b04905060115481029350611829565b600093505b505050919050565b6000806000806000866127108162ffffff161015611bf457600560008962ffffff1662ffffff168152602001908152602001600020945060008560000160009054906101000a900473ffffffffffffffffffffffffffffffffffffffff1673ffffffffffffffffffffffffffffffffffffffff161415156118b157600080fd5b600c5487111515156118c257600080fd5b86600160003373ffffffffffffffffffffffffffffffffffffffff1673ffffffffffffffffffffffffffffffffffffffff168152602001908152602001600020541015151561191057600080fd5b6000871415151561192057600080fd5b86600c5403935083600c5460095481151561193757fe5b0402925082341015151561194a57600080fd5b8660016000600360009054906101000a900473ffffffffffffffffffffffffffffffffffffffff1673ffffffffffffffffffffffffffffffffffffffff1673ffffffffffffffffffffffffffffffffffffffff1681526020019081526020016000206000828254019250508190555086600160003373ffffffffffffffffffffffffffffffffffffffff1673ffffffffffffffffffffffffffffffffffffffff168152602001908152602001600020600082825403925050819055506064600e54600c5402811515611a1857fe5b049150600c5487600d548410611a3057600d54611a32565b835b02811515611a3c57fe5b04600c60008282540192505081905550346004600082825401925050819055506064600b5460095402811515611a6e57fe5b0491508684600a548410611a8457600a54611a86565b835b02811515611a9057fe5b04600960008282540192505081905550338560000160006101000a81548173ffffffffffffffffffffffffffffffffffffffff021916908373ffffffffffffffffffffffffffffffffffffffff1602179055508762ffffff167f0abb7627f5a43ce55d691cf577de9c09e8fee6f2dd1f45678a55ce86fadfd6f28660000160009054906101000a900473ffffffffffffffffffffffffffffffffffffffff16348a42604051808573ffffffffffffffffffffffffffffffffffffffff1673ffffffffffffffffffffffffffffffffffffffff16815260200184815260200183815260200182815260200194505050505060405180910390a2338560000160006101000a81548173ffffffffffffffffffffffffffffffffffffffff021916908373ffffffffffffffffffffffffffffffffffffffff16021790555060008560110160006101000a81548163ffffffff021916908363ffffffff160217905550600195505b505050505092915050565b80600660003373ffffffffffffffffffffffffffffffffffffffff1673ffffffffffffffffffffffffffffffffffffffff168152602001908152602001600020906040611c4d9291906135c0565b503373ffffffffffffffffffffffffffffffffffffffff167fe8b7b02955a00d00a33c39a6531e939deb755c058c4950c198eb28b39391407b826040518082604060200280838360005b83811015611cb2578082015181840152602081019050611c97565b5050505090500191505060405180910390a250565b6000600160008373ffffffffffffffffffffffffffffffffffffffff1673ffffffffffffffffffffffffffffffffffffffff168152602001908152602001600020549050919050565b6000816127108162ffffff161015611d8657600560008462ffffff1662ffffff168152602001908152602001600020915081600c0160149054906101000a900460ff168015611d6257504282600e0154105b15611d8557600082600c0160146101000a81548160ff0219169083151502179055505b5b505050565b6000806000806000806000896127108162ffffff16101561225c57600560008c62ffffff1662ffffff1681526020019081526020016000209650611dce8b611d10565b8895506012544211158015611de35750600289105b15611ded57600295505b6000945086600c0160149054906101000a900460ff1615611e99578660000160009054906101000a900473ffffffffffffffffffffffffffffffffffffffff1673ffffffffffffffffffffffffffffffffffffffff163373ffffffffffffffffffffffffffffffffffffffff16141515611e6657600080fd5b60028760110160009054906101000a900463ffffffff1663ffffffff1614151515611e9057600080fd5b6001945061212c565b4287600e0154101561212b5788600160003373ffffffffffffffffffffffffffffffffffffffff1673ffffffffffffffffffffffffffffffffffffffff1681526020019081526020016000205410151515611ef357600080fd5b600f54600187016001880102029350600f54600287811515611f1157fe5b0402925088600160003373ffffffffffffffffffffffffffffffffffffffff1673ffffffffffffffffffffffffffffffffffffffff16815260200190815260200160002060008282540392505081905550886000808282540392505081905550611f7a8b61179b565b9150600082111561211057600087600c0160009054906101000a900473ffffffffffffffffffffffffffffffffffffffff1673ffffffffffffffffffffffffffffffffffffffff1614151561204a57816001600089600c0160009054906101000a900473ffffffffffffffffffffffffffffffffffffffff1673ffffffffffffffffffffffffffffffffffffffff1673ffffffffffffffffffffffffffffffffffffffff168152602001908152602001600020600082825401925050819055508160008082825401925050819055505b60008760000160009054906101000a900473ffffffffffffffffffffffffffffffffffffffff1673ffffffffffffffffffffffffffffffffffffffff1614151561210f5781600160008960000160009054906101000a900473ffffffffffffffffffffffffffffffffffffffff1673ffffffffffffffffffffffffffffffffffffffff1673ffffffffffffffffffffffffffffffffffffffff168152602001908152602001600020600082825401925050819055508160008082825401925050819055505b5b6001945082420187600e018190555083420187600f01819055505b5b8415612258578a62ffffff167fce9b20e38ccb718fd7b9a5fb1eacd0060f320d3e74a7e2ce393a26eb9a0f26368b428a600c0160009054906101000a900473ffffffffffffffffffffffffffffffffffffffff166040518084600a60200280838360005b838110156121ab578082015181840152602081019050612190565b505050509050018381526020018273ffffffffffffffffffffffffffffffffffffffff1673ffffffffffffffffffffffffffffffffffffffff168152602001935050505060405180910390a2898760010190600a61220a92919061367a565b503387600c0160006101000a81548173ffffffffffffffffffffffffffffffffffffffff021916908373ffffffffffffffffffffffffffffffffffffffff1602179055504287600d01819055505b8497505b505050505050509392505050565b600080836127108162ffffff1610156123ea57600560008662ffffff1662ffffff16815260200190815260200160002091503373ffffffffffffffffffffffffffffffffffffffff168260000160009054906101000a900473ffffffffffffffffffffffffffffffffffffffff1673ffffffffffffffffffffffffffffffffffffffff161415156122fa57600080fd5b60008473ffffffffffffffffffffffffffffffffffffffff161415151561232057600080fd5b838260000160006101000a81548173ffffffffffffffffffffffffffffffffffffffff021916908373ffffffffffffffffffffffffffffffffffffffff1602179055508462ffffff167f0abb7627f5a43ce55d691cf577de9c09e8fee6f2dd1f45678a55ce86fadfd6f28560008042604051808573ffffffffffffffffffffffffffffffffffffffff1673ffffffffffffffffffffffffffffffffffffffff16815260200184815260200183815260200182815260200194505050505060405180910390a2600192505b505092915050565b600080836127108162ffffff16101561258457600560008662ffffff1662ffffff168152602001908152602001600020925060038463ffffffff1610151561243957600080fd5b600860003373ffffffffffffffffffffffffffffffffffffffff1673ffffffffffffffffffffffffffffffffffffffff16815260200190815260200160002060009054906101000a900463ffffffff1663ffffffff169150600182101515156124a157600080fd5b60028463ffffffff16141561256057600282101515156124c057600080fd5b82600c0160149054906101000a900460ff1615156124dd57600080fd5b61014060405190810160405280600060ff168152602001600060ff168152602001600060ff168152602001600060ff168152602001600060ff168152602001600060ff168152602001600060ff168152602001600060ff168152602001600060ff168152602001600060ff168152508360010190600a61255e9291906136ba565b505b838360110160006101000a81548163ffffffff021916908363ffffffff1602179055505b5050505050565b3373ffffffffffffffffffffffffffffffffffffffff16600360009054906101000a900473ffffffffffffffffffffffffffffffffffffffff1673ffffffffffffffffffffffffffffffffffffffff161415156125e757600080fd5b600360009054906101000a900473ffffffffffffffffffffffffffffffffffffffff1673ffffffffffffffffffffffffffffffffffffffff166108fc6004549081150290604051600060405180830381858888f19350505050151561264b57600080fd5b565b80600760003373ffffffffffffffffffffffffffffffffffffffff1673ffffffffffffffffffffffffffffffffffffffff16815260200190815260200160002090604061269b9291906135c0565b503373ffffffffffffffffffffffffffffffffffffffff167f04852f454c761abdb33d2972dd6725cbd0c469772bb34a04d07acb9c12e6165b826040518082604060200280838360005b838110156127005780820151818401526020810190506126e5565b5050505090500191505060405180910390a250565b6000826127108162ffffff1610156127d65782600160003373ffffffffffffffffffffffffffffffffffffffff1673ffffffffffffffffffffffffffffffffffffffff168152602001908152602001600020541015156127d557600560008562ffffff1662ffffff16815260200190815260200160002091508362ffffff167fdb312315a406f7d51001b64e96b7a90d5308617cfa97ffcd93575f543f97e632846040518082815260200191505060405180910390a28282601001819055505b5b50505050565b6127e4613575565b600660008373ffffffffffffffffffffffffffffffffffffffff1673ffffffffffffffffffffffffffffffffffffffff1681526020019081526020016000206040806020026040519081016040528092919082604080156128be576020028201916000905b82829054906101000a90047f0100000000000000000000000000000000000000000000000000000000000000027effffffffffffffffffffffffffffffffffffffffffffffffffffffffffffff1916815260200190600101906020826000010492830192600103820291508084116128495790505b50505050509050919050565b600080600080856127108162ffffff161015612cd657600560008862ffffff1662ffffff168152602001908152602001600020935060008460000160009054906101000a900473ffffffffffffffffffffffffffffffffffffffff1673ffffffffffffffffffffffffffffffffffffffff1614156129ea57600c5484600b0181905550600360009054906101000a900473ffffffffffffffffffffffffffffffffffffffff168460000160006101000a81548173ffffffffffffffffffffffffffffffffffffffff021916908373ffffffffffffffffffffffffffffffffffffffff1602179055506064600e54600c54028115156129c457fe5b049250600d5483106129d857600d546129da565b825b600c600082825401925050819055505b8584600b0154111515156129fd57600080fd5b83600b0154600160003373ffffffffffffffffffffffffffffffffffffffff1673ffffffffffffffffffffffffffffffffffffffff1681526020019081526020016000205410151515612a4f57600080fd5b60009150606460105485600b015402811515612a6757fe5b04915081600160003373ffffffffffffffffffffffffffffffffffffffff1673ffffffffffffffffffffffffffffffffffffffff1681526020019081526020016000206000828254039250508190555081600160008660000160009054906101000a900473ffffffffffffffffffffffffffffffffffffffff1673ffffffffffffffffffffffffffffffffffffffff1673ffffffffffffffffffffffffffffffffffffffff1681526020019081526020016000206000828254019250508190555081860360016000600360009054906101000a900473ffffffffffffffffffffffffffffffffffffffff1673ffffffffffffffffffffffffffffffffffffffff1673ffffffffffffffffffffffffffffffffffffffff168152602001908152602001600020600082825401925050819055508662ffffff167f0abb7627f5a43ce55d691cf577de9c09e8fee6f2dd1f45678a55ce86fadfd6f28560000160009054906101000a900473ffffffffffffffffffffffffffffffffffffffff16600087600b015442604051808573ffffffffffffffffffffffffffffffffffffffff1673ffffffffffffffffffffffffffffffffffffffff16815260200184815260200183815260200182815260200194505050505060405180910390a2600084600b0181905550338460000160006101000a81548173ffffffffffffffffffffffffffffffffffffffff021916908373ffffffffffffffffffffffffffffffffffffffff160217905550600084600c0160146101000a81548160ff02191690831515021790555060008460110160006101000a81548163ffffffff021916908363ffffffff160217905550600194505b5050505092915050565b6000836127108162ffffff161015612f0f57600560008662ffffff1662ffffff16815260200190815260200160002091508160000160009054906101000a900473ffffffffffffffffffffffffffffffffffffffff1673ffffffffffffffffffffffffffffffffffffffff163373ffffffffffffffffffffffffffffffffffffffff16141515612d6f57600080fd5b8315612e605760008363ffffffff16111515612d8a57600080fd5b8263ffffffff16600160003373ffffffffffffffffffffffffffffffffffffffff1673ffffffffffffffffffffffffffffffffffffffff1681526020019081526020016000205410151515612dde57600080fd5b8263ffffffff16600160003373ffffffffffffffffffffffffffffffffffffffff1673ffffffffffffffffffffffffffffffffffffffff168152602001908152602001600020600082825403925050819055508263ffffffff1660008082825403925050819055508263ffffffff16600f5402420182600e0181905550612e6b565b600082600e01819055505b8382600c0160146101000a81548160ff0219169083151502179055508315612edb578462ffffff167f52e8f4b5a1626f05acec334b28b3a6e1229af95f0fdf6929ead61c976399121384604051808263ffffffff1663ffffffff16815260200191505060405180910390a2612f0e565b8462ffffff167f7b2ca9b1b8f3e9de64d205763935a164d5090f5e6346199c24b0612e0930a12a60405160405180910390a25b5b5050505050565b600081600160003373ffffffffffffffffffffffffffffffffffffffff1673ffffffffffffffffffffffffffffffffffffffff1681526020019081526020016000205410158015612f675750600082115b156130745781600160003373ffffffffffffffffffffffffffffffffffffffff1673ffffffffffffffffffffffffffffffffffffffff1681526020019081526020016000206000828254039250508190555081600160008573ffffffffffffffffffffffffffffffffffffffff1673ffffffffffffffffffffffffffffffffffffffff168152602001908152602001600020600082825401925050819055508273ffffffffffffffffffffffffffffffffffffffff163373ffffffffffffffffffffffffffffffffffffffff167fddf252ad1be2c89b69c2b068fc378daa952ba7f163c4a11628f55a4df523b3ef846040518082815260200191505060405180910390a360019050613079565b600090505b92915050565b600080600954600c54915091509091565b3373ffffffffffffffffffffffffffffffffffffffff16600360009054906101000a900473ffffffffffffffffffffffffffffffffffffffff1673ffffffffffffffffffffffffffffffffffffffff161415156130ec57600080fd5b600360009054906101000a900473ffffffffffffffffffffffffffffffffffffffff1673ffffffffffffffffffffffffffffffffffffffff163373ffffffffffffffffffffffffffffffffffffffff1614151561314857600080fd5b80600160008473ffffffffffffffffffffffffffffffffffffffff1673ffffffffffffffffffffffffffffffffffffffff168152602001908152602001600020600082825401925050819055505050565b6000806000836127108162ffffff16101561322f57600560008662ffffff1662ffffff168152602001908152602001600020915060008260000160009054906101000a900473ffffffffffffffffffffffffffffffffffffffff1673ffffffffffffffffffffffffffffffffffffffff16141561321f57600954600c549350935061322e565b600082600b0154819150935093505b5b5050915091565b3373ffffffffffffffffffffffffffffffffffffffff16600360009054906101000a900473ffffffffffffffffffffffffffffffffffffffff1673ffffffffffffffffffffffffffffffffffffffff1614151561329257600080fd5b80600360006101000a81548173ffffffffffffffffffffffffffffffffffffffff021916908373ffffffffffffffffffffffffffffffffffffffff16021790555050565b6000600260008473ffffffffffffffffffffffffffffffffffffffff1673ffffffffffffffffffffffffffffffffffffffff16815260200190815260200160002060008373ffffffffffffffffffffffffffffffffffffffff1673ffffffffffffffffffffffffffffffffffffffff16815260200190815260200160002054905092915050565b6000806000836127108162ffffff16101561354457600560008662ffffff1662ffffff168152602001908152602001600020925060008360000160009054906101000a900473ffffffffffffffffffffffffffffffffffffffff1673ffffffffffffffffffffffffffffffffffffffff161415156133da57600080fd5b60095434101515156133eb57600080fd5b346004600082825401925050819055506064600b546009540281151561340d57fe5b049150600a54821061342157600a54613423565b815b600960008282540192505081905550338360000160006101000a81548173ffffffffffffffffffffffffffffffffffffffff021916908373ffffffffffffffffffffffffffffffffffffffff1602179055508462ffffff167f0abb7627f5a43ce55d691cf577de9c09e8fee6f2dd1f45678a55ce86fadfd6f28460000160009054906101000a900473ffffffffffffffffffffffffffffffffffffffff1634600042604051808573ffffffffffffffffffffffffffffffffffffffff1673ffffffffffffffffffffffffffffffffffffffff16815260200184815260200183815260200182815260200194505050505060405180910390a260008360110160006101000a81548163ffffffff021916908363ffffffff160217905550600193505b505050919050565b61014060405190810160405280600a905b600081526020019060019003908161355d5790505090565b610800604051908101604052806040905b60007effffffffffffffffffffffffffffffffffffffffffffffffffffffffffffff19168152602001906001900390816135865790505090565b826040601f016020900481019282156136695791602002820160005b8382111561363a57835183826101000a81548160ff02191690837f01000000000000000000000000000000000000000000000000000000000000009004021790555092602001926001016020816000010492830192600103026135dc565b80156136675782816101000a81549060ff021916905560010160208160000104928301926001030261363a565b505b50905061367691906136ff565b5090565b82600a81019282156136a9579160200282015b828111156136a857825182559160200191906001019061368d565b5b5090506136b6919061372f565b5090565b82600a81019282156136ee579160200282015b828111156136ed578251829060ff169055916020019190600101906136cd565b5b5090506136fb919061372f565b5090565b61372c91905b8082111561372857600081816101000a81549060ff021916905550600101613705565b5090565b90565b61375191905b8082111561374d576000816000905550600101613735565b5090565b905600a165627a7a72305820046882052da476d17ed81655850a150af2998f1bac40052a5e55f4deaa92a87d0029",
    "source": "pragma solidity ^0.4.2;\n\n/*\nToDo:\n- ##Users pay however much they want, no requirement on cost\n- ##Users can earn earnings on a property for up to (N+1)^2 minutes\n- ##Users get private use of a property for N/2 minutes\n- ##Owners in private mode costs 1 coins a minute\n- ##Timer is now 2 coins a second not 2 coins a hour\n- ##No free mode during the first 3 days, but \"increased earnings\" paying zero or 1 coin is treated like 2 coins\n    - ##So for the first 3 days, setting it for free gets it set to private for 1 minute and earns you 1->9 coins [Validate with Jaegar first]\n- ##Property prices start at 0.005 ETH and 100 PPT\n- ##Make sure total circulating supply actually is calculated right. Unit test that plz\n- Make getHoverText and getLink use a different data type\n*/\n\ncontract Token {\n    uint256 public totalSupply;\n    function balanceOf(address _owner) public constant returns (uint256 balance);\n    function transfer(address _to, uint256 _value) public returns (bool success);\n    function transferFrom(address _from, address _to, uint256 _value) public returns (bool success);\n    function approve(address _spender, uint256 _value) public returns (bool success);\n    function allowance(address _owner, address _spender) public constant returns (uint256 remaining);\n    event Transfer(address indexed _from, address indexed _to, uint256 _value);\n    event Approval(address indexed _owner, address indexed _spender, uint256 _value);\n}\n/*  ERC 20 token */\ncontract StandardToken is Token {\n\n    function transfer(address _to, uint256 _value) public returns (bool success) {\n      if (balances[msg.sender] >= _value && _value > 0) {\n        balances[msg.sender] -= _value;\n        balances[_to] += _value;\n        Transfer(msg.sender, _to, _value);\n        return true;\n      } else {\n        return false;\n      }\n    }\n\n    function transferFrom(address _from, address _to, uint256 _value) public returns (bool success) {\n      if (balances[_from] >= _value && allowed[_from][msg.sender] >= _value && _value > 0) {\n        balances[_to] += _value;\n        balances[_from] -= _value;\n        allowed[_from][msg.sender] -= _value;\n        Transfer(_from, _to, _value);\n        return true;\n      } else {\n        return false;\n      }\n    }\n\n    function balanceOf(address _owner) public constant returns (uint256 balance) {\n        return balances[_owner];\n    }\n\n    function approve(address _spender, uint256 _value) public returns (bool success) {\n        allowed[msg.sender][_spender] = _value;\n        Approval(msg.sender, _spender, _value);\n        return true;\n    }\n\n    function allowance(address _owner, address _spender) public constant returns (uint256 remaining) {\n      return allowed[_owner][_spender];\n    }\n\n    mapping (address => uint256) balances;\n    mapping (address => mapping (address => uint256)) allowed;\n}\n\ncontract VirtualRealEstate is StandardToken {\n    address owner;\n    uint256 ownerEth = 0;\n    \n    //Mapping of propertyID to property\n    mapping (uint24 => Property) map;\n    //propertyOwner to link\n    mapping (address => byte[64]) ownerLink;\n    //propertyRenter to link\n    mapping (address => byte[64]) ownerHoverText;\n    mapping (address => uint32) moderators; // 0 = Not, 1 = nsfw-power, 2 = ban-power, 3 = set-moderator-level-power\n    \n    uint256 priceETH;\n    uint256 PRICE_ETH_MIN_INCREASE = 1000;//10000000000000000000000; //0.0001 ETH\n    uint256 PRICE_ETH_MIN_PERCENT = 20; //0.0001 ETH\n    uint256 pricePPT;\n    uint256 PRICE_PPT_MIN_INCREASE = 10;\n    uint256 PRICE_PPT_MIN_PERCENT = 20;\n    uint256 payoutInterval;\n    \n    uint256 USER_BUY_CUT_PERCENT = 98; //%\n    \n    uint256 PROPERTY_GENERATES_PER_MINUTE = 1;\n    uint256 FREE_COLOR_SETTING_UNTIL;\n    \n    event PropertyColorUpdate(uint24 indexed property, uint256[10] colors, uint256 lastUpdate, address lastUpdaterPayee);\n    event PropertyColorUpdatePixel(uint24 indexed property, uint8 row, uint24 rgb);\n    event PropertyBought(uint24 indexed property,  address newOwner, uint256 ethAmount, uint256 PPTAmount, uint256 timestamp); //Added ethAmount, PPTAmount and timestamp\n    event SetUserHoverText(address indexed user, byte[64] newHoverText);\n    event SetUserSetLink(address indexed user, byte[64] newLink);\n    event PropertySetForSale(uint24 indexed property, uint256 forSalePrice);\n    event DelistProperty(uint24 indexed property);\n    event SetPropertyPublic(uint24 indexed property);\n    event SetPropertyPrivate(uint24 indexed property, uint32 numMinutesPrivate);\n    event Bid(uint24 indexed property, uint256 bid);\n    \n    struct TradeOffer {\n        uint256 ethPer;\n        uint256 PPTAmount;\n        bool buyingPPT;\n    }\n    \n    struct Property {\n        address owner;\n        uint256[10] colors; //10x10 rgb pixel colors per property\n        uint256 salePrice;\n        address lastUpdater;\n        bool isInPrivateMode;\n        uint256 lastUpdate; //Last Update\n        uint256 becomePublic;\n        uint256 earnUntil;\n        uint256 lastBid;\n        uint32 flag; //0 == none, 1 == nsfw, 2 == ban\n    }\n    \n    modifier ownerOnly() {\n        require(owner == msg.sender);\n        _;\n    }\n    \n    modifier validPropertyID(uint24 propertyID) {\n        if (propertyID < 10000) {\n            _;\n        }\n    }\n    \n    function VirtualRealEstate() public {\n        owner = msg.sender;\n        totalSupply = 0;\n        FREE_COLOR_SETTING_UNTIL = now + 3 days;\n        pricePPT = 100;\n        priceETH = 10000;//1000000000000000000; //0.001 ETH\n        moderators[msg.sender] = 3;\n        payoutInterval = (1 minutes);\n    }\n    function setFlag(uint24 propertyID, uint32 flag) public validPropertyID(propertyID)  {\n        Property storage property = map[propertyID];\n\n        require(flag < 3);\n\n        uint256 moderationLevel = moderators[msg.sender];\n        require(moderationLevel >= 1); //Must be moderator or higher\n    \n        if (flag == 2) { //If ban, must be higher than nsfw\n            require(moderationLevel >= 2);\n            require(property.isInPrivateMode); //Can't ban an owner's property if a public user did it\n            property.colors = [0, 0, 0, 0, 0, 0, 0, 0, 0, 0];\n        }\n\n        property.flag = flag;\n    }\n    function setHoverText(byte[64] text) public {\n        ownerHoverText[msg.sender] = text;\n        SetUserHoverText(msg.sender, text);\n    }\n    function setLink(byte[64] link) public {\n        ownerLink[msg.sender] = link;\n        SetUserSetLink(msg.sender, link);\n    }\n    function getSystemSalePrices() public view returns(uint256, uint256) {\n        return (priceETH, pricePPT);\n    }\n    function getForSalePrices(uint24 propertyID) public validPropertyID(propertyID) view returns(uint256, uint256) {\n        Property storage property = map[propertyID];\n        if (property.owner == 0) {\n            return (priceETH, pricePPT);\n        } else {\n            return (0, property.salePrice);\n        }\n    }\n    function getHoverText(address user) public view returns(byte[64]) {\n        return ownerHoverText[user];\n    }\n    function getLink(address user) public view returns(byte[64]) {\n        return ownerLink[user];\n    }\n    \n    function getPropertyColors(uint24 propertyID) public validPropertyID(propertyID) view returns(uint256[10]) {\n        return map[propertyID].colors;\n    }\n    \n    function getPropertyData(uint24 propertyID) public validPropertyID(propertyID) view returns(address, uint256, uint256, uint256, bool, uint256, uint256) {\n        Property storage property = map[propertyID];\n        if (property.owner == 0) {\n            return (property.owner, priceETH, pricePPT, property.lastUpdate, property.isInPrivateMode, property.becomePublic, property.lastBid);\n        } else {\n            return (property.owner, 0, property.salePrice, property.lastUpdate, property.isInPrivateMode, property.becomePublic, property.lastBid);\n        }\n    }\n    function tryForcePublic(uint24 propertyID) public validPropertyID(propertyID) {\n        Property storage property = map[propertyID];\n        //If its private when it shouldnt be\n        if (property.isInPrivateMode && property.becomePublic < now) {\n            property.isInPrivateMode = false;\n        }\n    }\n    function getProjectedPayout(uint24 propertyID) public view returns(uint256) {\n        Property storage property = map[propertyID];\n        if (!property.isInPrivateMode && property.lastUpdate != 0) {\n            uint256 earnedUntil = (now < property.earnUntil) ? now : property.earnUntil;\n\n            uint256 minutesSinceLastColourChange = (earnedUntil - property.lastUpdate) / payoutInterval;\n            return minutesSinceLastColourChange * PROPERTY_GENERATES_PER_MINUTE;\n        }\n        return 0;\n    }\n    //Change a 10x10 == 70 | 30 | 0 cost\n    function setColors(uint24 propertyID, uint256[10] newColors, uint256 pptToSpend) public validPropertyID(propertyID) returns(bool) {\n        Property storage property = map[propertyID];\n\n        tryForcePublic(propertyID);\n        \n        uint256 pptSpent = pptToSpend;\n\n        //If first 3 days and we spent <2 coins, treat it as if we spent 2\n        if (now <= FREE_COLOR_SETTING_UNTIL && pptToSpend < 2) { \n            pptSpent = 2;\n        }\n        //If we are in the first 3 days, set pptToSpend to = 2, but don't charge them. Maybe give them the amount they don't have to subtract later?\n\n        bool updateOccured = false;\n\n        if (property.isInPrivateMode) {\n            require(msg.sender == property.owner);\n            require(property.flag != 2);\n            //TODO: What if a owner tries to set a property which is locked by a Free-Use user?\n            updateOccured = true;\n        } else if (property.becomePublic < now) {\n            require(balances[msg.sender] >= pptToSpend);\n            uint256 minutesOfEarning = (pptSpent + 1) * (pptSpent + 1) * payoutInterval; //(N+1)^2 coins earned max/minutes we can earn from\n            uint256 minutesOfLock = (pptSpent / 2) * payoutInterval; //N/2 minutes of user-private mode\n            balances[msg.sender] -= pptToSpend;\n            totalSupply -= pptToSpend;\n            uint256 payoutEach = getProjectedPayout(propertyID);\n            if (payoutEach > 0) {\n                if (property.lastUpdater != 0) {\n                    balances[property.lastUpdater] += payoutEach;\n                    totalSupply += payoutEach;\n                }\n                if (property.owner != 0) {\n                    balances[property.owner] += payoutEach;\n                    totalSupply += payoutEach;\n                }\n            }\n            updateOccured = true;\n            property.becomePublic = now + minutesOfLock;\n            property.earnUntil = now + minutesOfEarning;\n        }\n        \n        if (updateOccured) {\n            PropertyColorUpdate(propertyID, newColors, now, property.lastUpdater);\n            property.colors = newColors;\n            property.lastUpdater = msg.sender;\n            property.lastUpdate = now;\n        }\n        return updateOccured;\n    }\n    function setPropertyMode(uint24 propertyID, bool isInPrivateMode, uint32 numMinutesPrivate) public validPropertyID(propertyID) {\n        Property storage property = map[propertyID];\n        require(msg.sender == property.owner);\n        if (isInPrivateMode) {\n            require(numMinutesPrivate > 0);\n            require(balances[msg.sender] >= numMinutesPrivate);\n            balances[msg.sender] -= numMinutesPrivate;\n            totalSupply -= numMinutesPrivate;\n            property.becomePublic = now + payoutInterval * numMinutesPrivate;\n        } else {\n            property.becomePublic = 0;\n        }\n        property.isInPrivateMode = isInPrivateMode;\n        \n        if (isInPrivateMode) {\n            SetPropertyPrivate(propertyID, numMinutesPrivate);\n        } else {\n            SetPropertyPublic(propertyID);\n        }\n    }\n    //TODO: Repurpose this if we want or discard otherwise. Isn't harmfull but kinda useless.\n    function setRowColors(uint24 propertyID, uint8 row, uint24 newColorData) public validPropertyID(propertyID) returns(bool) {\n        Property storage property = map[propertyID];\n        \n        require(row >= 0 && row <= 9);\n        \n        uint256 cost = property.owner != 0 ? 1 : 2;\n        \n        if (property.isInPrivateMode) {\n                require(msg.sender == property.owner);\n                cost = 0;\n        } \n        \n        require(balances[msg.sender] >= cost);\n        \n        balances[msg.sender] -= cost; //Burn the coin to set the color\n        totalSupply -= cost;\n        \n        property.colors[row] = newColorData;\n        property.lastUpdater = msg.sender;\n\n        PropertyColorUpdatePixel(propertyID, row, newColorData);\n        \n        return true;\n    }\n    \n    function transferProperty(uint24 propertyID, address newOwner) public validPropertyID(propertyID) returns(bool) {\n        Property storage property = map[propertyID];\n        \n        require(property.owner == msg.sender);\n        require(newOwner != 0);\n        \n        property.owner = newOwner;\n\n        PropertyBought(propertyID, newOwner, 0, 0, now);\n        \n        return true;\n    }\n    function buyProperty(uint24 propertyID, uint256 PPTValue) public validPropertyID(propertyID) payable returns(bool) {\n        Property storage property = map[propertyID];\n        \n        //Must be the first purchase, otherwise do it with PPT\n        require(property.owner == 0);\n        //Required to avoid underflowing (pricePPT - PPTValue)\n        require(PPTValue <= pricePPT);\n        require(balances[msg.sender] >= PPTValue);\n        require(PPTValue != 0);\n        \n        uint256 PPTLeft = pricePPT - PPTValue;\n        uint256 ethLeft = priceETH / pricePPT * PPTLeft;\n        \n        require(msg.value >= ethLeft);\n    \n        balances[owner] += PPTValue;\n        balances[msg.sender] -= PPTValue;\n\n        uint256 minPercent = pricePPT * PRICE_PPT_MIN_PERCENT / 100;\n        pricePPT += ((minPercent < PRICE_PPT_MIN_INCREASE) ? minPercent : PRICE_PPT_MIN_INCREASE) * PPTValue / pricePPT;\n\n        ownerEth += msg.value;\n        minPercent = priceETH * PRICE_ETH_MIN_PERCENT / 100;\n        priceETH += ((minPercent < PRICE_ETH_MIN_INCREASE) ? minPercent : PRICE_ETH_MIN_INCREASE) * PPTLeft / PPTValue;\n        \n        property.owner = msg.sender;\n        \n        PropertyBought(propertyID, property.owner, msg.value, PPTValue, now);\n\n        property.owner = msg.sender;\n        property.flag = 0;\n        \n        return true;\n    }\n    function buyPropertyInPPT(uint24 propertyID, uint256 PPTValue) public validPropertyID(propertyID) returns(bool) {\n        Property storage property = map[propertyID];\n        \n        //If they have no owner, do the PPT price and update it\n        if (property.owner == 0) {\n            property.salePrice = pricePPT;\n            property.owner = owner;\n            uint256 minPercent = pricePPT * PRICE_PPT_MIN_PERCENT / 100;\n            pricePPT += (minPercent < PRICE_PPT_MIN_INCREASE) ? minPercent : PRICE_PPT_MIN_INCREASE;\n        }\n        \n        require(property.salePrice <= PPTValue);\n        require(balances[msg.sender] >= property.salePrice);\n        \n        uint256 amountTransfered = 0;\n        amountTransfered = property.salePrice * USER_BUY_CUT_PERCENT / 100;\n        \n        balances[msg.sender] -= amountTransfered;\n        balances[property.owner] += amountTransfered;\n        balances[owner] += PPTValue - amountTransfered;\n        \n        PropertyBought(propertyID, property.owner, 0, property.salePrice, now);\n\n        property.salePrice = 0;\n        property.owner = msg.sender;\n        property.isInPrivateMode = false;\n        property.flag = 0;\n        \n        return true;\n    }\n    //Use Case: Buyer wants to buy a property.\n    function buyPropertyInETH(uint24 propertyID) public validPropertyID(propertyID) payable returns(bool) {\n        Property storage property = map[propertyID];\n        \n        require(property.owner == 0);\n        require(msg.value >= priceETH);\n        \n        ownerEth += msg.value;\n    \n        uint256 minPercent = priceETH * PRICE_ETH_MIN_PERCENT / 100;\n        priceETH += (minPercent < PRICE_ETH_MIN_INCREASE) ? minPercent : PRICE_ETH_MIN_INCREASE;\n        \n        property.owner = msg.sender;\n        \n        PropertyBought(propertyID, property.owner, msg.value, 0, now);\n        property.flag = 0;\n        \n        return true;\n    }\n    \n    //Use Case: Owner of a property lists for sale at a given price\n    function listForSale(uint24 propertyID, uint128 price ) public validPropertyID(propertyID) returns(bool) {\n        Property storage property = map[propertyID];\n      \n        require(price != 0);\n      \n        require(msg.sender == property.owner); //Must be the owner\n        //You can listForSale an already listed item to update the listing\n        property.salePrice = price;\n        \n        PropertySetForSale(propertyID, property.salePrice);\n        \n        return true;\n    }\n    \n    //Use Case: Owner of a property delists from sale offer\n    function delist(uint24 propertyID) public validPropertyID(propertyID) returns(bool) {\n        Property storage property = map[propertyID];\n        \n        require(msg.sender == property.owner); //Must be the owner\n\n        property.salePrice = 0;\n        \n        DelistProperty(propertyID);\n        \n        return true;\n    }\n    function setModeratorLevel(address user, uint32 level) public {\n        require(moderators[msg.sender] == 3);\n        require(level < 4);\n        require(user != 0);\n        moderators[user] = level;\n    }\n\n    function makeBid(uint24 propertyID, uint256 bidAmount) public validPropertyID(propertyID) {\n        if (balances[msg.sender] >= bidAmount) {\n            Property storage property = map[propertyID];\n            Bid(propertyID, bidAmount);\n            property.lastBid = bidAmount;\n        }\n    }\n    \n    //////////////////////////////////////////////////////\n    ////Owner Sections: Meta-Functions For Owner only/////\n    //////////////////////////////////////////////////////\n    function withdraw(uint256 amount) public ownerOnly() {\n        if (amount <= ownerEth) {\n            owner.transfer(amount);\n        }\n    }\n    \n    function withdrawAll() public ownerOnly() {\n        owner.transfer(ownerEth);\n    }\n    \n    function changeOwners(address newOwner) public ownerOnly() {\n        owner = newOwner;\n    }\n    \n    ////////////////////////////////////////////////\n    ///TODO: TESTING ONLY: REMOVE BEFORE RELEASE:///\n    ////////////////////////////////////////////////\n    function addCoin(address user, uint256 amount) public ownerOnly() {\n        require(msg.sender == owner);\n        balances[user] += amount;\n    }\n}",
    "sourcePath": "/Volumes/Lexar/DATA/PixelRealEstate/PixelRealEstate/contracts/VirtualRealEstate.sol",
    "compiler": {
        "name": "solc",
        "version": "0.4.18+commit.9cf6e910.Emscripten.clang"
    },
    "schemaVersion": "1.0.1",
    "updatedAt": "2018-03-02T11:05:28.523Z"
}