{
  "contractName": "VirtualRealEstate",
  "abi": [
    {
      "constant": true,
      "inputs": [
        {
          "name": "propertyID",
          "type": "uint24"
        }
      ],
      "name": "getPropertyData",
      "outputs": [
        {
          "name": "",
          "type": "address"
        },
        {
          "name": "",
          "type": "uint128"
        },
        {
          "name": "",
          "type": "address"
        },
        {
          "name": "",
          "type": "uint256"
        },
        {
          "name": "",
          "type": "uint256"
        },
        {
          "name": "",
          "type": "uint128"
        }
      ],
      "payable": false,
      "stateMutability": "view",
      "type": "function"
    },
    {
      "constant": false,
      "inputs": [
        {
          "name": "propertyID",
          "type": "uint24"
        },
        {
          "name": "price",
          "type": "uint128"
        }
      ],
      "name": "listForSale",
      "outputs": [
        {
          "name": "",
          "type": "bool"
        }
      ],
      "payable": false,
      "stateMutability": "nonpayable",
      "type": "function"
    },
    {
      "constant": true,
      "inputs": [
        {
          "name": "propertyID",
          "type": "uint24"
        }
      ],
      "name": "getPropertyColors",
      "outputs": [
        {
          "name": "",
          "type": "uint256[10]"
        }
      ],
      "payable": false,
      "stateMutability": "view",
      "type": "function"
    },
    {
      "constant": false,
      "inputs": [
        {
          "name": "text",
          "type": "bytes32[2]"
        }
      ],
      "name": "setHoverText",
      "outputs": [],
      "payable": false,
      "stateMutability": "nonpayable",
      "type": "function"
    },
    {
      "constant": false,
      "inputs": [
        {
          "name": "link",
          "type": "bytes32[2]"
        }
      ],
      "name": "setLink",
      "outputs": [],
      "payable": false,
      "stateMutability": "nonpayable",
      "type": "function"
    },
    {
      "constant": false,
      "inputs": [
        {
          "name": "propertyID",
          "type": "uint24"
        }
      ],
      "name": "rentProperty",
      "outputs": [
        {
          "name": "",
          "type": "bool"
        }
      ],
      "payable": true,
      "stateMutability": "payable",
      "type": "function"
    },
    {
      "constant": false,
      "inputs": [
        {
          "name": "amount",
          "type": "uint256"
        }
      ],
      "name": "withdraw",
      "outputs": [],
      "payable": false,
      "stateMutability": "nonpayable",
      "type": "function"
    },
    {
      "constant": false,
      "inputs": [
        {
          "name": "defaultPrice",
          "type": "uint128"
        }
      ],
      "name": "changeDefaultPrice",
      "outputs": [],
      "payable": false,
      "stateMutability": "nonpayable",
      "type": "function"
    },
    {
      "constant": false,
      "inputs": [
        {
          "name": "propertyID",
          "type": "uint24"
        }
      ],
      "name": "stopRenting",
      "outputs": [
        {
          "name": "",
          "type": "bool"
        }
      ],
      "payable": false,
      "stateMutability": "nonpayable",
      "type": "function"
    },
    {
      "constant": true,
      "inputs": [
        {
          "name": "propertyID",
          "type": "uint24"
        }
      ],
      "name": "getLink",
      "outputs": [
        {
          "name": "",
          "type": "bytes32[2]"
        }
      ],
      "payable": false,
      "stateMutability": "view",
      "type": "function"
    },
    {
      "constant": true,
      "inputs": [
        {
          "name": "propertyID",
          "type": "uint24"
        }
      ],
      "name": "getHoverText",
      "outputs": [
        {
          "name": "",
          "type": "bytes32[2]"
        }
      ],
      "payable": false,
      "stateMutability": "view",
      "type": "function"
    },
    {
      "constant": true,
      "inputs": [
        {
          "name": "propertyID",
          "type": "uint24"
        }
      ],
      "name": "getForSalePrice",
      "outputs": [
        {
          "name": "",
          "type": "uint128"
        }
      ],
      "payable": false,
      "stateMutability": "view",
      "type": "function"
    },
    {
      "constant": false,
      "inputs": [
        {
          "name": "propertyID",
          "type": "uint24"
        }
      ],
      "name": "buyProperty",
      "outputs": [
        {
          "name": "",
          "type": "bool"
        }
      ],
      "payable": true,
      "stateMutability": "payable",
      "type": "function"
    },
    {
      "constant": false,
      "inputs": [],
      "name": "withdrawAll",
      "outputs": [],
      "payable": false,
      "stateMutability": "nonpayable",
      "type": "function"
    },
    {
      "constant": true,
      "inputs": [
        {
          "name": "propertyID",
          "type": "uint24"
        }
      ],
      "name": "getForRentPrice",
      "outputs": [
        {
          "name": "",
          "type": "uint128"
        }
      ],
      "payable": false,
      "stateMutability": "view",
      "type": "function"
    },
    {
      "constant": true,
      "inputs": [
        {
          "name": "x",
          "type": "uint24"
        },
        {
          "name": "row",
          "type": "uint24"
        }
      ],
      "name": "getPropertyColorsOfRow",
      "outputs": [
        {
          "name": "",
          "type": "uint256[10]"
        }
      ],
      "payable": false,
      "stateMutability": "view",
      "type": "function"
    },
    {
      "constant": false,
      "inputs": [
        {
          "name": "propertyID",
          "type": "uint24"
        },
        {
          "name": "rentPrice",
          "type": "uint128"
        },
        {
          "name": "rentDuration",
          "type": "uint128"
        }
      ],
      "name": "listForRent",
      "outputs": [
        {
          "name": "",
          "type": "bool"
        }
      ],
      "payable": false,
      "stateMutability": "nonpayable",
      "type": "function"
    },
    {
      "constant": false,
      "inputs": [
        {
          "name": "propertyID",
          "type": "uint24"
        },
        {
          "name": "delistFromSale",
          "type": "bool"
        },
        {
          "name": "delistFromRent",
          "type": "bool"
        }
      ],
      "name": "delist",
      "outputs": [
        {
          "name": "",
          "type": "bool"
        }
      ],
      "payable": false,
      "stateMutability": "nonpayable",
      "type": "function"
    },
    {
      "constant": false,
      "inputs": [
        {
          "name": "newOwner",
          "type": "address"
        }
      ],
      "name": "changeOwners",
      "outputs": [],
      "payable": false,
      "stateMutability": "nonpayable",
      "type": "function"
    },
    {
      "constant": false,
      "inputs": [
        {
          "name": "propertyID",
          "type": "uint24"
        },
        {
          "name": "newColors",
          "type": "uint256[10]"
        }
      ],
      "name": "setColors",
      "outputs": [
        {
          "name": "",
          "type": "bool"
        }
      ],
      "payable": false,
      "stateMutability": "nonpayable",
      "type": "function"
    },
    {
      "inputs": [],
      "payable": false,
      "stateMutability": "nonpayable",
      "type": "constructor"
    },
    {
      "anonymous": false,
      "inputs": [
        {
          "indexed": true,
          "name": "property",
          "type": "uint24"
        },
        {
          "indexed": false,
          "name": "colors",
          "type": "uint256[10]"
        }
      ],
      "name": "PropertyColorUpdate",
      "type": "event"
    }
  ],
  "bytecode": "0x6060604052600060015567016345785d8a0000600560006101000a8154816fffffffffffffffffffffffffffffffff02191690836fffffffffffffffffffffffffffffffff1602179055506062600560106101000a8154816fffffffffffffffffffffffffffffffff02191690836fffffffffffffffffffffffffffffffff1602179055506062600660006101000a8154816fffffffffffffffffffffffffffffffff02191690836fffffffffffffffffffffffffffffffff16021790555034156100c957600080fd5b336000806101000a81548173ffffffffffffffffffffffffffffffffffffffff021916908373ffffffffffffffffffffffffffffffffffffffff160217905550612762806101186000396000f300606060405260043610610112576000357c0100000000000000000000000000000000000000000000000000000000900463ffffffff168063075773fd1461011757806316035c7c14610216578063164e0aba146102715780631d04458d146102d5578063284b8a641461031b5780632d37a6ea146103615780632e1a7d4d1461039657806346d7e5d4146103b9578063497e37a5146103ee5780635211aa1a1461042e5780637a5f97ca1461049257806381c7110b146104f657806383dc873214610556578063853828b61461058b578063a107f326146105a0578063bd5ee84614610600578063c2675a3914610672578063cc01a8d1146106e8578063d7963f941461073e578063dc4cb7f514610777575b600080fd5b341561012257600080fd5b61013d600480803562ffffff169060200190919050506107e4565b604051808773ffffffffffffffffffffffffffffffffffffffff1673ffffffffffffffffffffffffffffffffffffffff168152602001866fffffffffffffffffffffffffffffffff166fffffffffffffffffffffffffffffffff1681526020018573ffffffffffffffffffffffffffffffffffffffff1673ffffffffffffffffffffffffffffffffffffffff168152602001848152602001838152602001826fffffffffffffffffffffffffffffffff166fffffffffffffffffffffffffffffffff168152602001965050505050505060405180910390f35b341561022157600080fd5b610257600480803562ffffff169060200190919080356fffffffffffffffffffffffffffffffff169060200190919050506108cc565b604051808215151515815260200191505060405180910390f35b341561027c57600080fd5b610297600480803562ffffff16906020019091905050610ae6565b6040518082600a60200280838360005b838110156102c25780820151818401526020810190506102a7565b5050505090500191505060405180910390f35b34156102e057600080fd5b61031960048080604001906002806020026040519081016040528092919082600260200280828437820191505050505091905050610b63565b005b341561032657600080fd5b61035f60048080604001906002806020026040519081016040528092919082600260200280828437820191505050505091905050610bb5565b005b61037c600480803562ffffff16906020019091905050610c07565b604051808215151515815260200191505060405180910390f35b34156103a157600080fd5b6103b76004808035906020019091905050610f6c565b005b34156103c457600080fd5b6103ec60048080356fffffffffffffffffffffffffffffffff16906020019091905050611037565b005b34156103f957600080fd5b610414600480803562ffffff169060200190919050506110ce565b604051808215151515815260200191505060405180910390f35b341561043957600080fd5b610454600480803562ffffff169060200190919050506111ae565b6040518082600260200280838360005b8381101561047f578082015181840152602081019050610464565b5050505090500191505060405180910390f35b341561049d57600080fd5b6104b8600480803562ffffff16906020019091905050611399565b6040518082600260200280838360005b838110156104e35780820151818401526020810190506104c8565b5050505090500191505060405180910390f35b341561050157600080fd5b61051c600480803562ffffff16906020019091905050611584565b60405180826fffffffffffffffffffffffffffffffff166fffffffffffffffffffffffffffffffff16815260200191505060405180910390f35b610571600480803562ffffff16906020019091905050611623565b604051808215151515815260200191505060405180910390f35b341561059657600080fd5b61059e611b9f565b005b34156105ab57600080fd5b6105c6600480803562ffffff16906020019091905050611c5f565b60405180826fffffffffffffffffffffffffffffffff166fffffffffffffffffffffffffffffffff16815260200191505060405180910390f35b341561060b57600080fd5b610634600480803562ffffff1690602001909190803562ffffff16906020019091905050611cfe565b6040518082600a60200280838360005b8381101561065f578082015181840152602081019050610644565b5050505090500191505060405180910390f35b341561067d57600080fd5b6106ce600480803562ffffff169060200190919080356fffffffffffffffffffffffffffffffff169060200190919080356fffffffffffffffffffffffffffffffff16906020019091905050611e07565b604051808215151515815260200191505060405180910390f35b34156106f357600080fd5b610724600480803562ffffff1690602001909190803515159060200190919080351515906020019091905050612060565b604051808215151515815260200191505060405180910390f35b341561074957600080fd5b610775600480803573ffffffffffffffffffffffffffffffffffffffff169060200190919050506122e8565b005b341561078257600080fd5b6107ca600480803562ffffff1690602001909190806101400190600a806020026040519081016040528092919082600a60200280828437820191505050505091905050612386565b604051808215151515815260200191505060405180910390f35b6000806000806000806000876127108162ffffff1610156108c157600260008a62ffffff1662ffffff16815260200190815260200160002091508160000160009054906101000a900473ffffffffffffffffffffffffffffffffffffffff1682600b0160009054906101000a90046fffffffffffffffffffffffffffffffff1683600c0160009054906101000a900473ffffffffffffffffffffffffffffffffffffffff1684600d015485600e015486600f0160009054906101000a90046fffffffffffffffffffffffffffffffff169750975097509750975097505b505091939550919395565b600080836127108162ffffff161015610ade57600260008662ffffff1662ffffff16815260200190815260200160002091506000846fffffffffffffffffffffffffffffffff161415151561092057600080fd5b600082600f0160009054906101000a90046fffffffffffffffffffffffffffffffff166fffffffffffffffffffffffffffffffff161415801561099e5750600082600c0160009054906101000a900473ffffffffffffffffffffffffffffffffffffffff1673ffffffffffffffffffffffffffffffffffffffff1614155b80156109ad57504282600e0154105b156109f757600082600c0160006101000a81548173ffffffffffffffffffffffffffffffffffffffff021916908373ffffffffffffffffffffffffffffffffffffffff1602179055505b8160000160009054906101000a900473ffffffffffffffffffffffffffffffffffffffff1673ffffffffffffffffffffffffffffffffffffffff163373ffffffffffffffffffffffffffffffffffffffff16141515610a5557600080fd5b600082600c0160009054906101000a900473ffffffffffffffffffffffffffffffffffffffff1673ffffffffffffffffffffffffffffffffffffffff16141515610a9e57600080fd5b8382600b0160006101000a8154816fffffffffffffffffffffffffffffffff02191690836fffffffffffffffffffffffffffffffff160217905550600192505b505092915050565b610aee612613565b816127108162ffffff161015610b5d57600260008462ffffff1662ffffff168152602001908152602001600020600101600a806020026040519081016040528092919082600a8015610b55576020028201915b815481526020019060010190808311610b41575b505050505091505b50919050565b80600460003373ffffffffffffffffffffffffffffffffffffffff1673ffffffffffffffffffffffffffffffffffffffff168152602001908152602001600020906002610bb192919061263c565b5050565b80600360003373ffffffffffffffffffffffffffffffffffffffff1673ffffffffffffffffffffffffffffffffffffffff168152602001908152602001600020906002610c0392919061263c565b5050565b600080600080846127108162ffffff161015610f6357600260008762ffffff1662ffffff168152602001908152602001600020935083600f0160009054906101000a90046fffffffffffffffffffffffffffffffff166fffffffffffffffffffffffffffffffff1634811515610c7957fe5b049250600084600f0160009054906101000a90046fffffffffffffffffffffffffffffffff166fffffffffffffffffffffffffffffffff1614158015610cfa5750600084600c0160009054906101000a900473ffffffffffffffffffffffffffffffffffffffff1673ffffffffffffffffffffffffffffffffffffffff1614155b8015610d0957504284600e0154105b15610d5357600084600c0160006101000a81548173ffffffffffffffffffffffffffffffffffffffff021916908373ffffffffffffffffffffffffffffffffffffffff1602179055505b60008460000160009054906101000a900473ffffffffffffffffffffffffffffffffffffffff1673ffffffffffffffffffffffffffffffffffffffff1614151515610d9d57600080fd5b600084600f0160009054906101000a90046fffffffffffffffffffffffffffffffff166fffffffffffffffffffffffffffffffff1614151515610ddf57600080fd5b60018310151515610def57600080fd5b600084600c0160009054906101000a900473ffffffffffffffffffffffffffffffffffffffff1673ffffffffffffffffffffffffffffffffffffffff16141515610e3857600080fd5b6064600660009054906101000a90046fffffffffffffffffffffffffffffffff166fffffffffffffffffffffffffffffffff163402811515610e7657fe5b0491508360000160009054906101000a900473ffffffffffffffffffffffffffffffffffffffff1673ffffffffffffffffffffffffffffffffffffffff166108fc839081150290604051600060405180830381858888f193505050501515610edd57600080fd5b3384600c0160006101000a81548173ffffffffffffffffffffffffffffffffffffffff021916908373ffffffffffffffffffffffffffffffffffffffff16021790555082420184600d01541015610f405783600d015484600e0181905550610f4c565b82420184600e01819055505b813403600160008282540192505081905550600194505b50505050919050565b3373ffffffffffffffffffffffffffffffffffffffff166000809054906101000a900473ffffffffffffffffffffffffffffffffffffffff1673ffffffffffffffffffffffffffffffffffffffff16141515610fc757600080fd5b60015481111515611034576000809054906101000a900473ffffffffffffffffffffffffffffffffffffffff1673ffffffffffffffffffffffffffffffffffffffff166108fc829081150290604051600060405180830381858888f19350505050151561103357600080fd5b5b50565b3373ffffffffffffffffffffffffffffffffffffffff166000809054906101000a900473ffffffffffffffffffffffffffffffffffffffff1673ffffffffffffffffffffffffffffffffffffffff1614151561109257600080fd5b80600560006101000a8154816fffffffffffffffffffffffffffffffff02191690836fffffffffffffffffffffffffffffffff16021790555050565b600080826127108162ffffff1610156111a757600260008562ffffff1662ffffff168152602001908152602001600020915081600c0160009054906101000a900473ffffffffffffffffffffffffffffffffffffffff1673ffffffffffffffffffffffffffffffffffffffff163373ffffffffffffffffffffffffffffffffffffffff1614151561115e57600080fd5b600082600c0160006101000a81548173ffffffffffffffffffffffffffffffffffffffff021916908373ffffffffffffffffffffffffffffffffffffffff160217905550600192505b5050919050565b6111b6612682565b600080836127108162ffffff16101561139157600260008662ffffff1662ffffff1681526020019081526020016000209250600083600c0160009054906101000a900473ffffffffffffffffffffffffffffffffffffffff1673ffffffffffffffffffffffffffffffffffffffff1614158061126d575060008360000160009054906101000a900473ffffffffffffffffffffffffffffffffffffffff1673ffffffffffffffffffffffffffffffffffffffff1614155b151561127857600080fd5b600083600c0160009054906101000a900473ffffffffffffffffffffffffffffffffffffffff1673ffffffffffffffffffffffffffffffffffffffff1614156112e7578260000160009054906101000a900473ffffffffffffffffffffffffffffffffffffffff16915061130f565b82600c0160009054906101000a900473ffffffffffffffffffffffffffffffffffffffff1691505b600360008373ffffffffffffffffffffffffffffffffffffffff1673ffffffffffffffffffffffffffffffffffffffff168152602001908152602001600020600280602002604051908101604052809291908260028015611389576020028201915b81546000191681526020019060010190808311611371575b505050505093505b505050919050565b6113a1612682565b600080836127108162ffffff16101561157c57600260008662ffffff1662ffffff1681526020019081526020016000209250600083600c0160009054906101000a900473ffffffffffffffffffffffffffffffffffffffff1673ffffffffffffffffffffffffffffffffffffffff16141580611458575060008360000160009054906101000a900473ffffffffffffffffffffffffffffffffffffffff1673ffffffffffffffffffffffffffffffffffffffff1614155b151561146357600080fd5b600083600c0160009054906101000a900473ffffffffffffffffffffffffffffffffffffffff1673ffffffffffffffffffffffffffffffffffffffff1614156114d2578260000160009054906101000a900473ffffffffffffffffffffffffffffffffffffffff1691506114fa565b82600c0160009054906101000a900473ffffffffffffffffffffffffffffffffffffffff1691505b600460008373ffffffffffffffffffffffffffffffffffffffff1673ffffffffffffffffffffffffffffffffffffffff168152602001908152602001600020600280602002604051908101604052809291908260028015611574576020028201915b8154600019168152602001906001019080831161155c575b505050505093505b505050919050565b600080826127108162ffffff16101561161c57600260008562ffffff1662ffffff1681526020019081526020016000209150600082600b0160009054906101000a90046fffffffffffffffffffffffffffffffff166fffffffffffffffffffffffffffffffff16141515156115f857600080fd5b81600b0160009054906101000a90046fffffffffffffffffffffffffffffffff1692505b5050919050565b6000806000836127108162ffffff161015611b97576000600260008762ffffff1662ffffff16815260200190815260200160002060000160009054906101000a900473ffffffffffffffffffffffffffffffffffffffff1673ffffffffffffffffffffffffffffffffffffffff16141561178d576000809054906101000a900473ffffffffffffffffffffffffffffffffffffffff16600260008762ffffff1662ffffff16815260200190815260200160002060000160006101000a81548173ffffffffffffffffffffffffffffffffffffffff021916908373ffffffffffffffffffffffffffffffffffffffff160217905550600560009054906101000a90046fffffffffffffffffffffffffffffffff16600260008762ffffff1662ffffff168152602001908152602001600020600b0160006101000a8154816fffffffffffffffffffffffffffffffff02191690836fffffffffffffffffffffffffffffffff1602179055505b600260008662ffffff1662ffffff1681526020019081526020016000209250600083600f0160009054906101000a90046fffffffffffffffffffffffffffffffff166fffffffffffffffffffffffffffffffff161415801561182a5750600083600c0160009054906101000a900473ffffffffffffffffffffffffffffffffffffffff1673ffffffffffffffffffffffffffffffffffffffff1614155b801561183957504283600e0154105b1561188357600083600c0160006101000a81548173ffffffffffffffffffffffffffffffffffffffff021916908373ffffffffffffffffffffffffffffffffffffffff1602179055505b600083600b0160009054906101000a90046fffffffffffffffffffffffffffffffff166fffffffffffffffffffffffffffffffff16141515156118c557600080fd5b600083600c0160009054906101000a900473ffffffffffffffffffffffffffffffffffffffff1673ffffffffffffffffffffffffffffffffffffffff1614151561190e57600080fd5b82600b0160009054906101000a90046fffffffffffffffffffffffffffffffff166fffffffffffffffffffffffffffffffff16341015151561194f57600080fd5b6000915060008360000160009054906101000a900473ffffffffffffffffffffffffffffffffffffffff1673ffffffffffffffffffffffffffffffffffffffff16141515611a6f576064600560109054906101000a90046fffffffffffffffffffffffffffffffff1684600b0160009054906101000a90046fffffffffffffffffffffffffffffffff16026fffffffffffffffffffffffffffffffff168115156119f557fe5b0491508260000160009054906101000a900473ffffffffffffffffffffffffffffffffffffffff1673ffffffffffffffffffffffffffffffffffffffff166108fc836fffffffffffffffffffffffffffffffff169081150290604051600060405180830381858888f193505050501515611a6e57600080fd5b5b600083600f0160006101000a8154816fffffffffffffffffffffffffffffffff02191690836fffffffffffffffffffffffffffffffff160217905550600083600c0160006101000a81548173ffffffffffffffffffffffffffffffffffffffff021916908373ffffffffffffffffffffffffffffffffffffffff160217905550600083600b0160006101000a8154816fffffffffffffffffffffffffffffffff02191690836fffffffffffffffffffffffffffffffff160217905550338360000160006101000a81548173ffffffffffffffffffffffffffffffffffffffff021916908373ffffffffffffffffffffffffffffffffffffffff160217905550816fffffffffffffffffffffffffffffffff163403600160008282540192505081905550600193505b505050919050565b3373ffffffffffffffffffffffffffffffffffffffff166000809054906101000a900473ffffffffffffffffffffffffffffffffffffffff1673ffffffffffffffffffffffffffffffffffffffff16141515611bfa57600080fd5b6000809054906101000a900473ffffffffffffffffffffffffffffffffffffffff1673ffffffffffffffffffffffffffffffffffffffff166108fc6001549081150290604051600060405180830381858888f193505050501515611c5d57600080fd5b565b600080826127108162ffffff161015611cf757600260008562ffffff1662ffffff1681526020019081526020016000209150600082600f0160009054906101000a90046fffffffffffffffffffffffffffffffff166fffffffffffffffffffffffffffffffff1614151515611cd357600080fd5b81600f0160009054906101000a90046fffffffffffffffffffffffffffffffff1692505b5050919050565b611d06612613565b6000806000806064600a8762ffffff16811515611d1f57fe5b040287016127108162ffffff161015611dfc57600a870288019350600a8762ffffff16811515611d4b57fe5b069250600091505b600a8262ffffff161015611dbc576002600083860162ffffff1662ffffff1681526020019081526020016000206001018362ffffff16600a81101515611d9557fe5b0154858362ffffff16600a81101515611daa57fe5b01819055508180600101925050611d53565b84600a806020026040519081016040528092919082600a8015611df4576020028201915b815481526020019060010190808311611de0575b505050505095505b505050505092915050565b600080846127108162ffffff16101561205757600260008762ffffff1662ffffff1681526020019081526020016000209150600082600f0160009054906101000a90046fffffffffffffffffffffffffffffffff166fffffffffffffffffffffffffffffffff1614158015611eb75750600082600c0160009054906101000a900473ffffffffffffffffffffffffffffffffffffffff1673ffffffffffffffffffffffffffffffffffffffff1614155b8015611ec657504282600e0154105b15611f1057600082600c0160006101000a81548173ffffffffffffffffffffffffffffffffffffffff021916908373ffffffffffffffffffffffffffffffffffffffff1602179055505b6000856fffffffffffffffffffffffffffffffff1614151515611f3257600080fd5b8160000160009054906101000a900473ffffffffffffffffffffffffffffffffffffffff1673ffffffffffffffffffffffffffffffffffffffff163373ffffffffffffffffffffffffffffffffffffffff16141515611f9057600080fd5b600082600c0160009054906101000a900473ffffffffffffffffffffffffffffffffffffffff1673ffffffffffffffffffffffffffffffffffffffff16141515611fd957600080fd5b6000846fffffffffffffffffffffffffffffffff16111515611ffa57600080fd5b8482600f0160006101000a8154816fffffffffffffffffffffffffffffffff02191690836fffffffffffffffffffffffffffffffff160217905550836fffffffffffffffffffffffffffffffff16420182600d0181905550600192505b50509392505050565b600080846127108162ffffff1610156122df57600260008762ffffff1662ffffff1681526020019081526020016000209150600082600f0160009054906101000a90046fffffffffffffffffffffffffffffffff166fffffffffffffffffffffffffffffffff16141580156121105750600082600c0160009054906101000a900473ffffffffffffffffffffffffffffffffffffffff1673ffffffffffffffffffffffffffffffffffffffff1614155b801561211f57504282600e0154105b1561216957600082600c0160006101000a81548173ffffffffffffffffffffffffffffffffffffffff021916908373ffffffffffffffffffffffffffffffffffffffff1602179055505b8160000160009054906101000a900473ffffffffffffffffffffffffffffffffffffffff1673ffffffffffffffffffffffffffffffffffffffff163373ffffffffffffffffffffffffffffffffffffffff161415156121c757600080fd5b600082600c0160009054906101000a900473ffffffffffffffffffffffffffffffffffffffff1673ffffffffffffffffffffffffffffffffffffffff1614151561221057600080fd5b831561229757600082600f0160006101000a8154816fffffffffffffffffffffffffffffffff02191690836fffffffffffffffffffffffffffffffff160217905550600082600c0160006101000a81548173ffffffffffffffffffffffffffffffffffffffff021916908373ffffffffffffffffffffffffffffffffffffffff1602179055505b84156122da57600082600b0160006101000a8154816fffffffffffffffffffffffffffffffff02191690836fffffffffffffffffffffffffffffffff1602179055505b600192505b50509392505050565b3373ffffffffffffffffffffffffffffffffffffffff166000809054906101000a900473ffffffffffffffffffffffffffffffffffffffff1673ffffffffffffffffffffffffffffffffffffffff1614151561234357600080fd5b806000806101000a81548173ffffffffffffffffffffffffffffffffffffffff021916908373ffffffffffffffffffffffffffffffffffffffff16021790555050565b600080836127108162ffffff16101561260b57600260008662ffffff1662ffffff1681526020019081526020016000209150600082600f0160009054906101000a90046fffffffffffffffffffffffffffffffff166fffffffffffffffffffffffffffffffff16141580156124365750600082600c0160009054906101000a900473ffffffffffffffffffffffffffffffffffffffff1673ffffffffffffffffffffffffffffffffffffffff1614155b801561244557504282600e0154105b1561248f57600082600c0160006101000a81548173ffffffffffffffffffffffffffffffffffffffff021916908373ffffffffffffffffffffffffffffffffffffffff1602179055505b8160000160009054906101000a900473ffffffffffffffffffffffffffffffffffffffff1673ffffffffffffffffffffffffffffffffffffffff163373ffffffffffffffffffffffffffffffffffffffff161480156125285750600082600c0160009054906101000a900473ffffffffffffffffffffffffffffffffffffffff1673ffffffffffffffffffffffffffffffffffffffff16145b80612582575081600c0160009054906101000a900473ffffffffffffffffffffffffffffffffffffffff1673ffffffffffffffffffffffffffffffffffffffff163373ffffffffffffffffffffffffffffffffffffffff16145b151561258d57600080fd5b838260010190600a6125a09291906126ac565b508462ffffff167f81d0c495828860188f80dfcdfc935bb87a3902206418ab9b5d3080c4bfe3cda0856040518082600a60200280838360005b838110156125f45780820151818401526020810190506125d9565b5050505090500191505060405180910390a2600192505b505092915050565b61014060405190810160405280600a905b60008152602001906001900390816126245790505090565b8260028101928215612671579160200282015b8281111561267057825182906000191690559160200191906001019061264f565b5b50905061267e91906126ec565b5090565b60408051908101604052806002905b60008019168152602001906001900390816126915790505090565b82600a81019282156126db579160200282015b828111156126da5782518255916020019190600101906126bf565b5b5090506126e89190612711565b5090565b61270e91905b8082111561270a5760008160009055506001016126f2565b5090565b90565b61273391905b8082111561272f576000816000905550600101612717565b5090565b905600a165627a7a723058200c95928502feb5a183159c688f98c5196160c2f2e847c8beacbcf637f9a2c3340029",
  "source": "pragma solidity ^0.4.2;\n\ncontract VirtualRealEstate {\n    address owner;\n    uint256 ownerEth = 0;\n    \n    //Mapping of propertyID to property\n    mapping (uint24 => Property) map;\n    //propertyOwner to link\n    mapping (address => bytes32[2]) ownerLink;\n    //propertyRenter to link\n    mapping (address => bytes32[2]) ownerHoverText;\n    \n    uint128 DEFAULT_PRICE = 100000000000000000;\n    \n    uint128 USER_BUY_CUT_PERCENT = 98; //%\n    uint128 USER_RENT_CUT_PERCENT = 98; //%;\n    \n    event PropertyColorUpdate(uint24 indexed property, uint256[10] colors);\n    \n    struct Property {\n        address owner;\n        uint256[10] colors; //10x10 rgb pixel colors per property\n        uint128 salePrice;\n        address renter;\n        uint256 rentAvailableUntil;\n        uint256 rentedUntil;\n        uint128 rentPrice;\n    }\n    \n    modifier ownerOnly() {\n        require(owner == msg.sender);\n        _;\n    }\n    \n    modifier validPropertyID(uint24 propertyID) {\n        if (propertyID < 10000) {\n            _;\n        }\n    }\n    \n    function VirtualRealEstate() public {\n        owner = msg.sender;\n    }\n    function setHoverText(bytes32[2] text) public {\n        ownerHoverText[msg.sender] = text;\n    }\n    function setLink(bytes32[2] link) public {\n        ownerLink[msg.sender] = link;\n    }\n    \n    function getForSalePrice(uint24 propertyID) public validPropertyID(propertyID) view returns(uint128) {\n        Property storage property = map[propertyID];\n        require(property.salePrice != 0);\n        return property.salePrice;\n    }\n    \n    function getForRentPrice(uint24 propertyID) public validPropertyID(propertyID) view returns(uint128) {\n        Property storage property = map[propertyID];\n        require(property.rentPrice != 0);\n        return property.rentPrice;\n    }\n    function getHoverText(uint24 propertyID) public validPropertyID(propertyID) view returns(bytes32[2]) {\n        Property storage property = map[propertyID];\n        \n        //Must have a owner or renter, and that owner/renter must have a short or long hover text\n        require(property.renter != 0 || property.owner != 0);\n        address propertyResident;\n        if (property.renter == 0) {\n            propertyResident = property.owner;\n        } else {\n            propertyResident = property.renter;\n        }\n        return ownerHoverText[propertyResident];\n    }\n    \n    function getLink(uint24 propertyID) public validPropertyID(propertyID) view returns(bytes32[2]) {\n        Property storage property = map[propertyID];\n        //Must have a owner or renter, and that owner/renter must have a short or long hover text\n        require(property.renter != 0 || property.owner != 0);\n        address propertyResident;\n        if (property.renter == 0) {\n            propertyResident = property.owner;\n        } else {\n            propertyResident = property.renter;\n        }\n        return ownerLink[propertyResident];\n    }\n    \n    function getPropertyColorsOfRow(uint24 x, uint24 row) public validPropertyID(x + (row / 10) * 100) view returns(uint256[10]) {\n        uint256[10] result;\n        uint24 propertyID = x + row * 10;\n        uint24 pixelRow = row % 10;\n        for(uint24 i = 0; i < 10; i++) {\n            result[i] = map[propertyID + i].colors[pixelRow];\n        }\n        return result;\n    }\n    \n    function getPropertyColors(uint24 propertyID) public validPropertyID(propertyID) view returns(uint256[10]) {\n        return map[propertyID].colors;\n    }\n    \n    function getPropertyData(uint24 propertyID) public validPropertyID(propertyID) view returns(address, uint128, address, uint256, uint256, uint128) {\n        Property storage property = map[propertyID];\n        return (property.owner, property.salePrice, property.renter, property.rentAvailableUntil, property.rentedUntil, property.rentPrice);\n    }\n    \n    function setColors(uint24 propertyID, uint256[10] newColors) public validPropertyID(propertyID) returns(bool) {\n        Property storage property = map[propertyID];\n        \n        if (property.rentPrice != 0 && property.renter != 0 && property.rentedUntil < now) {\n            property.renter = 0;\n        }\n        \n        require((msg.sender == property.owner && property.renter == 0) || (msg.sender == property.renter));\n        \n        property.colors = newColors;\n        \n        PropertyColorUpdate(propertyID, newColors);\n        \n        return true;\n    }\n    \n    //Use Case: Buyer wants to buy a property\n    function buyProperty(uint24 propertyID) public validPropertyID(propertyID) payable returns(bool) {\n        //If this is the first ever purchase, the property hasn't been made yet, property.owner is just default\n        if (map[propertyID].owner == 0) {\n            map[propertyID].owner = owner;\n            map[propertyID].salePrice = DEFAULT_PRICE;\n        }\n        \n        Property storage property = map[propertyID];\n      \n        if (property.rentPrice != 0 && property.renter != 0 && property.rentedUntil < now) {\n            property.renter = 0;\n        }\n      \n        require(property.salePrice != 0);//property must be for sale\n        require(property.renter == 0);//property cannot be being rented\n        require(msg.value >= property.salePrice);//Amount paid must be at least the price\n      \n        //User gets the majority of the listed price's sale\n        uint128 amountTransfered = 0;\n        \n        if (property.owner != 0) {\n            amountTransfered = property.salePrice * USER_BUY_CUT_PERCENT / 100;\n            property.owner.transfer(amountTransfered);\n        }\n        \n        property.rentPrice = 0;\n        property.renter = 0;\n        property.salePrice = 0;\n        property.owner = msg.sender;\n        \n        ownerEth += msg.value - amountTransfered;\n        \n        return true;\n    }\n    \n    //Use Case: Renter wants to rent a property\n    function rentProperty(uint24 propertyID) public validPropertyID(propertyID) payable returns(bool) {\n        Property storage property = map[propertyID];\n        \n        //How many units they paid to rent\n        uint256 timeToRent = msg.value / property.rentPrice;\n        \n        if (property.rentPrice != 0 && property.renter != 0 && property.rentedUntil < now) {\n            property.renter = 0;\n        }\n      \n        require(property.owner != 0); //Must have been owned\n        require(property.rentPrice != 0);//property must be for sale\n        require(timeToRent >= 1);//The renting must be for at least one unit\n        require(property.renter == 0);//property cannot be being rented already\n      \n        //User gets the majority of the listed price's sale\n        uint256 amountTransfered = msg.value * USER_RENT_CUT_PERCENT / 100;\n        \n        property.owner.transfer(amountTransfered);\n        \n        property.renter = msg.sender;\n      \n        if (property.rentAvailableUntil < now + timeToRent) {\n            property.rentedUntil = property.rentAvailableUntil;\n        } else {\n            property.rentedUntil = now + timeToRent;\n        }\n        \n        ownerEth += msg.value - amountTransfered;\n        \n        return true;\n    }\n    \n    //Use Case: Renter wants to stop renting the property\n    function stopRenting(uint24 propertyID) public validPropertyID(propertyID) returns(bool) {\n        Property storage property = map[propertyID];\n        \n        require(msg.sender == property.renter);\n        \n        property.renter = 0;\n        \n        return true;\n    }\n    \n    //Use Case: Owner of a property lists for sale at a given price\n    function listForSale(uint24 propertyID, uint128 price ) public validPropertyID(propertyID) returns(bool) {\n        Property storage property = map[propertyID];\n      \n        require(price != 0);\n      \n        if (property.rentPrice != 0 && property.renter != 0 && property.rentedUntil < now) {\n            property.renter = 0;\n        }\n      \n        require(msg.sender == property.owner); //Must be the owner\n        require(property.renter == 0); //Must not currently be already rented out\n        //You can listForSale an already listed item to update the listing\n        property.salePrice = price;\n        \n        return true;\n    }\n    //Use Case: Owner of a property lists for rent at a given price\n    function listForRent(uint24 propertyID, uint128 rentPrice, uint128 rentDuration) public validPropertyID(propertyID) returns(bool)  {\n        Property storage property = map[propertyID];\n      \n        if (property.rentPrice != 0 && property.renter != 0 && property.rentedUntil < now) {\n            property.renter = 0;\n        }\n      \n        require(rentPrice != 0);\n        require(msg.sender == property.owner); //Must be the owner\n        require(property.renter == 0); //Must not currently be already rented out\n        require(rentDuration > 0); //Must be renting for a proper duration\n        //You can listForRent an already listed item to update the listing\n      \n        property.rentPrice = rentPrice;\n        property.rentAvailableUntil = now + rentDuration;\n        \n        return true;\n    }\n    //Use Case: Owner of a property delists from both renting offer and sale offer\n    function delist(uint24 propertyID, bool delistFromSale, bool delistFromRent) public validPropertyID(propertyID) returns(bool) {\n        Property storage property = map[propertyID];\n      \n        if (property.rentPrice != 0 && property.renter != 0 && property.rentedUntil < now) {\n            property.renter = 0;\n        }\n        \n        require(msg.sender == property.owner); //Must be the owner\n        require(property.renter == 0); //Must have no current renter\n        \n        if (delistFromRent) {\n            property.rentPrice = 0;\n            property.renter = 0;\n        }\n        if (delistFromSale) {\n            property.salePrice = 0;\n        }\n        return true;\n    }\n    \n    //////////////////////////////////////////////////////\n    ////Owner Sections: Meta-Functions For Owner only/////\n    //////////////////////////////////////////////////////\n    function withdraw(uint256 amount) public ownerOnly() {\n        if (amount <= ownerEth) {\n            owner.transfer(amount);\n        }\n    }\n    \n    function withdrawAll() public ownerOnly() {\n        owner.transfer(ownerEth);\n    }\n    \n    function changeOwners(address newOwner) public ownerOnly() {\n        owner = newOwner;\n    }\n    \n    function changeDefaultPrice(uint128 defaultPrice) public ownerOnly() {\n        DEFAULT_PRICE = defaultPrice;\n    }\n}",
  "sourcePath": "/Users/jaegarsarauer/Documents/DATA/EthereumSite/winning/PixelRealEstate-Server/contracts/VirtualRealEstate.sol",
  "compiler": {
    "name": "solc",
    "version": "0.4.18+commit.9cf6e910.Emscripten.clang"
  },
  "schemaVersion": "1.0.1",
  "updatedAt": "2018-01-12T21:44:01.903Z"
}